{
  "address": "0x5560Eb50028b9f6547a83b8fAa52Ab9CB315aC68",
  "_format": "hh-sol-artifact-1",
  "contractName": "EthereumPayoutManager",
  "sourceName": "contracts/payoutManagers/EthereumPayoutManager.sol",
  "abi": [
    {
      "inputs": [],
      "stateMutability": "nonpayable",
      "type": "constructor"
    },
    {
      "inputs": [],
      "name": "CustomNotImplemented",
      "type": "error"
    },
    {
      "inputs": [],
      "name": "ItemNotFound",
      "type": "error"
    },
    {
      "inputs": [],
      "name": "PayoutManagerDisabled",
      "type": "error"
    },
    {
      "anonymous": false,
      "inputs": [
        {
          "indexed": false,
          "internalType": "address",
          "name": "token",
          "type": "address"
        },
        {
          "indexed": false,
          "internalType": "address",
          "name": "pool",
          "type": "address"
        }
      ],
      "name": "AddItem",
      "type": "event"
    },
    {
      "anonymous": false,
      "inputs": [
        {
          "indexed": false,
          "internalType": "address",
          "name": "previousAdmin",
          "type": "address"
        },
        {
          "indexed": false,
          "internalType": "address",
          "name": "newAdmin",
          "type": "address"
        }
      ],
      "name": "AdminChanged",
      "type": "event"
    },
    {
      "anonymous": false,
      "inputs": [
        {
          "indexed": true,
          "internalType": "address",
          "name": "beacon",
          "type": "address"
        }
      ],
      "name": "BeaconUpgraded",
      "type": "event"
    },
    {
      "anonymous": false,
      "inputs": [
        {
          "indexed": false,
          "internalType": "bool",
          "name": "disabled",
          "type": "bool"
        }
      ],
      "name": "DisabledUpdated",
      "type": "event"
    },
    {
      "anonymous": false,
      "inputs": [
        {
          "indexed": false,
          "internalType": "uint8",
          "name": "version",
          "type": "uint8"
        }
      ],
      "name": "Initialized",
      "type": "event"
    },
    {
      "anonymous": false,
      "inputs": [
        {
          "indexed": false,
          "internalType": "string",
          "name": "dexName",
          "type": "string"
        },
        {
          "indexed": false,
          "internalType": "string",
          "name": "operation",
          "type": "string"
        },
        {
          "indexed": false,
          "internalType": "string",
          "name": "poolName",
          "type": "string"
        },
        {
          "indexed": false,
          "internalType": "address",
          "name": "pool",
          "type": "address"
        },
        {
          "indexed": false,
          "internalType": "address",
          "name": "token",
          "type": "address"
        },
        {
          "indexed": false,
          "internalType": "uint256",
          "name": "amount",
          "type": "uint256"
        },
        {
          "indexed": false,
          "internalType": "address",
          "name": "to",
          "type": "address"
        }
      ],
      "name": "PoolOperation",
      "type": "event"
    },
    {
      "anonymous": false,
      "inputs": [
        {
          "indexed": false,
          "internalType": "address",
          "name": "remoteHub",
          "type": "address"
        }
      ],
      "name": "RemoteHubUpdated",
      "type": "event"
    },
    {
      "anonymous": false,
      "inputs": [
        {
          "indexed": false,
          "internalType": "address",
          "name": "token",
          "type": "address"
        },
        {
          "indexed": false,
          "internalType": "address",
          "name": "pool",
          "type": "address"
        }
      ],
      "name": "RemoveItem",
      "type": "event"
    },
    {
      "anonymous": false,
      "inputs": [
        {
          "indexed": false,
          "internalType": "address",
          "name": "rewardWallet",
          "type": "address"
        }
      ],
      "name": "RewardWalletUpdated",
      "type": "event"
    },
    {
      "anonymous": false,
      "inputs": [
        {
          "indexed": true,
          "internalType": "bytes32",
          "name": "role",
          "type": "bytes32"
        },
        {
          "indexed": true,
          "internalType": "bytes32",
          "name": "previousAdminRole",
          "type": "bytes32"
        },
        {
          "indexed": true,
          "internalType": "bytes32",
          "name": "newAdminRole",
          "type": "bytes32"
        }
      ],
      "name": "RoleAdminChanged",
      "type": "event"
    },
    {
      "anonymous": false,
      "inputs": [
        {
          "indexed": true,
          "internalType": "bytes32",
          "name": "role",
          "type": "bytes32"
        },
        {
          "indexed": true,
          "internalType": "address",
          "name": "account",
          "type": "address"
        },
        {
          "indexed": true,
          "internalType": "address",
          "name": "sender",
          "type": "address"
        }
      ],
      "name": "RoleGranted",
      "type": "event"
    },
    {
      "anonymous": false,
      "inputs": [
        {
          "indexed": true,
          "internalType": "bytes32",
          "name": "role",
          "type": "bytes32"
        },
        {
          "indexed": true,
          "internalType": "address",
          "name": "account",
          "type": "address"
        },
        {
          "indexed": true,
          "internalType": "address",
          "name": "sender",
          "type": "address"
        }
      ],
      "name": "RoleRevoked",
      "type": "event"
    },
    {
      "anonymous": false,
      "inputs": [
        {
          "indexed": true,
          "internalType": "address",
          "name": "implementation",
          "type": "address"
        }
      ],
      "name": "Upgraded",
      "type": "event"
    },
    {
      "inputs": [],
      "name": "DEFAULT_ADMIN_ROLE",
      "outputs": [
        {
          "internalType": "bytes32",
          "name": "",
          "type": "bytes32"
        }
      ],
      "stateMutability": "view",
      "type": "function"
    },
    {
      "inputs": [],
      "name": "UPGRADER_ROLE",
      "outputs": [
        {
          "internalType": "bytes32",
          "name": "",
          "type": "bytes32"
        }
      ],
      "stateMutability": "pure",
      "type": "function"
    },
    {
      "inputs": [
        {
          "components": [
            {
              "internalType": "address",
              "name": "pool",
              "type": "address"
            },
            {
              "internalType": "address",
              "name": "token",
              "type": "address"
            },
            {
              "internalType": "string",
              "name": "poolName",
              "type": "string"
            },
            {
              "internalType": "address",
              "name": "bribe",
              "type": "address"
            },
            {
              "internalType": "enum PayoutManager.Operation",
              "name": "operation",
              "type": "uint8"
            },
            {
              "internalType": "address",
              "name": "to",
              "type": "address"
            },
            {
              "internalType": "string",
              "name": "dexName",
              "type": "string"
            },
            {
              "internalType": "uint24",
              "name": "feePercent",
              "type": "uint24"
            },
            {
              "internalType": "address",
              "name": "feeReceiver",
              "type": "address"
            },
            {
              "internalType": "uint256[10]",
              "name": "__gap",
              "type": "uint256[10]"
            }
          ],
          "internalType": "struct PayoutManager.Item",
          "name": "item",
          "type": "tuple"
        }
      ],
      "name": "addItem",
      "outputs": [],
      "stateMutability": "nonpayable",
      "type": "function"
    },
    {
      "inputs": [
        {
          "components": [
            {
              "internalType": "address",
              "name": "pool",
              "type": "address"
            },
            {
              "internalType": "address",
              "name": "token",
              "type": "address"
            },
            {
              "internalType": "string",
              "name": "poolName",
              "type": "string"
            },
            {
              "internalType": "address",
              "name": "bribe",
              "type": "address"
            },
            {
              "internalType": "enum PayoutManager.Operation",
              "name": "operation",
              "type": "uint8"
            },
            {
              "internalType": "address",
              "name": "to",
              "type": "address"
            },
            {
              "internalType": "string",
              "name": "dexName",
              "type": "string"
            },
            {
              "internalType": "uint24",
              "name": "feePercent",
              "type": "uint24"
            },
            {
              "internalType": "address",
              "name": "feeReceiver",
              "type": "address"
            },
            {
              "internalType": "uint256[10]",
              "name": "__gap",
              "type": "uint256[10]"
            }
          ],
          "internalType": "struct PayoutManager.Item[]",
          "name": "_items",
          "type": "tuple[]"
        }
      ],
      "name": "addItems",
      "outputs": [],
      "stateMutability": "nonpayable",
      "type": "function"
    },
    {
      "inputs": [],
      "name": "disabled",
      "outputs": [
        {
          "internalType": "bool",
          "name": "",
          "type": "bool"
        }
      ],
      "stateMutability": "view",
      "type": "function"
    },
    {
      "inputs": [
        {
          "internalType": "address",
          "name": "pool",
          "type": "address"
        }
      ],
      "name": "findItemsByPool",
      "outputs": [
        {
          "components": [
            {
              "internalType": "address",
              "name": "pool",
              "type": "address"
            },
            {
              "internalType": "address",
              "name": "token",
              "type": "address"
            },
            {
              "internalType": "string",
              "name": "poolName",
              "type": "string"
            },
            {
              "internalType": "address",
              "name": "bribe",
              "type": "address"
            },
            {
              "internalType": "enum PayoutManager.Operation",
              "name": "operation",
              "type": "uint8"
            },
            {
              "internalType": "address",
              "name": "to",
              "type": "address"
            },
            {
              "internalType": "string",
              "name": "dexName",
              "type": "string"
            },
            {
              "internalType": "uint24",
              "name": "feePercent",
              "type": "uint24"
            },
            {
              "internalType": "address",
              "name": "feeReceiver",
              "type": "address"
            },
            {
              "internalType": "uint256[10]",
              "name": "__gap",
              "type": "uint256[10]"
            }
          ],
          "internalType": "struct PayoutManager.Item[]",
          "name": "",
          "type": "tuple[]"
        }
      ],
      "stateMutability": "view",
      "type": "function"
    },
    {
      "inputs": [],
      "name": "getItems",
      "outputs": [
        {
          "components": [
            {
              "internalType": "address",
              "name": "pool",
              "type": "address"
            },
            {
              "internalType": "address",
              "name": "token",
              "type": "address"
            },
            {
              "internalType": "string",
              "name": "poolName",
              "type": "string"
            },
            {
              "internalType": "address",
              "name": "bribe",
              "type": "address"
            },
            {
              "internalType": "enum PayoutManager.Operation",
              "name": "operation",
              "type": "uint8"
            },
            {
              "internalType": "address",
              "name": "to",
              "type": "address"
            },
            {
              "internalType": "string",
              "name": "dexName",
              "type": "string"
            },
            {
              "internalType": "uint24",
              "name": "feePercent",
              "type": "uint24"
            },
            {
              "internalType": "address",
              "name": "feeReceiver",
              "type": "address"
            },
            {
              "internalType": "uint256[10]",
              "name": "__gap",
              "type": "uint256[10]"
            }
          ],
          "internalType": "struct PayoutManager.Item[]",
          "name": "",
          "type": "tuple[]"
        }
      ],
      "stateMutability": "view",
      "type": "function"
    },
    {
      "inputs": [],
      "name": "getItemsLength",
      "outputs": [
        {
          "internalType": "uint256",
          "name": "",
          "type": "uint256"
        }
      ],
      "stateMutability": "view",
      "type": "function"
    },
    {
      "inputs": [
        {
          "internalType": "bytes32",
          "name": "role",
          "type": "bytes32"
        }
      ],
      "name": "getRoleAdmin",
      "outputs": [
        {
          "internalType": "bytes32",
          "name": "",
          "type": "bytes32"
        }
      ],
      "stateMutability": "view",
      "type": "function"
    },
    {
      "inputs": [
        {
          "internalType": "bytes32",
          "name": "role",
          "type": "bytes32"
        },
        {
          "internalType": "address",
          "name": "account",
          "type": "address"
        }
      ],
      "name": "grantRole",
      "outputs": [],
      "stateMutability": "nonpayable",
      "type": "function"
    },
    {
      "inputs": [
        {
          "internalType": "bytes32",
          "name": "role",
          "type": "bytes32"
        },
        {
          "internalType": "address",
          "name": "account",
          "type": "address"
        }
      ],
      "name": "hasRole",
      "outputs": [
        {
          "internalType": "bool",
          "name": "",
          "type": "bool"
        }
      ],
      "stateMutability": "view",
      "type": "function"
    },
    {
      "inputs": [
        {
          "internalType": "address",
          "name": "_remoteHub",
          "type": "address"
        },
        {
          "internalType": "address",
          "name": "_rewardWallet",
          "type": "address"
        }
      ],
      "name": "initialize",
      "outputs": [],
      "stateMutability": "nonpayable",
      "type": "function"
    },
    {
      "inputs": [
        {
          "internalType": "uint256",
          "name": "",
          "type": "uint256"
        }
      ],
      "name": "items",
      "outputs": [
        {
          "internalType": "address",
          "name": "pool",
          "type": "address"
        },
        {
          "internalType": "address",
          "name": "token",
          "type": "address"
        },
        {
          "internalType": "string",
          "name": "poolName",
          "type": "string"
        },
        {
          "internalType": "address",
          "name": "bribe",
          "type": "address"
        },
        {
          "internalType": "enum PayoutManager.Operation",
          "name": "operation",
          "type": "uint8"
        },
        {
          "internalType": "address",
          "name": "to",
          "type": "address"
        },
        {
          "internalType": "string",
          "name": "dexName",
          "type": "string"
        },
        {
          "internalType": "uint24",
          "name": "feePercent",
          "type": "uint24"
        },
        {
          "internalType": "address",
          "name": "feeReceiver",
          "type": "address"
        }
      ],
      "stateMutability": "view",
      "type": "function"
    },
    {
      "inputs": [
        {
          "internalType": "address",
          "name": "token",
          "type": "address"
        },
        {
          "components": [
            {
              "internalType": "address",
              "name": "pool",
              "type": "address"
            },
            {
              "internalType": "uint256",
              "name": "amount",
              "type": "uint256"
            },
            {
              "internalType": "uint256[10]",
              "name": "__gap",
              "type": "uint256[10]"
            }
          ],
          "internalType": "struct NonRebaseInfo[]",
          "name": "nonRebaseInfo",
          "type": "tuple[]"
        }
      ],
      "name": "payoutDone",
      "outputs": [],
      "stateMutability": "nonpayable",
      "type": "function"
    },
    {
      "inputs": [],
      "name": "proxiableUUID",
      "outputs": [
        {
          "internalType": "bytes32",
          "name": "",
          "type": "bytes32"
        }
      ],
      "stateMutability": "view",
      "type": "function"
    },
    {
      "inputs": [],
      "name": "remoteHub",
      "outputs": [
        {
          "internalType": "contract IRemoteHub",
          "name": "",
          "type": "address"
        }
      ],
      "stateMutability": "view",
      "type": "function"
    },
    {
      "inputs": [
        {
          "internalType": "address",
          "name": "token",
          "type": "address"
        },
        {
          "internalType": "address",
          "name": "pool",
          "type": "address"
        }
      ],
      "name": "removeItem",
      "outputs": [],
      "stateMutability": "nonpayable",
      "type": "function"
    },
    {
      "inputs": [],
      "name": "removeItems",
      "outputs": [],
      "stateMutability": "nonpayable",
      "type": "function"
    },
    {
      "inputs": [
        {
          "internalType": "bytes32",
          "name": "role",
          "type": "bytes32"
        },
        {
          "internalType": "address",
          "name": "account",
          "type": "address"
        }
      ],
      "name": "renounceRole",
      "outputs": [],
      "stateMutability": "nonpayable",
      "type": "function"
    },
    {
      "inputs": [
        {
          "internalType": "bytes32",
          "name": "role",
          "type": "bytes32"
        },
        {
          "internalType": "address",
          "name": "account",
          "type": "address"
        }
      ],
      "name": "revokeRole",
      "outputs": [],
      "stateMutability": "nonpayable",
      "type": "function"
    },
    {
      "inputs": [],
      "name": "rewardWallet",
      "outputs": [
        {
          "internalType": "address",
          "name": "",
          "type": "address"
        }
      ],
      "stateMutability": "view",
      "type": "function"
    },
    {
      "inputs": [
        {
          "internalType": "bool",
          "name": "_disabled",
          "type": "bool"
        }
      ],
      "name": "setDisabled",
      "outputs": [],
      "stateMutability": "nonpayable",
      "type": "function"
    },
    {
      "inputs": [
        {
          "internalType": "address",
          "name": "_remoteHub",
          "type": "address"
        }
      ],
      "name": "setRemoteHub",
      "outputs": [],
      "stateMutability": "nonpayable",
      "type": "function"
    },
    {
      "inputs": [
        {
          "internalType": "address",
          "name": "_rewardWallet",
          "type": "address"
        }
      ],
      "name": "setRewardWallet",
      "outputs": [],
      "stateMutability": "nonpayable",
      "type": "function"
    },
    {
      "inputs": [
        {
          "internalType": "bytes4",
          "name": "interfaceId",
          "type": "bytes4"
        }
      ],
      "name": "supportsInterface",
      "outputs": [
        {
          "internalType": "bool",
          "name": "",
          "type": "bool"
        }
      ],
      "stateMutability": "view",
      "type": "function"
    },
    {
      "inputs": [
        {
          "internalType": "address",
          "name": "newImplementation",
          "type": "address"
        }
      ],
      "name": "upgradeTo",
      "outputs": [],
      "stateMutability": "nonpayable",
      "type": "function"
    },
    {
      "inputs": [
        {
          "internalType": "address",
          "name": "newImplementation",
          "type": "address"
        },
        {
          "internalType": "bytes",
          "name": "data",
          "type": "bytes"
        }
      ],
      "name": "upgradeToAndCall",
      "outputs": [],
      "stateMutability": "payable",
      "type": "function"
    }
  ],
  "bytecode": "0x60a0604052306080523480156200001557600080fd5b506200002062000026565b620000e7565b600054610100900460ff1615620000935760405162461bcd60e51b815260206004820152602760248201527f496e697469616c697a61626c653a20636f6e747261637420697320696e697469604482015266616c697a696e6760c81b606482015260840160405180910390fd5b60005460ff90811614620000e5576000805460ff191660ff9081179091556040519081527f7f26b83ff96e1f2b6a682f133852f6798a09c465da95921460cefb38474024989060200160405180910390a15b565b608051614d4f6200011f60003960008181610a4101528181610a810152818161130a0152818161134a01526113d90152614d4f6000f3fe60806040526004361061019c5760003560e01c80635958621e116100ec578063bfb231d21161008a578063d547741f11610064578063d547741f146104ad578063ee070805146104cd578063f72c0d8b146104e7578063fb75b2c71461050857600080fd5b8063bfb231d214610438578063c53963e61461046d578063d0b11c1e1461048d57600080fd5b806391d14854116100c657806391d14854146103a65780639423f215146103c65780639d433fb514610403578063a217fddf1461042357600080fd5b80635958621e146103515780636bc82839146103715780636c5a7d1e1461038657600080fd5b80633659cfe611610159578063410d59cc11610133578063410d59cc146102f4578063485cc955146103095780634f1ef2861461032957806352d1902d1461033c57600080fd5b80633659cfe6146102875780633ca34eae146102a7578063405a11dc146102d457600080fd5b806301ffc9a7146101a15780630363b09a146101d6578063194f4795146101f8578063248a9ca3146102175780632f2ff15d1461024757806336568abe14610267575b600080fd5b3480156101ad57600080fd5b506101c16101bc366004613f20565b610528565b60405190151581526020015b60405180910390f35b3480156101e257600080fd5b506101f66101f1366004614074565b61055f565b005b34801561020457600080fd5b5060fb545b6040519081526020016101cd565b34801561022357600080fd5b5061020961023236600461415d565b60009081526065602052604090206001015490565b34801561025357600080fd5b506101f6610262366004614176565b610994565b34801561027357600080fd5b506101f6610282366004614176565b6109b9565b34801561029357600080fd5b506101f66102a23660046141a6565b610a37565b3480156102b357600080fd5b506102c76102c23660046141a6565b610b16565b6040516101cd919061426e565b3480156102e057600080fd5b506101f66102ef3660046141a6565b610ea4565b34801561030057600080fd5b506102c7610f85565b34801561031557600080fd5b506101f66103243660046143a3565b6111ec565b6101f6610337366004614428565b611300565b34801561034857600080fd5b506102096113cc565b34801561035d57600080fd5b506101f661036c3660046141a6565b61147f565b34801561037d57600080fd5b506101f6611551565b34801561039257600080fd5b506101f66103a1366004614499565b6119c9565b3480156103b257600080fd5b506101c16103c1366004614176565b611b11565b3480156103d257600080fd5b5060fc546103eb9061010090046001600160a01b031681565b6040516001600160a01b0390911681526020016101cd565b34801561040f57600080fd5b506101f661041e3660046145f2565b611b3c565b34801561042f57600080fd5b50610209600081565b34801561044457600080fd5b5061045861045336600461415d565b611c81565b6040516101cd999897969594939291906146a2565b34801561047957600080fd5b506101f66104883660046143a3565b611e20565b34801561049957600080fd5b506101f66104a8366004614727565b612771565b3480156104b957600080fd5b506101f66104c8366004614176565b613030565b3480156104d957600080fd5b5060fc546101c19060ff1681565b3480156104f357600080fd5b50600080516020614c93833981519152610209565b34801561051457600080fd5b5060fd546103eb906001600160a01b031681565b60006001600160e01b03198216637965db0b60e01b148061055957506301ffc9a760e01b6001600160e01b03198316145b92915050565b6105d161056a613055565b6001600160a01b031663bd0f10536040518163ffffffff1660e01b8152600401602060405180830381865afa1580156105a7573d6000803e3d6000fd5b505050506040513d601f19601f820116820180604052508101906105cb919061475b565b33611b11565b61062d5760405162461bcd60e51b815260206004820152602260248201527f43616c6c657220646f65736e277420686176652045584348414e47455220726f6044820152616c6560f01b60648201526084015b60405180910390fd5b60fc5460ff1615610651576040516375eda6df60e11b815260040160405180910390fd5b60005b60fb5481101561098f57600060fb828154811061067357610673614774565b60009182526020918290206040805161014081018252601190930290910180546001600160a01b03908116845260018201541693830193909352600283018054929392918401916106c39061478a565b80601f01602080910402602001604051908101604052809291908181526020018280546106ef9061478a565b801561073c5780601f106107115761010080835404028352916020019161073c565b820191906000526020600020905b81548152906001019060200180831161071f57829003601f168201915b50505091835250506003828101546001600160a01b0381166020840152604090920191600160a01b900460ff169081111561077957610779614213565b600381111561078a5761078a614213565b815260048201546001600160a01b031660208201526005820180546040909201916107b49061478a565b80601f01602080910402602001604051908101604052809291908181526020018280546107e09061478a565b801561082d5780601f106108025761010080835404028352916020019161082d565b820191906000526020600020905b81548152906001019060200180831161081057829003601f168201915b5050509183525050600682015462ffffff81166020830152630100000090046001600160a01b03166040808301919091528051610140810191829052606090920191906007840190600a9082845b81548152602001906001019080831161087b575050505050815250509050836001600160a01b031681602001516001600160a01b0316146108bc575061097f565b60005b835181101561097c5760008482815181106108dc576108dc614774565b6020026020010151905080600001516001600160a01b031683600001516001600160a01b03161461090d575061096c565b60008360800151600381111561092557610925614213565b036109395761093481846130d2565b61096a565b60028360800151600381111561095157610951614213565b036109605761093481846131eb565b61096a818461343e565b505b610975816147da565b90506108bf565b50505b610988816147da565b9050610654565b505050565b6000828152606560205260409020600101546109af81613457565b61098f8383613461565b6001600160a01b0381163314610a295760405162461bcd60e51b815260206004820152602f60248201527f416363657373436f6e74726f6c3a2063616e206f6e6c792072656e6f756e636560448201526e103937b632b9903337b91039b2b63360891b6064820152608401610624565b610a3382826134e7565b5050565b6001600160a01b037f0000000000000000000000000000000000000000000000000000000000000000163003610a7f5760405162461bcd60e51b8152600401610624906147f3565b7f00000000000000000000000000000000000000000000000000000000000000006001600160a01b0316610ac8600080516020614cb3833981519152546001600160a01b031690565b6001600160a01b031614610aee5760405162461bcd60e51b81526004016106249061483f565b610af78161354e565b60408051600080825260208201909252610b1391839190613581565b50565b60606000805b60fb54811015610b8057836001600160a01b031660fb8281548110610b4357610b43614774565b60009182526020909120601190910201546001600160a01b031603610b705781610b6c816147da565b9250505b610b79816147da565b9050610b1c565b506000816001600160401b03811115610b9b57610b9b613f6f565b604051908082528060200260200182016040528015610bd457816020015b610bc1613e0c565b815260200190600190039081610bb95790505b5090506000805b60fb54811015610e9a57856001600160a01b031660fb8281548110610c0257610c02614774565b60009182526020909120601190910201546001600160a01b031603610e8a57600060fb8281548110610c3657610c36614774565b60009182526020918290206040805161014081018252601190930290910180546001600160a01b0390811684526001820154169383019390935260028301805492939291840191610c869061478a565b80601f0160208091040260200160405190810160405280929190818152602001828054610cb29061478a565b8015610cff5780601f10610cd457610100808354040283529160200191610cff565b820191906000526020600020905b815481529060010190602001808311610ce257829003601f168201915b50505091835250506003828101546001600160a01b0381166020840152604090920191600160a01b900460ff1690811115610d3c57610d3c614213565b6003811115610d4d57610d4d614213565b815260048201546001600160a01b03166020820152600582018054604090920191610d779061478a565b80601f0160208091040260200160405190810160405280929190818152602001828054610da39061478a565b8015610df05780601f10610dc557610100808354040283529160200191610df0565b820191906000526020600020905b815481529060010190602001808311610dd357829003601f168201915b5050509183525050600682015462ffffff81166020830152630100000090046001600160a01b03166040808301919091528051610140810191829052606090920191906007840190600a9082845b815481526020019060010190808311610e3e57505050505081525050905080848481518110610e6f57610e6f614774565b60200260200101819052508280610e85906147da565b935050505b610e93816147da565b9050610bdb565b5090949350505050565b610ebb600080516020614c938339815191526105cb565b610ed75760405162461bcd60e51b81526004016106249061488b565b6001600160a01b038116610f285760405162461bcd60e51b815260206004820152601860248201527716995c9bc81859191c995cdcc81b9bdd08185b1b1bddd95960421b6044820152606401610624565b60fc8054610100600160a81b0319166101006001600160a01b038416908102919091179091556040519081527f0acbcc2f890f48416af3a85d8a92e6b01a61ca13a98ccf21d101bf3fe06593fc906020015b60405180910390a150565b606060fb805480602002602001604051908101604052809291908181526020016000905b828210156111e357600084815260209081902060408051610140810182526011860290920180546001600160a01b03908116845260018201541693830193909352600283018054929392918401916110009061478a565b80601f016020809104026020016040519081016040528092919081815260200182805461102c9061478a565b80156110795780601f1061104e57610100808354040283529160200191611079565b820191906000526020600020905b81548152906001019060200180831161105c57829003601f168201915b50505091835250506003828101546001600160a01b0381166020840152604090920191600160a01b900460ff16908111156110b6576110b6614213565b60038111156110c7576110c7614213565b815260048201546001600160a01b031660208201526005820180546040909201916110f19061478a565b80601f016020809104026020016040519081016040528092919081815260200182805461111d9061478a565b801561116a5780601f1061113f5761010080835404028352916020019161116a565b820191906000526020600020905b81548152906001019060200180831161114d57829003601f168201915b5050509183525050600682015462ffffff81166020830152630100000090046001600160a01b03166040808301919091528051610140810191829052606090920191906007840190600a9082845b8154815260200190600101908083116111b85750505050508152505081526020019060010190610fa9565b50505050905090565b600054610100900460ff161580801561120c5750600054600160ff909116105b806112265750303b158015611226575060005460ff166001145b6112895760405162461bcd60e51b815260206004820152602e60248201527f496e697469616c697a61626c653a20636f6e747261637420697320616c72656160448201526d191e481a5b9a5d1a585b1a5e995960921b6064820152608401610624565b6000805460ff1916600117905580156112ac576000805461ff0019166101001790555b6112b683836136ec565b801561098f576000805461ff0019169055604051600181527f7f26b83ff96e1f2b6a682f133852f6798a09c465da95921460cefb38474024989060200160405180910390a1505050565b6001600160a01b037f00000000000000000000000000000000000000000000000000000000000000001630036113485760405162461bcd60e51b8152600401610624906147f3565b7f00000000000000000000000000000000000000000000000000000000000000006001600160a01b0316611391600080516020614cb3833981519152546001600160a01b031690565b6001600160a01b0316146113b75760405162461bcd60e51b81526004016106249061483f565b6113c08261354e565b610a3382826001613581565b6000306001600160a01b037f0000000000000000000000000000000000000000000000000000000000000000161461146c5760405162461bcd60e51b815260206004820152603860248201527f555550535570677261646561626c653a206d757374206e6f742062652063616c60448201527f6c6564207468726f7567682064656c656761746563616c6c00000000000000006064820152608401610624565b50600080516020614cb383398151915290565b611496600080516020614c938339815191526105cb565b6114b25760405162461bcd60e51b81526004016106249061488b565b6001600160a01b0381166115035760405162461bcd60e51b815260206004820152601860248201527716995c9bc81859191c995cdcc81b9bdd08185b1b1bddd95960421b6044820152606401610624565b60fd80546001600160a01b0319166001600160a01b0383169081179091556040519081527ff49ff3ce1d97db94f282d2e6c2759db33d65636b2f07ad4ae7c8e6f97aa7561590602001610f7a565b611559613055565b6001600160a01b03166391d1485461156f613055565b6001600160a01b031663497d91926040518163ffffffff1660e01b8152600401602060405180830381865afa1580156115ac573d6000803e3d6000fd5b505050506040513d601f19601f820116820180604052508101906115d0919061475b565b6040516001600160e01b031960e084901b1681526004810191909152336024820152604401602060405180830381865afa158015611612573d6000803e3d6000fd5b505050506040513d601f19601f8201168201806040525081019061163691906148d1565b6116525760405162461bcd60e51b8152600401610624906148ee565b60fb5460005b81811015610a3357600060fb60016116708486614930565b61167a9190614930565b8154811061168a5761168a614774565b60009182526020918290206040805161014081018252601190930290910180546001600160a01b03908116845260018201541693830193909352600283018054929392918401916116da9061478a565b80601f01602080910402602001604051908101604052809291908181526020018280546117069061478a565b80156117535780601f1061172857610100808354040283529160200191611753565b820191906000526020600020905b81548152906001019060200180831161173657829003601f168201915b50505091835250506003828101546001600160a01b0381166020840152604090920191600160a01b900460ff169081111561179057611790614213565b60038111156117a1576117a1614213565b815260048201546001600160a01b031660208201526005820180546040909201916117cb9061478a565b80601f01602080910402602001604051908101604052809291908181526020018280546117f79061478a565b80156118445780601f1061181957610100808354040283529160200191611844565b820191906000526020600020905b81548152906001019060200180831161182757829003601f168201915b5050509183525050600682015462ffffff81166020830152630100000090046001600160a01b03166040808301919091528051610140810191829052606090920191906007840190600a9082845b81548152602001906001019080831161189257505050505081525050905060fb8054806118c1576118c1614943565b60008281526020812060116000199093019283020180546001600160a01b031990811682556001820180549091169055906118ff6002830182613e65565b6003820180546001600160a81b03191690556004820180546001600160a01b0319169055611931600583016000613e65565b6006820180546001600160b81b0319169055611951600783016000613e9f565b5050905560208101518151604051635d90737960e01b81526001600160a01b039182166004820152911690635d90737990602401600060405180830381600087803b15801561199f57600080fd5b505af11580156119b3573d6000803e3d6000fd5b5050505050806119c2906147da565b9050611658565b6119d1613055565b6001600160a01b03166391d148546119e7613055565b6001600160a01b031663497d91926040518163ffffffff1660e01b8152600401602060405180830381865afa158015611a24573d6000803e3d6000fd5b505050506040513d601f19601f82011682018060405250810190611a48919061475b565b6040516001600160e01b031960e084901b1681526004810191909152336024820152604401602060405180830381865afa158015611a8a573d6000803e3d6000fd5b505050506040513d601f19601f82011682018060405250810190611aae91906148d1565b611aca5760405162461bcd60e51b8152600401610624906148ee565b60fc805460ff191682151590811790915560405160ff909116151581527f0e836a283085867e84aa4dfd94164de8ce61ee6d9e57dfae5e0fcf1eff8f268c90602001610f7a565b60009182526065602090815260408084206001600160a01b0393909316845291905290205460ff1690565b611b44613055565b6001600160a01b03166391d14854611b5a613055565b6001600160a01b031663497d91926040518163ffffffff1660e01b8152600401602060405180830381865afa158015611b97573d6000803e3d6000fd5b505050506040513d601f19601f82011682018060405250810190611bbb919061475b565b6040516001600160e01b031960e084901b1681526004810191909152336024820152604401602060405180830381865afa158015611bfd573d6000803e3d6000fd5b505050506040513d601f19601f82011682018060405250810190611c2191906148d1565b611c3d5760405162461bcd60e51b8152600401610624906148ee565b60005b8151811015610a33576000828281518110611c5d57611c5d614774565b60200260200101519050611c7081612771565b50611c7a816147da565b9050611c40565b60fb8181548110611c9157600080fd5b60009182526020909120601190910201805460018201546002830180546001600160a01b039384169550929091169291611cca9061478a565b80601f0160208091040260200160405190810160405280929190818152602001828054611cf69061478a565b8015611d435780601f10611d1857610100808354040283529160200191611d43565b820191906000526020600020905b815481529060010190602001808311611d2657829003601f168201915b505050506003830154600484015460058501805494956001600160a01b0380851696600160a01b90950460ff16955090921692611d7f9061478a565b80601f0160208091040260200160405190810160405280929190818152602001828054611dab9061478a565b8015611df85780601f10611dcd57610100808354040283529160200191611df8565b820191906000526020600020905b815481529060010190602001808311611ddb57829003601f168201915b5050506006909301549192505062ffffff8116906001600160a01b0363010000009091041689565b611e28613055565b6001600160a01b03166391d14854611e3e613055565b6001600160a01b031663497d91926040518163ffffffff1660e01b8152600401602060405180830381865afa158015611e7b573d6000803e3d6000fd5b505050506040513d601f19601f82011682018060405250810190611e9f919061475b565b6040516001600160e01b031960e084901b1681526004810191909152336024820152604401602060405180830381865afa158015611ee1573d6000803e3d6000fd5b505050506040513d601f19601f82011682018060405250810190611f0591906148d1565b611f215760405162461bcd60e51b8152600401610624906148ee565b6001600160a01b038216611f675760405162461bcd60e51b815260206004820152600d60248201526c746f6b656e206973207a65726f60981b6044820152606401610624565b6001600160a01b038116611fac5760405162461bcd60e51b815260206004820152600c60248201526b706f6f6c206973207a65726f60a01b6044820152606401610624565b60005b60fb5481101561275757600060fb8281548110611fce57611fce614774565b60009182526020918290206040805161014081018252601190930290910180546001600160a01b039081168452600182015416938301939093526002830180549293929184019161201e9061478a565b80601f016020809104026020016040519081016040528092919081815260200182805461204a9061478a565b80156120975780601f1061206c57610100808354040283529160200191612097565b820191906000526020600020905b81548152906001019060200180831161207a57829003601f168201915b50505091835250506003828101546001600160a01b0381166020840152604090920191600160a01b900460ff16908111156120d4576120d4614213565b60038111156120e5576120e5614213565b815260048201546001600160a01b0316602082015260058201805460409092019161210f9061478a565b80601f016020809104026020016040519081016040528092919081815260200182805461213b9061478a565b80156121885780601f1061215d57610100808354040283529160200191612188565b820191906000526020600020905b81548152906001019060200180831161216b57829003601f168201915b5050509183525050600682015462ffffff81166020830152630100000090046001600160a01b03166040808301919091528051610140810191829052606090920191906007840190600a9082845b8154815260200190600101908083116121d6575050505050815250509050836001600160a01b031681602001516001600160a01b031614801561222e5750826001600160a01b031681600001516001600160a01b0316145b1561274657815b60fb5461224490600190614930565b8110156125fa57600060fb61225a836001614959565b8154811061226a5761226a614774565b60009182526020918290206040805161014081018252601190930290910180546001600160a01b03908116845260018201541693830193909352600283018054929392918401916122ba9061478a565b80601f01602080910402602001604051908101604052809291908181526020018280546122e69061478a565b80156123335780601f1061230857610100808354040283529160200191612333565b820191906000526020600020905b81548152906001019060200180831161231657829003601f168201915b50505091835250506003828101546001600160a01b0381166020840152604090920191600160a01b900460ff169081111561237057612370614213565b600381111561238157612381614213565b815260048201546001600160a01b031660208201526005820180546040909201916123ab9061478a565b80601f01602080910402602001604051908101604052809291908181526020018280546123d79061478a565b80156124245780601f106123f957610100808354040283529160200191612424565b820191906000526020600020905b81548152906001019060200180831161240757829003601f168201915b5050509183525050600682015462ffffff81166020830152630100000090046001600160a01b03166040808301919091528051610140810191829052606090920191906007840190600a9082845b8154815260200190600101908083116124725750505050508152505090508060fb83815481106124a4576124a4614774565b6000918252602091829020835160119092020180546001600160a01b039283166001600160a01b031991821617825592840151600182018054919093169316929092179055604082015160028201906124fd90826149ba565b506060820151600380830180546001600160a01b039093166001600160a01b031984168117825560808601519391926001600160a81b03199092161790600160a01b90849081111561255157612551614213565b021790555060a08201516004820180546001600160a01b0319166001600160a01b0390921691909117905560c0820151600582019061259090826149ba565b5060e08201516006820180546101008501516001600160a01b03166301000000026001600160b81b031990911662ffffff909316929092179190911790556101208201516125e4906007830190600a613eae565b5090505050806125f3906147da565b9050612235565b5060fb80548061260c5761260c614943565b60008281526020812060116000199093019283020180546001600160a01b0319908116825560018201805490911690559061264a6002830182613e65565b6003820180546001600160a81b03191690556004820180546001600160a01b031916905561267c600583016000613e65565b6006820180546001600160b81b031916905561269c600783016000613e9f565b50509055604051635d90737960e01b81526001600160a01b038481166004830152851690635d90737990602401600060405180830381600087803b1580156126e357600080fd5b505af11580156126f7573d6000803e3d6000fd5b5050604080516001600160a01b038089168252871660208201527f68e2e4dc27ec3ffea1ce098b4fe6d29f6a1e663455d9a77a3bc859cc67027a2193500190505b60405180910390a150505050565b50612750816147da565b9050611faf565b5060405163d3ed043d60e01b815260040160405180910390fd5b612779613055565b6001600160a01b03166391d1485461278f613055565b6001600160a01b031663497d91926040518163ffffffff1660e01b8152600401602060405180830381865afa1580156127cc573d6000803e3d6000fd5b505050506040513d601f19601f820116820180604052508101906127f0919061475b565b6040516001600160e01b031960e084901b1681526004810191909152336024820152604401602060405180830381865afa158015612832573d6000803e3d6000fd5b505050506040513d601f19601f8201168201806040525081019061285691906148d1565b6128725760405162461bcd60e51b8152600401610624906148ee565b60208101516001600160a01b03166128bc5760405162461bcd60e51b815260206004820152600d60248201526c746f6b656e206973207a65726f60981b6044820152606401610624565b80516001600160a01b03166129025760405162461bcd60e51b815260206004820152600c60248201526b706f6f6c206973207a65726f60a01b6044820152606401610624565b60008160800151600381111561291a5761291a614213565b0361296b5760a08101516001600160a01b03166129665760405162461bcd60e51b815260206004820152600a602482015269746f206973207a65726f60b01b6044820152606401610624565b6129d2565b60028160800151600381111561298357612983614213565b036129d25760608101516001600160a01b03166129d25760405162461bcd60e51b815260206004820152600d60248201526c6272696265206973207a65726f60981b6044820152606401610624565b600160005b60fb54811015612dc557600060fb82815481106129f6576129f6614774565b60009182526020918290206040805161014081018252601190930290910180546001600160a01b0390811684526001820154169383019390935260028301805492939291840191612a469061478a565b80601f0160208091040260200160405190810160405280929190818152602001828054612a729061478a565b8015612abf5780601f10612a9457610100808354040283529160200191612abf565b820191906000526020600020905b815481529060010190602001808311612aa257829003601f168201915b50505091835250506003828101546001600160a01b0381166020840152604090920191600160a01b900460ff1690811115612afc57612afc614213565b6003811115612b0d57612b0d614213565b815260048201546001600160a01b03166020820152600582018054604090920191612b379061478a565b80601f0160208091040260200160405190810160405280929190818152602001828054612b639061478a565b8015612bb05780601f10612b8557610100808354040283529160200191612bb0565b820191906000526020600020905b815481529060010190602001808311612b9357829003601f168201915b5050509183525050600682015462ffffff81166020830152630100000090046001600160a01b03166040808301919091528051610140810191829052606090920191906007840190600a9082845b815481526020019060010190808311612bfe57505050505081525050905083602001516001600160a01b031681602001516001600160a01b0316148015612c535750835181516001600160a01b039081169116145b15612db4578360fb8381548110612c6c57612c6c614774565b6000918252602091829020835160119092020180546001600160a01b039283166001600160a01b03199182161782559284015160018201805491909316931692909217905560408201516002820190612cc590826149ba565b506060820151600380830180546001600160a01b039093166001600160a01b031984168117825560808601519391926001600160a81b03199092161790600160a01b908490811115612d1957612d19614213565b021790555060a08201516004820180546001600160a01b0319166001600160a01b0390921691909117905560c08201516005820190612d5890826149ba565b5060e08201516006820180546101008501516001600160a01b03166301000000026001600160b81b031990911662ffffff90931692909217919091179055610120820151612dac906007830190600a613eae565b506000945050505b50612dbe816147da565b90506129d7565b508015612fd85760fb8054600181018255600091909152825160119091027f3e7257b7272bb46d49cd6019b04ddee20da7c0cb13f7c1ec3391291b2ccebabc810180546001600160a01b039384166001600160a01b031991821617825560208601517f3e7257b7272bb46d49cd6019b04ddee20da7c0cb13f7c1ec3391291b2ccebabd840180549190951691161790925560408401518492917f3e7257b7272bb46d49cd6019b04ddee20da7c0cb13f7c1ec3391291b2ccebabe0190612e8b90826149ba565b506060820151600380830180546001600160a01b039093166001600160a01b031984168117825560808601519391926001600160a81b03199092161790600160a01b908490811115612edf57612edf614213565b021790555060a08201516004820180546001600160a01b0319166001600160a01b0390921691909117905560c08201516005820190612f1e90826149ba565b5060e08201516006820180546101008501516001600160a01b03166301000000026001600160b81b031990911662ffffff90931692909217919091179055610120820151612f72906007830190600a613eae565b5050506020820151825160405163e626030760e01b81526001600160a01b03918216600482015291169063e626030790602401600060405180830381600087803b158015612fbf57600080fd5b505af1158015612fd3573d6000803e3d6000fd5b505050505b602082015182516040517f2ab4ebfadf1dbb6985345a1d09dabe17cafc9f765b05fc738368c0ab2886ab03926130249290916001600160a01b0392831681529116602082015260400190565b60405180910390a15050565b60008281526065602052604090206001015461304b81613457565b61098f83836134e7565b600060fc60019054906101000a90046001600160a01b03166001600160a01b031662435da56040518163ffffffff1660e01b8152600401602060405180830381865afa1580156130a9573d6000803e3d6000fd5b505050506040513d601f19601f820116820180604052508101906130cd9190614a79565b905090565b6020808301519082015181156131e55760e083015162ffffff161561318a57600060648460e0015162ffffff168461310a9190614a96565b6131149190614aad565b90506131208184614930565b9250801561318857610100840151613143906001600160a01b0384169083613781565b600080516020614cd38339815191528460c001518560400151866000015187602001518589610100015160405161317f96959493929190614acf565b60405180910390a15b505b81156131e55760a08301516131aa906001600160a01b0383169084613781565b600080516020614cd38339815191528360c00151846040015185600001518660200151868860a0015160405161273896959493929190614acf565b50505050565b6020808301519082015181156131e55760e083015162ffffff16156132a357600060648460e0015162ffffff16846132239190614a96565b61322d9190614aad565b90506132398184614930565b925080156132a15761010084015161325c906001600160a01b0384169083613781565b600080516020614cd38339815191528460c001518560400151866000015187602001518589610100015160405161329896959493929190614b47565b60405180910390a15b505b81156131e557606083015160405163095ea7b360e01b81526001600160a01b039182166004820152600060248201529082169063095ea7b3906044016020604051808303816000875af11580156132fe573d6000803e3d6000fd5b505050506040513d601f19601f8201168201806040525081019061332291906148d1565b50606083015160405163095ea7b360e01b81526001600160a01b039182166004820152602481018490529082169063095ea7b3906044016020604051808303816000875af1158015613378573d6000803e3d6000fd5b505050506040513d601f19601f8201168201806040525081019061339c91906148d1565b506060830151602084015160405163b66503cf60e01b81526001600160a01b0391821660048201526024810185905291169063b66503cf90604401600060405180830381600087803b1580156133f157600080fd5b505af1158015613405573d6000803e3d6000fd5b50505060c08401516040808601518651602088015160608901519351600080516020614cd3833981519152965061273895948991614b47565b604051633baed7a760e11b815260040160405180910390fd5b610b1381336137d3565b61346b8282611b11565b610a335760008281526065602090815260408083206001600160a01b03851684529091529020805460ff191660011790556134a33390565b6001600160a01b0316816001600160a01b0316837f2f8788117e7eff1d82e926ec794901d17c78024a50270940304540a733656f0d60405160405180910390a45050565b6134f18282611b11565b15610a335760008281526065602090815260408083206001600160a01b0385168085529252808320805460ff1916905551339285917ff6391f5c32d9c69d2a47ea670b442974b53935d1edc7fd64eb21e047a839171b9190a45050565b613565600080516020614c938339815191526105cb565b610b135760405162461bcd60e51b81526004016106249061488b565b7f4910fdfa16fed3260ed0e7147f7cc6da11a60208b5b9406d12a635614ffd91435460ff16156135b45761098f8361382c565b826001600160a01b03166352d1902d6040518163ffffffff1660e01b8152600401602060405180830381865afa92505050801561360e575060408051601f3d908101601f1916820190925261360b9181019061475b565b60015b6136715760405162461bcd60e51b815260206004820152602e60248201527f45524331393637557067726164653a206e657720696d706c656d656e7461746960448201526d6f6e206973206e6f74205555505360901b6064820152608401610624565b600080516020614cb383398151915281146136e05760405162461bcd60e51b815260206004820152602960248201527f45524331393637557067726164653a20756e737570706f727465642070726f786044820152681a58589b195555525160ba1b6064820152608401610624565b5061098f8383836138c8565b600054610100900460ff166137135760405162461bcd60e51b815260040161062490614b8c565b61371b6138ed565b6137236138ed565b61372e600033613461565b613746600080516020614c9383398151915233613461565b60fd80546001600160a01b0319166001600160a01b0392831617905560fc8054610100600160a81b0319166101009390921692909202179055565b604080516001600160a01b038416602482015260448082018490528251808303909101815260649091019091526020810180516001600160e01b031663a9059cbb60e01b17905261098f908490613916565b6137dd8282611b11565b610a33576137ea816139eb565b6137f58360206139fd565b604051602001613806929190614bd7565b60408051601f198184030181529082905262461bcd60e51b825261062491600401614c4c565b6001600160a01b0381163b6138995760405162461bcd60e51b815260206004820152602d60248201527f455243313936373a206e657720696d706c656d656e746174696f6e206973206e60448201526c1bdd08184818dbdb9d1c9858dd609a1b6064820152608401610624565b600080516020614cb383398151915280546001600160a01b0319166001600160a01b0392909216919091179055565b6138d183613b9f565b6000825111806138de5750805b1561098f576131e58383613bdf565b600054610100900460ff166139145760405162461bcd60e51b815260040161062490614b8c565b565b600061396b826040518060400160405280602081526020017f5361666545524332303a206c6f772d6c6576656c2063616c6c206661696c6564815250856001600160a01b0316613c049092919063ffffffff16565b905080516000148061398c57508080602001905181019061398c91906148d1565b61098f5760405162461bcd60e51b815260206004820152602a60248201527f5361666545524332303a204552433230206f7065726174696f6e20646964206e6044820152691bdd081cdd58d8d9595960b21b6064820152608401610624565b60606105596001600160a01b03831660145b60606000613a0c836002614a96565b613a17906002614959565b6001600160401b03811115613a2e57613a2e613f6f565b6040519080825280601f01601f191660200182016040528015613a58576020820181803683370190505b509050600360fc1b81600081518110613a7357613a73614774565b60200101906001600160f81b031916908160001a905350600f60fb1b81600181518110613aa257613aa2614774565b60200101906001600160f81b031916908160001a9053506000613ac6846002614a96565b613ad1906001614959565b90505b6001811115613b49576f181899199a1a9b1b9c1cb0b131b232b360811b85600f1660108110613b0557613b05614774565b1a60f81b828281518110613b1b57613b1b614774565b60200101906001600160f81b031916908160001a90535060049490941c93613b4281614c5f565b9050613ad4565b508315613b985760405162461bcd60e51b815260206004820181905260248201527f537472696e67733a20686578206c656e67746820696e73756666696369656e746044820152606401610624565b9392505050565b613ba88161382c565b6040516001600160a01b038216907fbc7cd75a20ee27fd9adebab32041f755214dbc6bffa90cc0225b39da2e5c2d3b90600090a250565b6060613b988383604051806060016040528060278152602001614cf360279139613c1b565b6060613c138484600085613c93565b949350505050565b6060600080856001600160a01b031685604051613c389190614c76565b600060405180830381855af49150503d8060008114613c73576040519150601f19603f3d011682016040523d82523d6000602084013e613c78565b606091505b5091509150613c8986838387613d6e565b9695505050505050565b606082471015613cf45760405162461bcd60e51b815260206004820152602660248201527f416464726573733a20696e73756666696369656e742062616c616e636520666f6044820152651c8818d85b1b60d21b6064820152608401610624565b600080866001600160a01b03168587604051613d109190614c76565b60006040518083038185875af1925050503d8060008114613d4d576040519150601f19603f3d011682016040523d82523d6000602084013e613d52565b606091505b5091509150613d6387838387613d6e565b979650505050505050565b60608315613ddd578251600003613dd6576001600160a01b0385163b613dd65760405162461bcd60e51b815260206004820152601d60248201527f416464726573733a2063616c6c20746f206e6f6e2d636f6e74726163740000006044820152606401610624565b5081613c13565b613c138383815115613df25781518083602001fd5b8060405162461bcd60e51b81526004016106249190614c4c565b6040805161014081018252600080825260208201819052606092820183905291810182905290608082019081526000602082018190526060604083018190528201819052608082015260a001613e60613eec565b905290565b508054613e719061478a565b6000825580601f10613e81575050565b601f016020900490600052602060002090810190610b139190613f0b565b50610b1390600a810190613f0b565b82600a8101928215613edc579160200282015b82811115613edc578251825591602001919060010190613ec1565b50613ee8929150613f0b565b5090565b604051806101400160405280600a906020820280368337509192915050565b5b80821115613ee85760008155600101613f0c565b600060208284031215613f3257600080fd5b81356001600160e01b031981168114613b9857600080fd5b6001600160a01b0381168114610b1357600080fd5b8035613f6a81613f4a565b919050565b634e487b7160e01b600052604160045260246000fd5b60405161014081016001600160401b0381118282101715613fa857613fa8613f6f565b60405290565b604051606081016001600160401b0381118282101715613fa857613fa8613f6f565b604051601f8201601f191681016001600160401b0381118282101715613ff857613ff8613f6f565b604052919050565b60006001600160401b0382111561401957614019613f6f565b5060051b60200190565b600082601f83011261403457600080fd5b61403c613f85565b8061014084018581111561404f57600080fd5b845b81811015614069578035845260209384019301614051565b509095945050505050565b600080604080848603121561408857600080fd5b833561409381613f4a565b92506020848101356001600160401b038111156140af57600080fd5b8501601f810187136140c057600080fd5b80356140d36140ce82614000565b613fd0565b818152610180918202830184019184820191908a8411156140f357600080fd5b938501935b8385101561414c5780858c0312156141105760008081fd5b614118613fae565b853561412381613f4a565b815285870135878201526141398c898801614023565b81890152835293840193918501916140f8565b508096505050505050509250929050565b60006020828403121561416f57600080fd5b5035919050565b6000806040838503121561418957600080fd5b82359150602083013561419b81613f4a565b809150509250929050565b6000602082840312156141b857600080fd5b8135613b9881613f4a565b60005b838110156141de5781810151838201526020016141c6565b50506000910152565b600081518084526141ff8160208601602086016141c3565b601f01601f19169290920160200192915050565b634e487b7160e01b600052602160045260246000fd5b6004811061424757634e487b7160e01b600052602160045260246000fd5b9052565b8060005b600a8110156131e557815184526020938401939091019060010161424f565b60006020808301818452808551808352604092508286019150828160051b87010184880160005b8381101561439557888303603f19018552815180516001600160a01b03168452610260818901516001600160a01b038116868b0152508782015181898701526142e0828701826141e7565b9150506060808301516142fd828801826001600160a01b03169052565b505060808083015161431182880182614229565b505060a0828101516001600160a01b03169086015260c0808301518683038288015261433d83826141e7565b9250505060e0808301516143578288018262ffffff169052565b5050610100828101516001600160a01b03169086015261012091820151916143818187018461424b565b509588019593505090860190600101614295565b509098975050505050505050565b600080604083850312156143b657600080fd5b82356143c181613f4a565b9150602083013561419b81613f4a565b60006001600160401b038311156143ea576143ea613f6f565b6143fd601f8401601f1916602001613fd0565b905082815283838301111561441157600080fd5b828260208301376000602084830101529392505050565b6000806040838503121561443b57600080fd5b823561444681613f4a565b915060208301356001600160401b0381111561446157600080fd5b8301601f8101851361447257600080fd5b614481858235602084016143d1565b9150509250929050565b8015158114610b1357600080fd5b6000602082840312156144ab57600080fd5b8135613b988161448b565b600082601f8301126144c757600080fd5b613b98838335602085016143d1565b803560048110613f6a57600080fd5b803562ffffff81168114613f6a57600080fd5b6000610260828403121561450b57600080fd5b614513613f85565b905061451e82613f5f565b815261452c60208301613f5f565b602082015260408201356001600160401b038082111561454b57600080fd5b614557858386016144b6565b604084015261456860608501613f5f565b6060840152614579608085016144d6565b608084015261458a60a08501613f5f565b60a084015260c08401359150808211156145a357600080fd5b506145b0848285016144b6565b60c0830152506145c260e083016144e5565b60e08201526101006145d5818401613f5f565b908201526101206145e884848301614023565b9082015292915050565b6000602080838503121561460557600080fd5b82356001600160401b038082111561461c57600080fd5b818501915085601f83011261463057600080fd5b813561463e6140ce82614000565b81815260059190911b8301840190848101908883111561465d57600080fd5b8585015b83811015614695578035858111156146795760008081fd5b6146878b89838a01016144f8565b845250918601918601614661565b5098975050505050505050565b6001600160a01b038a811682528981166020830152610120604083018190526000916146d08483018c6141e7565b9150808a1660608501526146e7608085018a614229565b80881660a085015283820360c085015261470182886141e7565b925062ffffff861660e085015280851661010085015250509a9950505050505050505050565b60006020828403121561473957600080fd5b81356001600160401b0381111561474f57600080fd5b613c13848285016144f8565b60006020828403121561476d57600080fd5b5051919050565b634e487b7160e01b600052603260045260246000fd5b600181811c9082168061479e57607f821691505b6020821081036147be57634e487b7160e01b600052602260045260246000fd5b50919050565b634e487b7160e01b600052601160045260246000fd5b6000600182016147ec576147ec6147c4565b5060010190565b6020808252602c908201527f46756e6374696f6e206d7573742062652063616c6c6564207468726f7567682060408201526b19195b1959d85d1958d85b1b60a21b606082015260800190565b6020808252602c908201527f46756e6374696f6e206d7573742062652063616c6c6564207468726f7567682060408201526b6163746976652070726f787960a01b606082015260800190565b60208082526026908201527f43616c6c657220646f65736e277420686176652055504752414445525f524f4c6040820152654520726f6c6560d01b606082015260800190565b6000602082840312156148e357600080fd5b8151613b988161448b565b60208082526022908201527f43616c6c657220646f65736e2774206861766520554e49545f524f4c4520726f6040820152616c6560f01b606082015260800190565b81810381811115610559576105596147c4565b634e487b7160e01b600052603160045260246000fd5b80820180821115610559576105596147c4565b601f82111561098f57600081815260208120601f850160051c810160208610156149935750805b601f850160051c820191505b818110156149b25782815560010161499f565b505050505050565b81516001600160401b038111156149d3576149d3613f6f565b6149e7816149e1845461478a565b8461496c565b602080601f831160018114614a1c5760008415614a045750858301515b600019600386901b1c1916600185901b1785556149b2565b600085815260208120601f198616915b82811015614a4b57888601518255948401946001909101908401614a2c565b5085821015614a695787850151600019600388901b60f8161c191681555b5050505050600190811b01905550565b600060208284031215614a8b57600080fd5b8151613b9881613f4a565b8082028115828204841417610559576105596147c4565b600082614aca57634e487b7160e01b600052601260045260246000fd5b500490565b60e081526000614ae260e08301896141e7565b8281038060208501526004825263536b696d60e01b602083015260408101604085015250614b1360408201896141e7565b6001600160a01b0397881660608501529587166080840152505060a081019290925290921660c09092019190915292915050565b60e081526000614b5a60e08301896141e7565b8281038060208501526005825264427269626560d81b602083015260408101604085015250614b1360408201896141e7565b6020808252602b908201527f496e697469616c697a61626c653a20636f6e7472616374206973206e6f74206960408201526a6e697469616c697a696e6760a81b606082015260800190565b7f416363657373436f6e74726f6c3a206163636f756e7420000000000000000000815260008351614c0f8160178501602088016141c3565b7001034b99036b4b9b9b4b733903937b6329607d1b6017918401918201528351614c408160288401602088016141c3565b01602801949350505050565b602081526000613b9860208301846141e7565b600081614c6e57614c6e6147c4565b506000190190565b60008251614c888184602087016141c3565b919091019291505056fe189ab7a9244df0848122154315af71fe140f3db0fe014031783b0946b8c9d2e3360894a13ba1a3210667c828492db98dca3e2076cc3735a920a3ca505d382bbccb414e813f34d59db194a1937a70c199f2a691ccd6ee32704df2b38170acb6ed416464726573733a206c6f772d6c6576656c2064656c65676174652063616c6c206661696c6564a264697066735822122061ea7befa172ef5182170c564123bab23004999211ad6022cd4c39a794f42acf64736f6c63430008140033",
  "linkReferences": {},
  "deployedLinkReferences": {},
  "implementation": "0xaD4939705B9d1207415A4B2E7818714455fD9137"
}