{
  "address": "0xce6B16baa9A148001fc43fD7B97bd196040B857b",
  "_format": "hh-sol-artifact-1",
  "contractName": "ExchangeChild",
  "sourceName": "contracts/ExchangeChild.sol",
  "abi": [
    {
      "inputs": [],
      "stateMutability": "nonpayable",
      "type": "constructor"
    },
    {
      "anonymous": false,
      "inputs": [
        {
          "indexed": false,
          "internalType": "address",
          "name": "previousAdmin",
          "type": "address"
        },
        {
          "indexed": false,
          "internalType": "address",
          "name": "newAdmin",
          "type": "address"
        }
      ],
      "name": "AdminChanged",
      "type": "event"
    },
    {
      "anonymous": false,
      "inputs": [
        {
          "indexed": true,
          "internalType": "address",
          "name": "beacon",
          "type": "address"
        }
      ],
      "name": "BeaconUpgraded",
      "type": "event"
    },
    {
      "anonymous": false,
      "inputs": [
        {
          "indexed": false,
          "internalType": "uint8",
          "name": "version",
          "type": "uint8"
        }
      ],
      "name": "Initialized",
      "type": "event"
    },
    {
      "anonymous": false,
      "inputs": [
        {
          "indexed": false,
          "internalType": "address",
          "name": "account",
          "type": "address"
        }
      ],
      "name": "Paused",
      "type": "event"
    },
    {
      "anonymous": false,
      "inputs": [
        {
          "indexed": false,
          "internalType": "uint256",
          "name": "payoutDelta",
          "type": "uint256"
        }
      ],
      "name": "PayoutDeltaUpdated",
      "type": "event"
    },
    {
      "anonymous": false,
      "inputs": [
        {
          "indexed": false,
          "internalType": "uint256",
          "name": "newDelta",
          "type": "uint256"
        },
        {
          "indexed": false,
          "internalType": "uint256",
          "name": "payoutDeadline",
          "type": "uint256"
        }
      ],
      "name": "PayoutInfoStored",
      "type": "event"
    },
    {
      "anonymous": false,
      "inputs": [
        {
          "indexed": false,
          "internalType": "uint256",
          "name": "newDelta",
          "type": "uint256"
        },
        {
          "indexed": false,
          "internalType": "uint256",
          "name": "nonRebaseDelta",
          "type": "uint256"
        }
      ],
      "name": "PayoutShortEvent",
      "type": "event"
    },
    {
      "anonymous": false,
      "inputs": [
        {
          "indexed": false,
          "internalType": "address",
          "name": "remoteHub",
          "type": "address"
        }
      ],
      "name": "RemoteHubUpdated",
      "type": "event"
    },
    {
      "anonymous": false,
      "inputs": [
        {
          "indexed": true,
          "internalType": "bytes32",
          "name": "role",
          "type": "bytes32"
        },
        {
          "indexed": true,
          "internalType": "bytes32",
          "name": "previousAdminRole",
          "type": "bytes32"
        },
        {
          "indexed": true,
          "internalType": "bytes32",
          "name": "newAdminRole",
          "type": "bytes32"
        }
      ],
      "name": "RoleAdminChanged",
      "type": "event"
    },
    {
      "anonymous": false,
      "inputs": [
        {
          "indexed": true,
          "internalType": "bytes32",
          "name": "role",
          "type": "bytes32"
        },
        {
          "indexed": true,
          "internalType": "address",
          "name": "account",
          "type": "address"
        },
        {
          "indexed": true,
          "internalType": "address",
          "name": "sender",
          "type": "address"
        }
      ],
      "name": "RoleGranted",
      "type": "event"
    },
    {
      "anonymous": false,
      "inputs": [
        {
          "indexed": true,
          "internalType": "bytes32",
          "name": "role",
          "type": "bytes32"
        },
        {
          "indexed": true,
          "internalType": "address",
          "name": "account",
          "type": "address"
        },
        {
          "indexed": true,
          "internalType": "address",
          "name": "sender",
          "type": "address"
        }
      ],
      "name": "RoleRevoked",
      "type": "event"
    },
    {
      "anonymous": false,
      "inputs": [
        {
          "indexed": false,
          "internalType": "address",
          "name": "account",
          "type": "address"
        }
      ],
      "name": "Unpaused",
      "type": "event"
    },
    {
      "anonymous": false,
      "inputs": [
        {
          "indexed": true,
          "internalType": "address",
          "name": "implementation",
          "type": "address"
        }
      ],
      "name": "Upgraded",
      "type": "event"
    },
    {
      "inputs": [],
      "name": "DEFAULT_ADMIN_ROLE",
      "outputs": [
        {
          "internalType": "bytes32",
          "name": "",
          "type": "bytes32"
        }
      ],
      "stateMutability": "view",
      "type": "function"
    },
    {
      "inputs": [],
      "name": "LIQ_DELTA_DM",
      "outputs": [
        {
          "internalType": "uint256",
          "name": "",
          "type": "uint256"
        }
      ],
      "stateMutability": "view",
      "type": "function"
    },
    {
      "inputs": [],
      "name": "PAYOUT_EXECUTOR_ROLE",
      "outputs": [
        {
          "internalType": "bytes32",
          "name": "",
          "type": "bytes32"
        }
      ],
      "stateMutability": "pure",
      "type": "function"
    },
    {
      "inputs": [],
      "name": "UPGRADER_ROLE",
      "outputs": [
        {
          "internalType": "bytes32",
          "name": "",
          "type": "bytes32"
        }
      ],
      "stateMutability": "pure",
      "type": "function"
    },
    {
      "inputs": [
        {
          "internalType": "bytes32",
          "name": "role",
          "type": "bytes32"
        }
      ],
      "name": "getRoleAdmin",
      "outputs": [
        {
          "internalType": "bytes32",
          "name": "",
          "type": "bytes32"
        }
      ],
      "stateMutability": "view",
      "type": "function"
    },
    {
      "inputs": [
        {
          "internalType": "bytes32",
          "name": "role",
          "type": "bytes32"
        },
        {
          "internalType": "address",
          "name": "account",
          "type": "address"
        }
      ],
      "name": "grantRole",
      "outputs": [],
      "stateMutability": "nonpayable",
      "type": "function"
    },
    {
      "inputs": [
        {
          "internalType": "bytes32",
          "name": "role",
          "type": "bytes32"
        },
        {
          "internalType": "address",
          "name": "account",
          "type": "address"
        }
      ],
      "name": "hasRole",
      "outputs": [
        {
          "internalType": "bool",
          "name": "",
          "type": "bool"
        }
      ],
      "stateMutability": "view",
      "type": "function"
    },
    {
      "inputs": [
        {
          "internalType": "address",
          "name": "_remoteHub",
          "type": "address"
        }
      ],
      "name": "initialize",
      "outputs": [],
      "stateMutability": "nonpayable",
      "type": "function"
    },
    {
      "inputs": [],
      "name": "newDelta",
      "outputs": [
        {
          "internalType": "uint256",
          "name": "",
          "type": "uint256"
        }
      ],
      "stateMutability": "view",
      "type": "function"
    },
    {
      "inputs": [],
      "name": "paused",
      "outputs": [
        {
          "internalType": "bool",
          "name": "",
          "type": "bool"
        }
      ],
      "stateMutability": "view",
      "type": "function"
    },
    {
      "inputs": [],
      "name": "payout",
      "outputs": [],
      "stateMutability": "nonpayable",
      "type": "function"
    },
    {
      "inputs": [
        {
          "internalType": "uint256",
          "name": "_newDelta",
          "type": "uint256"
        }
      ],
      "name": "payout",
      "outputs": [],
      "stateMutability": "nonpayable",
      "type": "function"
    },
    {
      "inputs": [],
      "name": "payoutDeadline",
      "outputs": [
        {
          "internalType": "uint256",
          "name": "",
          "type": "uint256"
        }
      ],
      "stateMutability": "view",
      "type": "function"
    },
    {
      "inputs": [],
      "name": "payoutDelta",
      "outputs": [
        {
          "internalType": "uint256",
          "name": "",
          "type": "uint256"
        }
      ],
      "stateMutability": "view",
      "type": "function"
    },
    {
      "inputs": [],
      "name": "proxiableUUID",
      "outputs": [
        {
          "internalType": "bytes32",
          "name": "",
          "type": "bytes32"
        }
      ],
      "stateMutability": "view",
      "type": "function"
    },
    {
      "inputs": [],
      "name": "remoteHub",
      "outputs": [
        {
          "internalType": "contract IRemoteHub",
          "name": "",
          "type": "address"
        }
      ],
      "stateMutability": "view",
      "type": "function"
    },
    {
      "inputs": [
        {
          "internalType": "bytes32",
          "name": "role",
          "type": "bytes32"
        },
        {
          "internalType": "address",
          "name": "account",
          "type": "address"
        }
      ],
      "name": "renounceRole",
      "outputs": [],
      "stateMutability": "nonpayable",
      "type": "function"
    },
    {
      "inputs": [
        {
          "internalType": "bytes32",
          "name": "role",
          "type": "bytes32"
        },
        {
          "internalType": "address",
          "name": "account",
          "type": "address"
        }
      ],
      "name": "revokeRole",
      "outputs": [],
      "stateMutability": "nonpayable",
      "type": "function"
    },
    {
      "inputs": [
        {
          "internalType": "uint256",
          "name": "_payoutDelta",
          "type": "uint256"
        }
      ],
      "name": "setPayoutDelta",
      "outputs": [],
      "stateMutability": "nonpayable",
      "type": "function"
    },
    {
      "inputs": [
        {
          "internalType": "address",
          "name": "_remoteHub",
          "type": "address"
        }
      ],
      "name": "setRemoteHub",
      "outputs": [],
      "stateMutability": "nonpayable",
      "type": "function"
    },
    {
      "inputs": [
        {
          "internalType": "bytes4",
          "name": "interfaceId",
          "type": "bytes4"
        }
      ],
      "name": "supportsInterface",
      "outputs": [
        {
          "internalType": "bool",
          "name": "",
          "type": "bool"
        }
      ],
      "stateMutability": "view",
      "type": "function"
    },
    {
      "inputs": [
        {
          "internalType": "address",
          "name": "newImplementation",
          "type": "address"
        }
      ],
      "name": "upgradeTo",
      "outputs": [],
      "stateMutability": "nonpayable",
      "type": "function"
    },
    {
      "inputs": [
        {
          "internalType": "address",
          "name": "newImplementation",
          "type": "address"
        },
        {
          "internalType": "bytes",
          "name": "data",
          "type": "bytes"
        }
      ],
      "name": "upgradeToAndCall",
      "outputs": [],
      "stateMutability": "payable",
      "type": "function"
    }
  ],
  "bytecode": "0x60a06040523060805234801561001457600080fd5b5061001d610022565b6100e1565b600054610100900460ff161561008e5760405162461bcd60e51b815260206004820152602760248201527f496e697469616c697a61626c653a20636f6e747261637420697320696e697469604482015266616c697a696e6760c81b606482015260840160405180910390fd5b60005460ff908116146100df576000805460ff191660ff9081179091556040519081527f7f26b83ff96e1f2b6a682f133852f6798a09c465da95921460cefb38474024989060200160405180910390a15b565b60805161200861011860003960008181610591015281816105d10152818161074801528181610788015261081701526120086000f3fe6080604052600436106101405760003560e01c806363bd1d4a116100b6578063c4d66de81161006f578063c4d66de81461037e578063d31a19341461039e578063d547741f146103b5578063e1152343146103d5578063e379a6c9146103f5578063f72c0d8b1461040c57600080fd5b806363bd1d4a146102b1578063794c7f8a146102c657806382565e82146102dd57806391d14854146103105780639423f21514610330578063a217fddf1461036957600080fd5b80633659cfe6116101085780633659cfe61461021a5780633f2b6c011461023a578063405a11dc146102515780634f1ef2861461027157806352d1902d146102845780635c975abb1461029957600080fd5b806301ffc9a7146101455780631b3770051461017a578063248a9ca31461019c5780632f2ff15d146101da57806336568abe146101fa575b600080fd5b34801561015157600080fd5b506101656101603660046118d6565b61042d565b60405190151581526020015b60405180910390f35b34801561018657600080fd5b5061019a610195366004611900565b610464565b005b3480156101a857600080fd5b506101cc6101b7366004611900565b60009081526065602052604090206001015490565b604051908152602001610171565b3480156101e657600080fd5b5061019a6101f536600461192e565b6104df565b34801561020657600080fd5b5061019a61021536600461192e565b610509565b34801561022657600080fd5b5061019a61023536600461195e565b610587565b34801561024657600080fd5b506101cc61012d5481565b34801561025d57600080fd5b5061019a61026c36600461195e565b610666565b61019a61027f366004611a0f565b61073e565b34801561029057600080fd5b506101cc61080a565b3480156102a557600080fd5b5060fb5460ff16610165565b3480156102bd57600080fd5b5061019a6108bd565b3480156102d257600080fd5b506101cc61012e5481565b3480156102e957600080fd5b507fd77df84835b214746cc9546302d3e1df1d6b06740a1f528273c85999497318eb6101cc565b34801561031c57600080fd5b5061016561032b36600461192e565b610c8d565b34801561033c57600080fd5b5061013054610351906001600160a01b031681565b6040516001600160a01b039091168152602001610171565b34801561037557600080fd5b506101cc600081565b34801561038a57600080fd5b5061019a61039936600461195e565b610cb8565b3480156103aa57600080fd5b506101cc620f424081565b3480156103c157600080fd5b5061019a6103d036600461192e565b610e18565b3480156103e157600080fd5b5061019a6103f0366004611900565b610e3d565b34801561040157600080fd5b506101cc61012f5481565b34801561041857600080fd5b50600080516020611f6c8339815191526101cc565b60006001600160e01b03198216637965db0b60e01b148061045e57506301ffc9a760e01b6001600160e01b03198316145b92915050565b61047d600080516020611f6c8339815191525b33610c8d565b6104a25760405162461bcd60e51b815260040161049990611ab7565b60405180910390fd5b61012f8190556040518181527f3d2794556c0378ead6eacd4009e7f411edeccd4519428c865bacfd0f88022d01906020015b60405180910390a150565b6000828152606560205260409020600101546104fa81610f6f565b6105048383610f79565b505050565b6001600160a01b03811633146105795760405162461bcd60e51b815260206004820152602f60248201527f416363657373436f6e74726f6c3a2063616e206f6e6c792072656e6f756e636560448201526e103937b632b9903337b91039b2b63360891b6064820152608401610499565b6105838282610fff565b5050565b6001600160a01b037f00000000000000000000000000000000000000000000000000000000000000001630036105cf5760405162461bcd60e51b815260040161049990611afd565b7f00000000000000000000000000000000000000000000000000000000000000006001600160a01b0316610618600080516020611f8c833981519152546001600160a01b031690565b6001600160a01b03161461063e5760405162461bcd60e51b815260040161049990611b49565b61064781611066565b6040805160008082526020820190925261066391839190611099565b50565b61067d600080516020611f6c833981519152610477565b6106995760405162461bcd60e51b815260040161049990611ab7565b6001600160a01b0381166106ef5760405162461bcd60e51b815260206004820152601860248201527f5a65726f2061646472657373206e6f7420616c6c6f77656400000000000000006044820152606401610499565b61013080546001600160a01b0319166001600160a01b0383169081179091556040519081527f0acbcc2f890f48416af3a85d8a92e6b01a61ca13a98ccf21d101bf3fe06593fc906020016104d4565b6001600160a01b037f00000000000000000000000000000000000000000000000000000000000000001630036107865760405162461bcd60e51b815260040161049990611afd565b7f00000000000000000000000000000000000000000000000000000000000000006001600160a01b03166107cf600080516020611f8c833981519152546001600160a01b031690565b6001600160a01b0316146107f55760405162461bcd60e51b815260040161049990611b49565b6107fe82611066565b61058382826001611099565b6000306001600160a01b037f000000000000000000000000000000000000000000000000000000000000000016146108aa5760405162461bcd60e51b815260206004820152603860248201527f555550535570677261646561626c653a206d757374206e6f742062652063616c60448201527f6c6564207468726f7567682064656c656761746563616c6c00000000000000006064820152608401610499565b50600080516020611f8c83398151915290565b600061012d54116109095760405162461bcd60e51b81526020600482015260166024820152756e65772064656c7461206973206e6f7420726561647960501b6044820152606401610499565b610911611204565b8061091f57504261012e5410155b61097f5760405162461bcd60e51b815260206004820152602b60248201527f596f7520617265206e6f7420556e6974206f722074696d657374616d7020697360448201526a103737ba103932b0b23c9760a91b6064820152608401610499565b620f424061012d54116109c65760405162461bcd60e51b815260206004820152600f60248201526e4e656761746976652072656261736560881b6044820152606401610499565b60006109d06112f0565b905060006109dc61135f565b90506000620f424061012d54846001600160a01b03166318160ddd6040518163ffffffff1660e01b8152600401602060405180830381865afa158015610a26573d6000803e3d6000fd5b505050506040513d601f19601f82011682018060405250810190610a4a9190611b95565b610a549190611bc4565b610a5e9190611bdb565b9050600080846001600160a01b03166339a7919f846040518263ffffffff1660e01b8152600401610a9191815260200190565b6000604051808303816000875af1158015610ab0573d6000803e3d6000fd5b505050506040513d6000823e601f3d908101601f19168201604052610ad89190810190611bfd565b90925090508015610ba6576040516340c10f1960e01b81526001600160a01b038581166004830152602482018390528616906340c10f1990604401600060405180830381600087803b158015610b2d57600080fd5b505af1158015610b41573d6000803e3d6000fd5b50506040516301b1d84d60e11b81526001600160a01b0387169250630363b09a9150610b739088908690600401611d25565b600060405180830381600087803b158015610b8d57600080fd5b505af1158015610ba1573d6000803e3d6000fd5b505050505b82856001600160a01b03166318160ddd6040518163ffffffff1660e01b8152600401602060405180830381865afa158015610be5573d6000803e3d6000fd5b505050506040513d601f19601f82011682018060405250810190610c099190611b95565b14610c455760405162461bcd60e51b815260206004820152600c60248201526b3a37ba30b610109e903730bb60a11b6044820152606401610499565b600061012d81905560408051918252602082018390527f8ae1a69905fe1f18107380603495e8b3e729e9f5ed852056c5c8d247e50f9f30910160405180910390a15050505050565b60009182526065602090815260408084206001600160a01b0393909316845291905290205460ff1690565b600054610100900460ff1615808015610cd85750600054600160ff909116105b80610cf25750303b158015610cf2575060005460ff166001145b610d555760405162461bcd60e51b815260206004820152602e60248201527f496e697469616c697a61626c653a20636f6e747261637420697320616c72656160448201526d191e481a5b9a5d1a585b1a5e995960921b6064820152608401610499565b6000805460ff191660011790558015610d78576000805461ff0019166101001790555b610d806113aa565b610d886113d3565b610d906113aa565b610d9b600033610f79565b610db3600080516020611f6c83398151915233610f79565b61013080546001600160a01b0319166001600160a01b0384161790558015610583576000805461ff0019169055604051600181527f7f26b83ff96e1f2b6a682f133852f6798a09c465da95921460cefb38474024989060200160405180910390a15050565b600082815260656020526040902060010154610e3381610f6f565b6105048383610fff565b610e667fd77df84835b214746cc9546302d3e1df1d6b06740a1f528273c85999497318eb610477565b610ebc5760405162461bcd60e51b815260206004820152602160248201527f43616c6c6572206973206e6f7420746865207061796f7574206578656375746f6044820152603960f91b6064820152608401610499565b620f42408111610f005760405162461bcd60e51b815260206004820152600f60248201526e4e656761746976652072656261736560881b6044820152606401610499565b61012d81905561012f54610f149042611db9565b61012e81905561012d546040517fb7a34ba0c471f432f64a8b48691f890cd20b36d61fe67e91378e4c375de184e992610f54928252602082015260400190565b60405180910390a161012f54600003610663576106636108bd565b6106638133611402565b610f838282610c8d565b6105835760008281526065602090815260408083206001600160a01b03851684529091529020805460ff19166001179055610fbb3390565b6001600160a01b0316816001600160a01b0316837f2f8788117e7eff1d82e926ec794901d17c78024a50270940304540a733656f0d60405160405180910390a45050565b6110098282610c8d565b156105835760008281526065602090815260408083206001600160a01b0385168085529252808320805460ff1916905551339285917ff6391f5c32d9c69d2a47ea670b442974b53935d1edc7fd64eb21e047a839171b9190a45050565b61107d600080516020611f6c833981519152610477565b6106635760405162461bcd60e51b815260040161049990611ab7565b7f4910fdfa16fed3260ed0e7147f7cc6da11a60208b5b9406d12a635614ffd91435460ff16156110cc576105048361145b565b826001600160a01b03166352d1902d6040518163ffffffff1660e01b8152600401602060405180830381865afa925050508015611126575060408051601f3d908101601f1916820190925261112391810190611b95565b60015b6111895760405162461bcd60e51b815260206004820152602e60248201527f45524331393637557067726164653a206e657720696d706c656d656e7461746960448201526d6f6e206973206e6f74205555505360901b6064820152608401610499565b600080516020611f8c83398151915281146111f85760405162461bcd60e51b815260206004820152602960248201527f45524331393637557067726164653a20756e737570706f727465642070726f786044820152681a58589b195555525160ba1b6064820152608401610499565b506105048383836114f7565b600061120e611522565b6001600160a01b03166391d14854611224611522565b6001600160a01b031663497d91926040518163ffffffff1660e01b8152600401602060405180830381865afa158015611261573d6000803e3d6000fd5b505050506040513d601f19601f820116820180604052508101906112859190611b95565b6040516001600160e01b031960e084901b1681526004810191909152336024820152604401602060405180830381865afa1580156112c7573d6000803e3d6000fd5b505050506040513d601f19601f820116820180604052508101906112eb9190611dcc565b905090565b6101305460408051632869062960e21b815290516000926001600160a01b03169163a1a418a49160048083019260209291908290030181865afa15801561133b573d6000803e3d6000fd5b505050506040513d601f19601f820116820180604052508101906112eb9190611dee565b6101305460408051633083a8e360e01b815290516000926001600160a01b031691633083a8e39160048083019260209291908290030181865afa15801561133b573d6000803e3d6000fd5b600054610100900460ff166113d15760405162461bcd60e51b815260040161049990611e0b565b565b600054610100900460ff166113fa5760405162461bcd60e51b815260040161049990611e0b565b6113d161156b565b61140c8282610c8d565b610583576114198161159e565b6114248360206115b0565b604051602001611435929190611e7a565b60408051601f198184030181529082905262461bcd60e51b825261049991600401611eef565b6001600160a01b0381163b6114c85760405162461bcd60e51b815260206004820152602d60248201527f455243313936373a206e657720696d706c656d656e746174696f6e206973206e60448201526c1bdd08184818dbdb9d1c9858dd609a1b6064820152608401610499565b600080516020611f8c83398151915280546001600160a01b0319166001600160a01b0392909216919091179055565b61150083611753565b60008251118061150d5750805b156105045761151c8383611793565b50505050565b610130546040805162435da560e01b815290516000926001600160a01b03169162435da59160048083019260209291908290030181865afa15801561133b573d6000803e3d6000fd5b600054610100900460ff166115925760405162461bcd60e51b815260040161049990611e0b565b60fb805460ff19169055565b606061045e6001600160a01b03831660145b606060006115bf836002611bc4565b6115ca906002611db9565b67ffffffffffffffff8111156115e2576115e261197b565b6040519080825280601f01601f19166020018201604052801561160c576020820181803683370190505b509050600360fc1b8160008151811061162757611627611f22565b60200101906001600160f81b031916908160001a905350600f60fb1b8160018151811061165657611656611f22565b60200101906001600160f81b031916908160001a905350600061167a846002611bc4565b611685906001611db9565b90505b60018111156116fd576f181899199a1a9b1b9c1cb0b131b232b360811b85600f16601081106116b9576116b9611f22565b1a60f81b8282815181106116cf576116cf611f22565b60200101906001600160f81b031916908160001a90535060049490941c936116f681611f38565b9050611688565b50831561174c5760405162461bcd60e51b815260206004820181905260248201527f537472696e67733a20686578206c656e67746820696e73756666696369656e746044820152606401610499565b9392505050565b61175c8161145b565b6040516001600160a01b038216907fbc7cd75a20ee27fd9adebab32041f755214dbc6bffa90cc0225b39da2e5c2d3b90600090a250565b606061174c8383604051806060016040528060278152602001611fac602791396060600080856001600160a01b0316856040516117d09190611f4f565b600060405180830381855af49150503d806000811461180b576040519150601f19603f3d011682016040523d82523d6000602084013e611810565b606091505b50915091506118218683838761182b565b9695505050505050565b6060831561189a578251600003611893576001600160a01b0385163b6118935760405162461bcd60e51b815260206004820152601d60248201527f416464726573733a2063616c6c20746f206e6f6e2d636f6e74726163740000006044820152606401610499565b50816118a4565b6118a483836118ac565b949350505050565b8151156118bc5781518083602001fd5b8060405162461bcd60e51b81526004016104999190611eef565b6000602082840312156118e857600080fd5b81356001600160e01b03198116811461174c57600080fd5b60006020828403121561191257600080fd5b5035919050565b6001600160a01b038116811461066357600080fd5b6000806040838503121561194157600080fd5b82359150602083013561195381611919565b809150509250929050565b60006020828403121561197057600080fd5b813561174c81611919565b634e487b7160e01b600052604160045260246000fd5b6040516060810167ffffffffffffffff811182821017156119b4576119b461197b565b60405290565b604051610140810167ffffffffffffffff811182821017156119b4576119b461197b565b604051601f8201601f1916810167ffffffffffffffff81118282101715611a0757611a0761197b565b604052919050565b60008060408385031215611a2257600080fd5b8235611a2d81611919565b915060208381013567ffffffffffffffff80821115611a4b57600080fd5b818601915086601f830112611a5f57600080fd5b813581811115611a7157611a7161197b565b611a83601f8201601f191685016119de565b91508082528784828501011115611a9957600080fd5b80848401858401376000848284010152508093505050509250929050565b60208082526026908201527f43616c6c657220646f65736e277420686176652055504752414445525f524f4c6040820152654520726f6c6560d01b606082015260800190565b6020808252602c908201527f46756e6374696f6e206d7573742062652063616c6c6564207468726f7567682060408201526b19195b1959d85d1958d85b1b60a21b606082015260800190565b6020808252602c908201527f46756e6374696f6e206d7573742062652063616c6c6564207468726f7567682060408201526b6163746976652070726f787960a01b606082015260800190565b600060208284031215611ba757600080fd5b5051919050565b634e487b7160e01b600052601160045260246000fd5b808202811582820484141761045e5761045e611bae565b600082611bf857634e487b7160e01b600052601260045260246000fd5b500490565b6000806040808486031215611c1157600080fd5b835167ffffffffffffffff80821115611c2957600080fd5b818601915086601f830112611c3d57600080fd5b8151602082821115611c5157611c5161197b565b611c5f818360051b016119de565b828152818101935061018092830285018201928a841115611c7f57600080fd5b948201945b83861015611d145780868c031215611c9c5760008081fd5b611ca4611991565b8651611caf81611919565b81528684015184820152605f87018c13611cc95760008081fd5b611cd16119ba565b808389018e811115611ce35760008081fd5b8a8a015b81811015611cfe5780518452928701928701611ce7565b5050828a01525085529485019493820193611c84565b509701519698969750505050505050565b6001600160a01b038381168252604060208084018290528451848301819052600093868301929091606087019086805b82811015611da95786518051871685528581015186860152880151888501835b600a811015611d9257825182529187019190870190600101611d75565b505050958401956101809390930192600101611d55565b50919a9950505050505050505050565b8082018082111561045e5761045e611bae565b600060208284031215611dde57600080fd5b8151801515811461174c57600080fd5b600060208284031215611e0057600080fd5b815161174c81611919565b6020808252602b908201527f496e697469616c697a61626c653a20636f6e7472616374206973206e6f74206960408201526a6e697469616c697a696e6760a81b606082015260800190565b60005b83811015611e71578181015183820152602001611e59565b50506000910152565b7f416363657373436f6e74726f6c3a206163636f756e7420000000000000000000815260008351611eb2816017850160208801611e56565b7001034b99036b4b9b9b4b733903937b6329607d1b6017918401918201528351611ee3816028840160208801611e56565b01602801949350505050565b6020815260008251806020840152611f0e816040850160208701611e56565b601f01601f19169190910160400192915050565b634e487b7160e01b600052603260045260246000fd5b600081611f4757611f47611bae565b506000190190565b60008251611f61818460208701611e56565b919091019291505056fe189ab7a9244df0848122154315af71fe140f3db0fe014031783b0946b8c9d2e3360894a13ba1a3210667c828492db98dca3e2076cc3735a920a3ca505d382bbc416464726573733a206c6f772d6c6576656c2064656c65676174652063616c6c206661696c6564a26469706673582212202c52773313c8531fdeada05340f534eaea40492e2a0f167e31c856f043d5072064736f6c63430008140033",
  "linkReferences": {},
  "deployedLinkReferences": {},
  "implementation": "0x60c8A332Fd6d67F80cC4906f31ce9c5043fab992"
}