{
  "address": "0xAe770d24ec1580A13392E0B71067571351029203",
  "_format": "hh-sol-artifact-1",
  "contractName": "WrappedXusdToken",
  "sourceName": "contracts/WrappedXusdToken.sol",
  "abi": [
    {
      "inputs": [],
      "stateMutability": "nonpayable",
      "type": "constructor"
    },
    {
      "anonymous": false,
      "inputs": [
        {
          "indexed": false,
          "internalType": "address",
          "name": "previousAdmin",
          "type": "address"
        },
        {
          "indexed": false,
          "internalType": "address",
          "name": "newAdmin",
          "type": "address"
        }
      ],
      "name": "AdminChanged",
      "type": "event"
    },
    {
      "anonymous": false,
      "inputs": [
        {
          "indexed": true,
          "internalType": "address",
          "name": "owner",
          "type": "address"
        },
        {
          "indexed": true,
          "internalType": "address",
          "name": "spender",
          "type": "address"
        },
        {
          "indexed": false,
          "internalType": "uint256",
          "name": "value",
          "type": "uint256"
        }
      ],
      "name": "Approval",
      "type": "event"
    },
    {
      "anonymous": false,
      "inputs": [
        {
          "indexed": true,
          "internalType": "address",
          "name": "beacon",
          "type": "address"
        }
      ],
      "name": "BeaconUpgraded",
      "type": "event"
    },
    {
      "anonymous": false,
      "inputs": [
        {
          "indexed": true,
          "internalType": "address",
          "name": "caller",
          "type": "address"
        },
        {
          "indexed": true,
          "internalType": "address",
          "name": "owner",
          "type": "address"
        },
        {
          "indexed": false,
          "internalType": "uint256",
          "name": "assets",
          "type": "uint256"
        },
        {
          "indexed": false,
          "internalType": "uint256",
          "name": "shares",
          "type": "uint256"
        }
      ],
      "name": "Deposit",
      "type": "event"
    },
    {
      "anonymous": false,
      "inputs": [
        {
          "indexed": false,
          "internalType": "uint8",
          "name": "version",
          "type": "uint8"
        }
      ],
      "name": "Initialized",
      "type": "event"
    },
    {
      "anonymous": false,
      "inputs": [],
      "name": "Paused",
      "type": "event"
    },
    {
      "anonymous": false,
      "inputs": [
        {
          "indexed": false,
          "internalType": "address",
          "name": "remoteHub",
          "type": "address"
        }
      ],
      "name": "RemoteHubUpdated",
      "type": "event"
    },
    {
      "anonymous": false,
      "inputs": [
        {
          "indexed": true,
          "internalType": "bytes32",
          "name": "role",
          "type": "bytes32"
        },
        {
          "indexed": true,
          "internalType": "bytes32",
          "name": "previousAdminRole",
          "type": "bytes32"
        },
        {
          "indexed": true,
          "internalType": "bytes32",
          "name": "newAdminRole",
          "type": "bytes32"
        }
      ],
      "name": "RoleAdminChanged",
      "type": "event"
    },
    {
      "anonymous": false,
      "inputs": [
        {
          "indexed": true,
          "internalType": "bytes32",
          "name": "role",
          "type": "bytes32"
        },
        {
          "indexed": true,
          "internalType": "address",
          "name": "account",
          "type": "address"
        },
        {
          "indexed": true,
          "internalType": "address",
          "name": "sender",
          "type": "address"
        }
      ],
      "name": "RoleGranted",
      "type": "event"
    },
    {
      "anonymous": false,
      "inputs": [
        {
          "indexed": true,
          "internalType": "bytes32",
          "name": "role",
          "type": "bytes32"
        },
        {
          "indexed": true,
          "internalType": "address",
          "name": "account",
          "type": "address"
        },
        {
          "indexed": true,
          "internalType": "address",
          "name": "sender",
          "type": "address"
        }
      ],
      "name": "RoleRevoked",
      "type": "event"
    },
    {
      "anonymous": false,
      "inputs": [
        {
          "indexed": true,
          "internalType": "address",
          "name": "from",
          "type": "address"
        },
        {
          "indexed": true,
          "internalType": "address",
          "name": "to",
          "type": "address"
        },
        {
          "indexed": false,
          "internalType": "uint256",
          "name": "value",
          "type": "uint256"
        }
      ],
      "name": "Transfer",
      "type": "event"
    },
    {
      "anonymous": false,
      "inputs": [],
      "name": "Unpaused",
      "type": "event"
    },
    {
      "anonymous": false,
      "inputs": [
        {
          "indexed": true,
          "internalType": "address",
          "name": "implementation",
          "type": "address"
        }
      ],
      "name": "Upgraded",
      "type": "event"
    },
    {
      "anonymous": false,
      "inputs": [
        {
          "indexed": true,
          "internalType": "address",
          "name": "caller",
          "type": "address"
        },
        {
          "indexed": true,
          "internalType": "address",
          "name": "receiver",
          "type": "address"
        },
        {
          "indexed": true,
          "internalType": "address",
          "name": "owner",
          "type": "address"
        },
        {
          "indexed": false,
          "internalType": "uint256",
          "name": "assets",
          "type": "uint256"
        },
        {
          "indexed": false,
          "internalType": "uint256",
          "name": "shares",
          "type": "uint256"
        }
      ],
      "name": "Withdraw",
      "type": "event"
    },
    {
      "inputs": [],
      "name": "DEFAULT_ADMIN_ROLE",
      "outputs": [
        {
          "internalType": "bytes32",
          "name": "",
          "type": "bytes32"
        }
      ],
      "stateMutability": "view",
      "type": "function"
    },
    {
      "inputs": [],
      "name": "UPGRADER_ROLE",
      "outputs": [
        {
          "internalType": "bytes32",
          "name": "",
          "type": "bytes32"
        }
      ],
      "stateMutability": "pure",
      "type": "function"
    },
    {
      "inputs": [
        {
          "internalType": "address",
          "name": "owner",
          "type": "address"
        },
        {
          "internalType": "address",
          "name": "spender",
          "type": "address"
        }
      ],
      "name": "allowance",
      "outputs": [
        {
          "internalType": "uint256",
          "name": "",
          "type": "uint256"
        }
      ],
      "stateMutability": "view",
      "type": "function"
    },
    {
      "inputs": [
        {
          "internalType": "address",
          "name": "spender",
          "type": "address"
        },
        {
          "internalType": "uint256",
          "name": "amount",
          "type": "uint256"
        }
      ],
      "name": "approve",
      "outputs": [
        {
          "internalType": "bool",
          "name": "",
          "type": "bool"
        }
      ],
      "stateMutability": "nonpayable",
      "type": "function"
    },
    {
      "inputs": [
        {
          "internalType": "address",
          "name": "account",
          "type": "address"
        }
      ],
      "name": "balanceOf",
      "outputs": [
        {
          "internalType": "uint256",
          "name": "",
          "type": "uint256"
        }
      ],
      "stateMutability": "view",
      "type": "function"
    },
    {
      "inputs": [
        {
          "internalType": "uint256",
          "name": "amount",
          "type": "uint256"
        }
      ],
      "name": "burn",
      "outputs": [],
      "stateMutability": "nonpayable",
      "type": "function"
    },
    {
      "inputs": [
        {
          "internalType": "uint256",
          "name": "shares",
          "type": "uint256"
        }
      ],
      "name": "convertToAssets",
      "outputs": [
        {
          "internalType": "uint256",
          "name": "",
          "type": "uint256"
        }
      ],
      "stateMutability": "view",
      "type": "function"
    },
    {
      "inputs": [
        {
          "internalType": "uint256",
          "name": "assets",
          "type": "uint256"
        }
      ],
      "name": "convertToShares",
      "outputs": [
        {
          "internalType": "uint256",
          "name": "",
          "type": "uint256"
        }
      ],
      "stateMutability": "view",
      "type": "function"
    },
    {
      "inputs": [],
      "name": "decimals",
      "outputs": [
        {
          "internalType": "uint8",
          "name": "",
          "type": "uint8"
        }
      ],
      "stateMutability": "view",
      "type": "function"
    },
    {
      "inputs": [
        {
          "internalType": "address",
          "name": "spender",
          "type": "address"
        },
        {
          "internalType": "uint256",
          "name": "subtractedValue",
          "type": "uint256"
        }
      ],
      "name": "decreaseAllowance",
      "outputs": [
        {
          "internalType": "bool",
          "name": "",
          "type": "bool"
        }
      ],
      "stateMutability": "nonpayable",
      "type": "function"
    },
    {
      "inputs": [
        {
          "internalType": "uint256",
          "name": "assets",
          "type": "uint256"
        },
        {
          "internalType": "address",
          "name": "receiver",
          "type": "address"
        }
      ],
      "name": "deposit",
      "outputs": [
        {
          "internalType": "uint256",
          "name": "",
          "type": "uint256"
        }
      ],
      "stateMutability": "nonpayable",
      "type": "function"
    },
    {
      "inputs": [
        {
          "internalType": "bytes32",
          "name": "role",
          "type": "bytes32"
        }
      ],
      "name": "getRoleAdmin",
      "outputs": [
        {
          "internalType": "bytes32",
          "name": "",
          "type": "bytes32"
        }
      ],
      "stateMutability": "view",
      "type": "function"
    },
    {
      "inputs": [
        {
          "internalType": "bytes32",
          "name": "role",
          "type": "bytes32"
        },
        {
          "internalType": "address",
          "name": "account",
          "type": "address"
        }
      ],
      "name": "grantRole",
      "outputs": [],
      "stateMutability": "nonpayable",
      "type": "function"
    },
    {
      "inputs": [
        {
          "internalType": "bytes32",
          "name": "role",
          "type": "bytes32"
        },
        {
          "internalType": "address",
          "name": "account",
          "type": "address"
        }
      ],
      "name": "hasRole",
      "outputs": [
        {
          "internalType": "bool",
          "name": "",
          "type": "bool"
        }
      ],
      "stateMutability": "view",
      "type": "function"
    },
    {
      "inputs": [
        {
          "internalType": "address",
          "name": "spender",
          "type": "address"
        },
        {
          "internalType": "uint256",
          "name": "addedValue",
          "type": "uint256"
        }
      ],
      "name": "increaseAllowance",
      "outputs": [
        {
          "internalType": "bool",
          "name": "",
          "type": "bool"
        }
      ],
      "stateMutability": "nonpayable",
      "type": "function"
    },
    {
      "inputs": [
        {
          "internalType": "string",
          "name": "name",
          "type": "string"
        },
        {
          "internalType": "string",
          "name": "symbol",
          "type": "string"
        },
        {
          "internalType": "uint8",
          "name": "newDecimals",
          "type": "uint8"
        },
        {
          "internalType": "address",
          "name": "_remoteHub",
          "type": "address"
        }
      ],
      "name": "initialize",
      "outputs": [],
      "stateMutability": "nonpayable",
      "type": "function"
    },
    {
      "inputs": [
        {
          "internalType": "address",
          "name": "_remoteHub",
          "type": "address"
        }
      ],
      "name": "initialize_v2",
      "outputs": [],
      "stateMutability": "nonpayable",
      "type": "function"
    },
    {
      "inputs": [
        {
          "internalType": "address",
          "name": "receiver",
          "type": "address"
        }
      ],
      "name": "maxDeposit",
      "outputs": [
        {
          "internalType": "uint256",
          "name": "",
          "type": "uint256"
        }
      ],
      "stateMutability": "view",
      "type": "function"
    },
    {
      "inputs": [
        {
          "internalType": "address",
          "name": "receiver",
          "type": "address"
        }
      ],
      "name": "maxMint",
      "outputs": [
        {
          "internalType": "uint256",
          "name": "",
          "type": "uint256"
        }
      ],
      "stateMutability": "view",
      "type": "function"
    },
    {
      "inputs": [
        {
          "internalType": "address",
          "name": "owner",
          "type": "address"
        }
      ],
      "name": "maxRedeem",
      "outputs": [
        {
          "internalType": "uint256",
          "name": "",
          "type": "uint256"
        }
      ],
      "stateMutability": "view",
      "type": "function"
    },
    {
      "inputs": [
        {
          "internalType": "address",
          "name": "owner",
          "type": "address"
        }
      ],
      "name": "maxWithdraw",
      "outputs": [
        {
          "internalType": "uint256",
          "name": "",
          "type": "uint256"
        }
      ],
      "stateMutability": "view",
      "type": "function"
    },
    {
      "inputs": [
        {
          "internalType": "address",
          "name": "account",
          "type": "address"
        },
        {
          "internalType": "uint256",
          "name": "amount",
          "type": "uint256"
        }
      ],
      "name": "mint",
      "outputs": [],
      "stateMutability": "nonpayable",
      "type": "function"
    },
    {
      "inputs": [
        {
          "internalType": "uint256",
          "name": "shares",
          "type": "uint256"
        },
        {
          "internalType": "address",
          "name": "receiver",
          "type": "address"
        }
      ],
      "name": "mint",
      "outputs": [
        {
          "internalType": "uint256",
          "name": "",
          "type": "uint256"
        }
      ],
      "stateMutability": "nonpayable",
      "type": "function"
    },
    {
      "inputs": [],
      "name": "name",
      "outputs": [
        {
          "internalType": "string",
          "name": "",
          "type": "string"
        }
      ],
      "stateMutability": "view",
      "type": "function"
    },
    {
      "inputs": [],
      "name": "pause",
      "outputs": [],
      "stateMutability": "nonpayable",
      "type": "function"
    },
    {
      "inputs": [],
      "name": "paused",
      "outputs": [
        {
          "internalType": "bool",
          "name": "",
          "type": "bool"
        }
      ],
      "stateMutability": "view",
      "type": "function"
    },
    {
      "inputs": [
        {
          "internalType": "uint256",
          "name": "assets",
          "type": "uint256"
        }
      ],
      "name": "previewDeposit",
      "outputs": [
        {
          "internalType": "uint256",
          "name": "",
          "type": "uint256"
        }
      ],
      "stateMutability": "view",
      "type": "function"
    },
    {
      "inputs": [
        {
          "internalType": "uint256",
          "name": "shares",
          "type": "uint256"
        }
      ],
      "name": "previewMint",
      "outputs": [
        {
          "internalType": "uint256",
          "name": "",
          "type": "uint256"
        }
      ],
      "stateMutability": "view",
      "type": "function"
    },
    {
      "inputs": [
        {
          "internalType": "uint256",
          "name": "shares",
          "type": "uint256"
        }
      ],
      "name": "previewRedeem",
      "outputs": [
        {
          "internalType": "uint256",
          "name": "",
          "type": "uint256"
        }
      ],
      "stateMutability": "view",
      "type": "function"
    },
    {
      "inputs": [
        {
          "internalType": "uint256",
          "name": "assets",
          "type": "uint256"
        }
      ],
      "name": "previewWithdraw",
      "outputs": [
        {
          "internalType": "uint256",
          "name": "",
          "type": "uint256"
        }
      ],
      "stateMutability": "view",
      "type": "function"
    },
    {
      "inputs": [],
      "name": "proxiableUUID",
      "outputs": [
        {
          "internalType": "bytes32",
          "name": "",
          "type": "bytes32"
        }
      ],
      "stateMutability": "view",
      "type": "function"
    },
    {
      "inputs": [],
      "name": "rate",
      "outputs": [
        {
          "internalType": "uint256",
          "name": "",
          "type": "uint256"
        }
      ],
      "stateMutability": "view",
      "type": "function"
    },
    {
      "inputs": [
        {
          "internalType": "uint256",
          "name": "shares",
          "type": "uint256"
        },
        {
          "internalType": "address",
          "name": "receiver",
          "type": "address"
        },
        {
          "internalType": "address",
          "name": "owner",
          "type": "address"
        }
      ],
      "name": "redeem",
      "outputs": [
        {
          "internalType": "uint256",
          "name": "",
          "type": "uint256"
        }
      ],
      "stateMutability": "nonpayable",
      "type": "function"
    },
    {
      "inputs": [
        {
          "internalType": "bytes32",
          "name": "role",
          "type": "bytes32"
        },
        {
          "internalType": "address",
          "name": "account",
          "type": "address"
        }
      ],
      "name": "renounceRole",
      "outputs": [],
      "stateMutability": "nonpayable",
      "type": "function"
    },
    {
      "inputs": [
        {
          "internalType": "bytes32",
          "name": "role",
          "type": "bytes32"
        },
        {
          "internalType": "address",
          "name": "account",
          "type": "address"
        }
      ],
      "name": "revokeRole",
      "outputs": [],
      "stateMutability": "nonpayable",
      "type": "function"
    },
    {
      "inputs": [
        {
          "internalType": "address",
          "name": "_remoteHub",
          "type": "address"
        }
      ],
      "name": "setRemoteHub",
      "outputs": [],
      "stateMutability": "nonpayable",
      "type": "function"
    },
    {
      "inputs": [
        {
          "internalType": "bytes4",
          "name": "interfaceId",
          "type": "bytes4"
        }
      ],
      "name": "supportsInterface",
      "outputs": [
        {
          "internalType": "bool",
          "name": "",
          "type": "bool"
        }
      ],
      "stateMutability": "view",
      "type": "function"
    },
    {
      "inputs": [],
      "name": "symbol",
      "outputs": [
        {
          "internalType": "string",
          "name": "",
          "type": "string"
        }
      ],
      "stateMutability": "view",
      "type": "function"
    },
    {
      "inputs": [],
      "name": "totalAssets",
      "outputs": [
        {
          "internalType": "uint256",
          "name": "",
          "type": "uint256"
        }
      ],
      "stateMutability": "view",
      "type": "function"
    },
    {
      "inputs": [],
      "name": "totalSupply",
      "outputs": [
        {
          "internalType": "uint256",
          "name": "",
          "type": "uint256"
        }
      ],
      "stateMutability": "view",
      "type": "function"
    },
    {
      "inputs": [
        {
          "internalType": "address",
          "name": "to",
          "type": "address"
        },
        {
          "internalType": "uint256",
          "name": "amount",
          "type": "uint256"
        }
      ],
      "name": "transfer",
      "outputs": [
        {
          "internalType": "bool",
          "name": "",
          "type": "bool"
        }
      ],
      "stateMutability": "nonpayable",
      "type": "function"
    },
    {
      "inputs": [
        {
          "internalType": "address",
          "name": "from",
          "type": "address"
        },
        {
          "internalType": "address",
          "name": "to",
          "type": "address"
        },
        {
          "internalType": "uint256",
          "name": "amount",
          "type": "uint256"
        }
      ],
      "name": "transferFrom",
      "outputs": [
        {
          "internalType": "bool",
          "name": "",
          "type": "bool"
        }
      ],
      "stateMutability": "nonpayable",
      "type": "function"
    },
    {
      "inputs": [],
      "name": "unpause",
      "outputs": [],
      "stateMutability": "nonpayable",
      "type": "function"
    },
    {
      "inputs": [
        {
          "internalType": "address",
          "name": "newImplementation",
          "type": "address"
        }
      ],
      "name": "upgradeTo",
      "outputs": [],
      "stateMutability": "nonpayable",
      "type": "function"
    },
    {
      "inputs": [
        {
          "internalType": "address",
          "name": "newImplementation",
          "type": "address"
        },
        {
          "internalType": "bytes",
          "name": "data",
          "type": "bytes"
        }
      ],
      "name": "upgradeToAndCall",
      "outputs": [],
      "stateMutability": "payable",
      "type": "function"
    },
    {
      "inputs": [
        {
          "internalType": "uint256",
          "name": "assets",
          "type": "uint256"
        },
        {
          "internalType": "address",
          "name": "receiver",
          "type": "address"
        },
        {
          "internalType": "address",
          "name": "owner",
          "type": "address"
        }
      ],
      "name": "withdraw",
      "outputs": [
        {
          "internalType": "uint256",
          "name": "",
          "type": "uint256"
        }
      ],
      "stateMutability": "nonpayable",
      "type": "function"
    },
    {
      "stateMutability": "payable",
      "type": "receive"
    }
  ],
  "bytecode": "0x60a0604052306080523480156200001557600080fd5b506200002062000026565b620000e7565b600054610100900460ff1615620000935760405162461bcd60e51b815260206004820152602760248201527f496e697469616c697a61626c653a20636f6e747261637420697320696e697469604482015266616c697a696e6760c81b606482015260840160405180910390fd5b60005460ff90811614620000e5576000805460ff191660ff9081179091556040519081527f7f26b83ff96e1f2b6a682f133852f6798a09c465da95921460cefb38474024989060200160405180910390a15b565b608051613d2f6200011f60003960008181610a5d01528181610a9d015281816111f70152818161123701526112c60152613d2f6000f3fe6080604052600436106102815760003560e01c80635bc19c3f1161014f578063b3d7f6b9116100c1578063d547741f1161007a578063d547741f14610746578063d905777e14610766578063dd62ed3e14610786578063de7ea79d146107a6578063ef8b30f714610706578063f72c0d8b146107c657600080fd5b8063b3d7f6b9146106a6578063b460af94146106c6578063ba087652146106e6578063c63d75b6146104a5578063c6e6f59214610706578063ce96cb771461072657600080fd5b806391d148541161011357806391d14854146105fc57806394bf804d1461061c57806395d89b411461063c578063a217fddf14610651578063a457c2d714610666578063a9059cbb1461068657600080fd5b80635bc19c3f1461054f5780635c975abb1461056f5780636e553f651461059157806370a08231146105b15780638456cb59146105e757600080fd5b8063313ce567116101f3578063405a11dc116101ac578063405a11dc146104c757806340c10f19146104e757806342966c68146105075780634cdad506146103075780634f1ef2861461052757806352d1902d1461053a57600080fd5b8063313ce5671461040357806336568abe146104305780633659cfe61461045057806339509351146104705780633f4ba83a14610490578063402d267d146104a557600080fd5b80630a28a477116102455780630a28a4771461034757806318160ddd1461036757806323b872dd1461037c578063248a9ca31461039c5780632c4e722e146103cc5780632f2ff15d146103e157600080fd5b806301e1d1141461028d57806301ffc9a7146102b557806306fdde03146102e557806307a2d13a14610307578063095ea7b31461032757600080fd5b3661028857005b600080fd5b34801561029957600080fd5b506102a26107e7565b6040519081526020015b60405180910390f35b3480156102c157600080fd5b506102d56102d036600461333c565b6107ff565b60405190151581526020016102ac565b3480156102f157600080fd5b506102fa610836565b6040516102ac91906133b6565b34801561031357600080fd5b506102a26103223660046133c9565b6108c8565b34801561033357600080fd5b506102d56103423660046133f7565b6108d3565b34801561035357600080fd5b506102a26103623660046133c9565b6108eb565b34801561037357600080fd5b506035546102a2565b34801561038857600080fd5b506102d5610397366004613423565b6108f6565b3480156103a857600080fd5b506102a26103b73660046133c9565b60009081526097602052604090206001015490565b3480156103d857600080fd5b506102a261091a565b3480156103ed57600080fd5b506104016103fc366004613464565b6109a6565b005b34801561040f57600080fd5b5061012d54600160a01b900460ff1660405160ff90911681526020016102ac565b34801561043c57600080fd5b5061040161044b366004613464565b6109d0565b34801561045c57600080fd5b5061040161046b366004613494565b610a53565b34801561047c57600080fd5b506102d561048b3660046133f7565b610b32565b34801561049c57600080fd5b50610401610b54565b3480156104b157600080fd5b506102a26104c0366004613494565b5060001990565b3480156104d357600080fd5b506104016104e2366004613494565b610c8d565b3480156104f357600080fd5b506104016105023660046133f7565b610d6d565b34801561051357600080fd5b506104016105223660046133c9565b610fd7565b6104016105353660046134c7565b6111ed565b34801561054657600080fd5b506102a26112b9565b34801561055b57600080fd5b5061040161056a366004613494565b61136c565b34801561057b57600080fd5b5061012d546102d590600160a81b900460ff1681565b34801561059d57600080fd5b506102a26105ac366004613464565b61151e565b3480156105bd57600080fd5b506102a26105cc366004613494565b6001600160a01b031660009081526033602052604090205490565b3480156105f357600080fd5b50610401611677565b34801561060857600080fd5b506102d5610617366004613464565b6117b6565b34801561062857600080fd5b506102a2610637366004613464565b6117e1565b34801561064857600080fd5b506102fa61191e565b34801561065d57600080fd5b506102a2600081565b34801561067257600080fd5b506102d56106813660046133f7565b61192d565b34801561069257600080fd5b506102d56106a13660046133f7565b6119a8565b3480156106b257600080fd5b506102a26106c13660046133c9565b6119b6565b3480156106d257600080fd5b506102a26106e136600461358b565b6119c1565b3480156106f257600080fd5b506102a261070136600461358b565b611bcd565b34801561071257600080fd5b506102a26107213660046133c9565b611db3565b34801561073257600080fd5b506102a2610741366004613494565b611dbe565b34801561075257600080fd5b50610401610761366004613464565b611de0565b34801561077257600080fd5b506102a2610781366004613494565b611e05565b34801561079257600080fd5b506102a26107a13660046135cd565b611e23565b3480156107b257600080fd5b506104016107c1366004613644565b611e4e565b3480156107d257600080fd5b50600080516020613c938339815191526102a2565b60006107fa6107f560355490565b611fec565b905090565b60006001600160e01b03198216637965db0b60e01b148061083057506301ffc9a760e01b6001600160e01b03198316145b92915050565b606060368054610845906136df565b80601f0160208091040260200160405190810160405280929190818152602001828054610871906136df565b80156108be5780601f10610893576101008083540402835291602001916108be565b820191906000526020600020905b8154815290600101906020018083116108a157829003601f168201915b5050505050905090565b600061083082611fec565b6000336108e1818585612000565b5060019392505050565b600061083082612124565b600033610904858285612138565b61090f8585856121ac565b506001949350505050565b6000610924612357565b6001600160a01b0316637a46a9c56040518163ffffffff1660e01b8152600401602060405180830381865afa158015610961573d6000803e3d6000fd5b505050506040513d601f19601f820116820180604052508101906109859190613719565b6107fa90760a70c3c40a64e6c51999090b65f67d9240000000000000613748565b6000828152609760205260409020600101546109c1816123c6565b6109cb83836123d0565b505050565b6001600160a01b0381163314610a455760405162461bcd60e51b815260206004820152602f60248201527f416363657373436f6e74726f6c3a2063616e206f6e6c792072656e6f756e636560448201526e103937b632b9903337b91039b2b63360891b60648201526084015b60405180910390fd5b610a4f8282612456565b5050565b6001600160a01b037f0000000000000000000000000000000000000000000000000000000000000000163003610a9b5760405162461bcd60e51b8152600401610a3c9061376a565b7f00000000000000000000000000000000000000000000000000000000000000006001600160a01b0316610ae4600080516020613cb3833981519152546001600160a01b031690565b6001600160a01b031614610b0a5760405162461bcd60e51b8152600401610a3c906137b6565b610b13816124bd565b60408051600080825260208201909252610b2f918391906124f0565b50565b6000336108e1818585610b458383611e23565b610b4f9190613802565b612000565b6000610b5e61265b565b9050806001600160a01b03166391d14854826001600160a01b0316635dbd733a6040518163ffffffff1660e01b8152600401602060405180830381865afa158015610bad573d6000803e3d6000fd5b505050506040513d601f19601f82011682018060405250810190610bd19190613719565b6040516001600160e01b031960e084901b1681526004810191909152336024820152604401602060405180830381865afa158015610c13573d6000803e3d6000fd5b505050506040513d601f19601f82011682018060405250810190610c379190613815565b610c535760405162461bcd60e51b8152600401610a3c90613837565b61012d805460ff60a81b191690556040517fa45f47fdea8a1efdd9029a5691c7f759c32b7c698632b563573e155625d1693390600090a150565b610ca6600080516020613c938339815191525b336117b6565b610cc25760405162461bcd60e51b8152600401610a3c90613884565b6001600160a01b038116610d185760405162461bcd60e51b815260206004820152601860248201527f5a65726f2061646472657373206e6f7420616c6c6f77656400000000000000006044820152606401610a3c565b61012d80546001600160a01b0319166001600160a01b0383169081179091556040519081527f0acbcc2f890f48416af3a85d8a92e6b01a61ca13a98ccf21d101bf3fe06593fc9060200160405180910390a150565b610d9f604051806040016040528060118152602001701dda195b939bdd14185d5cd959081d1d5d607a1b8152506126a4565b61012d54600160a81b900460ff1615610dca5760405162461bcd60e51b8152600401610a3c906138ca565b604080518082018252600c81526b1bdb9b1e50d0d254081d1d5d60a21b60208083019190915261012d5483516336b130ab60e01b81529351610e62946001600160a01b03909216926336b130ab92600480820193918290030181865afa158015610e38573d6000803e3d6000fd5b505050506040513d601f19601f82011682018060405250810190610e5c91906138e9565b336126e7565b61012d54604080516336b130ab60e01b8152905133926001600160a01b0316916336b130ab9160048083019260209291908290030181865afa158015610eac573d6000803e3d6000fd5b505050506040513d601f19601f82011682018060405250810190610ed091906138e9565b6001600160a01b031614610f265760405162461bcd60e51b815260206004820152601b60248201527f43616c6c6572206973206e6f7420746865204343495020706f6f6c00000000006044820152606401610a3c565b610f4f604051806040016040528060088152602001671b5a5b9d081d1d5d60c21b8152506126a4565b806000610f5b8261272e565b9050610f65612357565b6040516340c10f1960e01b8152306004820152602481018390526001600160a01b0391909116906340c10f1990604401600060405180830381600087803b158015610faf57600080fd5b505af1158015610fc3573d6000803e3d6000fd5b50505050610fd18483612742565b50505050565b611009604051806040016040528060118152602001701dda195b939bdd14185d5cd959081d1d5d607a1b8152506126a4565b61012d54600160a81b900460ff16156110345760405162461bcd60e51b8152600401610a3c906138ca565b604080518082018252600c81526b1bdb9b1e50d0d254081d1d5d60a21b60208083019190915261012d5483516336b130ab60e01b815293516110a2946001600160a01b03909216926336b130ab92600480820193918290030181865afa158015610e38573d6000803e3d6000fd5b61012d54604080516336b130ab60e01b8152905133926001600160a01b0316916336b130ab9160048083019260209291908290030181865afa1580156110ec573d6000803e3d6000fd5b505050506040513d601f19601f8201168201806040525081019061111091906138e9565b6001600160a01b0316146111665760405162461bcd60e51b815260206004820152601b60248201527f43616c6c6572206973206e6f7420746865204343495020706f6f6c00000000006044820152606401610a3c565b806111713382612803565b600061117c82611fec565b9050611186612357565b604051632770a7eb60e21b8152306004820152602481018390526001600160a01b039190911690639dc29fac90604401600060405180830381600087803b1580156111d057600080fd5b505af11580156111e4573d6000803e3d6000fd5b50505050505050565b6001600160a01b037f00000000000000000000000000000000000000000000000000000000000000001630036112355760405162461bcd60e51b8152600401610a3c9061376a565b7f00000000000000000000000000000000000000000000000000000000000000006001600160a01b031661127e600080516020613cb3833981519152546001600160a01b031690565b6001600160a01b0316146112a45760405162461bcd60e51b8152600401610a3c906137b6565b6112ad826124bd565b610a4f828260016124f0565b6000306001600160a01b037f000000000000000000000000000000000000000000000000000000000000000016146113595760405162461bcd60e51b815260206004820152603860248201527f555550535570677261646561626c653a206d757374206e6f742062652063616c60448201527f6c6564207468726f7567682064656c656761746563616c6c00000000000000006064820152608401610a3c565b50600080516020613cb383398151915290565b600054600290610100900460ff1615801561138e575060005460ff8083169116105b6113aa5760405162461bcd60e51b8152600401610a3c90613906565b6000805461ffff191660ff8316176101001781556113c661265b565b9050806001600160a01b03166391d14854826001600160a01b0316635dbd733a6040518163ffffffff1660e01b8152600401602060405180830381865afa158015611415573d6000803e3d6000fd5b505050506040513d601f19601f820116820180604052508101906114399190613719565b6040516001600160e01b031960e084901b1681526004810191909152336024820152604401602060405180830381865afa15801561147b573d6000803e3d6000fd5b505050506040513d601f19601f8201168201806040525081019061149f9190613815565b6114bb5760405162461bcd60e51b8152600401610a3c90613837565b5061012d8054600161ff0160a01b0319166001600160a01b0384161790556000805461ff001916905560405160ff821681527f7f26b83ff96e1f2b6a682f133852f6798a09c465da95921460cefb38474024989060200160405180910390a15050565b6000611552604051806040016040528060118152602001701dda195b939bdd14185d5cd959081d1d5d607a1b8152506126a4565b61012d54600160a81b900460ff161561157d5760405162461bcd60e51b8152600401610a3c906138ca565b826000036115c75760405162461bcd60e51b815260206004820152601760248201527616995c9bc8185cdcd95d1cc81b9bdd08185b1b1bddd959604a1b6044820152606401610a3c565b6001600160a01b0382166115ed5760405162461bcd60e51b8152600401610a3c90613954565b61160c3330856115fb612357565b6001600160a01b0316929190612937565b6000611617846129a2565b90508015611629576116298382612742565b60408051858152602081018390526001600160a01b0385169133917fdcbc1c05240f31ff3ad067ef1ee35ce4997762752e3a095284754544f4c709d791015b60405180910390a39392505050565b600061168161265b565b9050806001600160a01b03166391d14854826001600160a01b0316635dbd733a6040518163ffffffff1660e01b8152600401602060405180830381865afa1580156116d0573d6000803e3d6000fd5b505050506040513d601f19601f820116820180604052508101906116f49190613719565b6040516001600160e01b031960e084901b1681526004810191909152336024820152604401602060405180830381865afa158015611736573d6000803e3d6000fd5b505050506040513d601f19601f8201168201806040525081019061175a9190613815565b6117765760405162461bcd60e51b8152600401610a3c90613837565b61012d805460ff60a81b1916600160a81b1790556040517f9e87fac88ff661f02d44f95383c817fece4bce600a3dab7a54406878b965e75290600090a150565b60009182526097602090815260408084206001600160a01b0393909316845291905290205460ff1690565b6000611815604051806040016040528060118152602001701dda195b939bdd14185d5cd959081d1d5d607a1b8152506126a4565b61012d54600160a81b900460ff16156118405760405162461bcd60e51b8152600401610a3c906138ca565b8260000361188a5760405162461bcd60e51b815260206004820152601760248201527616995c9bc81cda185c995cc81b9bdd08185b1b1bddd959604a1b6044820152606401610a3c565b6001600160a01b0382166118b05760405162461bcd60e51b8152600401610a3c90613954565b60006118bb8461272e565b905080156118d1576118d13330836115fb612357565b6118db8385612742565b60408051828152602081018690526001600160a01b0385169133917fdcbc1c05240f31ff3ad067ef1ee35ce4997762752e3a095284754544f4c709d79101611668565b606060378054610845906136df565b6000338161193b8286611e23565b90508381101561199b5760405162461bcd60e51b815260206004820152602560248201527f45524332303a2064656372656173656420616c6c6f77616e63652062656c6f77604482015264207a65726f60d81b6064820152608401610a3c565b61090f8286868403612000565b6000336108e18185856121ac565b60006108308261272e565b60006119f5604051806040016040528060118152602001701dda195b939bdd14185d5cd959081d1d5d607a1b8152506126a4565b61012d54600160a81b900460ff1615611a205760405162461bcd60e51b8152600401610a3c906138ca565b83600003611a6a5760405162461bcd60e51b815260206004820152601760248201527616995c9bc8185cdcd95d1cc81b9bdd08185b1b1bddd959604a1b6044820152606401610a3c565b6001600160a01b038316611a905760405162461bcd60e51b8152600401610a3c90613954565b6001600160a01b038216611ab65760405162461bcd60e51b8152600401610a3c90613999565b6000611ac185612124565b90506001600160a01b0383163314611b4c576000611adf8433611e23565b905081811015611b3b5760405162461bcd60e51b815260206004820152602160248201527f576974686472617720616d6f756e74206578636565647320616c6c6f77616e636044820152606560f81b6064820152608401610a3c565b611b4a8433610b4f85856139db565b505b8015611b5c57611b5c8382612803565b611b798486611b69612357565b6001600160a01b031691906129b6565b60408051868152602081018390526001600160a01b03808616929087169133917ffbde797d201c681b91056529119e0b02407c7bb96a4a2c75c01fc9667232c8db91015b60405180910390a4949350505050565b6000611c01604051806040016040528060118152602001701dda195b939bdd14185d5cd959081d1d5d607a1b8152506126a4565b61012d54600160a81b900460ff1615611c2c5760405162461bcd60e51b8152600401610a3c906138ca565b83600003611c765760405162461bcd60e51b815260206004820152601760248201527616995c9bc81cda185c995cc81b9bdd08185b1b1bddd959604a1b6044820152606401610a3c565b6001600160a01b038316611c9c5760405162461bcd60e51b8152600401610a3c90613954565b6001600160a01b038216611cc25760405162461bcd60e51b8152600401610a3c90613999565b6001600160a01b0382163314611d41576000611cde8333611e23565b905084811015611d305760405162461bcd60e51b815260206004820152601f60248201527f52656465656d20616d6f756e74206578636565647320616c6c6f77616e6365006044820152606401610a3c565b611d3f8333610b4f88856139db565b505b611d4b8285612803565b6000611d5685611fec565b90508015611d6b57611d6b8482611b69612357565b60408051828152602081018790526001600160a01b03808616929087169133917ffbde797d201c681b91056529119e0b02407c7bb96a4a2c75c01fc9667232c8db9101611bbd565b6000610830826129a2565b6001600160a01b03811660009081526033602052604081205461083090611fec565b600082815260976020526040902060010154611dfb816123c6565b6109cb8383612456565b6001600160a01b038116600090815260336020526040812054610830565b6001600160a01b03918216600090815260346020908152604080832093909416825291909152205490565b600054610100900460ff1615808015611e6e5750600054600160ff909116105b80611e885750303b158015611e88575060005460ff166001145b611ea45760405162461bcd60e51b8152600401610a3c90613906565b6000805460ff191660011790558015611ec7576000805461ff0019166101001790555b611f3a87878080601f01602080910402602001604051908101604052809392919081815260200183838082843760009201919091525050604080516020601f8b0181900481028201810190925289815292508991508890819084018382808284376000920191909152506129e692505050565b611f42612a17565b611f4a612a17565b611f556000336123d0565b611f6d600080516020613c93833981519152336123d0565b61012d80546001600160a81b031916600160a01b60ff8616026001600160a01b031916176001600160a01b03841617905580156111e4576000805461ff0019169055604051600181527f7f26b83ff96e1f2b6a682f133852f6798a09c465da95921460cefb38474024989060200160405180910390a150505050505050565b6000610830611ff961091a565b8390612a40565b6001600160a01b0383166120625760405162461bcd60e51b8152602060048201526024808201527f45524332303a20617070726f76652066726f6d20746865207a65726f206164646044820152637265737360e01b6064820152608401610a3c565b6001600160a01b0382166120c35760405162461bcd60e51b815260206004820152602260248201527f45524332303a20617070726f766520746f20746865207a65726f206164647265604482015261737360f01b6064820152608401610a3c565b6001600160a01b0383811660008181526034602090815260408083209487168084529482529182902085905590518481527f8c5be1e5ebec7d5bd14f71427d1e84f3dd0314c0f7b2291e5b200ac8c7c3b925910160405180910390a3505050565b600061083061213161091a565b8390612aac565b60006121448484611e23565b90506000198114610fd1578181101561219f5760405162461bcd60e51b815260206004820152601d60248201527f45524332303a20696e73756666696369656e7420616c6c6f77616e63650000006044820152606401610a3c565b610fd18484848403612000565b6001600160a01b0383166122105760405162461bcd60e51b815260206004820152602560248201527f45524332303a207472616e736665722066726f6d20746865207a65726f206164604482015264647265737360d81b6064820152608401610a3c565b6001600160a01b0382166122725760405162461bcd60e51b815260206004820152602360248201527f45524332303a207472616e7366657220746f20746865207a65726f206164647260448201526265737360e81b6064820152608401610a3c565b6001600160a01b038316600090815260336020526040902054818110156122ea5760405162461bcd60e51b815260206004820152602660248201527f45524332303a207472616e7366657220616d6f756e7420657863656564732062604482015265616c616e636560d01b6064820152608401610a3c565b6001600160a01b0380851660008181526033602052604080822086860390559286168082529083902080548601905591517fddf252ad1be2c89b69c2b068fc378daa952ba7f163c4a11628f55a4df523b3ef9061234a9086815260200190565b60405180910390a3610fd1565b61012d5460408051632869062960e21b815290516000926001600160a01b03169163a1a418a49160048083019260209291908290030181865afa1580156123a2573d6000803e3d6000fd5b505050506040513d601f19601f820116820180604052508101906107fa91906138e9565b610b2f8133612b91565b6123da82826117b6565b610a4f5760008281526097602090815260408083206001600160a01b03851684529091529020805460ff191660011790556124123390565b6001600160a01b0316816001600160a01b0316837f2f8788117e7eff1d82e926ec794901d17c78024a50270940304540a733656f0d60405160405180910390a45050565b61246082826117b6565b15610a4f5760008281526097602090815260408083206001600160a01b0385168085529252808320805460ff1916905551339285917ff6391f5c32d9c69d2a47ea670b442974b53935d1edc7fd64eb21e047a839171b9190a45050565b6124d4600080516020613c93833981519152610ca0565b610b2f5760405162461bcd60e51b8152600401610a3c90613884565b7f4910fdfa16fed3260ed0e7147f7cc6da11a60208b5b9406d12a635614ffd91435460ff1615612523576109cb83612bea565b826001600160a01b03166352d1902d6040518163ffffffff1660e01b8152600401602060405180830381865afa92505050801561257d575060408051601f3d908101601f1916820190925261257a91810190613719565b60015b6125e05760405162461bcd60e51b815260206004820152602e60248201527f45524331393637557067726164653a206e657720696d706c656d656e7461746960448201526d6f6e206973206e6f74205555505360901b6064820152608401610a3c565b600080516020613cb3833981519152811461264f5760405162461bcd60e51b815260206004820152602960248201527f45524331393637557067726164653a20756e737570706f727465642070726f786044820152681a58589b195555525160ba1b6064820152608401610a3c565b506109cb838383612c86565b61012d546040805162435da560e01b815290516000926001600160a01b03169162435da59160048083019260209291908290030181865afa1580156123a2573d6000803e3d6000fd5b610b2f816040516024016126b891906133b6565b60408051601f198184030181529190526020810180516001600160e01b031663104c13eb60e21b179052612cab565b6109cb8383836040516024016126ff939291906139ee565b60408051601f198184030181529190526020810180516001600160e01b03166307e763af60e51b179052612cab565b600061083061273b61091a565b8390612cb4565b6001600160a01b0382166127985760405162461bcd60e51b815260206004820152601f60248201527f45524332303a206d696e7420746f20746865207a65726f2061646472657373006044820152606401610a3c565b80603560008282546127aa9190613802565b90915550506001600160a01b0382166000818152603360209081526040808320805486019055518481527fddf252ad1be2c89b69c2b068fc378daa952ba7f163c4a11628f55a4df523b3ef910160405180910390a35050565b6001600160a01b0382166128635760405162461bcd60e51b815260206004820152602160248201527f45524332303a206275726e2066726f6d20746865207a65726f206164647265736044820152607360f81b6064820152608401610a3c565b6001600160a01b038216600090815260336020526040902054818110156128d75760405162461bcd60e51b815260206004820152602260248201527f45524332303a206275726e20616d6f756e7420657863656564732062616c616e604482015261636560f01b6064820152608401610a3c565b6001600160a01b03831660008181526033602090815260408083208686039055603580548790039055518581529192917fddf252ad1be2c89b69c2b068fc378daa952ba7f163c4a11628f55a4df523b3ef910160405180910390a3505050565b6040516001600160a01b0380851660248301528316604482015260648101829052610fd19085906323b872dd60e01b906084015b60408051601f198184030181529190526020810180516001600160e01b03166001600160e01b031990931692909217909152612d45565b60006108306129af61091a565b8390612e1a565b6040516001600160a01b0383166024820152604481018290526109cb90849063a9059cbb60e01b9060640161296b565b600054610100900460ff16612a0d5760405162461bcd60e51b8152600401610a3c90613a21565b610a4f8282612ec8565b600054610100900460ff16612a3e5760405162461bcd60e51b8152600401610a3c90613a21565b565b6000821580612a4d575081155b15612a5a57506000610830565b612a6682600019613748565b831115612a855760405162461bcd60e51b8152600401610a3c90613a6c565b676765c793fa10079d601b1b612a9b8385613aaf565b612aa59190613748565b9392505050565b600081600003612afe5760405162461bcd60e51b815260206004820152601c60248201527f4572726f72732e4d4154485f4449564953494f4e5f42595f5a45524f000000006044820152606401610a3c565b82600003612b0e57506000610830565b6000612b1b600284613748565b9050676765c793fa10079d601b1b612b35826000196139db565b612b3f9190613748565b841115612b5e5760405162461bcd60e51b8152600401610a3c90613a6c565b8281612b75676765c793fa10079d601b1b87613aaf565b612b7f9190613802565b612b899190613748565b949350505050565b612b9b82826117b6565b610a4f57612ba881612f08565b612bb3836020612f1a565b604051602001612bc4929190613ac6565b60408051601f198184030181529082905262461bcd60e51b8252610a3c916004016133b6565b6001600160a01b0381163b612c575760405162461bcd60e51b815260206004820152602d60248201527f455243313936373a206e657720696d706c656d656e746174696f6e206973206e60448201526c1bdd08184818dbdb9d1c9858dd609a1b6064820152608401610a3c565b600080516020613cb383398151915280546001600160a01b0319166001600160a01b0392909216919091179055565b612c8f836130b6565b600082511180612c9c5750805b156109cb57610fd183836130f6565b610b2f8161311b565b6000821580612cc1575081155b15612cce57506000610830565b81612ce56002676765c793fa10079d601b1b613748565b612cf1906000196139db565b612cfb9190613748565b831115612d1a5760405162461bcd60e51b8152600401610a3c90613a6c565b676765c793fa10079d601b1b612d31600282613748565b612d3b8486613aaf565b612a9b9190613802565b6000612d9a826040518060400160405280602081526020017f5361666545524332303a206c6f772d6c6576656c2063616c6c206661696c6564815250856001600160a01b031661313c9092919063ffffffff16565b9050805160001480612dbb575080806020019051810190612dbb9190613815565b6109cb5760405162461bcd60e51b815260206004820152602a60248201527f5361666545524332303a204552433230206f7065726174696f6e20646964206e6044820152691bdd081cdd58d8d9595960b21b6064820152608401610a3c565b600081600003612e6c5760405162461bcd60e51b815260206004820152601c60248201527f4572726f72732e4d4154485f4449564953494f4e5f42595f5a45524f000000006044820152606401610a3c565b82600003612e7c57506000610830565b612e93676765c793fa10079d601b1b600019613748565b831115612eb25760405162461bcd60e51b8152600401610a3c90613a6c565b81612a9b676765c793fa10079d601b1b85613aaf565b600054610100900460ff16612eef5760405162461bcd60e51b8152600401610a3c90613a21565b6036612efb8382613b89565b5060376109cb8282613b89565b60606108306001600160a01b03831660145b60606000612f29836002613aaf565b612f34906002613802565b67ffffffffffffffff811115612f4c57612f4c6134b1565b6040519080825280601f01601f191660200182016040528015612f76576020820181803683370190505b509050600360fc1b81600081518110612f9157612f91613c49565b60200101906001600160f81b031916908160001a905350600f60fb1b81600181518110612fc057612fc0613c49565b60200101906001600160f81b031916908160001a9053506000612fe4846002613aaf565b612fef906001613802565b90505b6001811115613067576f181899199a1a9b1b9c1cb0b131b232b360811b85600f166010811061302357613023613c49565b1a60f81b82828151811061303957613039613c49565b60200101906001600160f81b031916908160001a90535060049490941c9361306081613c5f565b9050612ff2565b508315612aa55760405162461bcd60e51b815260206004820181905260248201527f537472696e67733a20686578206c656e67746820696e73756666696369656e746044820152606401610a3c565b6130bf81612bea565b6040516001600160a01b038216907fbc7cd75a20ee27fd9adebab32041f755214dbc6bffa90cc0225b39da2e5c2d3b90600090a250565b6060612aa58383604051806060016040528060278152602001613cd36027913961314b565b60006a636f6e736f6c652e6c6f679050600080835160208501845afa505050565b6060612b8984846000856131c3565b6060600080856001600160a01b0316856040516131689190613c76565b600060405180830381855af49150503d80600081146131a3576040519150601f19603f3d011682016040523d82523d6000602084013e6131a8565b606091505b50915091506131b98683838761329e565b9695505050505050565b6060824710156132245760405162461bcd60e51b815260206004820152602660248201527f416464726573733a20696e73756666696369656e742062616c616e636520666f6044820152651c8818d85b1b60d21b6064820152608401610a3c565b600080866001600160a01b031685876040516132409190613c76565b60006040518083038185875af1925050503d806000811461327d576040519150601f19603f3d011682016040523d82523d6000602084013e613282565b606091505b50915091506132938783838761329e565b979650505050505050565b6060831561330d578251600003613306576001600160a01b0385163b6133065760405162461bcd60e51b815260206004820152601d60248201527f416464726573733a2063616c6c20746f206e6f6e2d636f6e74726163740000006044820152606401610a3c565b5081612b89565b612b8983838151156133225781518083602001fd5b8060405162461bcd60e51b8152600401610a3c91906133b6565b60006020828403121561334e57600080fd5b81356001600160e01b031981168114612aa557600080fd5b60005b83811015613381578181015183820152602001613369565b50506000910152565b600081518084526133a2816020860160208601613366565b601f01601f19169290920160200192915050565b602081526000612aa5602083018461338a565b6000602082840312156133db57600080fd5b5035919050565b6001600160a01b0381168114610b2f57600080fd5b6000806040838503121561340a57600080fd5b8235613415816133e2565b946020939093013593505050565b60008060006060848603121561343857600080fd5b8335613443816133e2565b92506020840135613453816133e2565b929592945050506040919091013590565b6000806040838503121561347757600080fd5b823591506020830135613489816133e2565b809150509250929050565b6000602082840312156134a657600080fd5b8135612aa5816133e2565b634e487b7160e01b600052604160045260246000fd5b600080604083850312156134da57600080fd5b82356134e5816133e2565b9150602083013567ffffffffffffffff8082111561350257600080fd5b818501915085601f83011261351657600080fd5b813581811115613528576135286134b1565b604051601f8201601f19908116603f01168101908382118183101715613550576135506134b1565b8160405282815288602084870101111561356957600080fd5b8260208601602083013760006020848301015280955050505050509250929050565b6000806000606084860312156135a057600080fd5b8335925060208401356135b2816133e2565b915060408401356135c2816133e2565b809150509250925092565b600080604083850312156135e057600080fd5b82356135eb816133e2565b91506020830135613489816133e2565b60008083601f84011261360d57600080fd5b50813567ffffffffffffffff81111561362557600080fd5b60208301915083602082850101111561363d57600080fd5b9250929050565b6000806000806000806080878903121561365d57600080fd5b863567ffffffffffffffff8082111561367557600080fd5b6136818a838b016135fb565b9098509650602089013591508082111561369a57600080fd5b506136a789828a016135fb565b909550935050604087013560ff811681146136c157600080fd5b915060608701356136d1816133e2565b809150509295509295509295565b600181811c908216806136f357607f821691505b60208210810361371357634e487b7160e01b600052602260045260246000fd5b50919050565b60006020828403121561372b57600080fd5b5051919050565b634e487b7160e01b600052601160045260246000fd5b60008261376557634e487b7160e01b600052601260045260246000fd5b500490565b6020808252602c908201527f46756e6374696f6e206d7573742062652063616c6c6564207468726f7567682060408201526b19195b1959d85d1958d85b1b60a21b606082015260800190565b6020808252602c908201527f46756e6374696f6e206d7573742062652063616c6c6564207468726f7567682060408201526b6163746976652070726f787960a01b606082015260800190565b8082018082111561083057610830613732565b60006020828403121561382757600080fd5b81518015158114612aa557600080fd5b6020808252602d908201527f43616c6c657220646f65736e2774206861766520504f5254464f4c494f5f414760408201526c454e545f524f4c4520726f6c6560981b606082015260800190565b60208082526026908201527f43616c6c657220646f65736e277420686176652055504752414445525f524f4c6040820152654520726f6c6560d01b606082015260800190565b602080825260059082015264706175736560d81b604082015260600190565b6000602082840312156138fb57600080fd5b8151612aa5816133e2565b6020808252602e908201527f496e697469616c697a61626c653a20636f6e747261637420697320616c72656160408201526d191e481a5b9a5d1a585b1a5e995960921b606082015260800190565b60208082526025908201527f5a65726f206164647265737320666f72207265636569766572206e6f7420616c6040820152641b1bddd95960da1b606082015260800190565b60208082526022908201527f5a65726f206164647265737320666f72206f776e6572206e6f7420616c6c6f77604082015261195960f21b606082015260800190565b8181038181111561083057610830613732565b606081526000613a01606083018661338a565b6001600160a01b0394851660208401529290931660409091015292915050565b6020808252602b908201527f496e697469616c697a61626c653a20636f6e7472616374206973206e6f74206960408201526a6e697469616c697a696e6760a81b606082015260800190565b60208082526023908201527f4572726f72732e4d4154485f4d554c5449504c49434154494f4e5f4f564552466040820152624c4f5760e81b606082015260800190565b808202811582820484141761083057610830613732565b7f416363657373436f6e74726f6c3a206163636f756e7420000000000000000000815260008351613afe816017850160208801613366565b7001034b99036b4b9b9b4b733903937b6329607d1b6017918401918201528351613b2f816028840160208801613366565b01602801949350505050565b601f8211156109cb57600081815260208120601f850160051c81016020861015613b625750805b601f850160051c820191505b81811015613b8157828155600101613b6e565b505050505050565b815167ffffffffffffffff811115613ba357613ba36134b1565b613bb781613bb184546136df565b84613b3b565b602080601f831160018114613bec5760008415613bd45750858301515b600019600386901b1c1916600185901b178555613b81565b600085815260208120601f198616915b82811015613c1b57888601518255948401946001909101908401613bfc565b5085821015613c395787850151600019600388901b60f8161c191681555b5050505050600190811b01905550565b634e487b7160e01b600052603260045260246000fd5b600081613c6e57613c6e613732565b506000190190565b60008251613c88818460208701613366565b919091019291505056fe189ab7a9244df0848122154315af71fe140f3db0fe014031783b0946b8c9d2e3360894a13ba1a3210667c828492db98dca3e2076cc3735a920a3ca505d382bbc416464726573733a206c6f772d6c6576656c2064656c65676174652063616c6c206661696c6564a2646970667358221220ed7a28e9013e6193885cd3ad311a929e4289598c9a637ad645ee2f18bba0f62f64736f6c63430008140033",
  "linkReferences": {},
  "deployedLinkReferences": {},
  "implementation": "0x500b4fed3a3D07A9EC4B97e1D223fE6109fd5D67"
}