{
  "address": "0x51ea40845f1654ab9ce309166DcE60B514c8d7ED",
  "_format": "hh-sol-artifact-1",
  "contractName": "RemoteHubUpgrader",
  "sourceName": "contracts/RemoteHubUpgrader.sol",
  "abi": [
    {
      "inputs": [
        {
          "internalType": "address",
          "name": "_router",
          "type": "address"
        },
        {
          "internalType": "address",
          "name": "_remoteHub",
          "type": "address"
        }
      ],
      "stateMutability": "nonpayable",
      "type": "constructor"
    },
    {
      "inputs": [
        {
          "internalType": "uint64",
          "name": "destinationChainSelector",
          "type": "uint64"
        }
      ],
      "name": "DestinationChainNotAllowlisted",
      "type": "error"
    },
    {
      "inputs": [],
      "name": "ExecutorIsTheSameContract",
      "type": "error"
    },
    {
      "inputs": [],
      "name": "InvalidReceiverAddress",
      "type": "error"
    },
    {
      "inputs": [
        {
          "internalType": "address",
          "name": "router",
          "type": "address"
        }
      ],
      "name": "InvalidRouter",
      "type": "error"
    },
    {
      "inputs": [
        {
          "internalType": "uint256",
          "name": "currentBalance",
          "type": "uint256"
        },
        {
          "internalType": "uint256",
          "name": "calculatedFees",
          "type": "uint256"
        }
      ],
      "name": "NotEnoughBalance",
      "type": "error"
    },
    {
      "inputs": [
        {
          "internalType": "address",
          "name": "sender",
          "type": "address"
        }
      ],
      "name": "SenderNotAllowlisted",
      "type": "error"
    },
    {
      "inputs": [
        {
          "internalType": "uint64",
          "name": "sourceChainSelector",
          "type": "uint64"
        }
      ],
      "name": "SourceChainNotAllowlisted",
      "type": "error"
    },
    {
      "anonymous": false,
      "inputs": [
        {
          "indexed": false,
          "internalType": "address",
          "name": "previousAdmin",
          "type": "address"
        },
        {
          "indexed": false,
          "internalType": "address",
          "name": "newAdmin",
          "type": "address"
        }
      ],
      "name": "AdminChanged",
      "type": "event"
    },
    {
      "anonymous": false,
      "inputs": [
        {
          "indexed": true,
          "internalType": "address",
          "name": "beacon",
          "type": "address"
        }
      ],
      "name": "BeaconUpgraded",
      "type": "event"
    },
    {
      "anonymous": false,
      "inputs": [
        {
          "indexed": true,
          "internalType": "address",
          "name": "target",
          "type": "address"
        },
        {
          "indexed": false,
          "internalType": "bool",
          "name": "success",
          "type": "bool"
        },
        {
          "indexed": false,
          "internalType": "bytes",
          "name": "data",
          "type": "bytes"
        }
      ],
      "name": "CallExecuted",
      "type": "event"
    },
    {
      "anonymous": false,
      "inputs": [
        {
          "indexed": false,
          "internalType": "uint8",
          "name": "version",
          "type": "uint8"
        }
      ],
      "name": "Initialized",
      "type": "event"
    },
    {
      "anonymous": false,
      "inputs": [
        {
          "indexed": true,
          "internalType": "bytes32",
          "name": "messageId",
          "type": "bytes32"
        },
        {
          "indexed": true,
          "internalType": "uint64",
          "name": "sourceChainSelector",
          "type": "uint64"
        },
        {
          "indexed": false,
          "internalType": "address",
          "name": "sender",
          "type": "address"
        },
        {
          "components": [
            {
              "internalType": "address",
              "name": "executor",
              "type": "address"
            },
            {
              "internalType": "bytes",
              "name": "data",
              "type": "bytes"
            }
          ],
          "indexed": false,
          "internalType": "struct RemoteHubUpgrader.DataCallItem[]",
          "name": "data",
          "type": "tuple[]"
        },
        {
          "indexed": false,
          "internalType": "address",
          "name": "token",
          "type": "address"
        },
        {
          "indexed": false,
          "internalType": "uint256",
          "name": "tokenAmount",
          "type": "uint256"
        }
      ],
      "name": "MessageReceived",
      "type": "event"
    },
    {
      "anonymous": false,
      "inputs": [
        {
          "indexed": true,
          "internalType": "bytes32",
          "name": "messageId",
          "type": "bytes32"
        },
        {
          "indexed": true,
          "internalType": "uint64",
          "name": "destinationChainSelector",
          "type": "uint64"
        },
        {
          "indexed": false,
          "internalType": "address",
          "name": "receiver",
          "type": "address"
        },
        {
          "indexed": false,
          "internalType": "bytes",
          "name": "data",
          "type": "bytes"
        },
        {
          "indexed": false,
          "internalType": "address",
          "name": "feeToken",
          "type": "address"
        },
        {
          "indexed": false,
          "internalType": "uint256",
          "name": "fees",
          "type": "uint256"
        }
      ],
      "name": "MessageSent",
      "type": "event"
    },
    {
      "anonymous": false,
      "inputs": [
        {
          "indexed": false,
          "internalType": "address",
          "name": "account",
          "type": "address"
        }
      ],
      "name": "Paused",
      "type": "event"
    },
    {
      "anonymous": false,
      "inputs": [
        {
          "indexed": false,
          "internalType": "address",
          "name": "remoteHub",
          "type": "address"
        }
      ],
      "name": "RemoteHubUpdated",
      "type": "event"
    },
    {
      "anonymous": false,
      "inputs": [
        {
          "indexed": true,
          "internalType": "bytes32",
          "name": "role",
          "type": "bytes32"
        },
        {
          "indexed": true,
          "internalType": "bytes32",
          "name": "previousAdminRole",
          "type": "bytes32"
        },
        {
          "indexed": true,
          "internalType": "bytes32",
          "name": "newAdminRole",
          "type": "bytes32"
        }
      ],
      "name": "RoleAdminChanged",
      "type": "event"
    },
    {
      "anonymous": false,
      "inputs": [
        {
          "indexed": true,
          "internalType": "bytes32",
          "name": "role",
          "type": "bytes32"
        },
        {
          "indexed": true,
          "internalType": "address",
          "name": "account",
          "type": "address"
        },
        {
          "indexed": true,
          "internalType": "address",
          "name": "sender",
          "type": "address"
        }
      ],
      "name": "RoleGranted",
      "type": "event"
    },
    {
      "anonymous": false,
      "inputs": [
        {
          "indexed": true,
          "internalType": "bytes32",
          "name": "role",
          "type": "bytes32"
        },
        {
          "indexed": true,
          "internalType": "address",
          "name": "account",
          "type": "address"
        },
        {
          "indexed": true,
          "internalType": "address",
          "name": "sender",
          "type": "address"
        }
      ],
      "name": "RoleRevoked",
      "type": "event"
    },
    {
      "anonymous": false,
      "inputs": [
        {
          "indexed": false,
          "internalType": "address",
          "name": "account",
          "type": "address"
        }
      ],
      "name": "Unpaused",
      "type": "event"
    },
    {
      "anonymous": false,
      "inputs": [
        {
          "indexed": true,
          "internalType": "address",
          "name": "implementation",
          "type": "address"
        }
      ],
      "name": "Upgraded",
      "type": "event"
    },
    {
      "inputs": [],
      "name": "DEFAULT_ADMIN_ROLE",
      "outputs": [
        {
          "internalType": "bytes32",
          "name": "",
          "type": "bytes32"
        }
      ],
      "stateMutability": "view",
      "type": "function"
    },
    {
      "inputs": [],
      "name": "UPGRADER_ROLE",
      "outputs": [
        {
          "internalType": "bytes32",
          "name": "",
          "type": "bytes32"
        }
      ],
      "stateMutability": "pure",
      "type": "function"
    },
    {
      "inputs": [],
      "name": "ZERO_ADDRESS",
      "outputs": [
        {
          "internalType": "address",
          "name": "",
          "type": "address"
        }
      ],
      "stateMutability": "view",
      "type": "function"
    },
    {
      "inputs": [
        {
          "internalType": "uint64",
          "name": "_destinationChainSelector",
          "type": "uint64"
        },
        {
          "internalType": "bool",
          "name": "allowed",
          "type": "bool"
        }
      ],
      "name": "allowlistDestinationChain",
      "outputs": [],
      "stateMutability": "nonpayable",
      "type": "function"
    },
    {
      "inputs": [
        {
          "internalType": "address",
          "name": "_sender",
          "type": "address"
        },
        {
          "internalType": "bool",
          "name": "allowed",
          "type": "bool"
        }
      ],
      "name": "allowlistSender",
      "outputs": [],
      "stateMutability": "nonpayable",
      "type": "function"
    },
    {
      "inputs": [
        {
          "internalType": "uint64",
          "name": "_sourceChainSelector",
          "type": "uint64"
        },
        {
          "internalType": "bool",
          "name": "allowed",
          "type": "bool"
        }
      ],
      "name": "allowlistSourceChain",
      "outputs": [],
      "stateMutability": "nonpayable",
      "type": "function"
    },
    {
      "inputs": [
        {
          "internalType": "uint64",
          "name": "",
          "type": "uint64"
        },
        {
          "internalType": "address",
          "name": "",
          "type": "address"
        }
      ],
      "name": "allowlistedDestinationAddresses",
      "outputs": [
        {
          "internalType": "bool",
          "name": "",
          "type": "bool"
        }
      ],
      "stateMutability": "view",
      "type": "function"
    },
    {
      "inputs": [
        {
          "internalType": "uint64",
          "name": "",
          "type": "uint64"
        }
      ],
      "name": "allowlistedDestinationChains",
      "outputs": [
        {
          "internalType": "bool",
          "name": "",
          "type": "bool"
        }
      ],
      "stateMutability": "view",
      "type": "function"
    },
    {
      "inputs": [
        {
          "internalType": "address",
          "name": "",
          "type": "address"
        }
      ],
      "name": "allowlistedSenders",
      "outputs": [
        {
          "internalType": "bool",
          "name": "",
          "type": "bool"
        }
      ],
      "stateMutability": "view",
      "type": "function"
    },
    {
      "inputs": [
        {
          "internalType": "uint64",
          "name": "",
          "type": "uint64"
        }
      ],
      "name": "allowlistedSourceChains",
      "outputs": [
        {
          "internalType": "bool",
          "name": "",
          "type": "bool"
        }
      ],
      "stateMutability": "view",
      "type": "function"
    },
    {
      "inputs": [],
      "name": "ccipGasLimit",
      "outputs": [
        {
          "internalType": "uint256",
          "name": "",
          "type": "uint256"
        }
      ],
      "stateMutability": "view",
      "type": "function"
    },
    {
      "inputs": [
        {
          "components": [
            {
              "internalType": "bytes32",
              "name": "messageId",
              "type": "bytes32"
            },
            {
              "internalType": "uint64",
              "name": "sourceChainSelector",
              "type": "uint64"
            },
            {
              "internalType": "bytes",
              "name": "sender",
              "type": "bytes"
            },
            {
              "internalType": "bytes",
              "name": "data",
              "type": "bytes"
            },
            {
              "components": [
                {
                  "internalType": "address",
                  "name": "token",
                  "type": "address"
                },
                {
                  "internalType": "uint256",
                  "name": "amount",
                  "type": "uint256"
                }
              ],
              "internalType": "struct Client.EVMTokenAmount[]",
              "name": "destTokenAmounts",
              "type": "tuple[]"
            }
          ],
          "internalType": "struct Client.Any2EVMMessage",
          "name": "message",
          "type": "tuple"
        }
      ],
      "name": "ccipReceive",
      "outputs": [],
      "stateMutability": "nonpayable",
      "type": "function"
    },
    {
      "inputs": [],
      "name": "chainSelector",
      "outputs": [
        {
          "internalType": "uint64",
          "name": "",
          "type": "uint64"
        }
      ],
      "stateMutability": "view",
      "type": "function"
    },
    {
      "inputs": [],
      "name": "exchange",
      "outputs": [
        {
          "internalType": "contract IExchange",
          "name": "",
          "type": "address"
        }
      ],
      "stateMutability": "view",
      "type": "function"
    },
    {
      "inputs": [
        {
          "internalType": "bytes32",
          "name": "role",
          "type": "bytes32"
        }
      ],
      "name": "getRoleAdmin",
      "outputs": [
        {
          "internalType": "bytes32",
          "name": "",
          "type": "bytes32"
        }
      ],
      "stateMutability": "view",
      "type": "function"
    },
    {
      "inputs": [],
      "name": "getRouter",
      "outputs": [
        {
          "internalType": "address",
          "name": "",
          "type": "address"
        }
      ],
      "stateMutability": "view",
      "type": "function"
    },
    {
      "inputs": [
        {
          "internalType": "bytes32",
          "name": "role",
          "type": "bytes32"
        },
        {
          "internalType": "address",
          "name": "account",
          "type": "address"
        }
      ],
      "name": "grantRole",
      "outputs": [],
      "stateMutability": "nonpayable",
      "type": "function"
    },
    {
      "inputs": [
        {
          "internalType": "bytes32",
          "name": "role",
          "type": "bytes32"
        },
        {
          "internalType": "address",
          "name": "account",
          "type": "address"
        }
      ],
      "name": "hasRole",
      "outputs": [
        {
          "internalType": "bool",
          "name": "",
          "type": "bool"
        }
      ],
      "stateMutability": "view",
      "type": "function"
    },
    {
      "inputs": [
        {
          "internalType": "uint64",
          "name": "_chainSelector",
          "type": "uint64"
        }
      ],
      "name": "initialize",
      "outputs": [],
      "stateMutability": "nonpayable",
      "type": "function"
    },
    {
      "inputs": [
        {
          "components": [
            {
              "internalType": "uint64",
              "name": "chainSelector",
              "type": "uint64"
            },
            {
              "internalType": "address",
              "name": "receiver",
              "type": "address"
            },
            {
              "components": [
                {
                  "internalType": "address",
                  "name": "executor",
                  "type": "address"
                },
                {
                  "internalType": "bytes",
                  "name": "data",
                  "type": "bytes"
                }
              ],
              "internalType": "struct RemoteHubUpgrader.DataCallItem[]",
              "name": "batchData",
              "type": "tuple[]"
            }
          ],
          "internalType": "struct RemoteHubUpgrader.MultichainCallUpgradeItem[]",
          "name": "multichainCallItems",
          "type": "tuple[]"
        }
      ],
      "name": "multichainCall",
      "outputs": [],
      "stateMutability": "payable",
      "type": "function"
    },
    {
      "inputs": [],
      "name": "pause",
      "outputs": [],
      "stateMutability": "nonpayable",
      "type": "function"
    },
    {
      "inputs": [],
      "name": "paused",
      "outputs": [
        {
          "internalType": "bool",
          "name": "",
          "type": "bool"
        }
      ],
      "stateMutability": "view",
      "type": "function"
    },
    {
      "inputs": [],
      "name": "proxiableUUID",
      "outputs": [
        {
          "internalType": "bytes32",
          "name": "",
          "type": "bytes32"
        }
      ],
      "stateMutability": "view",
      "type": "function"
    },
    {
      "inputs": [],
      "name": "remoteHub",
      "outputs": [
        {
          "internalType": "contract IRemoteHub",
          "name": "",
          "type": "address"
        }
      ],
      "stateMutability": "view",
      "type": "function"
    },
    {
      "inputs": [
        {
          "internalType": "bytes32",
          "name": "role",
          "type": "bytes32"
        },
        {
          "internalType": "address",
          "name": "account",
          "type": "address"
        }
      ],
      "name": "renounceRole",
      "outputs": [],
      "stateMutability": "nonpayable",
      "type": "function"
    },
    {
      "inputs": [
        {
          "internalType": "bytes32",
          "name": "role",
          "type": "bytes32"
        },
        {
          "internalType": "address",
          "name": "account",
          "type": "address"
        }
      ],
      "name": "revokeRole",
      "outputs": [],
      "stateMutability": "nonpayable",
      "type": "function"
    },
    {
      "inputs": [],
      "name": "roleManager",
      "outputs": [
        {
          "internalType": "contract IRoleManager",
          "name": "",
          "type": "address"
        }
      ],
      "stateMutability": "view",
      "type": "function"
    },
    {
      "inputs": [
        {
          "internalType": "uint256",
          "name": "_ccipGasLimit",
          "type": "uint256"
        }
      ],
      "name": "setCcipGasLimit",
      "outputs": [],
      "stateMutability": "nonpayable",
      "type": "function"
    },
    {
      "inputs": [
        {
          "internalType": "address",
          "name": "_remoteHub",
          "type": "address"
        }
      ],
      "name": "setRemoteHub",
      "outputs": [],
      "stateMutability": "nonpayable",
      "type": "function"
    },
    {
      "inputs": [
        {
          "internalType": "bytes4",
          "name": "interfaceId",
          "type": "bytes4"
        }
      ],
      "name": "supportsInterface",
      "outputs": [
        {
          "internalType": "bool",
          "name": "",
          "type": "bool"
        }
      ],
      "stateMutability": "view",
      "type": "function"
    },
    {
      "inputs": [],
      "name": "unpause",
      "outputs": [],
      "stateMutability": "nonpayable",
      "type": "function"
    },
    {
      "inputs": [
        {
          "internalType": "address",
          "name": "newImplementation",
          "type": "address"
        }
      ],
      "name": "upgradeTo",
      "outputs": [],
      "stateMutability": "nonpayable",
      "type": "function"
    },
    {
      "inputs": [
        {
          "internalType": "address",
          "name": "newImplementation",
          "type": "address"
        },
        {
          "internalType": "bytes",
          "name": "data",
          "type": "bytes"
        }
      ],
      "name": "upgradeToAndCall",
      "outputs": [],
      "stateMutability": "payable",
      "type": "function"
    },
    {
      "stateMutability": "payable",
      "type": "receive"
    }
  ],
  "bytecode": "0x60c06040523060a0523480156200001557600080fd5b50604051620032a4380380620032a4833981016040819052620000389162000182565b816001600160a01b03811662000069576040516335fdcccd60e21b8152600060048201526024015b60405180910390fd5b6001600160a01b03166080526200007f620000a7565b61013180546001600160a01b0319166001600160a01b039290921691909117905550620001ba565b600054610100900460ff1615620001115760405162461bcd60e51b815260206004820152602760248201527f496e697469616c697a61626c653a20636f6e747261637420697320696e697469604482015266616c697a696e6760c81b606482015260840162000060565b60005460ff9081161462000163576000805460ff191660ff9081179091556040519081527f7f26b83ff96e1f2b6a682f133852f6798a09c465da95921460cefb38474024989060200160405180910390a15b565b80516001600160a01b03811681146200017d57600080fd5b919050565b600080604083850312156200019657600080fd5b620001a18362000165565b9150620001b16020840162000165565b90509250929050565b60805160a0516130a162000203600039600081816107e50152818161082501528181610a9201528181610ad20152610b610152600081816105490152610d1b01526130a16000f3fe6080604052600436106101f15760003560e01c806375c67c661161010d578063b0f479a1116100a0578063db04fa491161006f578063db04fa49146105de578063db36f401146105fe578063eab5b02c14610615578063eb92db2714610635578063f72c0d8b1461065557600080fd5b8063b0f479a11461053a578063bd110ba01461056d578063d2f7265a146105a9578063d547741f146105be57600080fd5b80639423f215116100dc5780639423f215146104d157806396d3b83d146104f2578063a217fddf14610512578063ad0c657a1461052757600080fd5b806375c67c661461044b5780638456cb591461047c57806385572ffb1461049157806391d14854146104b157600080fd5b8063405a11dc1161018557806352d1902d1161015457806352d1902d146103d8578063538ba4f9146103ed5780635c975abb146104025780636159ada11461041a57600080fd5b8063405a11dc14610345578063481e443d146103655780634e4bc847146103855780634f1ef286146103c557600080fd5b806336568abe116101c157806336568abe146102bf5780633659cfe6146102df5780633f4ba83a146102ff5780634030d5211461031457600080fd5b8062435da5146101fd57806301ffc9a71461022f578063248a9ca31461025f5780632f2ff15d1461029d57600080fd5b366101f857005b600080fd5b34801561020957600080fd5b50610212610676565b6040516001600160a01b0390911681526020015b60405180910390f35b34801561023b57600080fd5b5061024f61024a3660046123b3565b6106e8565b6040519015158152602001610226565b34801561026b57600080fd5b5061028f61027a3660046123dd565b60009081526065602052604090206001015490565b604051908152602001610226565b3480156102a957600080fd5b506102bd6102b836600461240b565b61072e565b005b3480156102cb57600080fd5b506102bd6102da36600461240b565b610758565b3480156102eb57600080fd5b506102bd6102fa36600461243b565b6107db565b34801561030b57600080fd5b506102bd6108ba565b34801561032057600080fd5b5061024f61032f366004612474565b61012e6020526000908152604090205460ff1681565b34801561035157600080fd5b506102bd61036036600461243b565b6109c5565b34801561037157600080fd5b506102bd6103803660046123dd565b610a4f565b34801561039157600080fd5b50610131546103ad90600160a01b90046001600160401b031681565b6040516001600160401b039091168152602001610226565b6102bd6103d33660046125be565b610a88565b3480156103e457600080fd5b5061028f610b54565b3480156103f957600080fd5b50610212600081565b34801561040e57600080fd5b5060fb5460ff1661024f565b34801561042657600080fd5b5061024f61043536600461243b565b61012f6020526000908152604090205460ff1681565b34801561045757600080fd5b5061024f610466366004612474565b61012d6020526000908152604090205460ff1681565b34801561048857600080fd5b506102bd610c07565b34801561049d57600080fd5b506102bd6104ac36600461260d565b610d10565b3480156104bd57600080fd5b5061024f6104cc36600461240b565b610d6c565b3480156104dd57600080fd5b5061013154610212906001600160a01b031681565b3480156104fe57600080fd5b506102bd61050d366004612655565b610d97565b34801561051e57600080fd5b5061028f600081565b6102bd6105353660046126a4565b610df6565b34801561054657600080fd5b507f0000000000000000000000000000000000000000000000000000000000000000610212565b34801561057957600080fd5b5061024f61058836600461288c565b61013060209081526000928352604080842090915290825290205460ff1681565b3480156105b557600080fd5b5061021261114d565b3480156105ca57600080fd5b506102bd6105d936600461240b565b611198565b3480156105ea57600080fd5b506102bd6105f9366004612655565b6111bd565b34801561060a57600080fd5b5061028f6101325481565b34801561062157600080fd5b506102bd6106303660046128b8565b61121c565b34801561064157600080fd5b506102bd610650366004612474565b61127b565b34801561066157600080fd5b5060008051602061300583398151915261028f565b610131546040805162435da560e01b815290516000926001600160a01b03169162435da59160048083019260209291908290030181865afa1580156106bf573d6000803e3d6000fd5b505050506040513d601f19601f820116820180604052508101906106e391906128d6565b905090565b60006001600160e01b03198216637965db0b60e01b148061071957506001600160e01b031982166301ffc9a760e01b145b806107285750610728826113e5565b92915050565b6000828152606560205260409020600101546107498161141b565b6107538383611425565b505050565b6001600160a01b03811633146107cd5760405162461bcd60e51b815260206004820152602f60248201527f416363657373436f6e74726f6c3a2063616e206f6e6c792072656e6f756e636560448201526e103937b632b9903337b91039b2b63360891b60648201526084015b60405180910390fd5b6107d782826114ab565b5050565b6001600160a01b037f00000000000000000000000000000000000000000000000000000000000000001630036108235760405162461bcd60e51b81526004016107c4906128f3565b7f00000000000000000000000000000000000000000000000000000000000000006001600160a01b031661086c600080516020613025833981519152546001600160a01b031690565b6001600160a01b0316146108925760405162461bcd60e51b81526004016107c49061293f565b61089b81611512565b604080516000808252602082019092526108b791839190611545565b50565b6108c2610676565b6001600160a01b03166391d148546108d8610676565b6001600160a01b0316635dbd733a6040518163ffffffff1660e01b8152600401602060405180830381865afa158015610915573d6000803e3d6000fd5b505050506040513d601f19601f82011682018060405250810190610939919061298b565b6040516001600160e01b031960e084901b1681526004810191909152336024820152604401602060405180830381865afa15801561097b573d6000803e3d6000fd5b505050506040513d601f19601f8201168201806040525081019061099f91906129a4565b6109bb5760405162461bcd60e51b81526004016107c4906129c1565b6109c36116b0565b565b6109de6000805160206130058339815191525b33610d6c565b6109fa5760405162461bcd60e51b81526004016107c490612a0e565b61013180546001600160a01b0319166001600160a01b0383169081179091556040519081527f0acbcc2f890f48416af3a85d8a92e6b01a61ca13a98ccf21d101bf3fe06593fc9060200160405180910390a150565b610a666000805160206130058339815191526109d8565b610a825760405162461bcd60e51b81526004016107c490612a0e565b61013255565b6001600160a01b037f0000000000000000000000000000000000000000000000000000000000000000163003610ad05760405162461bcd60e51b81526004016107c4906128f3565b7f00000000000000000000000000000000000000000000000000000000000000006001600160a01b0316610b19600080516020613025833981519152546001600160a01b031690565b6001600160a01b031614610b3f5760405162461bcd60e51b81526004016107c49061293f565b610b4882611512565b6107d782826001611545565b6000306001600160a01b037f00000000000000000000000000000000000000000000000000000000000000001614610bf45760405162461bcd60e51b815260206004820152603860248201527f555550535570677261646561626c653a206d757374206e6f742062652063616c60448201527f6c6564207468726f7567682064656c656761746563616c6c000000000000000060648201526084016107c4565b5060008051602061302583398151915290565b610c0f610676565b6001600160a01b03166391d14854610c25610676565b6001600160a01b0316635dbd733a6040518163ffffffff1660e01b8152600401602060405180830381865afa158015610c62573d6000803e3d6000fd5b505050506040513d601f19601f82011682018060405250810190610c86919061298b565b6040516001600160e01b031960e084901b1681526004810191909152336024820152604401602060405180830381865afa158015610cc8573d6000803e3d6000fd5b505050506040513d601f19601f82011682018060405250810190610cec91906129a4565b610d085760405162461bcd60e51b81526004016107c4906129c1565b6109c3611702565b336001600160a01b037f00000000000000000000000000000000000000000000000000000000000000001614610d5b576040516335fdcccd60e21b81523360048201526024016107c4565b6108b7610d6782612adc565b61173f565b60009182526065602090815260408084206001600160a01b0393909316845291905290205460ff1690565b610dae6000805160206130058339815191526109d8565b610dca5760405162461bcd60e51b81526004016107c490612a0e565b6001600160401b0391909116600090815261012d60205260409020805460ff1916911515919091179055565b610dfe611a95565b610e09600033610d6c565b610e695760405162461bcd60e51b815260206004820152602b60248201527f43616c6c657220646f65736e277420686176652044454641554c545f41444d4960448201526a4e5f524f4c4520726f6c6560a81b60648201526084016107c4565b60005b81518110156107d75761013160149054906101000a90046001600160401b03166001600160401b0316828281518110610ea757610ea7612b88565b6020026020010151600001516001600160401b0316148015610ef85750306001600160a01b0316828281518110610ee057610ee0612b88565b6020026020010151602001516001600160a01b031614155b61113d5761013160149054906101000a90046001600160401b03166001600160401b0316828281518110610f2e57610f2e612b88565b6020026020010151600001516001600160401b0316148015610f7e5750306001600160a01b0316828281518110610f6757610f67612b88565b6020026020010151602001516001600160a01b0316145b156111195760005b828281518110610f9857610f98612b88565b6020026020010151604001515181101561111357600080848481518110610fc157610fc1612b88565b6020026020010151604001518381518110610fde57610fde612b88565b6020026020010151600001516001600160a01b031685858151811061100557611005612b88565b602002602001015160400151848151811061102257611022612b88565b60200260200101516020015160405161103b9190612bc2565b6000604051808303816000865af19150503d8060008114611078576040519150601f19603f3d011682016040523d82523d6000602084013e61107d565b606091505b5091509150816110bd5760405162461bcd60e51b815260206004820152600b60248201526a10d85b1b0819985a5b195960aa1b60448201526064016107c4565b306001600160a01b03167f81d279e09da972fe520dd400fe4cb603956d4750c7dcefc62579244fd825930983836040516110f8929190612c0a565b60405180910390a250508061110c90612c3b565b9050610f86565b5061113d565b61113b82828151811061112e5761112e612b88565b6020026020010151611adb565b505b61114681612c3b565b9050610e6c565b610131546040805163697b932d60e11b815290516000926001600160a01b03169163d2f7265a9160048083019260209291908290030181865afa1580156106bf573d6000803e3d6000fd5b6000828152606560205260409020600101546111b38161141b565b61075383836114ab565b6111d46000805160206130058339815191526109d8565b6111f05760405162461bcd60e51b81526004016107c490612a0e565b6001600160401b0391909116600090815261012e60205260409020805460ff1916911515919091179055565b6112336000805160206130058339815191526109d8565b61124f5760405162461bcd60e51b81526004016107c490612a0e565b6001600160a01b0391909116600090815261012f60205260409020805460ff1916911515919091179055565b600054610100900460ff161580801561129b5750600054600160ff909116105b806112b55750303b1580156112b5575060005460ff166001145b6113185760405162461bcd60e51b815260206004820152602e60248201527f496e697469616c697a61626c653a20636f6e747261637420697320616c72656160448201526d191e481a5b9a5d1a585b1a5e995960921b60648201526084016107c4565b6000805460ff19166001179055801561133b576000805461ff0019166101001790555b611343611d55565b61134b611d55565b611356600033611425565b61136e60008051602061300583398151915233611425565b610131805467ffffffffffffffff60a01b1916600160a01b6001600160401b038516021790556207a1206101325580156107d7576000805461ff0019169055604051600181527f7f26b83ff96e1f2b6a682f133852f6798a09c465da95921460cefb38474024989060200160405180910390a15050565b60006001600160e01b031982166385572ffb60e01b148061072857506001600160e01b031982166301ffc9a760e01b1492915050565b6108b78133611dc0565b61142f8282610d6c565b6107d75760008281526065602090815260408083206001600160a01b03851684529091529020805460ff191660011790556114673390565b6001600160a01b0316816001600160a01b0316837f2f8788117e7eff1d82e926ec794901d17c78024a50270940304540a733656f0d60405160405180910390a45050565b6114b58282610d6c565b156107d75760008281526065602090815260408083206001600160a01b0385168085529252808320805460ff1916905551339285917ff6391f5c32d9c69d2a47ea670b442974b53935d1edc7fd64eb21e047a839171b9190a45050565b6115296000805160206130058339815191526109d8565b6108b75760405162461bcd60e51b81526004016107c490612a0e565b7f4910fdfa16fed3260ed0e7147f7cc6da11a60208b5b9406d12a635614ffd91435460ff16156115785761075383611e19565b826001600160a01b03166352d1902d6040518163ffffffff1660e01b8152600401602060405180830381865afa9250505080156115d2575060408051601f3d908101601f191682019092526115cf9181019061298b565b60015b6116355760405162461bcd60e51b815260206004820152602e60248201527f45524331393637557067726164653a206e657720696d706c656d656e7461746960448201526d6f6e206973206e6f74205555505360901b60648201526084016107c4565b60008051602061302583398151915281146116a45760405162461bcd60e51b815260206004820152602960248201527f45524331393637557067726164653a20756e737570706f727465642070726f786044820152681a58589b195555525160ba1b60648201526084016107c4565b50610753838383611eb5565b6116b8611ee0565b60fb805460ff191690557f5db9ee0a495bf2e6ff9c91a7834c1ba4fdd244a5e8aa4e537bd38aeae4b073aa335b6040516001600160a01b03909116815260200160405180910390a1565b61170a611a95565b60fb805460ff191660011790557f62e78cea01bee320cd4e420270b5ea74000d11b0c9f74754ebdbfc544b05a2586116e53390565b8060200151816040015180602001905181019061175c91906128d6565b6001600160401b038216600090815261012e602052604090205460ff166117a1576040516326bfad9160e21b81526001600160401b03831660048201526024016107c4565b6001600160a01b038116600090815261012f602052604090205460ff166117e6576040516338c08ef960e11b81526001600160a01b03821660048201526024016107c4565b600083606001518060200190518101906118009190612c54565b905060005b81518110156119a657306001600160a01b031682828151811061182a5761182a612b88565b6020026020010151600001516001600160a01b03160361185d5760405163b5dcb45f60e01b815260040160405180910390fd5b60008083838151811061187257611872612b88565b6020026020010151600001516001600160a01b031684848151811061189957611899612b88565b6020026020010151602001516040516118b29190612bc2565b6000604051808303816000865af19150503d80600081146118ef576040519150601f19603f3d011682016040523d82523d6000602084013e6118f4565b606091505b5091509150816119345760405162461bcd60e51b815260206004820152600b60248201526a10d85b1b0819985a5b195960aa1b60448201526064016107c4565b83838151811061194657611946612b88565b6020026020010151600001516001600160a01b03167f81d279e09da972fe520dd400fe4cb603956d4750c7dcefc62579244fd8259309838360405161198c929190612c0a565b60405180910390a2505061199f81612c3b565b9050611805565b5083602001516001600160401b031684600001517f2a7a438c4491699cb09de3ce1d9504f3813f51734151a283853951c4f490bdbc86604001518060200190518101906119f391906128d6565b8760600151806020019051810190611a0b9190612c54565b60808901515115611a3e578860800151600081518110611a2d57611a2d612b88565b602002602001015160000151611a41565b60005b60808a01515115611a74578960800151600081518110611a6357611a63612b88565b602002602001015160200151611a77565b60005b604051611a879493929190612df9565b60405180910390a350505050565b60fb5460ff16156109c35760405162461bcd60e51b815260206004820152601060248201526f14185d5cd8589b194e881c185d5cd95960821b60448201526064016107c4565b80516001600160401b038116600090815261012d602052604081205490919060ff16611b2557604051630a503cdb60e01b81526001600160401b03821660048201526024016107c4565b60208301516001600160a01b038116611b515760405163502ffa3f60e11b815260040160405180910390fd5b6000611b5c85611f29565b90506000306001600160a01b031663b0f479a16040518163ffffffff1660e01b8152600401602060405180830381865afa158015611b9e573d6000803e3d6000fd5b505050506040513d601f19601f82011682018060405250810190611bc291906128d6565b86516040516320487ded60e01b81529192506000916001600160a01b038416916320487ded91611bf791908790600401612e2d565b602060405180830381865afa158015611c14573d6000803e3d6000fd5b505050506040513d601f19601f82011682018060405250810190611c38919061298b565b905047811115611c6457604051634787a10360e11b8152476004820152602481018290526044016107c4565b86516040516396f4e9f960e01b81526001600160a01b038416916396f4e9f9918491611c94918890600401612e2d565b60206040518083038185885af1158015611cb2573d6000803e3d6000fd5b50505050506040513d601f19601f82011682018060405250810190611cd7919061298b565b955086600001516001600160401b0316867f3d8a9f055772202d2c3c1fddbad930d3dbe588d8692b75b84cee07194628291189602001518a60400151604051602001611d239190612f06565b60408051601f1981840301815290829052611d4392916000908890612f19565b60405180910390a35050505050919050565b600054610100900460ff166109c35760405162461bcd60e51b815260206004820152602b60248201527f496e697469616c697a61626c653a20636f6e7472616374206973206e6f74206960448201526a6e697469616c697a696e6760a81b60648201526084016107c4565b611dca8282610d6c565b6107d757611dd78161207c565b611de283602061208e565b604051602001611df3929190612f3b565b60408051601f198184030181529082905262461bcd60e51b82526107c491600401612fb0565b6001600160a01b0381163b611e865760405162461bcd60e51b815260206004820152602d60248201527f455243313936373a206e657720696d706c656d656e746174696f6e206973206e60448201526c1bdd08184818dbdb9d1c9858dd609a1b60648201526084016107c4565b60008051602061302583398151915280546001600160a01b0319166001600160a01b0392909216919091179055565b611ebe83612230565b600082511180611ecb5750805b1561075357611eda8383612270565b50505050565b60fb5460ff166109c35760405162461bcd60e51b815260206004820152601460248201527314185d5cd8589b194e881b9bdd081c185d5cd95960621b60448201526064016107c4565b611f646040518060a0016040528060608152602001606081526020016060815260200160006001600160a01b03168152602001606081525090565b6040805160a0810190915260208301516001600160a01b031660c08201528060e0810160405160208183030381529060405281526020018360400151604051602001611fb09190612f06565b60408051601f198184030181529190528152602001600060405190808252806020026020018201604052801561200c57816020015b6040805180820190915260008082526020820152815260200190600190039081611fe55790505b50815260200160006001600160a01b0316815260200161207460405180602001604052806101325481525060408051915160248084019190915281518084039091018152604490920190526020810180516001600160e01b03166397a657c960e01b17905290565b905292915050565b60606107286001600160a01b03831660145b6060600061209d836002612fc3565b6120a8906002612fda565b6001600160401b038111156120bf576120bf61248f565b6040519080825280601f01601f1916602001820160405280156120e9576020820181803683370190505b509050600360fc1b8160008151811061210457612104612b88565b60200101906001600160f81b031916908160001a905350600f60fb1b8160018151811061213357612133612b88565b60200101906001600160f81b031916908160001a9053506000612157846002612fc3565b612162906001612fda565b90505b60018111156121da576f181899199a1a9b1b9c1cb0b131b232b360811b85600f166010811061219657612196612b88565b1a60f81b8282815181106121ac576121ac612b88565b60200101906001600160f81b031916908160001a90535060049490941c936121d381612fed565b9050612165565b5083156122295760405162461bcd60e51b815260206004820181905260248201527f537472696e67733a20686578206c656e67746820696e73756666696369656e7460448201526064016107c4565b9392505050565b61223981611e19565b6040516001600160a01b038216907fbc7cd75a20ee27fd9adebab32041f755214dbc6bffa90cc0225b39da2e5c2d3b90600090a250565b60606122298383604051806060016040528060278152602001613045602791396060600080856001600160a01b0316856040516122ad9190612bc2565b600060405180830381855af49150503d80600081146122e8576040519150601f19603f3d011682016040523d82523d6000602084013e6122ed565b606091505b50915091506122fe86838387612308565b9695505050505050565b60608315612377578251600003612370576001600160a01b0385163b6123705760405162461bcd60e51b815260206004820152601d60248201527f416464726573733a2063616c6c20746f206e6f6e2d636f6e747261637400000060448201526064016107c4565b5081612381565b6123818383612389565b949350505050565b8151156123995781518083602001fd5b8060405162461bcd60e51b81526004016107c49190612fb0565b6000602082840312156123c557600080fd5b81356001600160e01b03198116811461222957600080fd5b6000602082840312156123ef57600080fd5b5035919050565b6001600160a01b03811681146108b757600080fd5b6000806040838503121561241e57600080fd5b823591506020830135612430816123f6565b809150509250929050565b60006020828403121561244d57600080fd5b8135612229816123f6565b80356001600160401b038116811461246f57600080fd5b919050565b60006020828403121561248657600080fd5b61222982612458565b634e487b7160e01b600052604160045260246000fd5b604051606081016001600160401b03811182821017156124c7576124c761248f565b60405290565b604080519081016001600160401b03811182821017156124c7576124c761248f565b60405160a081016001600160401b03811182821017156124c7576124c761248f565b604051601f8201601f191681016001600160401b03811182821017156125395761253961248f565b604052919050565b60006001600160401b0382111561255a5761255a61248f565b50601f01601f191660200190565b600082601f83011261257957600080fd5b813561258c61258782612541565b612511565b8181528460208386010111156125a157600080fd5b816020850160208301376000918101602001919091529392505050565b600080604083850312156125d157600080fd5b82356125dc816123f6565b915060208301356001600160401b038111156125f757600080fd5b61260385828601612568565b9150509250929050565b60006020828403121561261f57600080fd5b81356001600160401b0381111561263557600080fd5b820160a0818503121561222957600080fd5b80151581146108b757600080fd5b6000806040838503121561266857600080fd5b61267183612458565b9150602083013561243081612647565b60006001600160401b0382111561269a5761269a61248f565b5060051b60200190565b6000602082840312156126b657600080fd5b6001600160401b0380833511156126cc57600080fd5b8235830184601f8201126126df57600080fd5b6126ec6125878235612681565b81358082526020808301929160051b84010187101561270a57600080fd5b602083015b6020843560051b85010181101561288157848135111561272e57600080fd5b803584016060818a03601f1901121561274657600080fd5b61274e6124a5565b61275a60208301612458565b815261276960408301356123f6565b60408201356020820152866060830135111561278457600080fd5b60608201358201915089603f83011261279c57600080fd5b6127ac6125876020840135612681565b602083810135808352908201919060051b84016040018c10156127ce57600080fd5b604084015b6040602086013560051b86010181101561286b5789813511156127f557600080fd5b6040813586018e03603f1901121561280c57600080fd5b6128146124cd565b61282460408335880101356123f6565b8135860160408101358252606001358b101561283f57600080fd5b6128558e83358801606081013501604001612568565b60208281019190915290845292830192016127d3565b506040830152508452506020928301920161270f565b509695505050505050565b6000806040838503121561289f57600080fd5b6128a883612458565b91506020830135612430816123f6565b600080604083850312156128cb57600080fd5b8235612671816123f6565b6000602082840312156128e857600080fd5b8151612229816123f6565b6020808252602c908201527f46756e6374696f6e206d7573742062652063616c6c6564207468726f7567682060408201526b19195b1959d85d1958d85b1b60a21b606082015260800190565b6020808252602c908201527f46756e6374696f6e206d7573742062652063616c6c6564207468726f7567682060408201526b6163746976652070726f787960a01b606082015260800190565b60006020828403121561299d57600080fd5b5051919050565b6000602082840312156129b657600080fd5b815161222981612647565b6020808252602d908201527f43616c6c657220646f65736e2774206861766520504f5254464f4c494f5f414760408201526c454e545f524f4c4520726f6c6560981b606082015260800190565b60208082526026908201527f43616c6c657220646f65736e277420686176652055504752414445525f524f4c6040820152654520726f6c6560d01b606082015260800190565b600082601f830112612a6557600080fd5b81356020612a7561258783612681565b82815260069290921b84018101918181019086841115612a9457600080fd5b8286015b848110156128815760408189031215612ab15760008081fd5b612ab96124cd565b8135612ac4816123f6565b81528185013585820152835291830191604001612a98565b600060a08236031215612aee57600080fd5b612af66124ef565b82358152612b0660208401612458565b602082015260408301356001600160401b0380821115612b2557600080fd5b612b3136838701612568565b60408401526060850135915080821115612b4a57600080fd5b612b5636838701612568565b60608401526080850135915080821115612b6f57600080fd5b50612b7c36828601612a54565b60808301525092915050565b634e487b7160e01b600052603260045260246000fd5b60005b83811015612bb9578181015183820152602001612ba1565b50506000910152565b60008251612bd4818460208701612b9e565b9190910192915050565b60008151808452612bf6816020860160208601612b9e565b601f01601f19169290920160200192915050565b82151581526040602082015260006123816040830184612bde565b634e487b7160e01b600052601160045260246000fd5b600060018201612c4d57612c4d612c25565b5060010190565b60006020808385031215612c6757600080fd5b82516001600160401b0380821115612c7e57600080fd5b818501915085601f830112612c9257600080fd5b8151612ca061258782612681565b81815260059190911b83018401908481019088831115612cbf57600080fd5b8585015b83811015612d7a57805185811115612cdb5760008081fd5b86016040818c03601f1901811315612cf35760008081fd5b612cfb6124cd565b89830151612d08816123f6565b81528282015188811115612d1c5760008081fd5b8084019350508c603f840112612d325760008081fd5b89830151612d4261258782612541565b8181528e84838701011115612d575760008081fd5b612d66828d8301868801612b9e565b828c01525085525050918601918601612cc3565b5098975050505050505050565b600081518084526020808501808196508360051b8101915082860160005b85811015612dec578284038952815180516001600160a01b031685528501516040868601819052612dd881870183612bde565b9a87019a9550505090840190600101612da5565b5091979650505050505050565b600060018060a01b03808716835260806020840152612e1b6080840187612d87565b94166040830152506060015292915050565b600060406001600160401b038516835260208181850152845160a083860152612e5960e0860182612bde565b905081860151603f1980878403016060880152612e768383612bde565b88860151888203830160808a01528051808352908601945060009350908501905b80841015612ec957845180516001600160a01b0316835286015186830152938501936001939093019290860190612e97565b5060608901516001600160a01b031660a08901526080890151888203830160c08a01529550612ef88187612bde565b9a9950505050505050505050565b6020815260006122296020830184612d87565b600060018060a01b03808716835260806020840152612e1b6080840187612bde565b7f416363657373436f6e74726f6c3a206163636f756e7420000000000000000000815260008351612f73816017850160208801612b9e565b7001034b99036b4b9b9b4b733903937b6329607d1b6017918401918201528351612fa4816028840160208801612b9e565b01602801949350505050565b6020815260006122296020830184612bde565b808202811582820484141761072857610728612c25565b8082018082111561072857610728612c25565b600081612ffc57612ffc612c25565b50600019019056fe189ab7a9244df0848122154315af71fe140f3db0fe014031783b0946b8c9d2e3360894a13ba1a3210667c828492db98dca3e2076cc3735a920a3ca505d382bbc416464726573733a206c6f772d6c6576656c2064656c65676174652063616c6c206661696c6564a2646970667358221220936ce0debdaa70e0fe7f809225cc0971ed7092de647a4cf796d5bc6ce3f23eaf64736f6c63430008140033",
  "linkReferences": {},
  "deployedLinkReferences": {},
  "implementation": "0x66C5544D09B224fb6B7B21CD494D9049C0f0EC40"
}