{
  "address": "0xd9239aB483CdcE215dB4F4c344Ce6ea27E2EF9Cd",
  "_format": "hh-sol-artifact-1",
  "contractName": "ExchangeChild",
  "sourceName": "contracts/ExchangeChild.sol",
  "abi": [
    {
      "inputs": [],
      "stateMutability": "nonpayable",
      "type": "constructor"
    },
    {
      "anonymous": false,
      "inputs": [
        {
          "indexed": false,
          "internalType": "address",
          "name": "previousAdmin",
          "type": "address"
        },
        {
          "indexed": false,
          "internalType": "address",
          "name": "newAdmin",
          "type": "address"
        }
      ],
      "name": "AdminChanged",
      "type": "event"
    },
    {
      "anonymous": false,
      "inputs": [
        {
          "indexed": true,
          "internalType": "address",
          "name": "beacon",
          "type": "address"
        }
      ],
      "name": "BeaconUpgraded",
      "type": "event"
    },
    {
      "anonymous": false,
      "inputs": [
        {
          "indexed": false,
          "internalType": "uint8",
          "name": "version",
          "type": "uint8"
        }
      ],
      "name": "Initialized",
      "type": "event"
    },
    {
      "anonymous": false,
      "inputs": [
        {
          "indexed": false,
          "internalType": "address",
          "name": "account",
          "type": "address"
        }
      ],
      "name": "Paused",
      "type": "event"
    },
    {
      "anonymous": false,
      "inputs": [
        {
          "indexed": false,
          "internalType": "uint256",
          "name": "payoutDelta",
          "type": "uint256"
        }
      ],
      "name": "PayoutDeltaUpdated",
      "type": "event"
    },
    {
      "anonymous": false,
      "inputs": [
        {
          "indexed": false,
          "internalType": "uint256",
          "name": "newDelta",
          "type": "uint256"
        },
        {
          "indexed": false,
          "internalType": "uint256",
          "name": "payoutDeadline",
          "type": "uint256"
        }
      ],
      "name": "PayoutInfoStored",
      "type": "event"
    },
    {
      "anonymous": false,
      "inputs": [
        {
          "indexed": false,
          "internalType": "uint256",
          "name": "newDelta",
          "type": "uint256"
        },
        {
          "indexed": false,
          "internalType": "uint256",
          "name": "nonRebaseDelta",
          "type": "uint256"
        }
      ],
      "name": "PayoutShortEvent",
      "type": "event"
    },
    {
      "anonymous": false,
      "inputs": [
        {
          "indexed": false,
          "internalType": "address",
          "name": "remoteHub",
          "type": "address"
        }
      ],
      "name": "RemoteHubUpdated",
      "type": "event"
    },
    {
      "anonymous": false,
      "inputs": [
        {
          "indexed": true,
          "internalType": "bytes32",
          "name": "role",
          "type": "bytes32"
        },
        {
          "indexed": true,
          "internalType": "bytes32",
          "name": "previousAdminRole",
          "type": "bytes32"
        },
        {
          "indexed": true,
          "internalType": "bytes32",
          "name": "newAdminRole",
          "type": "bytes32"
        }
      ],
      "name": "RoleAdminChanged",
      "type": "event"
    },
    {
      "anonymous": false,
      "inputs": [
        {
          "indexed": true,
          "internalType": "bytes32",
          "name": "role",
          "type": "bytes32"
        },
        {
          "indexed": true,
          "internalType": "address",
          "name": "account",
          "type": "address"
        },
        {
          "indexed": true,
          "internalType": "address",
          "name": "sender",
          "type": "address"
        }
      ],
      "name": "RoleGranted",
      "type": "event"
    },
    {
      "anonymous": false,
      "inputs": [
        {
          "indexed": true,
          "internalType": "bytes32",
          "name": "role",
          "type": "bytes32"
        },
        {
          "indexed": true,
          "internalType": "address",
          "name": "account",
          "type": "address"
        },
        {
          "indexed": true,
          "internalType": "address",
          "name": "sender",
          "type": "address"
        }
      ],
      "name": "RoleRevoked",
      "type": "event"
    },
    {
      "anonymous": false,
      "inputs": [
        {
          "indexed": false,
          "internalType": "address",
          "name": "account",
          "type": "address"
        }
      ],
      "name": "Unpaused",
      "type": "event"
    },
    {
      "anonymous": false,
      "inputs": [
        {
          "indexed": true,
          "internalType": "address",
          "name": "implementation",
          "type": "address"
        }
      ],
      "name": "Upgraded",
      "type": "event"
    },
    {
      "inputs": [],
      "name": "DEFAULT_ADMIN_ROLE",
      "outputs": [
        {
          "internalType": "bytes32",
          "name": "",
          "type": "bytes32"
        }
      ],
      "stateMutability": "view",
      "type": "function"
    },
    {
      "inputs": [],
      "name": "LIQ_DELTA_DM",
      "outputs": [
        {
          "internalType": "uint256",
          "name": "",
          "type": "uint256"
        }
      ],
      "stateMutability": "view",
      "type": "function"
    },
    {
      "inputs": [],
      "name": "UPGRADER_ROLE",
      "outputs": [
        {
          "internalType": "bytes32",
          "name": "",
          "type": "bytes32"
        }
      ],
      "stateMutability": "pure",
      "type": "function"
    },
    {
      "inputs": [
        {
          "internalType": "bytes32",
          "name": "role",
          "type": "bytes32"
        }
      ],
      "name": "getRoleAdmin",
      "outputs": [
        {
          "internalType": "bytes32",
          "name": "",
          "type": "bytes32"
        }
      ],
      "stateMutability": "view",
      "type": "function"
    },
    {
      "inputs": [
        {
          "internalType": "bytes32",
          "name": "role",
          "type": "bytes32"
        },
        {
          "internalType": "address",
          "name": "account",
          "type": "address"
        }
      ],
      "name": "grantRole",
      "outputs": [],
      "stateMutability": "nonpayable",
      "type": "function"
    },
    {
      "inputs": [
        {
          "internalType": "bytes32",
          "name": "role",
          "type": "bytes32"
        },
        {
          "internalType": "address",
          "name": "account",
          "type": "address"
        }
      ],
      "name": "hasRole",
      "outputs": [
        {
          "internalType": "bool",
          "name": "",
          "type": "bool"
        }
      ],
      "stateMutability": "view",
      "type": "function"
    },
    {
      "inputs": [
        {
          "internalType": "address",
          "name": "_remoteHub",
          "type": "address"
        }
      ],
      "name": "initialize",
      "outputs": [],
      "stateMutability": "nonpayable",
      "type": "function"
    },
    {
      "inputs": [],
      "name": "newDelta",
      "outputs": [
        {
          "internalType": "uint256",
          "name": "",
          "type": "uint256"
        }
      ],
      "stateMutability": "view",
      "type": "function"
    },
    {
      "inputs": [],
      "name": "paused",
      "outputs": [
        {
          "internalType": "bool",
          "name": "",
          "type": "bool"
        }
      ],
      "stateMutability": "view",
      "type": "function"
    },
    {
      "inputs": [],
      "name": "payout",
      "outputs": [],
      "stateMutability": "nonpayable",
      "type": "function"
    },
    {
      "inputs": [
        {
          "internalType": "uint256",
          "name": "_newDelta",
          "type": "uint256"
        }
      ],
      "name": "payout",
      "outputs": [],
      "stateMutability": "nonpayable",
      "type": "function"
    },
    {
      "inputs": [],
      "name": "payoutDeadline",
      "outputs": [
        {
          "internalType": "uint256",
          "name": "",
          "type": "uint256"
        }
      ],
      "stateMutability": "view",
      "type": "function"
    },
    {
      "inputs": [],
      "name": "payoutDelta",
      "outputs": [
        {
          "internalType": "uint256",
          "name": "",
          "type": "uint256"
        }
      ],
      "stateMutability": "view",
      "type": "function"
    },
    {
      "inputs": [],
      "name": "proxiableUUID",
      "outputs": [
        {
          "internalType": "bytes32",
          "name": "",
          "type": "bytes32"
        }
      ],
      "stateMutability": "view",
      "type": "function"
    },
    {
      "inputs": [],
      "name": "remoteHub",
      "outputs": [
        {
          "internalType": "contract IRemoteHub",
          "name": "",
          "type": "address"
        }
      ],
      "stateMutability": "view",
      "type": "function"
    },
    {
      "inputs": [
        {
          "internalType": "bytes32",
          "name": "role",
          "type": "bytes32"
        },
        {
          "internalType": "address",
          "name": "account",
          "type": "address"
        }
      ],
      "name": "renounceRole",
      "outputs": [],
      "stateMutability": "nonpayable",
      "type": "function"
    },
    {
      "inputs": [
        {
          "internalType": "bytes32",
          "name": "role",
          "type": "bytes32"
        },
        {
          "internalType": "address",
          "name": "account",
          "type": "address"
        }
      ],
      "name": "revokeRole",
      "outputs": [],
      "stateMutability": "nonpayable",
      "type": "function"
    },
    {
      "inputs": [
        {
          "internalType": "uint256",
          "name": "_payoutDelta",
          "type": "uint256"
        }
      ],
      "name": "setPayoutDelta",
      "outputs": [],
      "stateMutability": "nonpayable",
      "type": "function"
    },
    {
      "inputs": [
        {
          "internalType": "address",
          "name": "_remoteHub",
          "type": "address"
        }
      ],
      "name": "setRemoteHub",
      "outputs": [],
      "stateMutability": "nonpayable",
      "type": "function"
    },
    {
      "inputs": [
        {
          "internalType": "bytes4",
          "name": "interfaceId",
          "type": "bytes4"
        }
      ],
      "name": "supportsInterface",
      "outputs": [
        {
          "internalType": "bool",
          "name": "",
          "type": "bool"
        }
      ],
      "stateMutability": "view",
      "type": "function"
    },
    {
      "inputs": [
        {
          "internalType": "address",
          "name": "newImplementation",
          "type": "address"
        }
      ],
      "name": "upgradeTo",
      "outputs": [],
      "stateMutability": "nonpayable",
      "type": "function"
    },
    {
      "inputs": [
        {
          "internalType": "address",
          "name": "newImplementation",
          "type": "address"
        },
        {
          "internalType": "bytes",
          "name": "data",
          "type": "bytes"
        }
      ],
      "name": "upgradeToAndCall",
      "outputs": [],
      "stateMutability": "payable",
      "type": "function"
    }
  ],
  "bytecode": "0x60a06040523060805234801561001457600080fd5b5061001d610022565b6100e1565b600054610100900460ff161561008e5760405162461bcd60e51b815260206004820152602760248201527f496e697469616c697a61626c653a20636f6e747261637420697320696e697469604482015266616c697a696e6760c81b606482015260840160405180910390fd5b60005460ff908116146100df576000805460ff191660ff9081179091556040519081527f7f26b83ff96e1f2b6a682f133852f6798a09c465da95921460cefb38474024989060200160405180910390a15b565b608051611f7e61011860003960008181610553015281816105930152818161070a0152818161074a01526107d90152611f7e6000f3fe6080604052600436106101355760003560e01c806363bd1d4a116100ab578063c4d66de81161006f578063c4d66de814610340578063d31a193414610360578063d547741f14610377578063e115234314610397578063e379a6c9146103b7578063f72c0d8b146103ce57600080fd5b806363bd1d4a146102a6578063794c7f8a146102bb57806391d14854146102d25780639423f215146102f2578063a217fddf1461032b57600080fd5b80633659cfe6116100fd5780633659cfe61461020f5780633f2b6c011461022f578063405a11dc146102465780634f1ef2861461026657806352d1902d146102795780635c975abb1461028e57600080fd5b806301ffc9a71461013a5780631b3770051461016f578063248a9ca3146101915780632f2ff15d146101cf57806336568abe146101ef575b600080fd5b34801561014657600080fd5b5061015a61015536600461184c565b6103ef565b60405190151581526020015b60405180910390f35b34801561017b57600080fd5b5061018f61018a366004611876565b610426565b005b34801561019d57600080fd5b506101c16101ac366004611876565b60009081526065602052604090206001015490565b604051908152602001610166565b3480156101db57600080fd5b5061018f6101ea3660046118a4565b6104a1565b3480156101fb57600080fd5b5061018f61020a3660046118a4565b6104cb565b34801561021b57600080fd5b5061018f61022a3660046118d4565b610549565b34801561023b57600080fd5b506101c161012d5481565b34801561025257600080fd5b5061018f6102613660046118d4565b610628565b61018f610274366004611985565b610700565b34801561028557600080fd5b506101c16107cc565b34801561029a57600080fd5b5060fb5460ff1661015a565b3480156102b257600080fd5b5061018f61087f565b3480156102c757600080fd5b506101c161012e5481565b3480156102de57600080fd5b5061015a6102ed3660046118a4565b610c4f565b3480156102fe57600080fd5b5061013054610313906001600160a01b031681565b6040516001600160a01b039091168152602001610166565b34801561033757600080fd5b506101c1600081565b34801561034c57600080fd5b5061018f61035b3660046118d4565b610c7a565b34801561036c57600080fd5b506101c1620f424081565b34801561038357600080fd5b5061018f6103923660046118a4565b610dda565b3480156103a357600080fd5b5061018f6103b2366004611876565b610dff565b3480156103c357600080fd5b506101c161012f5481565b3480156103da57600080fd5b50600080516020611ee28339815191526101c1565b60006001600160e01b03198216637965db0b60e01b148061042057506301ffc9a760e01b6001600160e01b03198316145b92915050565b61043f600080516020611ee28339815191525b33610c4f565b6104645760405162461bcd60e51b815260040161045b90611a2d565b60405180910390fd5b61012f8190556040518181527f3d2794556c0378ead6eacd4009e7f411edeccd4519428c865bacfd0f88022d01906020015b60405180910390a150565b6000828152606560205260409020600101546104bc81610ee5565b6104c68383610eef565b505050565b6001600160a01b038116331461053b5760405162461bcd60e51b815260206004820152602f60248201527f416363657373436f6e74726f6c3a2063616e206f6e6c792072656e6f756e636560448201526e103937b632b9903337b91039b2b63360891b606482015260840161045b565b6105458282610f75565b5050565b6001600160a01b037f00000000000000000000000000000000000000000000000000000000000000001630036105915760405162461bcd60e51b815260040161045b90611a73565b7f00000000000000000000000000000000000000000000000000000000000000006001600160a01b03166105da600080516020611f02833981519152546001600160a01b031690565b6001600160a01b0316146106005760405162461bcd60e51b815260040161045b90611abf565b61060981610fdc565b604080516000808252602082019092526106259183919061100f565b50565b61063f600080516020611ee2833981519152610439565b61065b5760405162461bcd60e51b815260040161045b90611a2d565b6001600160a01b0381166106b15760405162461bcd60e51b815260206004820152601860248201527f5a65726f2061646472657373206e6f7420616c6c6f7765640000000000000000604482015260640161045b565b61013080546001600160a01b0319166001600160a01b0383169081179091556040519081527f0acbcc2f890f48416af3a85d8a92e6b01a61ca13a98ccf21d101bf3fe06593fc90602001610496565b6001600160a01b037f00000000000000000000000000000000000000000000000000000000000000001630036107485760405162461bcd60e51b815260040161045b90611a73565b7f00000000000000000000000000000000000000000000000000000000000000006001600160a01b0316610791600080516020611f02833981519152546001600160a01b031690565b6001600160a01b0316146107b75760405162461bcd60e51b815260040161045b90611abf565b6107c082610fdc565b6105458282600161100f565b6000306001600160a01b037f0000000000000000000000000000000000000000000000000000000000000000161461086c5760405162461bcd60e51b815260206004820152603860248201527f555550535570677261646561626c653a206d757374206e6f742062652063616c60448201527f6c6564207468726f7567682064656c656761746563616c6c0000000000000000606482015260840161045b565b50600080516020611f0283398151915290565b600061012d54116108cb5760405162461bcd60e51b81526020600482015260166024820152756e65772064656c7461206973206e6f7420726561647960501b604482015260640161045b565b6108d361117a565b806108e157504261012e5410155b6109415760405162461bcd60e51b815260206004820152602b60248201527f596f7520617265206e6f7420556e6974206f722074696d657374616d7020697360448201526a103737ba103932b0b23c9760a91b606482015260840161045b565b620f424061012d54116109885760405162461bcd60e51b815260206004820152600f60248201526e4e656761746976652072656261736560881b604482015260640161045b565b6000610992611266565b9050600061099e6112d5565b90506000620f424061012d54846001600160a01b03166318160ddd6040518163ffffffff1660e01b8152600401602060405180830381865afa1580156109e8573d6000803e3d6000fd5b505050506040513d601f19601f82011682018060405250810190610a0c9190611b0b565b610a169190611b3a565b610a209190611b51565b9050600080846001600160a01b03166339a7919f846040518263ffffffff1660e01b8152600401610a5391815260200190565b6000604051808303816000875af1158015610a72573d6000803e3d6000fd5b505050506040513d6000823e601f3d908101601f19168201604052610a9a9190810190611b73565b90925090508015610b68576040516340c10f1960e01b81526001600160a01b038581166004830152602482018390528616906340c10f1990604401600060405180830381600087803b158015610aef57600080fd5b505af1158015610b03573d6000803e3d6000fd5b50506040516301b1d84d60e11b81526001600160a01b0387169250630363b09a9150610b359088908690600401611c9b565b600060405180830381600087803b158015610b4f57600080fd5b505af1158015610b63573d6000803e3d6000fd5b505050505b82856001600160a01b03166318160ddd6040518163ffffffff1660e01b8152600401602060405180830381865afa158015610ba7573d6000803e3d6000fd5b505050506040513d601f19601f82011682018060405250810190610bcb9190611b0b565b14610c075760405162461bcd60e51b815260206004820152600c60248201526b3a37ba30b610109e903730bb60a11b604482015260640161045b565b600061012d81905560408051918252602082018390527f8ae1a69905fe1f18107380603495e8b3e729e9f5ed852056c5c8d247e50f9f30910160405180910390a15050505050565b60009182526065602090815260408084206001600160a01b0393909316845291905290205460ff1690565b600054610100900460ff1615808015610c9a5750600054600160ff909116105b80610cb45750303b158015610cb4575060005460ff166001145b610d175760405162461bcd60e51b815260206004820152602e60248201527f496e697469616c697a61626c653a20636f6e747261637420697320616c72656160448201526d191e481a5b9a5d1a585b1a5e995960921b606482015260840161045b565b6000805460ff191660011790558015610d3a576000805461ff0019166101001790555b610d42611320565b610d4a611349565b610d52611320565b610d5d600033610eef565b610d75600080516020611ee283398151915233610eef565b61013080546001600160a01b0319166001600160a01b0384161790558015610545576000805461ff0019169055604051600181527f7f26b83ff96e1f2b6a682f133852f6798a09c465da95921460cefb38474024989060200160405180910390a15050565b600082815260656020526040902060010154610df581610ee5565b6104c68383610f75565b610e16600080516020611ee2833981519152610439565b610e325760405162461bcd60e51b815260040161045b90611a2d565b620f42408111610e765760405162461bcd60e51b815260206004820152600f60248201526e4e656761746976652072656261736560881b604482015260640161045b565b61012d81905561012f54610e8a9042611d2f565b61012e81905561012d546040517fb7a34ba0c471f432f64a8b48691f890cd20b36d61fe67e91378e4c375de184e992610eca928252602082015260400190565b60405180910390a161012f546000036106255761062561087f565b6106258133611378565b610ef98282610c4f565b6105455760008281526065602090815260408083206001600160a01b03851684529091529020805460ff19166001179055610f313390565b6001600160a01b0316816001600160a01b0316837f2f8788117e7eff1d82e926ec794901d17c78024a50270940304540a733656f0d60405160405180910390a45050565b610f7f8282610c4f565b156105455760008281526065602090815260408083206001600160a01b0385168085529252808320805460ff1916905551339285917ff6391f5c32d9c69d2a47ea670b442974b53935d1edc7fd64eb21e047a839171b9190a45050565b610ff3600080516020611ee2833981519152610439565b6106255760405162461bcd60e51b815260040161045b90611a2d565b7f4910fdfa16fed3260ed0e7147f7cc6da11a60208b5b9406d12a635614ffd91435460ff1615611042576104c6836113d1565b826001600160a01b03166352d1902d6040518163ffffffff1660e01b8152600401602060405180830381865afa92505050801561109c575060408051601f3d908101601f1916820190925261109991810190611b0b565b60015b6110ff5760405162461bcd60e51b815260206004820152602e60248201527f45524331393637557067726164653a206e657720696d706c656d656e7461746960448201526d6f6e206973206e6f74205555505360901b606482015260840161045b565b600080516020611f02833981519152811461116e5760405162461bcd60e51b815260206004820152602960248201527f45524331393637557067726164653a20756e737570706f727465642070726f786044820152681a58589b195555525160ba1b606482015260840161045b565b506104c683838361146d565b6000611184611498565b6001600160a01b03166391d1485461119a611498565b6001600160a01b031663497d91926040518163ffffffff1660e01b8152600401602060405180830381865afa1580156111d7573d6000803e3d6000fd5b505050506040513d601f19601f820116820180604052508101906111fb9190611b0b565b6040516001600160e01b031960e084901b1681526004810191909152336024820152604401602060405180830381865afa15801561123d573d6000803e3d6000fd5b505050506040513d601f19601f820116820180604052508101906112619190611d42565b905090565b6101305460408051632869062960e21b815290516000926001600160a01b03169163a1a418a49160048083019260209291908290030181865afa1580156112b1573d6000803e3d6000fd5b505050506040513d601f19601f820116820180604052508101906112619190611d64565b6101305460408051633083a8e360e01b815290516000926001600160a01b031691633083a8e39160048083019260209291908290030181865afa1580156112b1573d6000803e3d6000fd5b600054610100900460ff166113475760405162461bcd60e51b815260040161045b90611d81565b565b600054610100900460ff166113705760405162461bcd60e51b815260040161045b90611d81565b6113476114e1565b6113828282610c4f565b6105455761138f81611514565b61139a836020611526565b6040516020016113ab929190611df0565b60408051601f198184030181529082905262461bcd60e51b825261045b91600401611e65565b6001600160a01b0381163b61143e5760405162461bcd60e51b815260206004820152602d60248201527f455243313936373a206e657720696d706c656d656e746174696f6e206973206e60448201526c1bdd08184818dbdb9d1c9858dd609a1b606482015260840161045b565b600080516020611f0283398151915280546001600160a01b0319166001600160a01b0392909216919091179055565b611476836116c9565b6000825111806114835750805b156104c6576114928383611709565b50505050565b610130546040805162435da560e01b815290516000926001600160a01b03169162435da59160048083019260209291908290030181865afa1580156112b1573d6000803e3d6000fd5b600054610100900460ff166115085760405162461bcd60e51b815260040161045b90611d81565b60fb805460ff19169055565b60606104206001600160a01b03831660145b60606000611535836002611b3a565b611540906002611d2f565b67ffffffffffffffff811115611558576115586118f1565b6040519080825280601f01601f191660200182016040528015611582576020820181803683370190505b509050600360fc1b8160008151811061159d5761159d611e98565b60200101906001600160f81b031916908160001a905350600f60fb1b816001815181106115cc576115cc611e98565b60200101906001600160f81b031916908160001a90535060006115f0846002611b3a565b6115fb906001611d2f565b90505b6001811115611673576f181899199a1a9b1b9c1cb0b131b232b360811b85600f166010811061162f5761162f611e98565b1a60f81b82828151811061164557611645611e98565b60200101906001600160f81b031916908160001a90535060049490941c9361166c81611eae565b90506115fe565b5083156116c25760405162461bcd60e51b815260206004820181905260248201527f537472696e67733a20686578206c656e67746820696e73756666696369656e74604482015260640161045b565b9392505050565b6116d2816113d1565b6040516001600160a01b038216907fbc7cd75a20ee27fd9adebab32041f755214dbc6bffa90cc0225b39da2e5c2d3b90600090a250565b60606116c28383604051806060016040528060278152602001611f22602791396060600080856001600160a01b0316856040516117469190611ec5565b600060405180830381855af49150503d8060008114611781576040519150601f19603f3d011682016040523d82523d6000602084013e611786565b606091505b5091509150611797868383876117a1565b9695505050505050565b60608315611810578251600003611809576001600160a01b0385163b6118095760405162461bcd60e51b815260206004820152601d60248201527f416464726573733a2063616c6c20746f206e6f6e2d636f6e7472616374000000604482015260640161045b565b508161181a565b61181a8383611822565b949350505050565b8151156118325781518083602001fd5b8060405162461bcd60e51b815260040161045b9190611e65565b60006020828403121561185e57600080fd5b81356001600160e01b0319811681146116c257600080fd5b60006020828403121561188857600080fd5b5035919050565b6001600160a01b038116811461062557600080fd5b600080604083850312156118b757600080fd5b8235915060208301356118c98161188f565b809150509250929050565b6000602082840312156118e657600080fd5b81356116c28161188f565b634e487b7160e01b600052604160045260246000fd5b6040516060810167ffffffffffffffff8111828210171561192a5761192a6118f1565b60405290565b604051610140810167ffffffffffffffff8111828210171561192a5761192a6118f1565b604051601f8201601f1916810167ffffffffffffffff8111828210171561197d5761197d6118f1565b604052919050565b6000806040838503121561199857600080fd5b82356119a38161188f565b915060208381013567ffffffffffffffff808211156119c157600080fd5b818601915086601f8301126119d557600080fd5b8135818111156119e7576119e76118f1565b6119f9601f8201601f19168501611954565b91508082528784828501011115611a0f57600080fd5b80848401858401376000848284010152508093505050509250929050565b60208082526026908201527f43616c6c657220646f65736e277420686176652055504752414445525f524f4c6040820152654520726f6c6560d01b606082015260800190565b6020808252602c908201527f46756e6374696f6e206d7573742062652063616c6c6564207468726f7567682060408201526b19195b1959d85d1958d85b1b60a21b606082015260800190565b6020808252602c908201527f46756e6374696f6e206d7573742062652063616c6c6564207468726f7567682060408201526b6163746976652070726f787960a01b606082015260800190565b600060208284031215611b1d57600080fd5b5051919050565b634e487b7160e01b600052601160045260246000fd5b808202811582820484141761042057610420611b24565b600082611b6e57634e487b7160e01b600052601260045260246000fd5b500490565b6000806040808486031215611b8757600080fd5b835167ffffffffffffffff80821115611b9f57600080fd5b818601915086601f830112611bb357600080fd5b8151602082821115611bc757611bc76118f1565b611bd5818360051b01611954565b828152818101935061018092830285018201928a841115611bf557600080fd5b948201945b83861015611c8a5780868c031215611c125760008081fd5b611c1a611907565b8651611c258161188f565b81528684015184820152605f87018c13611c3f5760008081fd5b611c47611930565b808389018e811115611c595760008081fd5b8a8a015b81811015611c745780518452928701928701611c5d565b5050828a01525085529485019493820193611bfa565b509701519698969750505050505050565b6001600160a01b038381168252604060208084018290528451848301819052600093868301929091606087019086805b82811015611d1f5786518051871685528581015186860152880151888501835b600a811015611d0857825182529187019190870190600101611ceb565b505050958401956101809390930192600101611ccb565b50919a9950505050505050505050565b8082018082111561042057610420611b24565b600060208284031215611d5457600080fd5b815180151581146116c257600080fd5b600060208284031215611d7657600080fd5b81516116c28161188f565b6020808252602b908201527f496e697469616c697a61626c653a20636f6e7472616374206973206e6f74206960408201526a6e697469616c697a696e6760a81b606082015260800190565b60005b83811015611de7578181015183820152602001611dcf565b50506000910152565b7f416363657373436f6e74726f6c3a206163636f756e7420000000000000000000815260008351611e28816017850160208801611dcc565b7001034b99036b4b9b9b4b733903937b6329607d1b6017918401918201528351611e59816028840160208801611dcc565b01602801949350505050565b6020815260008251806020840152611e84816040850160208701611dcc565b601f01601f19169190910160400192915050565b634e487b7160e01b600052603260045260246000fd5b600081611ebd57611ebd611b24565b506000190190565b60008251611ed7818460208701611dcc565b919091019291505056fe189ab7a9244df0848122154315af71fe140f3db0fe014031783b0946b8c9d2e3360894a13ba1a3210667c828492db98dca3e2076cc3735a920a3ca505d382bbc416464726573733a206c6f772d6c6576656c2064656c65676174652063616c6c206661696c6564a2646970667358221220a6b9ab20b26c54ab025510bdf8c049b9ca75b3481121a15ce8ea9228fa248e7f64736f6c63430008140033",
  "linkReferences": {},
  "deployedLinkReferences": {},
  "implementation": "0x6dBA7c6Cf36D577fB24639290f0338456214adF8"
}