{
  "address": "0xB04ae3248216cE8A5B52620820f7eDe27281AE10",
  "_format": "hh-sol-artifact-1",
  "contractName": "PortfolioManager",
  "sourceName": "contracts/PortfolioManager.sol",
  "abi": [
    {
      "inputs": [],
      "stateMutability": "nonpayable",
      "type": "constructor"
    },
    {
      "inputs": [
        {
          "internalType": "uint256",
          "name": "available",
          "type": "uint256"
        },
        {
          "internalType": "uint256",
          "name": "required",
          "type": "uint256"
        }
      ],
      "name": "InsufficientBalance",
      "type": "error"
    },
    {
      "inputs": [],
      "name": "StrategyNotFound",
      "type": "error"
    },
    {
      "anonymous": false,
      "inputs": [
        {
          "indexed": false,
          "internalType": "address",
          "name": "previousAdmin",
          "type": "address"
        },
        {
          "indexed": false,
          "internalType": "address",
          "name": "newAdmin",
          "type": "address"
        }
      ],
      "name": "AdminChanged",
      "type": "event"
    },
    {
      "anonymous": false,
      "inputs": [
        {
          "indexed": false,
          "internalType": "address",
          "name": "value",
          "type": "address"
        }
      ],
      "name": "AssetUpdated",
      "type": "event"
    },
    {
      "anonymous": false,
      "inputs": [],
      "name": "Balance",
      "type": "event"
    },
    {
      "anonymous": false,
      "inputs": [
        {
          "indexed": true,
          "internalType": "address",
          "name": "beacon",
          "type": "address"
        }
      ],
      "name": "BeaconUpgraded",
      "type": "event"
    },
    {
      "anonymous": false,
      "inputs": [
        {
          "indexed": false,
          "internalType": "address",
          "name": "value",
          "type": "address"
        }
      ],
      "name": "CashStrategyAlreadySet",
      "type": "event"
    },
    {
      "anonymous": false,
      "inputs": [
        {
          "indexed": false,
          "internalType": "uint256",
          "name": "value",
          "type": "uint256"
        }
      ],
      "name": "CashStrategyRestaked",
      "type": "event"
    },
    {
      "anonymous": false,
      "inputs": [
        {
          "indexed": false,
          "internalType": "address",
          "name": "value",
          "type": "address"
        }
      ],
      "name": "CashStrategyUpdated",
      "type": "event"
    },
    {
      "anonymous": false,
      "inputs": [],
      "name": "ClaimRewards",
      "type": "event"
    },
    {
      "anonymous": false,
      "inputs": [
        {
          "indexed": false,
          "internalType": "uint8",
          "name": "version",
          "type": "uint8"
        }
      ],
      "name": "Initialized",
      "type": "event"
    },
    {
      "anonymous": false,
      "inputs": [
        {
          "indexed": false,
          "internalType": "uint256",
          "name": "navSlippageBp",
          "type": "uint256"
        }
      ],
      "name": "NavSlippageBpUpdated",
      "type": "event"
    },
    {
      "anonymous": false,
      "inputs": [
        {
          "indexed": false,
          "internalType": "address",
          "name": "remoteHub",
          "type": "address"
        }
      ],
      "name": "RemoteHubUpdated",
      "type": "event"
    },
    {
      "anonymous": false,
      "inputs": [
        {
          "indexed": true,
          "internalType": "bytes32",
          "name": "role",
          "type": "bytes32"
        },
        {
          "indexed": true,
          "internalType": "bytes32",
          "name": "previousAdminRole",
          "type": "bytes32"
        },
        {
          "indexed": true,
          "internalType": "bytes32",
          "name": "newAdminRole",
          "type": "bytes32"
        }
      ],
      "name": "RoleAdminChanged",
      "type": "event"
    },
    {
      "anonymous": false,
      "inputs": [
        {
          "indexed": true,
          "internalType": "bytes32",
          "name": "role",
          "type": "bytes32"
        },
        {
          "indexed": true,
          "internalType": "address",
          "name": "account",
          "type": "address"
        },
        {
          "indexed": true,
          "internalType": "address",
          "name": "sender",
          "type": "address"
        }
      ],
      "name": "RoleGranted",
      "type": "event"
    },
    {
      "anonymous": false,
      "inputs": [
        {
          "indexed": true,
          "internalType": "bytes32",
          "name": "role",
          "type": "bytes32"
        },
        {
          "indexed": true,
          "internalType": "address",
          "name": "account",
          "type": "address"
        },
        {
          "indexed": true,
          "internalType": "address",
          "name": "sender",
          "type": "address"
        }
      ],
      "name": "RoleRevoked",
      "type": "event"
    },
    {
      "anonymous": false,
      "inputs": [
        {
          "indexed": false,
          "internalType": "uint256",
          "name": "index",
          "type": "uint256"
        },
        {
          "indexed": false,
          "internalType": "address",
          "name": "strategy",
          "type": "address"
        },
        {
          "indexed": false,
          "internalType": "uint256",
          "name": "minWeight",
          "type": "uint256"
        },
        {
          "indexed": false,
          "internalType": "uint256",
          "name": "targetWeight",
          "type": "uint256"
        },
        {
          "indexed": false,
          "internalType": "uint256",
          "name": "maxWeight",
          "type": "uint256"
        },
        {
          "indexed": false,
          "internalType": "uint256",
          "name": "riskFactor",
          "type": "uint256"
        },
        {
          "indexed": false,
          "internalType": "bool",
          "name": "enabled",
          "type": "bool"
        },
        {
          "indexed": false,
          "internalType": "bool",
          "name": "enabledReward",
          "type": "bool"
        }
      ],
      "name": "StrategyWeightUpdated",
      "type": "event"
    },
    {
      "anonymous": false,
      "inputs": [
        {
          "indexed": false,
          "internalType": "uint256",
          "name": "value",
          "type": "uint256"
        }
      ],
      "name": "TotalRiskFactorUpdated",
      "type": "event"
    },
    {
      "anonymous": false,
      "inputs": [
        {
          "indexed": true,
          "internalType": "address",
          "name": "implementation",
          "type": "address"
        }
      ],
      "name": "Upgraded",
      "type": "event"
    },
    {
      "inputs": [],
      "name": "DEFAULT_ADMIN_ROLE",
      "outputs": [
        {
          "internalType": "bytes32",
          "name": "",
          "type": "bytes32"
        }
      ],
      "stateMutability": "view",
      "type": "function"
    },
    {
      "inputs": [],
      "name": "TOTAL_WEIGHT",
      "outputs": [
        {
          "internalType": "uint256",
          "name": "",
          "type": "uint256"
        }
      ],
      "stateMutability": "view",
      "type": "function"
    },
    {
      "inputs": [],
      "name": "UPGRADER_ROLE",
      "outputs": [
        {
          "internalType": "bytes32",
          "name": "",
          "type": "bytes32"
        }
      ],
      "stateMutability": "pure",
      "type": "function"
    },
    {
      "inputs": [
        {
          "internalType": "address",
          "name": "_strategy",
          "type": "address"
        }
      ],
      "name": "addStrategy",
      "outputs": [],
      "stateMutability": "nonpayable",
      "type": "function"
    },
    {
      "inputs": [],
      "name": "balance",
      "outputs": [],
      "stateMutability": "nonpayable",
      "type": "function"
    },
    {
      "inputs": [],
      "name": "cashStrategy",
      "outputs": [
        {
          "internalType": "contract IStrategy",
          "name": "",
          "type": "address"
        }
      ],
      "stateMutability": "view",
      "type": "function"
    },
    {
      "inputs": [],
      "name": "claimAndBalance",
      "outputs": [],
      "stateMutability": "nonpayable",
      "type": "function"
    },
    {
      "inputs": [],
      "name": "deposit",
      "outputs": [],
      "stateMutability": "nonpayable",
      "type": "function"
    },
    {
      "inputs": [],
      "name": "getAllStrategyWeights",
      "outputs": [
        {
          "components": [
            {
              "internalType": "address",
              "name": "strategy",
              "type": "address"
            },
            {
              "internalType": "uint256",
              "name": "minWeight",
              "type": "uint256"
            },
            {
              "internalType": "uint256",
              "name": "targetWeight",
              "type": "uint256"
            },
            {
              "internalType": "uint256",
              "name": "maxWeight",
              "type": "uint256"
            },
            {
              "internalType": "uint256",
              "name": "riskFactor",
              "type": "uint256"
            },
            {
              "internalType": "bool",
              "name": "enabled",
              "type": "bool"
            },
            {
              "internalType": "bool",
              "name": "enabledReward",
              "type": "bool"
            }
          ],
          "internalType": "struct IPortfolioManager.StrategyWeight[]",
          "name": "",
          "type": "tuple[]"
        }
      ],
      "stateMutability": "view",
      "type": "function"
    },
    {
      "inputs": [
        {
          "internalType": "bytes32",
          "name": "role",
          "type": "bytes32"
        }
      ],
      "name": "getRoleAdmin",
      "outputs": [
        {
          "internalType": "bytes32",
          "name": "",
          "type": "bytes32"
        }
      ],
      "stateMutability": "view",
      "type": "function"
    },
    {
      "inputs": [
        {
          "internalType": "address",
          "name": "strategy",
          "type": "address"
        }
      ],
      "name": "getStrategyWeight",
      "outputs": [
        {
          "components": [
            {
              "internalType": "address",
              "name": "strategy",
              "type": "address"
            },
            {
              "internalType": "uint256",
              "name": "minWeight",
              "type": "uint256"
            },
            {
              "internalType": "uint256",
              "name": "targetWeight",
              "type": "uint256"
            },
            {
              "internalType": "uint256",
              "name": "maxWeight",
              "type": "uint256"
            },
            {
              "internalType": "uint256",
              "name": "riskFactor",
              "type": "uint256"
            },
            {
              "internalType": "bool",
              "name": "enabled",
              "type": "bool"
            },
            {
              "internalType": "bool",
              "name": "enabledReward",
              "type": "bool"
            }
          ],
          "internalType": "struct IPortfolioManager.StrategyWeight",
          "name": "",
          "type": "tuple"
        }
      ],
      "stateMutability": "view",
      "type": "function"
    },
    {
      "inputs": [],
      "name": "getTotalRiskFactor",
      "outputs": [
        {
          "internalType": "uint256",
          "name": "",
          "type": "uint256"
        }
      ],
      "stateMutability": "view",
      "type": "function"
    },
    {
      "inputs": [
        {
          "internalType": "bytes32",
          "name": "role",
          "type": "bytes32"
        },
        {
          "internalType": "address",
          "name": "account",
          "type": "address"
        }
      ],
      "name": "grantRole",
      "outputs": [],
      "stateMutability": "nonpayable",
      "type": "function"
    },
    {
      "inputs": [
        {
          "internalType": "bytes32",
          "name": "role",
          "type": "bytes32"
        },
        {
          "internalType": "address",
          "name": "account",
          "type": "address"
        }
      ],
      "name": "hasRole",
      "outputs": [
        {
          "internalType": "bool",
          "name": "",
          "type": "bool"
        }
      ],
      "stateMutability": "view",
      "type": "function"
    },
    {
      "inputs": [],
      "name": "initialize",
      "outputs": [],
      "stateMutability": "nonpayable",
      "type": "function"
    },
    {
      "inputs": [],
      "name": "initialize_v2",
      "outputs": [],
      "stateMutability": "nonpayable",
      "type": "function"
    },
    {
      "inputs": [],
      "name": "navSlippageBp",
      "outputs": [
        {
          "internalType": "uint256",
          "name": "",
          "type": "uint256"
        }
      ],
      "stateMutability": "view",
      "type": "function"
    },
    {
      "inputs": [],
      "name": "proxiableUUID",
      "outputs": [
        {
          "internalType": "bytes32",
          "name": "",
          "type": "bytes32"
        }
      ],
      "stateMutability": "view",
      "type": "function"
    },
    {
      "inputs": [],
      "name": "remoteHub",
      "outputs": [
        {
          "internalType": "contract IRemoteHub",
          "name": "",
          "type": "address"
        }
      ],
      "stateMutability": "view",
      "type": "function"
    },
    {
      "inputs": [
        {
          "internalType": "address",
          "name": "_strategy",
          "type": "address"
        }
      ],
      "name": "removeStrategy",
      "outputs": [],
      "stateMutability": "nonpayable",
      "type": "function"
    },
    {
      "inputs": [
        {
          "internalType": "bytes32",
          "name": "role",
          "type": "bytes32"
        },
        {
          "internalType": "address",
          "name": "account",
          "type": "address"
        }
      ],
      "name": "renounceRole",
      "outputs": [],
      "stateMutability": "nonpayable",
      "type": "function"
    },
    {
      "inputs": [
        {
          "internalType": "bytes32",
          "name": "role",
          "type": "bytes32"
        },
        {
          "internalType": "address",
          "name": "account",
          "type": "address"
        }
      ],
      "name": "revokeRole",
      "outputs": [],
      "stateMutability": "nonpayable",
      "type": "function"
    },
    {
      "inputs": [
        {
          "internalType": "address",
          "name": "_asset",
          "type": "address"
        }
      ],
      "name": "setAsset",
      "outputs": [],
      "stateMutability": "nonpayable",
      "type": "function"
    },
    {
      "inputs": [
        {
          "internalType": "address",
          "name": "_cashStrategy",
          "type": "address"
        }
      ],
      "name": "setCashStrategy",
      "outputs": [],
      "stateMutability": "nonpayable",
      "type": "function"
    },
    {
      "inputs": [
        {
          "internalType": "uint256",
          "name": "_navSlippageBp",
          "type": "uint256"
        }
      ],
      "name": "setNavSlippageBp",
      "outputs": [],
      "stateMutability": "nonpayable",
      "type": "function"
    },
    {
      "inputs": [
        {
          "internalType": "address",
          "name": "_remoteHub",
          "type": "address"
        }
      ],
      "name": "setRemoteHub",
      "outputs": [],
      "stateMutability": "nonpayable",
      "type": "function"
    },
    {
      "inputs": [
        {
          "components": [
            {
              "internalType": "address",
              "name": "strategy",
              "type": "address"
            },
            {
              "internalType": "uint256",
              "name": "minWeight",
              "type": "uint256"
            },
            {
              "internalType": "uint256",
              "name": "targetWeight",
              "type": "uint256"
            },
            {
              "internalType": "uint256",
              "name": "maxWeight",
              "type": "uint256"
            },
            {
              "internalType": "uint256",
              "name": "riskFactor",
              "type": "uint256"
            },
            {
              "internalType": "bool",
              "name": "enabled",
              "type": "bool"
            },
            {
              "internalType": "bool",
              "name": "enabledReward",
              "type": "bool"
            }
          ],
          "internalType": "struct IPortfolioManager.StrategyWeight[]",
          "name": "_strategyWeights",
          "type": "tuple[]"
        }
      ],
      "name": "setStrategyWeights",
      "outputs": [],
      "stateMutability": "nonpayable",
      "type": "function"
    },
    {
      "inputs": [],
      "name": "strategyAssets",
      "outputs": [
        {
          "components": [
            {
              "internalType": "address",
              "name": "strategy",
              "type": "address"
            },
            {
              "internalType": "uint256",
              "name": "netAssetValue",
              "type": "uint256"
            },
            {
              "internalType": "uint256",
              "name": "liquidationValue",
              "type": "uint256"
            }
          ],
          "internalType": "struct IPortfolioManager.StrategyAsset[]",
          "name": "",
          "type": "tuple[]"
        }
      ],
      "stateMutability": "view",
      "type": "function"
    },
    {
      "inputs": [
        {
          "internalType": "address",
          "name": "",
          "type": "address"
        }
      ],
      "name": "strategyWeightPositions",
      "outputs": [
        {
          "internalType": "uint256",
          "name": "",
          "type": "uint256"
        }
      ],
      "stateMutability": "view",
      "type": "function"
    },
    {
      "inputs": [
        {
          "internalType": "uint256",
          "name": "",
          "type": "uint256"
        }
      ],
      "name": "strategyWeights",
      "outputs": [
        {
          "internalType": "address",
          "name": "strategy",
          "type": "address"
        },
        {
          "internalType": "uint256",
          "name": "minWeight",
          "type": "uint256"
        },
        {
          "internalType": "uint256",
          "name": "targetWeight",
          "type": "uint256"
        },
        {
          "internalType": "uint256",
          "name": "maxWeight",
          "type": "uint256"
        },
        {
          "internalType": "uint256",
          "name": "riskFactor",
          "type": "uint256"
        },
        {
          "internalType": "bool",
          "name": "enabled",
          "type": "bool"
        },
        {
          "internalType": "bool",
          "name": "enabledReward",
          "type": "bool"
        }
      ],
      "stateMutability": "view",
      "type": "function"
    },
    {
      "inputs": [
        {
          "internalType": "bytes4",
          "name": "interfaceId",
          "type": "bytes4"
        }
      ],
      "name": "supportsInterface",
      "outputs": [
        {
          "internalType": "bool",
          "name": "",
          "type": "bool"
        }
      ],
      "stateMutability": "view",
      "type": "function"
    },
    {
      "inputs": [],
      "name": "totalLiquidationAssets",
      "outputs": [
        {
          "internalType": "uint256",
          "name": "",
          "type": "uint256"
        }
      ],
      "stateMutability": "view",
      "type": "function"
    },
    {
      "inputs": [],
      "name": "totalNetAssets",
      "outputs": [
        {
          "internalType": "uint256",
          "name": "",
          "type": "uint256"
        }
      ],
      "stateMutability": "view",
      "type": "function"
    },
    {
      "inputs": [],
      "name": "totalRiskFactor",
      "outputs": [
        {
          "internalType": "uint256",
          "name": "",
          "type": "uint256"
        }
      ],
      "stateMutability": "view",
      "type": "function"
    },
    {
      "inputs": [
        {
          "internalType": "address",
          "name": "newImplementation",
          "type": "address"
        }
      ],
      "name": "upgradeTo",
      "outputs": [],
      "stateMutability": "nonpayable",
      "type": "function"
    },
    {
      "inputs": [
        {
          "internalType": "address",
          "name": "newImplementation",
          "type": "address"
        },
        {
          "internalType": "bytes",
          "name": "data",
          "type": "bytes"
        }
      ],
      "name": "upgradeToAndCall",
      "outputs": [],
      "stateMutability": "payable",
      "type": "function"
    },
    {
      "inputs": [
        {
          "internalType": "uint256",
          "name": "_amount",
          "type": "uint256"
        }
      ],
      "name": "withdraw",
      "outputs": [
        {
          "internalType": "uint256",
          "name": "",
          "type": "uint256"
        },
        {
          "internalType": "bool",
          "name": "",
          "type": "bool"
        }
      ],
      "stateMutability": "nonpayable",
      "type": "function"
    }
  ],
  "bytecode": "0x60a0604052306080523480156200001557600080fd5b506200002062000026565b620000e7565b600054610100900460ff1615620000935760405162461bcd60e51b815260206004820152602760248201527f496e697469616c697a61626c653a20636f6e747261637420697320696e697469604482015266616c697a696e6760c81b606482015260840160405180910390fd5b60005460ff90811614620000e5576000805460ff191660ff9081179091556040519081527f7f26b83ff96e1f2b6a682f133852f6798a09c465da95921460cefb38474024989060200160405180910390a15b565b6080516147856200011f6000396000818161115301528181611193015281816112e10152818161132101526113b001526147856000f3fe60806040526004361061021a5760003560e01c80638129fc1c11610123578063b4d0c36b116100ab578063d0e30db01161006f578063d0e30db014610660578063d547741f14610675578063ed2a2f9d14610695578063f281d438146106ac578063f72c0d8b146106ce57600080fd5b8063b4d0c36b146105d4578063b69ef8a8146105f6578063c6bbf4cb1461060b578063cd3de5d414610620578063d0d552dd1461064057600080fd5b806391d14854116100f257806391d14854146105475780639423f215146105675780639b1dcfec14610588578063a217fddf146105a8578063acffa933146105bd57600080fd5b80638129fc1c146104a5578063890a8c4f146104ba5780638e6c8ab3146104cf5780638e99426b1461053257600080fd5b806336568abe116101a65780634f1ef286116101755780634f1ef2861461041b57806352d1902d1461042e57806359d57c1a1461044357806361bd36781461046357806375e8bdfa1461047857600080fd5b806336568abe146103a55780633659cfe6146103c5578063405a11dc146103e55780634953bd071461040557600080fd5b8063223e5479116101ed578063223e5479146102c8578063248a9ca3146102e857806329cb1bee146103185780632e1a7d4d146103505780632f2ff15d1461038557600080fd5b806301ffc9a71461021f57806306e73924146102545780631181570114610281578063175188e8146102a6575b600080fd5b34801561022b57600080fd5b5061023f61023a366004613e9f565b6106ef565b60405190151581526020015b60405180910390f35b34801561026057600080fd5b5061027461026f366004613ede565b610726565b60405161024b9190613f49565b34801561028d57600080fd5b506102986101015481565b60405190815260200161024b565b3480156102b257600080fd5b506102c66102c1366004613ede565b610887565b005b3480156102d457600080fd5b506102c66102e3366004613ede565b610c9d565b3480156102f457600080fd5b50610298610303366004613f57565b60009081526065602052604090206001015490565b34801561032457600080fd5b5060ff54610338906001600160a01b031681565b6040516001600160a01b03909116815260200161024b565b34801561035c57600080fd5b5061037061036b366004613f57565b610de9565b6040805192835290151560208301520161024b565b34801561039157600080fd5b506102c66103a0366004613f70565b6110a1565b3480156103b157600080fd5b506102c66103c0366004613f70565b6110cb565b3480156103d157600080fd5b506102c66103e0366004613ede565b611149565b3480156103f157600080fd5b506102c6610400366004613ede565b611228565b34801561041157600080fd5b5061010054610298565b6102c6610429366004613fe7565b6112d7565b34801561043a57600080fd5b506102986113a3565b34801561044f57600080fd5b506102c661045e366004613ede565b611456565b34801561046f57600080fd5b506102c661172a565b34801561048457600080fd5b50610298610493366004613ede565b60fd6020526000908152604090205481565b3480156104b157600080fd5b506102c66118c8565b3480156104c657600080fd5b506102986119bc565b3480156104db57600080fd5b506104ef6104ea366004613f57565b6119cd565b604080516001600160a01b03909816885260208801969096529486019390935260608501919091526080840152151560a0830152151560c082015260e00161024b565b34801561053e57600080fd5b50610298611a29565b34801561055357600080fd5b5061023f610562366004613f70565b611a35565b34801561057357600080fd5b5061010254610338906001600160a01b031681565b34801561059457600080fd5b506102c66105a336600461408f565b611a60565b3480156105b457600080fd5b50610298600081565b3480156105c957600080fd5b506102986101005481565b3480156105e057600080fd5b506105e96120a6565b60405161024b9190614104565b34801561060257600080fd5b506102c6612290565b34801561061757600080fd5b506102c66123c4565b34801561062c57600080fd5b506102c661063b366004613f57565b612424565b34801561064c57600080fd5b506102c661065b366004613ede565b6125c1565b34801561066c57600080fd5b506102c6612668565b34801561068157600080fd5b506102c6610690366004613f70565b6127e6565b3480156106a157600080fd5b50610298620186a081565b3480156106b857600080fd5b506106c161280b565b60405161024b9190614166565b3480156106da57600080fd5b506000805160206146e9833981519152610298565b60006001600160e01b03198216637965db0b60e01b148061072057506301ffc9a760e01b6001600160e01b03198316145b92915050565b6107736040518060e0016040528060006001600160a01b03168152602001600081526020016000815260200160008152602001600081526020016000151581526020016000151581525090565b60fe5460000361079657604051632df15a4160e11b815260040160405180910390fd5b6001600160a01b038216600090815260fd602052604081205460fe805490919081106107c4576107c46141b4565b60009182526020918290206040805160e081018252600690930290910180546001600160a01b0390811680855260018301549585019590955260028201549284019290925260038101546060840152600481015460808401526005015460ff808216151560a085015261010090910416151560c08301529092508416146107205760405162461bcd60e51b815260206004820152601260248201527114dd1c985d1959de481b9bdd08199bdd5b9960721b60448201526064015b60405180910390fd5b6108a06000805160206146e98339815191525b33611a35565b6108bc5760405162461bcd60e51b815260040161087e906141ca565b6001600160a01b038116600090815260fd602052604081205460fe8054919291839081106108ec576108ec6141b4565b60009182526020918290206040805160e081018252600690930290910180546001600160a01b0390811680855260018301549585019590955260028201549284019290925260038101546060840152600481015460808401526005015460ff808216151560a085015261010090910416151560c08301529092508416146109b55760405162461bcd60e51b815260206004820152601b60248201527f41646472657373207374726174656779206e6f7420657175616c730000000000604482015260640161087e565b604081015115610a075760405162461bcd60e51b815260206004820152601760248201527f54617267657420776569676874206d7573742062652030000000000000000000604482015260640161087e565b80600001516001600160a01b031663a3673b386040518163ffffffff1660e01b8152600401602060405180830381865afa158015610a49573d6000803e3d6000fd5b505050506040513d601f19601f82011682018060405250810190610a6d9190614210565b15610ab35760405162461bcd60e51b815260206004820152601660248201527505374726174656779206e6176206d75737420626520360541b604482015260640161087e565b815b60fe54610ac49060019061423f565b811015610c1f57600060fe610ada836001614252565b81548110610aea57610aea6141b4565b60009182526020918290206040805160e081018252600690930290910180546001600160a01b03168352600181015493830193909352600283015490820152600382015460608201526004820154608082015260059091015460ff808216151560a084015261010090910416151560c082015260fe8054919250829184908110610b7657610b766141b4565b6000918252602080832084516006939093020180546001600160a01b0319166001600160a01b039384161781558482015160018201556040808601516002830155606086015160038301556080860151600483015560a08601516005909201805460c09097015161ffff1990971692151561ff0019169290921761010096151596909602959095179055935116815260fd9092529020819055610c1881614265565b9050610ab5565b5060fe805480610c3157610c3161427e565b6000828152602080822060066000199094019384020180546001600160a01b031916815560018101839055600281018390556003810183905560048101839055600501805461ffff19169055919092556001600160a01b0394909416815260fd90935250506040812055565b610cb46000805160206146e983398151915261089a565b610cd05760405162461bcd60e51b815260040161087e906141ca565b60005b60fe5460ff82161015610d7057816001600160a01b031660fe8260ff1681548110610d0057610d006141b4565b60009182526020909120600690910201546001600160a01b031603610d605760405162461bcd60e51b815260206004820152601660248201527514dd1c985d1959de48185b1c9958591e48195e1a5cdd60521b604482015260640161087e565b610d6981614294565b9050610cd3565b506040805160e0810182526001600160a01b0383168152600060208201819052918101829052606081018290526080810182905260a0810182905260c0810182905260fe5490919015610dc2575060fe545b610dcc82826128be565b90516001600160a01b0316600090815260fd602052604090205550565b600080610e58610df7612a23565b6001600160a01b031663bd0f10536040518163ffffffff1660e01b8152600401602060405180830381865afa158015610e34573d6000803e3d6000fd5b505050506040513d601f19601f8201168201806040525081019061089a9190614210565b610e745760405162461bcd60e51b815260040161087e906142b3565b60ff546001600160a01b0316610ec85760405162461bcd60e51b815260206004820152601960248201527810d85cda081cdd1c985d1959de481b9bdd081cd95d081e595d603a1b604482015260640161087e565b60ff54604080516312bb732d60e11b815290516000926001600160a01b031691632576e65a9160048083019260209291908290030181865afa158015610f12573d6000803e3d6000fd5b505050506040513d601f19601f82011682018060405250810190610f369190614210565b9050600084821115610fc65760ff5460fc5460405163f6f6b88160e01b81526001600160a01b039283169263f6f6b88192610f7d92911690899030906000906004016142f5565b6020604051808303816000875af1158015610f9c573d6000803e3d6000fd5b505050506040513d601f19601f82011682018060405250810190610fc09190614210565b50610fe0565b60fc54610fdc906001600160a01b031686612a90565b5060015b60fc546040516370a0823160e01b81523060048201526000916001600160a01b0316906370a0823190602401602060405180830381865afa158015611029573d6000803e3d6000fd5b505050506040513d601f19601f8201168201806040525081019061104d9190614210565b90508581101561107a5760405163cf47918160e01b8152600481018290526024810187905260440161087e565b6110986110856132b3565b60fc546001600160a01b031690886132fe565b50939492505050565b6000828152606560205260409020600101546110bc81613350565b6110c6838361335a565b505050565b6001600160a01b038116331461113b5760405162461bcd60e51b815260206004820152602f60248201527f416363657373436f6e74726f6c3a2063616e206f6e6c792072656e6f756e636560448201526e103937b632b9903337b91039b2b63360891b606482015260840161087e565b61114582826133e0565b5050565b6001600160a01b037f00000000000000000000000000000000000000000000000000000000000000001630036111915760405162461bcd60e51b815260040161087e9061431f565b7f00000000000000000000000000000000000000000000000000000000000000006001600160a01b03166111da600080516020614709833981519152546001600160a01b031690565b6001600160a01b0316146112005760405162461bcd60e51b815260040161087e9061436b565b61120981613447565b604080516000808252602082019092526112259183919061347a565b50565b61123f6000805160206146e983398151915261089a565b61125b5760405162461bcd60e51b815260040161087e906141ca565b6001600160a01b0381166112815760405162461bcd60e51b815260040161087e906143b7565b61010280546001600160a01b0319166001600160a01b0383169081179091556040519081527f0acbcc2f890f48416af3a85d8a92e6b01a61ca13a98ccf21d101bf3fe06593fc906020015b60405180910390a150565b6001600160a01b037f000000000000000000000000000000000000000000000000000000000000000016300361131f5760405162461bcd60e51b815260040161087e9061431f565b7f00000000000000000000000000000000000000000000000000000000000000006001600160a01b0316611368600080516020614709833981519152546001600160a01b031690565b6001600160a01b03161461138e5760405162461bcd60e51b815260040161087e9061436b565b61139782613447565b6111458282600161347a565b6000306001600160a01b037f000000000000000000000000000000000000000000000000000000000000000016146114435760405162461bcd60e51b815260206004820152603860248201527f555550535570677261646561626c653a206d757374206e6f742062652063616c60448201527f6c6564207468726f7567682064656c656761746563616c6c0000000000000000606482015260840161087e565b5060008051602061470983398151915290565b61146d6000805160206146e983398151915261089a565b6114895760405162461bcd60e51b815260040161087e906141ca565b6001600160a01b0381166114af5760405162461bcd60e51b815260040161087e906143b7565b60ff546001600160a01b03908116908216036114fe576040516001600160a01b03821681527f47ffb57d9975263bcf9c547a81d76b51e81fd87f6a69b8189e744921dda0005c906020016112cc565b60ff546001600160a01b0316158015906115935760ff5460fc5460405163f6f6b88160e01b81526001600160a01b039283169263f6f6b8819261154e9291169060009030906001906004016142f5565b6020604051808303816000875af115801561156d573d6000803e3d6000fd5b505050506040513d601f19601f820116820180604052508101906115919190614210565b505b60ff80546001600160a01b0319166001600160a01b03841617905580156116ea5760fc546040516370a0823160e01b81523060048201526000916001600160a01b0316906370a0823190602401602060405180830381865afa1580156115fd573d6000803e3d6000fd5b505050506040513d601f19601f820116820180604052508101906116219190614210565b905080156116e85760ff5460fc54611646916001600160a01b039182169116836132fe565b60ff5460fc546040516356e4bb9760e11b81526001600160a01b0391821660048201526024810184905291169063adc9772e90604401600060405180830381600087803b15801561169657600080fd5b505af11580156116aa573d6000803e3d6000fd5b505050507f0eab4ceb0e0bf74211211d85efd51fec6d84d5ce7719dd107af8818194bcd97f816040516116df91815260200190565b60405180910390a15b505b6040516001600160a01b03831681527fd82ec5aca3f5d594d6f9a7d8a97e332f1e6319efddf9b0bf445d87348ac4b0e39060200160405180910390a15050565b600054600290610100900460ff1615801561174c575060005460ff8083169116105b6117685760405162461bcd60e51b815260040161087e906143ee565b6000805461ffff191660ff831617610100179055611784612a23565b6001600160a01b03166391d1485461179a612a23565b6001600160a01b0316635dbd733a6040518163ffffffff1660e01b8152600401602060405180830381865afa1580156117d7573d6000803e3d6000fd5b505050506040513d601f19601f820116820180604052508101906117fb9190614210565b6040516001600160e01b031960e084901b1681526004810191909152336024820152604401602060405180830381865afa15801561183d573d6000803e3d6000fd5b505050506040513d601f19601f82011682018060405250810190611861919061444a565b61187d5760405162461bcd60e51b815260040161087e90614467565b611d4c610100556004610101556000805461ff001916905560405160ff821681527f7f26b83ff96e1f2b6a682f133852f6798a09c465da95921460cefb3847402498906020016112cc565b600054610100900460ff16158080156118e85750600054600160ff909116105b806119025750303b158015611902575060005460ff166001145b61191e5760405162461bcd60e51b815260040161087e906143ee565b6000805460ff191660011790558015611941576000805461ff0019166101001790555b6119496135e5565b6119516135e5565b61195c60003361335a565b6119746000805160206146e98339815191523361335a565b6004610101558015611225576000805461ff0019169055604051600181527f7f26b83ff96e1f2b6a682f133852f6798a09c465da95921460cefb3847402498906020016112cc565b60006119c86000613650565b905090565b60fe81815481106119dd57600080fd5b60009182526020909120600690910201805460018201546002830154600384015460048501546005909501546001600160a01b0390941695509193909260ff8082169161010090041687565b60006119c86001613650565b60009182526065602090815260408084206001600160a01b0393909316845291905290205460ff1690565b611a68612a23565b6001600160a01b03166391d14854611a7e612a23565b6001600160a01b0316635dbd733a6040518163ffffffff1660e01b8152600401602060405180830381865afa158015611abb573d6000803e3d6000fd5b505050506040513d601f19601f82011682018060405250810190611adf9190614210565b6040516001600160e01b031960e084901b1681526004810191909152336024820152604401602060405180830381865afa158015611b21573d6000803e3d6000fd5b505050506040513d601f19601f82011682018060405250810190611b45919061444a565b611b615760405162461bcd60e51b815260040161087e90614467565b60fe548114611bb25760405162461bcd60e51b815260206004820152601a60248201527f57726f6e67206e756d626572206f662073747261746567696573000000000000604482015260640161087e565b60fe54600090819067ffffffffffffffff811115611bd257611bd2613fa0565b604051908082528060200260200182016040528015611bfb578160200160208202803683370190505b5090506000805b60ff811685111561200157600086868360ff16818110611c2457611c246141b4565b905060e00201803603810190611c3a91906144b4565b80516001600160a01b0316600090815260fd6020526040902054855191925090859082908110611c6c57611c6c6141b4565b602002602001015115156001151503611cbe5760405162461bcd60e51b815260206004820152601460248201527314dd1c985d1959de481dd85cc81d5c19185d195960621b604482015260640161087e565b600060fe8281548110611cd357611cd36141b4565b60009182526020918290206040805160e081018252600690930290910180546001600160a01b0390811680855260018301549585019590955260028201549284019290925260038101546060840152600481015460808401526005015460ff808216151560a085015261010090910416151560c083015285519193501614611d9d5760405162461bcd60e51b815260206004820152601860248201527f496e636f727265637420737472617465677920696e6465780000000000000000604482015260640161087e565b826040015183602001511115611e0a5760405162461bcd60e51b815260206004820152602c60248201527f6d696e5765696768742073686f756c646e277420686967686572207468616e2060448201526b1d185c99d95d15d95a59da1d60a21b606482015260840161087e565b826060015183604001511115611e775760405162461bcd60e51b815260206004820152602c60248201527f7461726765745765696768742073686f756c646e27742068696768657220746860448201526b185b881b585e15d95a59da1d60a21b606482015260840161087e565b6040830151611e869088614252565b96508260fe8381548110611e9c57611e9c6141b4565b600091825260209182902083516006929092020180546001600160a01b0319166001600160a01b039092169190911781559082015160018083019190915560408301516002830155606083015160038301556080830151600483015560a08301516005909201805460c09094015161ffff1990941692151561ff00191692909217610100931515939093029290921790558651879084908110611f4157611f416141b4565b6020026020010190151590811515815250506103e8836040015160648560800151611f6c9190614550565b611f769190614572565b611f809190614550565b611f8a9086614252565b94507fc7d6a10819f5d6f3fd2acf9d38519fb9ca604adcf565d719841b60c161c6730182846000015185602001518660400151876060015188608001518960a001518a60c00151604051611fe5989796959493929190614589565b60405180910390a150505080611ffa90614294565b9050611c02565b50620186a083146120665760405162461bcd60e51b815260206004820152602960248201527f546f74616c207461726765742073686f756c6420657175616c20746f20544f54604482015268105317d5d15251d21560ba1b606482015260840161087e565b6101008190556040518181527fe2ee1ef0b4d76337ccec0a920efb7ded63e020263ae1dc0a23754194693d62699060200160405180910390a15050505050565b606060006120b261280b565b805190915060008167ffffffffffffffff8111156120d2576120d2613fa0565b60405190808252806020026020018201604052801561213057816020015b61211d604051806060016040528060006001600160a01b0316815260200160008152602001600081525090565b8152602001906001900390816120f05790505b50905060005b828160ff161015612288576000848260ff1681518110612158576121586141b4565b60200260200101519050600081600001519050604051806060016040528083600001516001600160a01b03168152602001826001600160a01b031663a3673b386040518163ffffffff1660e01b8152600401602060405180830381865afa1580156121c7573d6000803e3d6000fd5b505050506040513d601f19601f820116820180604052508101906121eb9190614210565b8152602001826001600160a01b0316632576e65a6040518163ffffffff1660e01b8152600401602060405180830381865afa15801561222e573d6000803e3d6000fd5b505050506040513d601f19601f820116820180604052508101906122529190614210565b815250848460ff168151811061226a5761226a6141b4565b602002602001018190525050508061228190614294565b9050612136565b509392505050565b612298612a23565b6001600160a01b03166391d148546122ae612a23565b6001600160a01b0316635dbd733a6040518163ffffffff1660e01b8152600401602060405180830381865afa1580156122eb573d6000803e3d6000fd5b505050506040513d601f19601f8201168201806040525081019061230f9190614210565b6040516001600160e01b031960e084901b1681526004810191909152336024820152604401602060405180830381865afa158015612351573d6000803e3d6000fd5b505050506040513d601f19601f82011682018060405250810190612375919061444a565b6123915760405162461bcd60e51b815260040161087e90614467565b612399613794565b6040517f0ef67887023bd7b8411cf35c89d19498bc1c980684932ef5f5b0559bfac80d9a90600090a1565b6123cf610df7612a23565b6123eb5760405162461bcd60e51b815260040161087e906142b3565b6123f361379f565b6040517f127989727cddfb5cbc87a57ffcae8193a93305ce92e2a15bfb2ba43afe8c111290600090a1612399613794565b61242c612a23565b6001600160a01b03166391d14854612442612a23565b6001600160a01b0316635dbd733a6040518163ffffffff1660e01b8152600401602060405180830381865afa15801561247f573d6000803e3d6000fd5b505050506040513d601f19601f820116820180604052508101906124a39190614210565b6040516001600160e01b031960e084901b1681526004810191909152336024820152604401602060405180830381865afa1580156124e5573d6000803e3d6000fd5b505050506040513d601f19601f82011682018060405250810190612509919061444a565b6125255760405162461bcd60e51b815260040161087e90614467565b61271081111561258b5760405162461bcd60e51b815260206004820152602b60248201527f4e617620736c6970706167652062702073686f756c64206265206c657373203160448201526a303025202831303030302960a81b606482015260840161087e565b6101018190556040518181527f95d60546999963c81aeca686442dd50f8b56f09b9c13e150560fcda452669b05906020016112cc565b6125d86000805160206146e983398151915261089a565b6125f45760405162461bcd60e51b815260040161087e906141ca565b6001600160a01b03811661261a5760405162461bcd60e51b815260040161087e906143b7565b60fc80546001600160a01b0319166001600160a01b0383169081179091556040519081527f80758ef37af3558d372b5a6b2d6906a49e09a13921e7de88ad18525a6f6d5a9a906020016112cc565b612673610df7612a23565b61268f5760405162461bcd60e51b815260040161087e906142b3565b60ff546001600160a01b03166126e35760405162461bcd60e51b815260206004820152601960248201527810d85cda081cdd1c985d1959de481b9bdd081cd95d081e595d603a1b604482015260640161087e565b60fc546040516370a0823160e01b81523060048201526000916001600160a01b0316906370a0823190602401602060405180830381865afa15801561272c573d6000803e3d6000fd5b505050506040513d601f19601f820116820180604052508101906127509190614210565b90508060000361275d5750565b60ff5460fc5461277a916001600160a01b039182169116836132fe565b60ff5460fc546040516356e4bb9760e11b81526001600160a01b0391821660048201526024810184905291169063adc9772e90604401600060405180830381600087803b1580156127ca57600080fd5b505af11580156127de573d6000803e3d6000fd5b50505050505b565b60008281526065602052604090206001015461280181613350565b6110c683836133e0565b606060fe805480602002602001604051908101604052809291908181526020016000905b828210156128b55760008481526020908190206040805160e0810182526006860290920180546001600160a01b031683526001808201548486015260028201549284019290925260038101546060840152600481015460808401526005015460ff808216151560a085015261010090910416151560c0830152908352909201910161282f565b50505050905090565b60fe548015806128d75750816128d560018361423f565b105b156129225760006128e8828461423f565b6128f3906001614252565b905060005b818160ff16101561291f5760fe8054600101815560005261291881614294565b90506128f8565b50505b8260fe8381548110612936576129366141b4565b6000918252602091829020835160069092020180546001600160a01b039092166001600160a01b031990921691909117815582820151600182015560408084015160028301556060808501516003840155608080860151600485015560a0808701516005909501805460c09889015115156101000261ff00199715159790971661ffff19909116179590951790945588519489015189840151928a0151918a0151948a0151968a015193517fc7d6a10819f5d6f3fd2acf9d38519fb9ca604adcf565d719841b60c161c6730197612a16978b979096939594939092614589565b60405180910390a1505050565b610102546040805162435da560e01b815290516000926001600160a01b03169162435da59160048083019260209291908290030181865afa158015612a6c573d6000803e3d6000fd5b505050506040513d601f19601f820116820180604052508101906119c891906145cc565b6000612aa6612a9d6119bc565b61010154613865565b905081811015612b0f5760405162461bcd60e51b815260206004820152602e60248201527f4e6f7420656e6f757468206d6f6e657920666f7220776974686472617720647560448201526d72696e672062616c616e63696e6760901b606482015260840161087e565b612b19828261423f565b90506000612b2561280b565b60fc546040516370a0823160e01b81523060048201529192506000916001600160a01b03909116906370a0823190602401602060405180830381865afa158015612b73573d6000803e3d6000fd5b505050506040513d601f19601f82011682018060405250810190612b979190614210565b90506000805b83518160ff161015612d7257838160ff1681518110612bbe57612bbe6141b4565b602002602001015160a0015115612d6257838160ff1681518110612be457612be46141b4565b602002602001015160400151600003612ca557838160ff1681518110612c0c57612c0c6141b4565b60209081029190910101515160fc5460405163f6f6b88160e01b81526001600160a01b039283169263f6f6b88192612c519291169060009030906001906004016142f5565b6020604051808303816000875af1158015612c70573d6000803e3d6000fd5b505050506040513d601f19601f82011682018060405250810190612c949190614210565b612c9e9084614252565b9250612d62565b838160ff1681518110612cba57612cba6141b4565b6020026020010151600001516001600160a01b031663a3673b386040518163ffffffff1660e01b8152600401602060405180830381865afa158015612d03573d6000803e3d6000fd5b505050506040513d601f19601f82011682018060405250810190612d279190614210565b612d319084614252565b9250838160ff1681518110612d4857612d486141b4565b60200260200101516040015182612d5f9190614252565b91505b612d6b81614294565b9050612b9d565b5060fc546001600160a01b0390811690871603612dfc5784821015612def5760405162461bcd60e51b815260206004820152602d60248201527f547279696e67207769746864726177206d6f7265207468616e206c697175696460448201526c69747920617661696c61626c6560981b606482015260840161087e565b612df9858361423f565b91505b6000835167ffffffffffffffff811115612e1857612e18613fa0565b604051908082528060200260200182016040528015612e6357816020015b6040805160608101825260008082526020808301829052928201528252600019909201910181612e365790505b5090506000805b85518160ff1610156130e457858160ff1681518110612e8b57612e8b6141b4565b602002602001015160a00151156130d4576000868260ff1681518110612eb357612eb36141b4565b602002602001015160400151600003612ece57506000612f08565b84878360ff1681518110612ee457612ee46141b4565b60200260200101516040015187612efb9190614572565b612f059190614550565b90505b6000878360ff1681518110612f1f57612f1f6141b4565b6020026020010151600001516001600160a01b031663a3673b386040518163ffffffff1660e01b8152600401602060405180830381865afa158015612f68573d6000803e3d6000fd5b505050506040513d601f19601f82011682018060405250810190612f8c9190614210565b9050808203612f9c5750506130d4565b8082101561305057878360ff1681518110612fb957612fb96141b4565b60209081029190910101515160fc546001600160a01b039182169163f6f6b8819116612fe5858561423f565b3060006040518563ffffffff1660e01b815260040161300794939291906142f5565b6020604051808303816000875af1158015613026573d6000803e3d6000fd5b505050506040513d601f19601f8201168201806040525081019061304a9190614210565b506130d1565b6040518060600160405280600115158152602001898560ff1681518110613079576130796141b4565b6020026020010151600001516001600160a01b03168152602001828461309f919061423f565b815250858560ff16815181106130b7576130b76141b4565b602002602001018190525083806130cd90614294565b9450505b50505b6130dd81614294565b9050612e6a565b5060005b8160ff168160ff161015613251576000838260ff168151811061310d5761310d6141b4565b60200260200101516020015190506000848360ff1681518110613132576131326141b4565b602090810291909101015160409081015160fc5491516370a0823160e01b81523060048201529092506000916001600160a01b0316906370a0823190602401602060405180830381865afa15801561318e573d6000803e3d6000fd5b505050506040513d601f19601f820116820180604052508101906131b29190614210565b9050818110156131c0578091505b60fc546131d7906001600160a01b031684846132fe565b60fc546040516356e4bb9760e11b81526001600160a01b039182166004820152602481018490529084169063adc9772e90604401600060405180830381600087803b15801561322557600080fd5b505af1158015613239573d6000803e3d6000fd5b505050505050508061324a90614294565b90506130e8565b508561325b6119bc565b10156132a95760405162461bcd60e51b815260206004820152601a60248201527f504d3a204e4156206c657373207468616e206578706563746564000000000000604482015260640161087e565b5050505050505050565b610102546040805163697b932d60e11b815290516000926001600160a01b03169163d2f7265a9160048083019260209291908290030181865afa158015612a6c573d6000803e3d6000fd5b604080516001600160a01b038416602482015260448082018490528251808303909101815260649091019091526020810180516001600160e01b031663a9059cbb60e01b1790526110c690849061388f565b6112258133613964565b6133648282611a35565b6111455760008281526065602090815260408083206001600160a01b03851684529091529020805460ff1916600117905561339c3390565b6001600160a01b0316816001600160a01b0316837f2f8788117e7eff1d82e926ec794901d17c78024a50270940304540a733656f0d60405160405180910390a45050565b6133ea8282611a35565b156111455760008281526065602090815260408083206001600160a01b0385168085529252808320805460ff1916905551339285917ff6391f5c32d9c69d2a47ea670b442974b53935d1edc7fd64eb21e047a839171b9190a45050565b61345e6000805160206146e983398151915261089a565b6112255760405162461bcd60e51b815260040161087e906141ca565b7f4910fdfa16fed3260ed0e7147f7cc6da11a60208b5b9406d12a635614ffd91435460ff16156134ad576110c6836139bd565b826001600160a01b03166352d1902d6040518163ffffffff1660e01b8152600401602060405180830381865afa925050508015613507575060408051601f3d908101601f1916820190925261350491810190614210565b60015b61356a5760405162461bcd60e51b815260206004820152602e60248201527f45524331393637557067726164653a206e657720696d706c656d656e7461746960448201526d6f6e206973206e6f74205555505360901b606482015260840161087e565b60008051602061470983398151915281146135d95760405162461bcd60e51b815260206004820152602960248201527f45524331393637557067726164653a20756e737570706f727465642070726f786044820152681a58589b195555525160ba1b606482015260840161087e565b506110c6838383613a59565b600054610100900460ff166127e45760405162461bcd60e51b815260206004820152602b60248201527f496e697469616c697a61626c653a20636f6e7472616374206973206e6f74206960448201526a6e697469616c697a696e6760a81b606482015260840161087e565b6000808061365c61280b565b905060005b81518160ff16101561378b576000828260ff1681518110613684576136846141b4565b6020026020010151600001519050851561370b57806001600160a01b0316632576e65a6040518163ffffffff1660e01b8152600401602060405180830381865afa1580156136d6573d6000803e3d6000fd5b505050506040513d601f19601f820116820180604052508101906136fa9190614210565b6137049085614252565b935061377a565b806001600160a01b031663a3673b386040518163ffffffff1660e01b8152600401602060405180830381865afa158015613749573d6000803e3d6000fd5b505050506040513d601f19601f8201168201806040525081019061376d9190614210565b6137779085614252565b93505b5061378481614294565b9050613661565b50909392505050565b6127e4600080612a90565b60006137a961280b565b905060005b81518160ff161015611145576000828260ff16815181106137d1576137d16141b4565b602002602001015190508060c0015115613854578051604051633bd73ee360e21b81523060048201526001600160a01b039091169063ef5cfb8c906024016020604051808303816000875af115801561382e573d6000803e3d6000fd5b505050506040513d601f19601f820116820180604052508101906138529190614210565b505b5061385e81614294565b90506137ae565b6000612710613874838261423f565b61387e9085614572565b6138889190614550565b9392505050565b60006138e4826040518060400160405280602081526020017f5361666545524332303a206c6f772d6c6576656c2063616c6c206661696c6564815250856001600160a01b0316613a849092919063ffffffff16565b9050805160001480613905575080806020019051810190613905919061444a565b6110c65760405162461bcd60e51b815260206004820152602a60248201527f5361666545524332303a204552433230206f7065726174696f6e20646964206e6044820152691bdd081cdd58d8d9595960b21b606482015260840161087e565b61396e8282611a35565b6111455761397b81613a9b565b613986836020613aad565b60405160200161399792919061460d565b60408051601f198184030181529082905262461bcd60e51b825261087e91600401614682565b6001600160a01b0381163b613a2a5760405162461bcd60e51b815260206004820152602d60248201527f455243313936373a206e657720696d706c656d656e746174696f6e206973206e60448201526c1bdd08184818dbdb9d1c9858dd609a1b606482015260840161087e565b60008051602061470983398151915280546001600160a01b0319166001600160a01b0392909216919091179055565b613a6283613c49565b600082511180613a6f5750805b156110c657613a7e8383613c89565b50505050565b6060613a938484600085613cae565b949350505050565b60606107206001600160a01b03831660145b60606000613abc836002614572565b613ac7906002614252565b67ffffffffffffffff811115613adf57613adf613fa0565b6040519080825280601f01601f191660200182016040528015613b09576020820181803683370190505b509050600360fc1b81600081518110613b2457613b246141b4565b60200101906001600160f81b031916908160001a905350600f60fb1b81600181518110613b5357613b536141b4565b60200101906001600160f81b031916908160001a9053506000613b77846002614572565b613b82906001614252565b90505b6001811115613bfa576f181899199a1a9b1b9c1cb0b131b232b360811b85600f1660108110613bb657613bb66141b4565b1a60f81b828281518110613bcc57613bcc6141b4565b60200101906001600160f81b031916908160001a90535060049490941c93613bf3816146b5565b9050613b85565b5083156138885760405162461bcd60e51b815260206004820181905260248201527f537472696e67733a20686578206c656e67746820696e73756666696369656e74604482015260640161087e565b613c52816139bd565b6040516001600160a01b038216907fbc7cd75a20ee27fd9adebab32041f755214dbc6bffa90cc0225b39da2e5c2d3b90600090a250565b6060613888838360405180606001604052806027815260200161472960279139613d89565b606082471015613d0f5760405162461bcd60e51b815260206004820152602660248201527f416464726573733a20696e73756666696369656e742062616c616e636520666f6044820152651c8818d85b1b60d21b606482015260840161087e565b600080866001600160a01b03168587604051613d2b91906146cc565b60006040518083038185875af1925050503d8060008114613d68576040519150601f19603f3d011682016040523d82523d6000602084013e613d6d565b606091505b5091509150613d7e87838387613e01565b979650505050505050565b6060600080856001600160a01b031685604051613da691906146cc565b600060405180830381855af49150503d8060008114613de1576040519150601f19603f3d011682016040523d82523d6000602084013e613de6565b606091505b5091509150613df786838387613e01565b9695505050505050565b60608315613e70578251600003613e69576001600160a01b0385163b613e695760405162461bcd60e51b815260206004820152601d60248201527f416464726573733a2063616c6c20746f206e6f6e2d636f6e7472616374000000604482015260640161087e565b5081613a93565b613a938383815115613e855781518083602001fd5b8060405162461bcd60e51b815260040161087e9190614682565b600060208284031215613eb157600080fd5b81356001600160e01b03198116811461388857600080fd5b6001600160a01b038116811461122557600080fd5b600060208284031215613ef057600080fd5b813561388881613ec9565b80516001600160a01b031682526020808201519083015260408082015190830152606080820151908301526080808201519083015260a08181015115159083015260c0908101511515910152565b60e081016107208284613efb565b600060208284031215613f6957600080fd5b5035919050565b60008060408385031215613f8357600080fd5b823591506020830135613f9581613ec9565b809150509250929050565b634e487b7160e01b600052604160045260246000fd5b604051601f8201601f1916810167ffffffffffffffff81118282101715613fdf57613fdf613fa0565b604052919050565b60008060408385031215613ffa57600080fd5b823561400581613ec9565b915060208381013567ffffffffffffffff8082111561402357600080fd5b818601915086601f83011261403757600080fd5b81358181111561404957614049613fa0565b61405b601f8201601f19168501613fb6565b9150808252878482850101111561407157600080fd5b80848401858401376000848284010152508093505050509250929050565b600080602083850312156140a257600080fd5b823567ffffffffffffffff808211156140ba57600080fd5b818501915085601f8301126140ce57600080fd5b8135818111156140dd57600080fd5b86602060e0830285010111156140f257600080fd5b60209290920196919550909350505050565b602080825282518282018190526000919060409081850190868401855b8281101561415957815180516001600160a01b0316855286810151878601528501518585015260609093019290850190600101614121565b5091979650505050505050565b6020808252825182820181905260009190848201906040850190845b818110156141a857614195838551613efb565b9284019260e09290920191600101614182565b50909695505050505050565b634e487b7160e01b600052603260045260246000fd5b60208082526026908201527f43616c6c657220646f65736e277420686176652055504752414445525f524f4c6040820152654520726f6c6560d01b606082015260800190565b60006020828403121561422257600080fd5b5051919050565b634e487b7160e01b600052601160045260246000fd5b8181038181111561072057610720614229565b8082018082111561072057610720614229565b60006001820161427757614277614229565b5060010190565b634e487b7160e01b600052603160045260246000fd5b600060ff821660ff81036142aa576142aa614229565b60010192915050565b60208082526022908201527f43616c6c657220646f65736e277420686176652045584348414e47455220726f6040820152616c6560f01b606082015260800190565b6001600160a01b039485168152602081019390935292166040820152901515606082015260800190565b6020808252602c908201527f46756e6374696f6e206d7573742062652063616c6c6564207468726f7567682060408201526b19195b1959d85d1958d85b1b60a21b606082015260800190565b6020808252602c908201527f46756e6374696f6e206d7573742062652063616c6c6564207468726f7567682060408201526b6163746976652070726f787960a01b606082015260800190565b60208082526018908201527f5a65726f2061646472657373206e6f7420616c6c6f7765640000000000000000604082015260600190565b6020808252602e908201527f496e697469616c697a61626c653a20636f6e747261637420697320616c72656160408201526d191e481a5b9a5d1a585b1a5e995960921b606082015260800190565b801515811461122557600080fd5b60006020828403121561445c57600080fd5b81516138888161443c565b6020808252602d908201527f43616c6c657220646f65736e2774206861766520504f5254464f4c494f5f414760408201526c454e545f524f4c4520726f6c6560981b606082015260800190565b600060e082840312156144c657600080fd5b60405160e0810181811067ffffffffffffffff821117156144e9576144e9613fa0565b60405282356144f781613ec9565b808252506020830135602082015260408301356040820152606083013560608201526080830135608082015260a08301356145318161443c565b60a082015260c08301356145448161443c565b60c08201529392505050565b60008261456d57634e487b7160e01b600052601260045260246000fd5b500490565b808202811582820484141761072057610720614229565b9788526001600160a01b0396909616602088015260408701949094526060860192909252608085015260a0840152151560c0830152151560e08201526101000190565b6000602082840312156145de57600080fd5b815161388881613ec9565b60005b838110156146045781810151838201526020016145ec565b50506000910152565b7f416363657373436f6e74726f6c3a206163636f756e74200000000000000000008152600083516146458160178501602088016145e9565b7001034b99036b4b9b9b4b733903937b6329607d1b60179184019182015283516146768160288401602088016145e9565b01602801949350505050565b60208152600082518060208401526146a18160408501602087016145e9565b601f01601f19169190910160400192915050565b6000816146c4576146c4614229565b506000190190565b600082516146de8184602087016145e9565b919091019291505056fe189ab7a9244df0848122154315af71fe140f3db0fe014031783b0946b8c9d2e3360894a13ba1a3210667c828492db98dca3e2076cc3735a920a3ca505d382bbc416464726573733a206c6f772d6c6576656c2064656c65676174652063616c6c206661696c6564a26469706673582212200838fc1788e28397e89fd2c7f19a3c3e6dc6e554441f7d59a466791f3f7582d364736f6c63430008140033",
  "linkReferences": {},
  "deployedLinkReferences": {},
  "implementation": "0x62B74F001924afD2b85F58DB1B223925586a6e91"
}