{
  "address": "0xA9c6b33CDD4D5EA1929826A846a1c04Fb3a5732e",
  "_format": "hh-sol-artifact-1",
  "contractName": "XusdToken",
  "sourceName": "contracts/XusdToken.sol",
  "abi": [
    {
      "inputs": [],
      "stateMutability": "nonpayable",
      "type": "constructor"
    },
    {
      "inputs": [
        {
          "internalType": "string",
          "name": "error",
          "type": "string"
        }
      ],
      "name": "ErrorInSubCredits",
      "type": "error"
    },
    {
      "anonymous": false,
      "inputs": [
        {
          "indexed": false,
          "internalType": "address",
          "name": "previousAdmin",
          "type": "address"
        },
        {
          "indexed": false,
          "internalType": "address",
          "name": "newAdmin",
          "type": "address"
        }
      ],
      "name": "AdminChanged",
      "type": "event"
    },
    {
      "anonymous": false,
      "inputs": [
        {
          "indexed": true,
          "internalType": "address",
          "name": "owner",
          "type": "address"
        },
        {
          "indexed": true,
          "internalType": "address",
          "name": "spender",
          "type": "address"
        },
        {
          "indexed": false,
          "internalType": "uint256",
          "name": "value",
          "type": "uint256"
        }
      ],
      "name": "Approval",
      "type": "event"
    },
    {
      "anonymous": false,
      "inputs": [
        {
          "indexed": true,
          "internalType": "address",
          "name": "beacon",
          "type": "address"
        }
      ],
      "name": "BeaconUpgraded",
      "type": "event"
    },
    {
      "anonymous": false,
      "inputs": [
        {
          "indexed": false,
          "internalType": "uint8",
          "name": "version",
          "type": "uint8"
        }
      ],
      "name": "Initialized",
      "type": "event"
    },
    {
      "anonymous": false,
      "inputs": [],
      "name": "Paused",
      "type": "event"
    },
    {
      "anonymous": false,
      "inputs": [
        {
          "indexed": false,
          "internalType": "address",
          "name": "remoteHub",
          "type": "address"
        }
      ],
      "name": "RemoteHubUpdated",
      "type": "event"
    },
    {
      "anonymous": false,
      "inputs": [
        {
          "indexed": true,
          "internalType": "bytes32",
          "name": "role",
          "type": "bytes32"
        },
        {
          "indexed": true,
          "internalType": "bytes32",
          "name": "previousAdminRole",
          "type": "bytes32"
        },
        {
          "indexed": true,
          "internalType": "bytes32",
          "name": "newAdminRole",
          "type": "bytes32"
        }
      ],
      "name": "RoleAdminChanged",
      "type": "event"
    },
    {
      "anonymous": false,
      "inputs": [
        {
          "indexed": true,
          "internalType": "bytes32",
          "name": "role",
          "type": "bytes32"
        },
        {
          "indexed": true,
          "internalType": "address",
          "name": "account",
          "type": "address"
        },
        {
          "indexed": true,
          "internalType": "address",
          "name": "sender",
          "type": "address"
        }
      ],
      "name": "RoleGranted",
      "type": "event"
    },
    {
      "anonymous": false,
      "inputs": [
        {
          "indexed": true,
          "internalType": "bytes32",
          "name": "role",
          "type": "bytes32"
        },
        {
          "indexed": true,
          "internalType": "address",
          "name": "account",
          "type": "address"
        },
        {
          "indexed": true,
          "internalType": "address",
          "name": "sender",
          "type": "address"
        }
      ],
      "name": "RoleRevoked",
      "type": "event"
    },
    {
      "anonymous": false,
      "inputs": [
        {
          "indexed": false,
          "internalType": "uint256",
          "name": "totalSupply",
          "type": "uint256"
        },
        {
          "indexed": false,
          "internalType": "uint256",
          "name": "rebasingCredits",
          "type": "uint256"
        },
        {
          "indexed": false,
          "internalType": "uint256",
          "name": "rebasingCreditsPerToken",
          "type": "uint256"
        }
      ],
      "name": "TotalSupplyUpdatedHighres",
      "type": "event"
    },
    {
      "anonymous": false,
      "inputs": [
        {
          "indexed": true,
          "internalType": "address",
          "name": "from",
          "type": "address"
        },
        {
          "indexed": true,
          "internalType": "address",
          "name": "to",
          "type": "address"
        },
        {
          "indexed": false,
          "internalType": "uint256",
          "name": "value",
          "type": "uint256"
        }
      ],
      "name": "Transfer",
      "type": "event"
    },
    {
      "anonymous": false,
      "inputs": [],
      "name": "Unpaused",
      "type": "event"
    },
    {
      "anonymous": false,
      "inputs": [
        {
          "indexed": true,
          "internalType": "address",
          "name": "implementation",
          "type": "address"
        }
      ],
      "name": "Upgraded",
      "type": "event"
    },
    {
      "inputs": [],
      "name": "DEFAULT_ADMIN_ROLE",
      "outputs": [
        {
          "internalType": "bytes32",
          "name": "",
          "type": "bytes32"
        }
      ],
      "stateMutability": "view",
      "type": "function"
    },
    {
      "inputs": [],
      "name": "UPGRADER_ROLE",
      "outputs": [
        {
          "internalType": "bytes32",
          "name": "",
          "type": "bytes32"
        }
      ],
      "stateMutability": "pure",
      "type": "function"
    },
    {
      "inputs": [
        {
          "internalType": "address",
          "name": "_owner",
          "type": "address"
        },
        {
          "internalType": "address",
          "name": "_spender",
          "type": "address"
        }
      ],
      "name": "allowance",
      "outputs": [
        {
          "internalType": "uint256",
          "name": "",
          "type": "uint256"
        }
      ],
      "stateMutability": "view",
      "type": "function"
    },
    {
      "inputs": [
        {
          "internalType": "address",
          "name": "_spender",
          "type": "address"
        },
        {
          "internalType": "uint256",
          "name": "_value",
          "type": "uint256"
        }
      ],
      "name": "approve",
      "outputs": [
        {
          "internalType": "bool",
          "name": "",
          "type": "bool"
        }
      ],
      "stateMutability": "nonpayable",
      "type": "function"
    },
    {
      "inputs": [
        {
          "internalType": "address",
          "name": "owner",
          "type": "address"
        },
        {
          "internalType": "uint256",
          "name": "amount",
          "type": "uint256"
        }
      ],
      "name": "assetToCredit",
      "outputs": [
        {
          "internalType": "uint256",
          "name": "credit",
          "type": "uint256"
        }
      ],
      "stateMutability": "view",
      "type": "function"
    },
    {
      "inputs": [
        {
          "internalType": "address",
          "name": "_account",
          "type": "address"
        }
      ],
      "name": "balanceOf",
      "outputs": [
        {
          "internalType": "uint256",
          "name": "",
          "type": "uint256"
        }
      ],
      "stateMutability": "view",
      "type": "function"
    },
    {
      "inputs": [
        {
          "internalType": "address",
          "name": "account",
          "type": "address"
        },
        {
          "internalType": "uint256",
          "name": "amount",
          "type": "uint256"
        }
      ],
      "name": "burn",
      "outputs": [],
      "stateMutability": "nonpayable",
      "type": "function"
    },
    {
      "inputs": [
        {
          "internalType": "uint256",
          "name": "_newTotalSupply",
          "type": "uint256"
        }
      ],
      "name": "changeSupply",
      "outputs": [
        {
          "components": [
            {
              "internalType": "address",
              "name": "pool",
              "type": "address"
            },
            {
              "internalType": "uint256",
              "name": "amount",
              "type": "uint256"
            },
            {
              "internalType": "uint256[10]",
              "name": "__gap",
              "type": "uint256[10]"
            }
          ],
          "internalType": "struct NonRebaseInfo[]",
          "name": "",
          "type": "tuple[]"
        },
        {
          "internalType": "uint256",
          "name": "",
          "type": "uint256"
        }
      ],
      "stateMutability": "nonpayable",
      "type": "function"
    },
    {
      "inputs": [
        {
          "internalType": "address",
          "name": "owner",
          "type": "address"
        },
        {
          "internalType": "uint256",
          "name": "credit",
          "type": "uint256"
        }
      ],
      "name": "creditToAsset",
      "outputs": [
        {
          "internalType": "uint256",
          "name": "asset",
          "type": "uint256"
        }
      ],
      "stateMutability": "view",
      "type": "function"
    },
    {
      "inputs": [
        {
          "internalType": "address",
          "name": "_account",
          "type": "address"
        }
      ],
      "name": "creditsBalanceOf",
      "outputs": [
        {
          "internalType": "uint256",
          "name": "",
          "type": "uint256"
        },
        {
          "internalType": "uint256",
          "name": "",
          "type": "uint256"
        }
      ],
      "stateMutability": "view",
      "type": "function"
    },
    {
      "inputs": [
        {
          "internalType": "address",
          "name": "_account",
          "type": "address"
        }
      ],
      "name": "creditsBalanceOfHighres",
      "outputs": [
        {
          "internalType": "uint256",
          "name": "",
          "type": "uint256"
        },
        {
          "internalType": "uint256",
          "name": "",
          "type": "uint256"
        }
      ],
      "stateMutability": "view",
      "type": "function"
    },
    {
      "inputs": [],
      "name": "decimals",
      "outputs": [
        {
          "internalType": "uint8",
          "name": "",
          "type": "uint8"
        }
      ],
      "stateMutability": "view",
      "type": "function"
    },
    {
      "inputs": [
        {
          "internalType": "address",
          "name": "_spender",
          "type": "address"
        },
        {
          "internalType": "uint256",
          "name": "_subtractedValue",
          "type": "uint256"
        }
      ],
      "name": "decreaseAllowance",
      "outputs": [
        {
          "internalType": "bool",
          "name": "",
          "type": "bool"
        }
      ],
      "stateMutability": "nonpayable",
      "type": "function"
    },
    {
      "inputs": [
        {
          "internalType": "bytes32",
          "name": "role",
          "type": "bytes32"
        }
      ],
      "name": "getRoleAdmin",
      "outputs": [
        {
          "internalType": "bytes32",
          "name": "",
          "type": "bytes32"
        }
      ],
      "stateMutability": "view",
      "type": "function"
    },
    {
      "inputs": [
        {
          "internalType": "bytes32",
          "name": "role",
          "type": "bytes32"
        },
        {
          "internalType": "address",
          "name": "account",
          "type": "address"
        }
      ],
      "name": "grantRole",
      "outputs": [],
      "stateMutability": "nonpayable",
      "type": "function"
    },
    {
      "inputs": [
        {
          "internalType": "bytes32",
          "name": "role",
          "type": "bytes32"
        },
        {
          "internalType": "address",
          "name": "account",
          "type": "address"
        }
      ],
      "name": "hasRole",
      "outputs": [
        {
          "internalType": "bool",
          "name": "",
          "type": "bool"
        }
      ],
      "stateMutability": "view",
      "type": "function"
    },
    {
      "inputs": [
        {
          "internalType": "address",
          "name": "_spender",
          "type": "address"
        },
        {
          "internalType": "uint256",
          "name": "_addedValue",
          "type": "uint256"
        }
      ],
      "name": "increaseAllowance",
      "outputs": [
        {
          "internalType": "bool",
          "name": "",
          "type": "bool"
        }
      ],
      "stateMutability": "nonpayable",
      "type": "function"
    },
    {
      "inputs": [
        {
          "internalType": "string",
          "name": "__name",
          "type": "string"
        },
        {
          "internalType": "string",
          "name": "__symbol",
          "type": "string"
        },
        {
          "internalType": "uint8",
          "name": "__decimals",
          "type": "uint8"
        },
        {
          "internalType": "address",
          "name": "__remoteHub",
          "type": "address"
        }
      ],
      "name": "initialize",
      "outputs": [],
      "stateMutability": "nonpayable",
      "type": "function"
    },
    {
      "inputs": [
        {
          "internalType": "uint256",
          "name": "value",
          "type": "uint256"
        }
      ],
      "name": "initialize_v2",
      "outputs": [],
      "stateMutability": "nonpayable",
      "type": "function"
    },
    {
      "inputs": [],
      "name": "isPaused",
      "outputs": [
        {
          "internalType": "bool",
          "name": "",
          "type": "bool"
        }
      ],
      "stateMutability": "view",
      "type": "function"
    },
    {
      "inputs": [
        {
          "internalType": "address",
          "name": "_account",
          "type": "address"
        },
        {
          "internalType": "uint256",
          "name": "_amount",
          "type": "uint256"
        }
      ],
      "name": "mint",
      "outputs": [],
      "stateMutability": "nonpayable",
      "type": "function"
    },
    {
      "inputs": [],
      "name": "name",
      "outputs": [
        {
          "internalType": "string",
          "name": "",
          "type": "string"
        }
      ],
      "stateMutability": "view",
      "type": "function"
    },
    {
      "inputs": [],
      "name": "nonRebaseOwnersLength",
      "outputs": [
        {
          "internalType": "uint256",
          "name": "",
          "type": "uint256"
        }
      ],
      "stateMutability": "view",
      "type": "function"
    },
    {
      "inputs": [
        {
          "internalType": "address",
          "name": "",
          "type": "address"
        }
      ],
      "name": "nonRebasingCreditsPerToken",
      "outputs": [
        {
          "internalType": "uint256",
          "name": "",
          "type": "uint256"
        }
      ],
      "stateMutability": "view",
      "type": "function"
    },
    {
      "inputs": [],
      "name": "nonRebasingSupply",
      "outputs": [
        {
          "internalType": "uint256",
          "name": "",
          "type": "uint256"
        }
      ],
      "stateMutability": "view",
      "type": "function"
    },
    {
      "inputs": [],
      "name": "pause",
      "outputs": [],
      "stateMutability": "nonpayable",
      "type": "function"
    },
    {
      "inputs": [],
      "name": "paused",
      "outputs": [
        {
          "internalType": "bool",
          "name": "",
          "type": "bool"
        }
      ],
      "stateMutability": "view",
      "type": "function"
    },
    {
      "inputs": [],
      "name": "proxiableUUID",
      "outputs": [
        {
          "internalType": "bytes32",
          "name": "",
          "type": "bytes32"
        }
      ],
      "stateMutability": "view",
      "type": "function"
    },
    {
      "inputs": [
        {
          "internalType": "address",
          "name": "_address",
          "type": "address"
        }
      ],
      "name": "rebaseOptIn",
      "outputs": [],
      "stateMutability": "nonpayable",
      "type": "function"
    },
    {
      "inputs": [
        {
          "internalType": "address",
          "name": "_address",
          "type": "address"
        }
      ],
      "name": "rebaseOptOut",
      "outputs": [],
      "stateMutability": "nonpayable",
      "type": "function"
    },
    {
      "inputs": [
        {
          "internalType": "address",
          "name": "",
          "type": "address"
        }
      ],
      "name": "rebaseState",
      "outputs": [
        {
          "internalType": "enum XusdToken.RebaseOptions",
          "name": "",
          "type": "uint8"
        }
      ],
      "stateMutability": "view",
      "type": "function"
    },
    {
      "inputs": [],
      "name": "rebasingCredits",
      "outputs": [
        {
          "internalType": "uint256",
          "name": "",
          "type": "uint256"
        }
      ],
      "stateMutability": "view",
      "type": "function"
    },
    {
      "inputs": [],
      "name": "rebasingCreditsHighres",
      "outputs": [
        {
          "internalType": "uint256",
          "name": "",
          "type": "uint256"
        }
      ],
      "stateMutability": "view",
      "type": "function"
    },
    {
      "inputs": [],
      "name": "rebasingCreditsPerToken",
      "outputs": [
        {
          "internalType": "uint256",
          "name": "",
          "type": "uint256"
        }
      ],
      "stateMutability": "view",
      "type": "function"
    },
    {
      "inputs": [],
      "name": "rebasingCreditsPerTokenHighres",
      "outputs": [
        {
          "internalType": "uint256",
          "name": "",
          "type": "uint256"
        }
      ],
      "stateMutability": "view",
      "type": "function"
    },
    {
      "inputs": [],
      "name": "remoteHub",
      "outputs": [
        {
          "internalType": "contract IRemoteHub",
          "name": "",
          "type": "address"
        }
      ],
      "stateMutability": "view",
      "type": "function"
    },
    {
      "inputs": [
        {
          "internalType": "bytes32",
          "name": "role",
          "type": "bytes32"
        },
        {
          "internalType": "address",
          "name": "account",
          "type": "address"
        }
      ],
      "name": "renounceRole",
      "outputs": [],
      "stateMutability": "nonpayable",
      "type": "function"
    },
    {
      "inputs": [
        {
          "internalType": "bytes32",
          "name": "role",
          "type": "bytes32"
        },
        {
          "internalType": "address",
          "name": "account",
          "type": "address"
        }
      ],
      "name": "revokeRole",
      "outputs": [],
      "stateMutability": "nonpayable",
      "type": "function"
    },
    {
      "inputs": [
        {
          "internalType": "address",
          "name": "_remoteHub",
          "type": "address"
        }
      ],
      "name": "setRemoteHub",
      "outputs": [],
      "stateMutability": "nonpayable",
      "type": "function"
    },
    {
      "inputs": [
        {
          "internalType": "address",
          "name": "owner",
          "type": "address"
        },
        {
          "internalType": "uint256",
          "name": "credit1",
          "type": "uint256"
        },
        {
          "internalType": "uint256",
          "name": "credit2",
          "type": "uint256"
        },
        {
          "internalType": "string",
          "name": "errorText",
          "type": "string"
        }
      ],
      "name": "subCredits",
      "outputs": [
        {
          "internalType": "uint256",
          "name": "resultCredit",
          "type": "uint256"
        }
      ],
      "stateMutability": "view",
      "type": "function"
    },
    {
      "inputs": [
        {
          "internalType": "bytes4",
          "name": "interfaceId",
          "type": "bytes4"
        }
      ],
      "name": "supportsInterface",
      "outputs": [
        {
          "internalType": "bool",
          "name": "",
          "type": "bool"
        }
      ],
      "stateMutability": "view",
      "type": "function"
    },
    {
      "inputs": [],
      "name": "symbol",
      "outputs": [
        {
          "internalType": "string",
          "name": "",
          "type": "string"
        }
      ],
      "stateMutability": "view",
      "type": "function"
    },
    {
      "inputs": [],
      "name": "totalSupply",
      "outputs": [
        {
          "internalType": "uint256",
          "name": "",
          "type": "uint256"
        }
      ],
      "stateMutability": "view",
      "type": "function"
    },
    {
      "inputs": [
        {
          "internalType": "address",
          "name": "_to",
          "type": "address"
        },
        {
          "internalType": "uint256",
          "name": "_value",
          "type": "uint256"
        }
      ],
      "name": "transfer",
      "outputs": [
        {
          "internalType": "bool",
          "name": "",
          "type": "bool"
        }
      ],
      "stateMutability": "nonpayable",
      "type": "function"
    },
    {
      "inputs": [
        {
          "internalType": "address",
          "name": "_from",
          "type": "address"
        },
        {
          "internalType": "address",
          "name": "_to",
          "type": "address"
        },
        {
          "internalType": "uint256",
          "name": "_value",
          "type": "uint256"
        }
      ],
      "name": "transferFrom",
      "outputs": [
        {
          "internalType": "bool",
          "name": "",
          "type": "bool"
        }
      ],
      "stateMutability": "nonpayable",
      "type": "function"
    },
    {
      "inputs": [],
      "name": "unpause",
      "outputs": [],
      "stateMutability": "nonpayable",
      "type": "function"
    },
    {
      "inputs": [
        {
          "internalType": "address",
          "name": "newImplementation",
          "type": "address"
        }
      ],
      "name": "upgradeTo",
      "outputs": [],
      "stateMutability": "nonpayable",
      "type": "function"
    },
    {
      "inputs": [
        {
          "internalType": "address",
          "name": "newImplementation",
          "type": "address"
        },
        {
          "internalType": "bytes",
          "name": "data",
          "type": "bytes"
        }
      ],
      "name": "upgradeToAndCall",
      "outputs": [],
      "stateMutability": "payable",
      "type": "function"
    }
  ],
  "bytecode": "0x60a0604052306080523480156200001557600080fd5b506200002062000026565b620000e7565b600054610100900460ff1615620000935760405162461bcd60e51b815260206004820152602760248201527f496e697469616c697a61626c653a20636f6e747261637420697320696e697469604482015266616c697a696e6760c81b606482015260840160405180910390fd5b60005460ff90811614620000e5576000805460ff191660ff9081179091556040519081527f7f26b83ff96e1f2b6a682f133852f6798a09c465da95921460cefb38474024989060200160405180910390a15b565b60805161420b6200011f60003960008181610d0d01528181610d4d01528181611637015281816116770152611706015261420b6000f3fe6080604052600436106102935760003560e01c806370a082311161015a578063ab2c263d116100c1578063de7ea79d1161007a578063de7ea79d146107df578063e5c4fffe146107ff578063e626030714610834578063e696393a14610854578063f72c0d8b1461086b578063f9854bfc1461088c57600080fd5b8063ab2c263d14610726578063b187bd2614610746578063ba1760d81461075f578063d2ffea0d1461077f578063d547741f1461079f578063dd62ed3e146107bf57600080fd5b80639423f215116101135780639423f2151461066357806395d89b411461069c5780639dc29fac146106b1578063a217fddf146106d1578063a457c2d7146106e6578063a9059cbb1461070657600080fd5b806370a08231146105cd578063767b479c146105ed5780637a46a9c5146106025780637d0d66ff146106185780638456cb591461062e57806391d148541461064357600080fd5b806339509351116101fe5780634f1ef286116101b75780634f1ef2861461052757806352d1902d1461053a5780635c975abb1461054f5780635d9073791461056a578063609350cd1461058a5780636691cb3d146105b857600080fd5b8063395093511461044657806339a7919f146104665780633f4ba83a14610494578063405a11dc146104a957806340c10f19146104c9578063456ee286146104e957600080fd5b8063248a9ca311610250578063248a9ca31461036757806328570b4e146103975780632f2ff15d146103b7578063313ce567146103d957806336568abe146104065780633659cfe61461042657600080fd5b806301ffc9a71461029857806306fdde03146102cd578063077f22b7146102ef578063095ea7b31461031257806318160ddd1461033257806323b872dd14610347575b600080fd5b3480156102a457600080fd5b506102b86102b3366004613688565b6108ac565b60405190151581526020015b60405180910390f35b3480156102d957600080fd5b506102e26108e3565b6040516102c491906136d6565b3480156102fb57600080fd5b50610304610975565b6040519081526020016102c4565b34801561031e57600080fd5b506102b861032d36600461371e565b61098f565b34801561033e57600080fd5b5060fd54610304565b34801561035357600080fd5b506102b861036236600461374a565b610a33565b34801561037357600080fd5b5061030461038236600461378b565b60009081526065602052604090206001015490565b3480156103a357600080fd5b506103046103b236600461371e565b610bec565b3480156103c357600080fd5b506103d76103d23660046137a4565b610c5b565b005b3480156103e557600080fd5b5061010754600160a01b900460ff1660405160ff90911681526020016102c4565b34801561041257600080fd5b506103d76104213660046137a4565b610c85565b34801561043257600080fd5b506103d76104413660046137d4565b610d03565b34801561045257600080fd5b506102b861046136600461371e565b610de2565b34801561047257600080fd5b5061048661048136600461378b565b610e9e565b6040516102c49291906137f1565b3480156104a057600080fd5b506103d761133a565b3480156104b557600080fd5b506103d76104c43660046137d4565b611471565b3480156104d557600080fd5b506103d76104e436600461371e565b611551565b3480156104f557600080fd5b5061051a6105043660046137d4565b61010a6020526000908152604090205460ff1681565b6040516102c49190613892565b6103d7610535366004613946565b61162d565b34801561054657600080fd5b506103046116f9565b34801561055b57600080fd5b5061010e546102b89060ff1681565b34801561057657600080fd5b506103d76105853660046137d4565b6117ac565b34801561059657600080fd5b506103046105a53660046137d4565b6101096020526000908152604090205481565b3480156105c457600080fd5b506103046119dd565b3480156105d957600080fd5b506103046105e83660046137d4565b6119f2565b3480156105f957600080fd5b50610304611a3c565b34801561060e57600080fd5b5061010154610304565b34801561062457600080fd5b5061010054610304565b34801561063a57600080fd5b506103d7611a49565b34801561064f57600080fd5b506102b861065e3660046137a4565b611b83565b34801561066f57600080fd5b5061010854610684906001600160a01b031681565b6040516001600160a01b0390911681526020016102c4565b3480156106a857600080fd5b506102e2611bae565b3480156106bd57600080fd5b506103d76106cc36600461371e565b611bbd565b3480156106dd57600080fd5b50610304600081565b3480156106f257600080fd5b506102b861070136600461371e565b611c99565b34801561071257600080fd5b506102b861072136600461371e565b611d30565b34801561073257600080fd5b5061030461074136600461371e565b611e42565b34801561075257600080fd5b5061010e5460ff166102b8565b34801561076b57600080fd5b5061030461077a3660046139aa565b611e9c565b34801561078b57600080fd5b506103d761079a36600461378b565b611f1d565b3480156107ab57600080fd5b506103d76107ba3660046137a4565b612114565b3480156107cb57600080fd5b506103046107da366004613a21565b612139565b3480156107eb57600080fd5b506103d76107fa366004613a98565b61216b565b34801561080b57600080fd5b5061081f61081a3660046137d4565b6122d0565b604080519283526020830191909152016102c4565b34801561084057600080fd5b506103d761084f3660046137d4565b6122fd565b34801561086057600080fd5b506103046101025481565b34801561087757600080fd5b5060008051602061414f833981519152610304565b34801561089857600080fd5b5061081f6108a73660046137d4565b6124f5565b60006001600160e01b03198216637965db0b60e01b14806108dd57506301ffc9a760e01b6001600160e01b03198316145b92915050565b606060fe80546108f290613b33565b80601f016020809104026020016040519081016040528092919081815260200182805461091e90613b33565b801561096b5780601f106109405761010080835404028352916020019161096b565b820191906000526020600020905b81548152906001019060200180831161094e57829003601f168201915b5050505050905090565b6000633b9aca006101005461098a9190613b83565b905090565b61010e5460009060ff16156109bf5760405162461bcd60e51b81526004016109b690613ba5565b60405180910390fd5b60006109cb3384611e42565b33600081815260fc602090815260408083206001600160a01b038a16808552908352928190208590555184815293945090927f8c5be1e5ebec7d5bd14f71427d1e84f3dd0314c0f7b2291e5b200ac8c7c3b92591015b60405180910390a35060019392505050565b61010e5460009060ff1615610a5a5760405162461bcd60e51b81526004016109b690613ba5565b6001600160a01b038316610aab5760405162461bcd60e51b81526020600482015260186024820152775472616e7366657220746f207a65726f206164647265737360401b60448201526064016109b6565b610ab4846119f2565b821115610b035760405162461bcd60e51b815260206004820152601d60248201527f5472616e736665722067726561746572207468616e2062616c616e636500000060448201526064016109b6565b6000610b0f8584611e42565b6001600160a01b038616600090815260fc602090815260408083203384528252918290205482518084019093528183527f416c6c6f77616e636520616d6f756e7420657863656564732062616c616e636591830191909152919250610b779187918490611e9c565b6001600160a01b038616600090815260fc60209081526040808320338452909152902055610ba6858585612578565b836001600160a01b0316856001600160a01b03166000805160206141b683398151915285604051610bd991815260200190565b60405180910390a3506001949350505050565b6000610c096ec097ce7bc90715b34b9f1000000000600019613b83565b8210610c1857506000196108dd565b6000610c23836126cf565b90506000610c38610c338661270e565b6126cf565b90506000610c468383612753565b9050610c5181612832565b9695505050505050565b600082815260656020526040902060010154610c76816128b2565b610c8083836128bc565b505050565b6001600160a01b0381163314610cf55760405162461bcd60e51b815260206004820152602f60248201527f416363657373436f6e74726f6c3a2063616e206f6e6c792072656e6f756e636560448201526e103937b632b9903337b91039b2b63360891b60648201526084016109b6565b610cff8282612942565b5050565b6001600160a01b037f0000000000000000000000000000000000000000000000000000000000000000163003610d4b5760405162461bcd60e51b81526004016109b690613bc4565b7f00000000000000000000000000000000000000000000000000000000000000006001600160a01b0316610d9460008051602061416f833981519152546001600160a01b031690565b6001600160a01b031614610dba5760405162461bcd60e51b81526004016109b690613c10565b610dc3816129a9565b60408051600080825260208201909252610ddf918391906129dc565b50565b61010e5460009060ff1615610e095760405162461bcd60e51b81526004016109b690613ba5565b6000610e153384611e42565b33600090815260fc602090815260408083206001600160a01b0389168452909152902054909150610e47908290613c5c565b33600081815260fc602090815260408083206001600160a01b038a16808552908352928190208590555193845290927f8c5be1e5ebec7d5bd14f71427d1e84f3dd0314c0f7b2291e5b200ac8c7c3b9259101610a21565b6060600033610eab612b47565b6001600160a01b031614610f015760405162461bcd60e51b815260206004820152601b60248201527f43616c6c6572206973206e6f74207468652045584348414e474552000000000060448201526064016109b6565b600261010d5403610f245760405162461bcd60e51b81526004016109b690613c6f565b600261010d5561010e5460ff1615610f4e5760405162461bcd60e51b81526004016109b690613ba5565b600060fd5411610fa05760405162461bcd60e51b815260206004820152601860248201527f43616e6e6f7420696e637265617365203020737570706c79000000000000000060448201526064016109b6565b60fd54831015610fe45760405162461bcd60e51b815260206004820152600f60248201526e6e656761746976652072656261736560881b60448201526064016109b6565b8260fd54036110735760fd54610100546101015460408051938452602084019290925282820152517f41645eb819d3011b13f97696a8109d14bfcddfaca7d063ec0564d62a3e2572359181900360600190a16040805160008082526020820190925290611067565b611054613645565b81526020019060019003908161104c5790505b5060009150915061132d565b600060fd54846110839190613ca6565b9050600060fd5461010254836110999190613cb9565b6110a39190613b83565b905060006110b18284613ca6565b90506000198160fd546110c49190613c5c565b116110dc578060fd546110d79190613c5c565b6110e0565b6000195b60fd819055610102546110f291613ca6565b1561112d576101025460fd546111089190613ca6565b6101005461111e90670de0b6b3a7640000613cb9565b6111289190613b83565b610101555b600061010154116111805760405162461bcd60e51b815260206004820152601860248201527f496e76616c6964206368616e676520696e20737570706c79000000000000000060448201526064016109b6565b61010254610101546101005461119e90670de0b6b3a7640000613cb9565b6111a89190613b83565b6111b29190613c5c565b60fd5560006111c261010b612bb6565b67ffffffffffffffff8111156111da576111da6138ba565b60405190808252806020026020018201604052801561121357816020015b611200613645565b8152602001906001900390816111f85790505b50905060005b81518110156112db57600061123061010b83612bc0565b9050600061123d826119f2565b905060006101025460000361125357600061126b565b610102546112618884613cb9565b61126b9190613b83565b90508285858151811061128057611280613cd0565b6020026020010151600001906001600160a01b031690816001600160a01b031681525050808585815181106112b7576112b7613cd0565b60200260200101516020018181525050505050806112d490613ce6565b9050611219565b5060fd54610100546101015460408051938452602084019290925282820152517f41645eb819d3011b13f97696a8109d14bfcddfaca7d063ec0564d62a3e2572359181900360600190a1945090925050505b600161010d559092909150565b611342612bd3565b6001600160a01b03166391d14854611358612bd3565b6001600160a01b0316635dbd733a6040518163ffffffff1660e01b8152600401602060405180830381865afa158015611395573d6000803e3d6000fd5b505050506040513d601f19601f820116820180604052508101906113b99190613cff565b6040516001600160e01b031960e084901b1681526004810191909152336024820152604401602060405180830381865afa1580156113fb573d6000803e3d6000fd5b505050506040513d601f19601f8201168201806040525081019061141f9190613d18565b61143b5760405162461bcd60e51b81526004016109b690613d3a565b61010e805460ff191690556040517fa45f47fdea8a1efdd9029a5691c7f759c32b7c698632b563573e155625d1693390600090a1565b61148a60008051602061414f8339815191525b33611b83565b6114a65760405162461bcd60e51b81526004016109b690613d87565b6001600160a01b0381166114fc5760405162461bcd60e51b815260206004820152601860248201527f5a65726f2061646472657373206e6f7420616c6c6f776564000000000000000060448201526064016109b6565b61010880546001600160a01b0319166001600160a01b0383169081179091556040519081527f0acbcc2f890f48416af3a85d8a92e6b01a61ca13a98ccf21d101bf3fe06593fc9060200160405180910390a150565b61010e5460ff16156115755760405162461bcd60e51b81526004016109b690613ba5565b3361157e612b47565b6001600160a01b03161480611607575061010854604080516313bdd4b160e31b8152905133926001600160a01b031691639deea5889160048083019260209291908290030181865afa1580156115d8573d6000803e3d6000fd5b505050506040513d601f19601f820116820180604052508101906115fc9190613dcd565b6001600160a01b0316145b6116235760405162461bcd60e51b81526004016109b690613dea565b610cff8282612c1c565b6001600160a01b037f00000000000000000000000000000000000000000000000000000000000000001630036116755760405162461bcd60e51b81526004016109b690613bc4565b7f00000000000000000000000000000000000000000000000000000000000000006001600160a01b03166116be60008051602061416f833981519152546001600160a01b031690565b6001600160a01b0316146116e45760405162461bcd60e51b81526004016109b690613c10565b6116ed826129a9565b610cff828260016129dc565b6000306001600160a01b037f000000000000000000000000000000000000000000000000000000000000000016146117995760405162461bcd60e51b815260206004820152603860248201527f555550535570677261646561626c653a206d757374206e6f742062652063616c60448201527f6c6564207468726f7567682064656c656761746563616c6c000000000000000060648201526084016109b6565b5060008051602061416f83398151915290565b6101085460408051633083a8e360e01b8152905133926001600160a01b031691633083a8e39160048083019260209291908290030181865afa1580156117f6573d6000803e3d6000fd5b505050506040513d601f19601f8201168201806040525081019061181a9190613dcd565b6001600160a01b0316146118705760405162461bcd60e51b815260206004820181905260248201527f43616c6c6572206973206e6f7420746865205041594f55545f4d414e4147455260448201526064016109b6565b61010e5460ff16156118945760405162461bcd60e51b81526004016109b690613ba5565b600261010d54036118b75760405162461bcd60e51b81526004016109b690613c6f565b600261010d556118c681612d73565b6119125760405162461bcd60e51b815260206004820152601960248201527f4163636f756e7420686173206e6f74206f70746564206f75740000000000000060448201526064016109b6565b600061191d8261270e565b610101546001600160a01b038416600090815260fb60205260409020546119449190613cb9565b61194e9190613b83565b9050611959826119f2565b610102546119679190613ca6565b610102556001600160a01b038216600090815260fb6020526040902081905561010054611995908290613c5c565b610100556001600160a01b038216600090815261010a60209081526040808320805460ff191690556101099091528120556119d261010b83612dac565b5050600161010d5550565b6000633b9aca006101015461098a9190613b83565b6001600160a01b038116600090815260fb60205260408120548103611a185760006108dd565b6001600160a01b038216600090815260fb60205260409020546108dd908390610bec565b600061098a61010b612bb6565b611a51612bd3565b6001600160a01b03166391d14854611a67612bd3565b6001600160a01b0316635dbd733a6040518163ffffffff1660e01b8152600401602060405180830381865afa158015611aa4573d6000803e3d6000fd5b505050506040513d601f19601f82011682018060405250810190611ac89190613cff565b6040516001600160e01b031960e084901b1681526004810191909152336024820152604401602060405180830381865afa158015611b0a573d6000803e3d6000fd5b505050506040513d601f19601f82011682018060405250810190611b2e9190613d18565b611b4a5760405162461bcd60e51b81526004016109b690613d3a565b61010e805460ff191660011790556040517f9e87fac88ff661f02d44f95383c817fece4bce600a3dab7a54406878b965e75290600090a1565b60009182526065602090815260408084206001600160a01b0393909316845291905290205460ff1690565b606060ff80546108f290613b33565b61010e5460ff1615611be15760405162461bcd60e51b81526004016109b690613ba5565b33611bea612b47565b6001600160a01b03161480611c73575061010854604080516313bdd4b160e31b8152905133926001600160a01b031691639deea5889160048083019260209291908290030181865afa158015611c44573d6000803e3d6000fd5b505050506040513d601f19601f82011682018060405250810190611c689190613dcd565b6001600160a01b0316145b611c8f5760405162461bcd60e51b81526004016109b690613dea565b610cff8282612dc1565b61010e5460009060ff1615611cc05760405162461bcd60e51b81526004016109b690613ba5565b6000611ccc3384611e42565b33600090815260fc602090815260408083206001600160a01b0389168452909152902054909150811115611d01576000610e47565b33600090815260fc602090815260408083206001600160a01b0388168452909152902054610e47908290613ca6565b61010e5460009060ff1615611d575760405162461bcd60e51b81526004016109b690613ba5565b6001600160a01b038316611da85760405162461bcd60e51b81526020600482015260186024820152775472616e7366657220746f207a65726f206164647265737360401b60448201526064016109b6565b611db1336119f2565b821115611e005760405162461bcd60e51b815260206004820152601d60248201527f5472616e736665722067726561746572207468616e2062616c616e636500000060448201526064016109b6565b611e0b338484612578565b6040518281526001600160a01b0384169033906000805160206141b68339815191529060200160405180910390a350600192915050565b6000611e63722cd76fe086b93ce2f768a00b22a00000000000600019613b83565b821115611e7357506000196108dd565b6000611e7e836126cf565b90506000611e8e610c338661270e565b90506000610c468383612f85565b600080611ea98686610bec565b90506000611eb78786610bec565b9050600019821480611ed3575080611ed0836001613c5c565b10155b15611efa5784861015611ee7576000611ef1565b611ef18587613ca6565b92505050611f15565b83604051632545484760e21b81526004016109b691906136d6565b949350505050565b600054600290610100900460ff16158015611f3f575060005460ff8083169116105b611f5b5760405162461bcd60e51b81526004016109b690613e30565b6000805461ffff191660ff831617610100179055611f77612bd3565b6001600160a01b03166391d14854611f8d612bd3565b6001600160a01b0316635dbd733a6040518163ffffffff1660e01b8152600401602060405180830381865afa158015611fca573d6000803e3d6000fd5b505050506040513d601f19601f82011682018060405250810190611fee9190613cff565b6040516001600160e01b031960e084901b1681526004810191909152336024820152604401602060405180830381865afa158015612030573d6000803e3d6000fd5b505050506040513d601f19601f820116820180604052508101906120549190613d18565b6120705760405162461bcd60e51b81526004016109b690613d3a565b811561207d576101018290555b6040805180820190915260048152631e1554d160e21b602082015260fe906120a59082613ecc565b506040805180820190915260048152631e1554d160e21b602082015260ff906120ce9082613ecc565b506000805461ff001916905560405160ff821681527f7f26b83ff96e1f2b6a682f133852f6798a09c465da95921460cefb38474024989060200160405180910390a15050565b60008281526065602052604090206001015461212f816128b2565b610c808383612942565b6001600160a01b03808316600090815260fc60209081526040808320938516835292905290812054611f158482610bec565b600054610100900460ff161580801561218b5750600054600160ff909116105b806121a55750303b1580156121a5575060005460ff166001145b6121c15760405162461bcd60e51b81526004016109b690613e30565b6000805460ff1916600117905580156121e4576000805461ff0019166101001790555b6121ec613022565b60fe6121f9878983613f8c565b5060ff612207858783613f8c565b50612210613022565b612218613022565b6122236000336128bc565b61223b60008051602061414f833981519152336128bc565b610107805460ff60a01b1916600160a01b60ff8616021790556b033b2e3c9fd0803ce80000006101015561010880546001600160a01b0319166001600160a01b03841617905580156122c7576000805461ff0019169055604051600181527f7f26b83ff96e1f2b6a682f133852f6798a09c465da95921460cefb38474024989060200160405180910390a15b50505050505050565b6001600160a01b038116600090815260fb602052604081205481906122f48461270e565b91509150915091565b6101085460408051633083a8e360e01b8152905133926001600160a01b031691633083a8e39160048083019260209291908290030181865afa158015612347573d6000803e3d6000fd5b505050506040513d601f19601f8201168201806040525081019061236b9190613dcd565b6001600160a01b0316146123c15760405162461bcd60e51b815260206004820181905260248201527f43616c6c6572206973206e6f7420746865205041594f55545f4d414e4147455260448201526064016109b6565b61010e5460ff16156123e55760405162461bcd60e51b81526004016109b690613ba5565b600261010d54036124085760405162461bcd60e51b81526004016109b690613c6f565b600261010d5561241781612d73565b156124645760405162461bcd60e51b815260206004820152601860248201527f4163636f756e7420686173206e6f74206f7074656420696e000000000000000060448201526064016109b6565b61246d816119f2565b6101025461247b9190613c5c565b61010255610101546001600160a01b0382166000908152610109602090815260408083209390935560fb90522054610100546124b79190613ca6565b610100556001600160a01b038116600090815261010a60205260409020805460ff191660011790556124eb61010b8261308f565b5050600161010d55565b60008060006125038461270e565b9050806b033b2e3c9fd0803ce800000003612538576001600160a01b03909316600090815260fb602052604090205493915050565b6001600160a01b038416600090815260fb602052604090205461256090633b9aca0090613b83565b61256e633b9aca0083613b83565b9250925050915091565b600061258383612d73565b9050600061259085612d73565b9050600061259e8585611e42565b905060006125ac8786611e42565b90506126148760fb60008a6001600160a01b03166001600160a01b0316815260200190815260200160002054836040518060400160405280601f81526020017f5472616e7366657220616d6f756e7420657863656564732062616c616e636500815250611e9c565b6001600160a01b03808916600090815260fb60205260408082209390935590881681522054612644908390613c5c565b6001600160a01b038716600090815260fb6020526040902055838015612668575082155b1561269857846101025461267c9190613c5c565b610102556101005461268f908290613ca6565b610100556122c7565b831580156126a35750825b156126ca5784610102546126b79190613ca6565b610102556101005461268f908390613c5c565b6122c7565b6000806126e0633b9aca0084613cb9565b9050826126f1633b9aca0083613b83565b146108dd5760405162461bcd60e51b81526004016109b69061404d565b6001600160a01b038116600090815261010960205260408120541561274a57506001600160a01b03166000908152610109602052604090205490565b50506101015490565b6000816000036127a55760405162461bcd60e51b815260206004820152601c60248201527f4572726f72732e4d4154485f4449564953494f4e5f42595f5a45524f0000000060448201526064016109b6565b826000036127b5575060006108dd565b60006127c2600284613b83565b90506b033b2e3c9fd0803ce80000006127dd82600019613ca6565b6127e79190613b83565b8411156128065760405162461bcd60e51b81526004016109b69061404d565b828161281e6b033b2e3c9fd0803ce800000087613cb9565b6128289190613c5c565b611f159190613b83565b6000806128446002633b9aca00613b83565b905060006128528483613c5c565b9050818110156128a45760405162461bcd60e51b815260206004820152601d60248201527f4572726f72732e4d4154485f4144444954494f4e5f4f564552464c4f5700000060448201526064016109b6565b611f15633b9aca0082613b83565b610ddf81336130a4565b6128c68282611b83565b610cff5760008281526065602090815260408083206001600160a01b03851684529091529020805460ff191660011790556128fe3390565b6001600160a01b0316816001600160a01b0316837f2f8788117e7eff1d82e926ec794901d17c78024a50270940304540a733656f0d60405160405180910390a45050565b61294c8282611b83565b15610cff5760008281526065602090815260408083206001600160a01b0385168085529252808320805460ff1916905551339285917ff6391f5c32d9c69d2a47ea670b442974b53935d1edc7fd64eb21e047a839171b9190a45050565b6129c060008051602061414f833981519152611484565b610ddf5760405162461bcd60e51b81526004016109b690613d87565b7f4910fdfa16fed3260ed0e7147f7cc6da11a60208b5b9406d12a635614ffd91435460ff1615612a0f57610c80836130fd565b826001600160a01b03166352d1902d6040518163ffffffff1660e01b8152600401602060405180830381865afa925050508015612a69575060408051601f3d908101601f19168201909252612a6691810190613cff565b60015b612acc5760405162461bcd60e51b815260206004820152602e60248201527f45524331393637557067726164653a206e657720696d706c656d656e7461746960448201526d6f6e206973206e6f74205555505360901b60648201526084016109b6565b60008051602061416f8339815191528114612b3b5760405162461bcd60e51b815260206004820152602960248201527f45524331393637557067726164653a20756e737570706f727465642070726f786044820152681a58589b195555525160ba1b60648201526084016109b6565b50610c80838383613199565b610108546040805163697b932d60e11b815290516000926001600160a01b03169163d2f7265a9160048083019260209291908290030181865afa158015612b92573d6000803e3d6000fd5b505050506040513d601f19601f8201168201806040525081019061098a9190613dcd565b60006108dd825490565b6000612bcc83836131c4565b9392505050565b610108546040805162435da560e01b815290516000926001600160a01b03169162435da59160048083019260209291908290030181865afa158015612b92573d6000803e3d6000fd5b600261010d5403612c3f5760405162461bcd60e51b81526004016109b690613c6f565b600261010d556001600160a01b038216612c9b5760405162461bcd60e51b815260206004820152601860248201527f4d696e7420746f20746865207a65726f2061646472657373000000000000000060448201526064016109b6565b6000612ca683612d73565b90506000612cb48484611e42565b6001600160a01b038516600090815260fb6020526040902054909150612cdb908290613c5c565b6001600160a01b038516600090815260fb60205260409020558115612d12578261010254612d099190613c5c565b61010255612d26565b8061010054612d219190613c5c565b610100555b8260fd54612d349190613c5c565b60fd556040518381526001600160a01b038516906000906000805160206141b6833981519152906020015b60405180910390a35050600161010d555050565b600060016001600160a01b038316600090815261010a602052604090205460ff166001811115612da557612da561387c565b1492915050565b6000612bcc836001600160a01b0384166131ee565b600261010d5403612de45760405162461bcd60e51b81526004016109b690613c6f565b600261010d556001600160a01b038216612e405760405162461bcd60e51b815260206004820152601a60248201527f4275726e2066726f6d20746865207a65726f206164647265737300000000000060448201526064016109b6565b80600003612e7c576040518181526000906001600160a01b038416906000805160206141b68339815191529060200160405180910390a36124eb565b6000612e8783612d73565b90506000612e958484611e42565b9050612efd8460fb6000876001600160a01b03166001600160a01b0316815260200190815260200160002054836040518060400160405280601b81526020017f4275726e20616d6f756e7420657863656564732062616c616e63650000000000815250611e9c565b6001600160a01b038516600090815260fb60205260409020558115612f34578261010254612f2b9190613ca6565b61010255612f48565b8061010054612f439190613ca6565b610100555b8260fd54612f569190613ca6565b60fd556040518381526000906001600160a01b038616906000805160206141b683398151915290602001612d5f565b6000821580612f92575081155b15612f9f575060006108dd565b81612fb760026b033b2e3c9fd0803ce8000000613b83565b612fc390600019613ca6565b612fcd9190613b83565b831115612fec5760405162461bcd60e51b81526004016109b69061404d565b6b033b2e3c9fd0803ce8000000613004600282613b83565b61300e8486613cb9565b6130189190613c5c565b612bcc9190613b83565b600054610100900460ff1661308d5760405162461bcd60e51b815260206004820152602b60248201527f496e697469616c697a61626c653a20636f6e7472616374206973206e6f74206960448201526a6e697469616c697a696e6760a81b60648201526084016109b6565b565b6000612bcc836001600160a01b0384166132e1565b6130ae8282611b83565b610cff576130bb81613330565b6130c6836020613342565b6040516020016130d7929190614090565b60408051601f198184030181529082905262461bcd60e51b82526109b6916004016136d6565b6001600160a01b0381163b61316a5760405162461bcd60e51b815260206004820152602d60248201527f455243313936373a206e657720696d706c656d656e746174696f6e206973206e60448201526c1bdd08184818dbdb9d1c9858dd609a1b60648201526084016109b6565b60008051602061416f83398151915280546001600160a01b0319166001600160a01b0392909216919091179055565b6131a2836134de565b6000825111806131af5750805b15610c80576131be838361351e565b50505050565b60008260000182815481106131db576131db613cd0565b9060005260206000200154905092915050565b600081815260018301602052604081205480156132d7576000613212600183613ca6565b855490915060009061322690600190613ca6565b905081811461328b57600086600001828154811061324657613246613cd0565b906000526020600020015490508087600001848154811061326957613269613cd0565b6000918252602080832090910192909255918252600188019052604090208390555b855486908061329c5761329c614105565b6001900381819060005260206000200160009055905585600101600086815260200190815260200160002060009055600193505050506108dd565b60009150506108dd565b6000818152600183016020526040812054613328575081546001818101845560008481526020808220909301849055845484825282860190935260409020919091556108dd565b5060006108dd565b60606108dd6001600160a01b03831660145b60606000613351836002613cb9565b61335c906002613c5c565b67ffffffffffffffff811115613374576133746138ba565b6040519080825280601f01601f19166020018201604052801561339e576020820181803683370190505b509050600360fc1b816000815181106133b9576133b9613cd0565b60200101906001600160f81b031916908160001a905350600f60fb1b816001815181106133e8576133e8613cd0565b60200101906001600160f81b031916908160001a905350600061340c846002613cb9565b613417906001613c5c565b90505b600181111561348f576f181899199a1a9b1b9c1cb0b131b232b360811b85600f166010811061344b5761344b613cd0565b1a60f81b82828151811061346157613461613cd0565b60200101906001600160f81b031916908160001a90535060049490941c936134888161411b565b905061341a565b508315612bcc5760405162461bcd60e51b815260206004820181905260248201527f537472696e67733a20686578206c656e67746820696e73756666696369656e7460448201526064016109b6565b6134e7816130fd565b6040516001600160a01b038216907fbc7cd75a20ee27fd9adebab32041f755214dbc6bffa90cc0225b39da2e5c2d3b90600090a250565b6060612bcc838360405180606001604052806027815260200161418f602791396060600080856001600160a01b03168560405161355b9190614132565b600060405180830381855af49150503d8060008114613596576040519150601f19603f3d011682016040523d82523d6000602084013e61359b565b606091505b5091509150610c51868383876060831561361657825160000361360f576001600160a01b0385163b61360f5760405162461bcd60e51b815260206004820152601d60248201527f416464726573733a2063616c6c20746f206e6f6e2d636f6e747261637400000060448201526064016109b6565b5081611f15565b611f15838381511561362b5781518083602001fd5b8060405162461bcd60e51b81526004016109b691906136d6565b6040805160608101825260008082526020820152908101613664613669565b905290565b604051806101400160405280600a906020820280368337509192915050565b60006020828403121561369a57600080fd5b81356001600160e01b031981168114612bcc57600080fd5b60005b838110156136cd5781810151838201526020016136b5565b50506000910152565b60208152600082518060208401526136f58160408501602087016136b2565b601f01601f19169190910160400192915050565b6001600160a01b0381168114610ddf57600080fd5b6000806040838503121561373157600080fd5b823561373c81613709565b946020939093013593505050565b60008060006060848603121561375f57600080fd5b833561376a81613709565b9250602084013561377a81613709565b929592945050506040919091013590565b60006020828403121561379d57600080fd5b5035919050565b600080604083850312156137b757600080fd5b8235915060208301356137c981613709565b809150509250929050565b6000602082840312156137e657600080fd5b8135612bcc81613709565b6040808252835182820181905260009190602090606085019082880185805b8381101561386b57825180516001600160a01b031686528681015187870152870151878601835b600a81101561385457825182529188019190880190600101613837565b505050610180949094019391850191600101613810565b505050509301939093525092915050565b634e487b7160e01b600052602160045260246000fd5b60208101600283106138b457634e487b7160e01b600052602160045260246000fd5b91905290565b634e487b7160e01b600052604160045260246000fd5b600067ffffffffffffffff808411156138eb576138eb6138ba565b604051601f8501601f19908116603f01168101908282118183101715613913576139136138ba565b8160405280935085815286868601111561392c57600080fd5b858560208301376000602087830101525050509392505050565b6000806040838503121561395957600080fd5b823561396481613709565b9150602083013567ffffffffffffffff81111561398057600080fd5b8301601f8101851361399157600080fd5b6139a0858235602084016138d0565b9150509250929050565b600080600080608085870312156139c057600080fd5b84356139cb81613709565b93506020850135925060408501359150606085013567ffffffffffffffff8111156139f557600080fd5b8501601f81018713613a0657600080fd5b613a15878235602084016138d0565b91505092959194509250565b60008060408385031215613a3457600080fd5b8235613a3f81613709565b915060208301356137c981613709565b60008083601f840112613a6157600080fd5b50813567ffffffffffffffff811115613a7957600080fd5b602083019150836020828501011115613a9157600080fd5b9250929050565b60008060008060008060808789031215613ab157600080fd5b863567ffffffffffffffff80821115613ac957600080fd5b613ad58a838b01613a4f565b90985096506020890135915080821115613aee57600080fd5b50613afb89828a01613a4f565b909550935050604087013560ff81168114613b1557600080fd5b91506060870135613b2581613709565b809150509295509295509295565b600181811c90821680613b4757607f821691505b602082108103613b6757634e487b7160e01b600052602260045260246000fd5b50919050565b634e487b7160e01b600052601160045260246000fd5b600082613ba057634e487b7160e01b600052601260045260246000fd5b500490565b602080825260059082015264706175736560d81b604082015260600190565b6020808252602c908201527f46756e6374696f6e206d7573742062652063616c6c6564207468726f7567682060408201526b19195b1959d85d1958d85b1b60a21b606082015260800190565b6020808252602c908201527f46756e6374696f6e206d7573742062652063616c6c6564207468726f7567682060408201526b6163746976652070726f787960a01b606082015260800190565b808201808211156108dd576108dd613b6d565b6020808252601f908201527f5265656e7472616e637947756172643a207265656e7472616e742063616c6c00604082015260600190565b818103818111156108dd576108dd613b6d565b80820281158282048414176108dd576108dd613b6d565b634e487b7160e01b600052603260045260246000fd5b600060018201613cf857613cf8613b6d565b5060010190565b600060208284031215613d1157600080fd5b5051919050565b600060208284031215613d2a57600080fd5b81518015158114612bcc57600080fd5b6020808252602d908201527f43616c6c657220646f65736e2774206861766520504f5254464f4c494f5f414760408201526c454e545f524f4c4520726f6c6560981b606082015260800190565b60208082526026908201527f43616c6c657220646f65736e277420686176652055504752414445525f524f4c6040820152654520726f6c6560d01b606082015260800190565b600060208284031215613ddf57600080fd5b8151612bcc81613709565b60208082526026908201527f43616c6c6572206973206e6f74207468652045584348414e474552206f7220576040820152652920a82822a960d11b606082015260800190565b6020808252602e908201527f496e697469616c697a61626c653a20636f6e747261637420697320616c72656160408201526d191e481a5b9a5d1a585b1a5e995960921b606082015260800190565b601f821115610c8057600081815260208120601f850160051c81016020861015613ea55750805b601f850160051c820191505b81811015613ec457828155600101613eb1565b505050505050565b815167ffffffffffffffff811115613ee657613ee66138ba565b613efa81613ef48454613b33565b84613e7e565b602080601f831160018114613f2f5760008415613f175750858301515b600019600386901b1c1916600185901b178555613ec4565b600085815260208120601f198616915b82811015613f5e57888601518255948401946001909101908401613f3f565b5085821015613f7c5787850151600019600388901b60f8161c191681555b5050505050600190811b01905550565b67ffffffffffffffff831115613fa457613fa46138ba565b613fb883613fb28354613b33565b83613e7e565b6000601f841160018114613fec5760008515613fd45750838201355b600019600387901b1c1916600186901b178355614046565b600083815260209020601f19861690835b8281101561401d5786850135825560209485019460019092019101613ffd565b508682101561403a5760001960f88860031b161c19848701351681555b505060018560011b0183555b5050505050565b60208082526023908201527f4572726f72732e4d4154485f4d554c5449504c49434154494f4e5f4f564552466040820152624c4f5760e81b606082015260800190565b7f416363657373436f6e74726f6c3a206163636f756e74200000000000000000008152600083516140c88160178501602088016136b2565b7001034b99036b4b9b9b4b733903937b6329607d1b60179184019182015283516140f98160288401602088016136b2565b01602801949350505050565b634e487b7160e01b600052603160045260246000fd5b60008161412a5761412a613b6d565b506000190190565b600082516141448184602087016136b2565b919091019291505056fe189ab7a9244df0848122154315af71fe140f3db0fe014031783b0946b8c9d2e3360894a13ba1a3210667c828492db98dca3e2076cc3735a920a3ca505d382bbc416464726573733a206c6f772d6c6576656c2064656c65676174652063616c6c206661696c6564ddf252ad1be2c89b69c2b068fc378daa952ba7f163c4a11628f55a4df523b3efa2646970667358221220ff50345a7facac35f8459b3f5258efdb1032a5c09a991ef53649d3fa52d5e8de64736f6c63430008140033",
  "linkReferences": {},
  "deployedLinkReferences": {},
  "implementation": "0x0a27EA2C6Afb8af017FFB56AFa8a578C9E3A078F"
}