{
  "address": "0xe7Fe20C74E209C51671e7c54509846EF96eBA939",
  "_format": "hh-sol-artifact-1",
  "contractName": "Market",
  "sourceName": "contracts/Market.sol",
  "abi": [
    {
      "inputs": [],
      "stateMutability": "nonpayable",
      "type": "constructor"
    },
    {
      "inputs": [
        {
          "internalType": "address",
          "name": "asset",
          "type": "address"
        }
      ],
      "name": "AssetNotFound",
      "type": "error"
    },
    {
      "anonymous": false,
      "inputs": [
        {
          "indexed": false,
          "internalType": "address",
          "name": "previousAdmin",
          "type": "address"
        },
        {
          "indexed": false,
          "internalType": "address",
          "name": "newAdmin",
          "type": "address"
        }
      ],
      "name": "AdminChanged",
      "type": "event"
    },
    {
      "anonymous": false,
      "inputs": [
        {
          "indexed": true,
          "internalType": "address",
          "name": "beacon",
          "type": "address"
        }
      ],
      "name": "BeaconUpgraded",
      "type": "event"
    },
    {
      "anonymous": false,
      "inputs": [
        {
          "indexed": false,
          "internalType": "uint8",
          "name": "version",
          "type": "uint8"
        }
      ],
      "name": "Initialized",
      "type": "event"
    },
    {
      "anonymous": false,
      "inputs": [
        {
          "indexed": false,
          "internalType": "address",
          "name": "assetToken",
          "type": "address"
        }
      ],
      "name": "MarketUpdatedTokens",
      "type": "event"
    },
    {
      "anonymous": false,
      "inputs": [
        {
          "indexed": false,
          "internalType": "address",
          "name": "remoteHub",
          "type": "address"
        }
      ],
      "name": "RemoteHubUpdated",
      "type": "event"
    },
    {
      "anonymous": false,
      "inputs": [
        {
          "indexed": true,
          "internalType": "bytes32",
          "name": "role",
          "type": "bytes32"
        },
        {
          "indexed": true,
          "internalType": "bytes32",
          "name": "previousAdminRole",
          "type": "bytes32"
        },
        {
          "indexed": true,
          "internalType": "bytes32",
          "name": "newAdminRole",
          "type": "bytes32"
        }
      ],
      "name": "RoleAdminChanged",
      "type": "event"
    },
    {
      "anonymous": false,
      "inputs": [
        {
          "indexed": true,
          "internalType": "bytes32",
          "name": "role",
          "type": "bytes32"
        },
        {
          "indexed": true,
          "internalType": "address",
          "name": "account",
          "type": "address"
        },
        {
          "indexed": true,
          "internalType": "address",
          "name": "sender",
          "type": "address"
        }
      ],
      "name": "RoleGranted",
      "type": "event"
    },
    {
      "anonymous": false,
      "inputs": [
        {
          "indexed": true,
          "internalType": "bytes32",
          "name": "role",
          "type": "bytes32"
        },
        {
          "indexed": true,
          "internalType": "address",
          "name": "account",
          "type": "address"
        },
        {
          "indexed": true,
          "internalType": "address",
          "name": "sender",
          "type": "address"
        }
      ],
      "name": "RoleRevoked",
      "type": "event"
    },
    {
      "anonymous": false,
      "inputs": [
        {
          "indexed": false,
          "internalType": "address",
          "name": "asset",
          "type": "address"
        },
        {
          "indexed": false,
          "internalType": "uint256",
          "name": "amount",
          "type": "uint256"
        },
        {
          "indexed": false,
          "internalType": "address",
          "name": "receiver",
          "type": "address"
        },
        {
          "indexed": false,
          "internalType": "uint256",
          "name": "unwrappedXusdAmount",
          "type": "uint256"
        }
      ],
      "name": "Unwrap",
      "type": "event"
    },
    {
      "anonymous": false,
      "inputs": [
        {
          "indexed": true,
          "internalType": "address",
          "name": "implementation",
          "type": "address"
        }
      ],
      "name": "Upgraded",
      "type": "event"
    },
    {
      "anonymous": false,
      "inputs": [
        {
          "indexed": false,
          "internalType": "address",
          "name": "asset",
          "type": "address"
        },
        {
          "indexed": false,
          "internalType": "uint256",
          "name": "amount",
          "type": "uint256"
        },
        {
          "indexed": false,
          "internalType": "address",
          "name": "receiver",
          "type": "address"
        },
        {
          "indexed": false,
          "internalType": "uint256",
          "name": "wrappedXusdAmount",
          "type": "uint256"
        }
      ],
      "name": "Wrap",
      "type": "event"
    },
    {
      "inputs": [],
      "name": "DEFAULT_ADMIN_ROLE",
      "outputs": [
        {
          "internalType": "bytes32",
          "name": "",
          "type": "bytes32"
        }
      ],
      "stateMutability": "view",
      "type": "function"
    },
    {
      "inputs": [],
      "name": "UPGRADER_ROLE",
      "outputs": [
        {
          "internalType": "bytes32",
          "name": "",
          "type": "bytes32"
        }
      ],
      "stateMutability": "pure",
      "type": "function"
    },
    {
      "inputs": [],
      "name": "assetToken",
      "outputs": [
        {
          "internalType": "contract IERC20",
          "name": "",
          "type": "address"
        }
      ],
      "stateMutability": "view",
      "type": "function"
    },
    {
      "inputs": [
        {
          "internalType": "bytes32",
          "name": "role",
          "type": "bytes32"
        }
      ],
      "name": "getRoleAdmin",
      "outputs": [
        {
          "internalType": "bytes32",
          "name": "",
          "type": "bytes32"
        }
      ],
      "stateMutability": "view",
      "type": "function"
    },
    {
      "inputs": [
        {
          "internalType": "bytes32",
          "name": "role",
          "type": "bytes32"
        },
        {
          "internalType": "address",
          "name": "account",
          "type": "address"
        }
      ],
      "name": "grantRole",
      "outputs": [],
      "stateMutability": "nonpayable",
      "type": "function"
    },
    {
      "inputs": [
        {
          "internalType": "bytes32",
          "name": "role",
          "type": "bytes32"
        },
        {
          "internalType": "address",
          "name": "account",
          "type": "address"
        }
      ],
      "name": "hasRole",
      "outputs": [
        {
          "internalType": "bool",
          "name": "",
          "type": "bool"
        }
      ],
      "stateMutability": "view",
      "type": "function"
    },
    {
      "inputs": [
        {
          "internalType": "address",
          "name": "_remoteHub",
          "type": "address"
        }
      ],
      "name": "initialize",
      "outputs": [],
      "stateMutability": "nonpayable",
      "type": "function"
    },
    {
      "inputs": [
        {
          "internalType": "address",
          "name": "asset",
          "type": "address"
        },
        {
          "internalType": "uint256",
          "name": "amount",
          "type": "uint256"
        }
      ],
      "name": "previewUnwrap",
      "outputs": [
        {
          "internalType": "uint256",
          "name": "",
          "type": "uint256"
        }
      ],
      "stateMutability": "view",
      "type": "function"
    },
    {
      "inputs": [
        {
          "internalType": "address",
          "name": "asset",
          "type": "address"
        },
        {
          "internalType": "uint256",
          "name": "amount",
          "type": "uint256"
        }
      ],
      "name": "previewWrap",
      "outputs": [
        {
          "internalType": "uint256",
          "name": "",
          "type": "uint256"
        }
      ],
      "stateMutability": "view",
      "type": "function"
    },
    {
      "inputs": [],
      "name": "proxiableUUID",
      "outputs": [
        {
          "internalType": "bytes32",
          "name": "",
          "type": "bytes32"
        }
      ],
      "stateMutability": "view",
      "type": "function"
    },
    {
      "inputs": [],
      "name": "remoteHub",
      "outputs": [
        {
          "internalType": "contract IRemoteHub",
          "name": "",
          "type": "address"
        }
      ],
      "stateMutability": "view",
      "type": "function"
    },
    {
      "inputs": [
        {
          "internalType": "bytes32",
          "name": "role",
          "type": "bytes32"
        },
        {
          "internalType": "address",
          "name": "account",
          "type": "address"
        }
      ],
      "name": "renounceRole",
      "outputs": [],
      "stateMutability": "nonpayable",
      "type": "function"
    },
    {
      "inputs": [
        {
          "internalType": "bytes32",
          "name": "role",
          "type": "bytes32"
        },
        {
          "internalType": "address",
          "name": "account",
          "type": "address"
        }
      ],
      "name": "revokeRole",
      "outputs": [],
      "stateMutability": "nonpayable",
      "type": "function"
    },
    {
      "inputs": [
        {
          "internalType": "address",
          "name": "_remoteHub",
          "type": "address"
        }
      ],
      "name": "setRemoteHub",
      "outputs": [],
      "stateMutability": "nonpayable",
      "type": "function"
    },
    {
      "inputs": [
        {
          "internalType": "address",
          "name": "_assetToken",
          "type": "address"
        }
      ],
      "name": "setToken",
      "outputs": [],
      "stateMutability": "nonpayable",
      "type": "function"
    },
    {
      "inputs": [
        {
          "internalType": "bytes4",
          "name": "interfaceId",
          "type": "bytes4"
        }
      ],
      "name": "supportsInterface",
      "outputs": [
        {
          "internalType": "bool",
          "name": "",
          "type": "bool"
        }
      ],
      "stateMutability": "view",
      "type": "function"
    },
    {
      "inputs": [
        {
          "internalType": "address",
          "name": "asset",
          "type": "address"
        },
        {
          "internalType": "uint256",
          "name": "amount",
          "type": "uint256"
        },
        {
          "internalType": "address",
          "name": "receiver",
          "type": "address"
        }
      ],
      "name": "unwrap",
      "outputs": [
        {
          "internalType": "uint256",
          "name": "",
          "type": "uint256"
        }
      ],
      "stateMutability": "nonpayable",
      "type": "function"
    },
    {
      "inputs": [
        {
          "internalType": "address",
          "name": "newImplementation",
          "type": "address"
        }
      ],
      "name": "upgradeTo",
      "outputs": [],
      "stateMutability": "nonpayable",
      "type": "function"
    },
    {
      "inputs": [
        {
          "internalType": "address",
          "name": "newImplementation",
          "type": "address"
        },
        {
          "internalType": "bytes",
          "name": "data",
          "type": "bytes"
        }
      ],
      "name": "upgradeToAndCall",
      "outputs": [],
      "stateMutability": "payable",
      "type": "function"
    },
    {
      "inputs": [
        {
          "internalType": "address",
          "name": "asset",
          "type": "address"
        },
        {
          "internalType": "uint256",
          "name": "amount",
          "type": "uint256"
        },
        {
          "internalType": "address",
          "name": "receiver",
          "type": "address"
        }
      ],
      "name": "wrap",
      "outputs": [
        {
          "internalType": "uint256",
          "name": "",
          "type": "uint256"
        }
      ],
      "stateMutability": "nonpayable",
      "type": "function"
    }
  ],
  "bytecode": "0x60a0604052306080523480156200001557600080fd5b506200002062000026565b620000e7565b600054610100900460ff1615620000935760405162461bcd60e51b815260206004820152602760248201527f496e697469616c697a61626c653a20636f6e747261637420697320696e697469604482015266616c697a696e6760c81b606482015260840160405180910390fd5b60005460ff90811614620000e5576000805460ff191660ff9081179091556040519081527f7f26b83ff96e1f2b6a682f133852f6798a09c465da95921460cefb38474024989060200160405180910390a15b565b6080516128c66200011f6000396000818161083001528181610870015281816109e101528181610a210152610ab001526128c66000f3fe60806040526004361061011f5760003560e01c806352d1902d116100a0578063a217fddf11610064578063a217fddf14610339578063b68f43451461034e578063c4d66de81461036e578063d547741f1461038e578063f72c0d8b146103ae57600080fd5b806352d1902d146102a45780635c15155e146102b957806391d14854146102d95780639423f215146102f95780639a5bf2da1461031957600080fd5b80632f2ff15d116100e75780632f2ff15d1461021157806336568abe146102315780633659cfe614610251578063405a11dc146102715780634f1ef2861461029157600080fd5b806301ffc9a7146101245780631083f76114610159578063144fa6d714610191578063248a9ca3146101b35780632eba6021146101f1575b600080fd5b34801561013057600080fd5b5061014461013f3660046122a5565b6103cf565b60405190151581526020015b60405180910390f35b34801561016557600080fd5b5060fb54610179906001600160a01b031681565b6040516001600160a01b039091168152602001610150565b34801561019d57600080fd5b506101b16101ac3660046122e4565b610406565b005b3480156101bf57600080fd5b506101e36101ce366004612301565b60009081526065602052604090206001015490565b604051908152602001610150565b3480156101fd57600080fd5b506101e361020c36600461231a565b6104ea565b34801561021d57600080fd5b506101b161022c366004612346565b61077e565b34801561023d57600080fd5b506101b161024c366004612346565b6107a8565b34801561025d57600080fd5b506101b161026c3660046122e4565b610826565b34801561027d57600080fd5b506101b161028c3660046122e4565b610905565b6101b161029f36600461238c565b6109d7565b3480156102b057600080fd5b506101e3610aa3565b3480156102c557600080fd5b506101e36102d4366004612450565b610b56565b3480156102e557600080fd5b506101446102f4366004612346565b61100a565b34801561030557600080fd5b5060fc54610179906001600160a01b031681565b34801561032557600080fd5b506101e361033436600461231a565b611035565b34801561034557600080fd5b506101e3600081565b34801561035a57600080fd5b506101e3610369366004612450565b61125d565b34801561037a57600080fd5b506101b16103893660046122e4565b61167f565b34801561039a57600080fd5b506101b16103a9366004612346565b6117d6565b3480156103ba57600080fd5b5060008051602061282a8339815191526101e3565b60006001600160e01b03198216637965db0b60e01b148061040057506301ffc9a760e01b6001600160e01b03198316145b92915050565b61041f60008051602061282a8339815191525b3361100a565b6104445760405162461bcd60e51b815260040161043b90612492565b60405180910390fd5b6001600160a01b0381166104955760405162461bcd60e51b815260206004820152601860248201527716995c9bc81859191c995cdcc81b9bdd08185b1b1bddd95960421b604482015260640161043b565b60fb80546001600160a01b0319166001600160a01b0383169081179091556040519081527f57b9299823e737763b6cc2390e32028cf5a7bd1961b758b0b66089e839299452906020015b60405180910390a150565b60006001600160a01b0383166105125760405162461bcd60e51b815260040161043b906124d8565b816000036105325760405162461bcd60e51b815260040161043b9061251a565b600061053c6117fb565b9050600061054861186e565b905060006105546118b8565b60fb549091506001600160a01b03908116908716036106cd5760405163266d6a8360e11b8152600481018690526000906001600160a01b03841690634cdad50690602401602060405180830381865afa1580156105b5573d6000803e3d6000fd5b505050506040513d601f19601f820116820180604052508101906105d99190612551565b90506000846001600160a01b031663c12e90e96040518163ffffffff1660e01b8152600401602060405180830381865afa15801561061b573d6000803e3d6000fd5b505050506040513d601f19601f8201168201806040525081019061063f9190612551565b856001600160a01b031663965fa21e6040518163ffffffff1660e01b8152600401602060405180830381865afa15801561067d573d6000803e3d6000fd5b505050506040513d601f19601f820116820180604052508101906106a19190612551565b6106ab9084612580565b6106b59190612597565b90506106c181836125b9565b95505050505050610400565b806001600160a01b0316866001600160a01b03160361075a5760405163266d6a8360e11b8152600481018690526001600160a01b03831690634cdad506906024015b602060405180830381865afa15801561072c573d6000803e3d6000fd5b505050506040513d601f19601f820116820180604052508101906107509190612551565b9350505050610400565b60405163067c787f60e41b81526001600160a01b038716600482015260240161043b565b60008281526065602052604090206001015461079981611902565b6107a3838361190c565b505050565b6001600160a01b03811633146108185760405162461bcd60e51b815260206004820152602f60248201527f416363657373436f6e74726f6c3a2063616e206f6e6c792072656e6f756e636560448201526e103937b632b9903337b91039b2b63360891b606482015260840161043b565b6108228282611992565b5050565b6001600160a01b037f000000000000000000000000000000000000000000000000000000000000000016300361086e5760405162461bcd60e51b815260040161043b906125cc565b7f00000000000000000000000000000000000000000000000000000000000000006001600160a01b03166108b760008051602061284a833981519152546001600160a01b031690565b6001600160a01b0316146108dd5760405162461bcd60e51b815260040161043b90612618565b6108e6816119f9565b6040805160008082526020820190925261090291839190611a2c565b50565b61091c60008051602061282a833981519152610419565b6109385760405162461bcd60e51b815260040161043b90612492565b6001600160a01b0381166109895760405162461bcd60e51b815260206004820152601860248201527716995c9bc81859191c995cdcc81b9bdd08185b1b1bddd95960421b604482015260640161043b565b60fc80546001600160a01b0319166001600160a01b0383169081179091556040519081527f0acbcc2f890f48416af3a85d8a92e6b01a61ca13a98ccf21d101bf3fe06593fc906020016104df565b6001600160a01b037f0000000000000000000000000000000000000000000000000000000000000000163003610a1f5760405162461bcd60e51b815260040161043b906125cc565b7f00000000000000000000000000000000000000000000000000000000000000006001600160a01b0316610a6860008051602061284a833981519152546001600160a01b031690565b6001600160a01b031614610a8e5760405162461bcd60e51b815260040161043b90612618565b610a97826119f9565b61082282826001611a2c565b6000306001600160a01b037f00000000000000000000000000000000000000000000000000000000000000001614610b435760405162461bcd60e51b815260206004820152603860248201527f555550535570677261646561626c653a206d757374206e6f742062652063616c60448201527f6c6564207468726f7567682064656c656761746563616c6c0000000000000000606482015260840161043b565b5060008051602061284a83398151915290565b60006001600160a01b038416610b7e5760405162461bcd60e51b815260040161043b906124d8565b82600003610b9e5760405162461bcd60e51b815260040161043b9061251a565b6001600160a01b038216610bc45760405162461bcd60e51b815260040161043b90612664565b6000610bce6117fb565b90506000610bda61186e565b90506000610be66118b8565b60fb549091506000906001600160a01b0390811690891603610e6b5760fb54610c1a906001600160a01b031633308a611b97565b60fb5460405163095ea7b360e01b81526001600160a01b039091169063095ea7b390610c4d9087906000906004016126a9565b6020604051808303816000875af1158015610c6c573d6000803e3d6000fd5b505050506040513d601f19601f82011682018060405250810190610c9091906126c2565b5060fb5460405163095ea7b360e01b81526001600160a01b039091169063095ea7b390610cc39087908b906004016126a9565b6020604051808303816000875af1158015610ce2573d6000803e3d6000fd5b505050506040513d601f19601f82011682018060405250810190610d0691906126c2565b5060405163cce7ec1360e01b81526000906001600160a01b0386169063cce7ec1390610d38908c908c906004016126a9565b6020604051808303816000875af1158015610d57573d6000803e3d6000fd5b505050506040513d601f19601f82011682018060405250810190610d7b9190612551565b60405163095ea7b360e01b81529091506001600160a01b0384169063095ea7b390610dac90879085906004016126a9565b6020604051808303816000875af1158015610dcb573d6000803e3d6000fd5b505050506040513d601f19601f82011682018060405250810190610def91906126c2565b50604051636e553f6560e01b8152600481018290526001600160a01b038881166024830152851690636e553f65906044016020604051808303816000875af1158015610e3f573d6000803e3d6000fd5b505050506040513d601f19601f82011682018060405250810190610e639190612551565b915050610fa9565b816001600160a01b0316886001600160a01b031603610f8557610e996001600160a01b03831633308a611b97565b60405163095ea7b360e01b81526001600160a01b0383169063095ea7b390610ec79086908b906004016126a9565b6020604051808303816000875af1158015610ee6573d6000803e3d6000fd5b505050506040513d601f19601f82011682018060405250810190610f0a91906126c2565b50604051636e553f6560e01b8152600481018890526001600160a01b038781166024830152841690636e553f65906044016020604051808303816000875af1158015610f5a573d6000803e3d6000fd5b505050506040513d601f19601f82011682018060405250810190610f7e9190612551565b9050610fa9565b60405163067c787f60e41b81526001600160a01b038916600482015260240161043b565b604080516001600160a01b03808b168252602082018a9052881691810191909152606081018290527fdb9918e6f54663727eda47fc875748fb8691ebd19248060b18aefe3d46c55a52906080015b60405180910390a1979650505050505050565b60009182526065602090815260408084206001600160a01b0393909316845291905290205460ff1690565b60006001600160a01b03831661105d5760405162461bcd60e51b815260040161043b906124d8565b8160000361107d5760405162461bcd60e51b815260040161043b9061251a565b60006110876117fb565b9050600061109361186e565b9050600061109f6118b8565b60fb549091506001600160a01b0390811690871603611217576000836001600160a01b03166362f098956040518163ffffffff1660e01b8152600401602060405180830381865afa1580156110f8573d6000803e3d6000fd5b505050506040513d601f19601f8201168201806040525081019061111c9190612551565b846001600160a01b031663470624026040518163ffffffff1660e01b8152600401602060405180830381865afa15801561115a573d6000803e3d6000fd5b505050506040513d601f19601f8201168201806040525081019061117e9190612551565b6111889088612580565b6111929190612597565b90506001600160a01b03831663ef8b30f76111ad83896125b9565b6040518263ffffffff1660e01b81526004016111cb91815260200190565b602060405180830381865afa1580156111e8573d6000803e3d6000fd5b505050506040513d601f19601f8201168201806040525081019061120c9190612551565b945050505050610400565b806001600160a01b0316866001600160a01b03160361075a5760405163ef8b30f760e01b8152600481018690526001600160a01b0383169063ef8b30f79060240161070f565b60006001600160a01b0384166112855760405162461bcd60e51b815260040161043b906124d8565b826000036112a55760405162461bcd60e51b815260040161043b9061251a565b6001600160a01b0382166112cb5760405162461bcd60e51b815260040161043b90612664565b60006112d56117fb565b905060006112e161186e565b905060006112ed6118b8565b60fb549091506000906001600160a01b03908116908916036115115761131e6001600160a01b03841633308a611b97565b60405163095ea7b360e01b81526001600160a01b0384169063095ea7b39061134c9086908b906004016126a9565b6020604051808303816000875af115801561136b573d6000803e3d6000fd5b505050506040513d601f19601f8201168201806040525081019061138f91906126c2565b50604051635d043b2960e11b815260048101889052306024820181905260448201526000906001600160a01b0385169063ba087652906064016020604051808303816000875af11580156113e7573d6000803e3d6000fd5b505050506040513d601f19601f8201168201806040525081019061140b9190612551565b60405163095ea7b360e01b81529091506001600160a01b0384169063095ea7b39061143c90889085906004016126a9565b6020604051808303816000875af115801561145b573d6000803e3d6000fd5b505050506040513d601f19601f8201168201806040525081019061147f91906126c2565b506040516301e9a69560e41b81526001600160a01b03861690631e9a6950906114ae908c9085906004016126a9565b6020604051808303816000875af11580156114cd573d6000803e3d6000fd5b505050506040513d601f19601f820116820180604052508101906114f19190612551565b60fb5490925061150b906001600160a01b03168884611c08565b5061162d565b816001600160a01b0316886001600160a01b031603610f855761153f6001600160a01b03841633308a611b97565b60405163095ea7b360e01b81526001600160a01b0384169063095ea7b39061156d9086908b906004016126a9565b6020604051808303816000875af115801561158c573d6000803e3d6000fd5b505050506040513d601f19601f820116820180604052508101906115b091906126c2565b50604051635d043b2960e11b8152600481018890526001600160a01b03878116602483015230604483015284169063ba087652906064016020604051808303816000875af1158015611606573d6000803e3d6000fd5b505050506040513d601f19601f8201168201806040525081019061162a9190612551565b90505b604080516001600160a01b03808b168252602082018a9052881691810191909152606081018290527f10cb633fc1dd54394de83417bf67e51b0b1389a4e078c9b76a7a6492c190cd3f90608001610ff7565b600054610100900460ff161580801561169f5750600054600160ff909116105b806116b95750303b1580156116b9575060005460ff166001145b61171c5760405162461bcd60e51b815260206004820152602e60248201527f496e697469616c697a61626c653a20636f6e747261637420697320616c72656160448201526d191e481a5b9a5d1a585b1a5e995960921b606482015260840161043b565b6000805460ff19166001179055801561173f576000805461ff0019166101001790555b611747611c27565b61174f611c27565b61175a60003361190c565b61177260008051602061282a8339815191523361190c565b60fc80546001600160a01b0319166001600160a01b0384161790558015610822576000805461ff0019169055604051600181527f7f26b83ff96e1f2b6a682f133852f6798a09c465da95921460cefb38474024989060200160405180910390a15050565b6000828152606560205260409020600101546117f181611902565b6107a38383611992565b60fc546040805163697b932d60e11b815290516000926001600160a01b03169163d2f7265a9160048083019260209291908290030181865afa158015611845573d6000803e3d6000fd5b505050506040513d601f19601f8201168201806040525081019061186991906126e4565b905090565b60fc54604080516313bdd4b160e31b815290516000926001600160a01b031691639deea5889160048083019260209291908290030181865afa158015611845573d6000803e3d6000fd5b60fc5460408051632869062960e21b815290516000926001600160a01b03169163a1a418a49160048083019260209291908290030181865afa158015611845573d6000803e3d6000fd5b6109028133611c94565b611916828261100a565b6108225760008281526065602090815260408083206001600160a01b03851684529091529020805460ff1916600117905561194e3390565b6001600160a01b0316816001600160a01b0316837f2f8788117e7eff1d82e926ec794901d17c78024a50270940304540a733656f0d60405160405180910390a45050565b61199c828261100a565b156108225760008281526065602090815260408083206001600160a01b0385168085529252808320805460ff1916905551339285917ff6391f5c32d9c69d2a47ea670b442974b53935d1edc7fd64eb21e047a839171b9190a45050565b611a1060008051602061282a833981519152610419565b6109025760405162461bcd60e51b815260040161043b90612492565b7f4910fdfa16fed3260ed0e7147f7cc6da11a60208b5b9406d12a635614ffd91435460ff1615611a5f576107a383611ced565b826001600160a01b03166352d1902d6040518163ffffffff1660e01b8152600401602060405180830381865afa925050508015611ab9575060408051601f3d908101601f19168201909252611ab691810190612551565b60015b611b1c5760405162461bcd60e51b815260206004820152602e60248201527f45524331393637557067726164653a206e657720696d706c656d656e7461746960448201526d6f6e206973206e6f74205555505360901b606482015260840161043b565b60008051602061284a8339815191528114611b8b5760405162461bcd60e51b815260206004820152602960248201527f45524331393637557067726164653a20756e737570706f727465642070726f786044820152681a58589b195555525160ba1b606482015260840161043b565b506107a3838383611d89565b6040516001600160a01b0380851660248301528316604482015260648101829052611c029085906323b872dd60e01b906084015b60408051601f198184030181529190526020810180516001600160e01b03166001600160e01b031990931692909217909152611dae565b50505050565b6107a38363a9059cbb60e01b8484604051602401611bcb9291906126a9565b600054610100900460ff16611c925760405162461bcd60e51b815260206004820152602b60248201527f496e697469616c697a61626c653a20636f6e7472616374206973206e6f74206960448201526a6e697469616c697a696e6760a81b606482015260840161043b565b565b611c9e828261100a565b61082257611cab81611e83565b611cb6836020611e95565b604051602001611cc7929190612725565b60408051601f198184030181529082905262461bcd60e51b825261043b9160040161279a565b6001600160a01b0381163b611d5a5760405162461bcd60e51b815260206004820152602d60248201527f455243313936373a206e657720696d706c656d656e746174696f6e206973206e60448201526c1bdd08184818dbdb9d1c9858dd609a1b606482015260840161043b565b60008051602061284a83398151915280546001600160a01b0319166001600160a01b0392909216919091179055565b611d9283612038565b600082511180611d9f5750805b156107a357611c028383612078565b6000611e03826040518060400160405280602081526020017f5361666545524332303a206c6f772d6c6576656c2063616c6c206661696c6564815250856001600160a01b031661209d9092919063ffffffff16565b9050805160001480611e24575080806020019051810190611e2491906126c2565b6107a35760405162461bcd60e51b815260206004820152602a60248201527f5361666545524332303a204552433230206f7065726174696f6e20646964206e6044820152691bdd081cdd58d8d9595960b21b606482015260840161043b565b60606104006001600160a01b03831660145b60606000611ea4836002612580565b611eaf9060026127cd565b67ffffffffffffffff811115611ec757611ec7612376565b6040519080825280601f01601f191660200182016040528015611ef1576020820181803683370190505b509050600360fc1b81600081518110611f0c57611f0c6127e0565b60200101906001600160f81b031916908160001a905350600f60fb1b81600181518110611f3b57611f3b6127e0565b60200101906001600160f81b031916908160001a9053506000611f5f846002612580565b611f6a9060016127cd565b90505b6001811115611fe2576f181899199a1a9b1b9c1cb0b131b232b360811b85600f1660108110611f9e57611f9e6127e0565b1a60f81b828281518110611fb457611fb46127e0565b60200101906001600160f81b031916908160001a90535060049490941c93611fdb816127f6565b9050611f6d565b5083156120315760405162461bcd60e51b815260206004820181905260248201527f537472696e67733a20686578206c656e67746820696e73756666696369656e74604482015260640161043b565b9392505050565b61204181611ced565b6040516001600160a01b038216907fbc7cd75a20ee27fd9adebab32041f755214dbc6bffa90cc0225b39da2e5c2d3b90600090a250565b6060612031838360405180606001604052806027815260200161286a602791396120b4565b60606120ac848460008561212c565b949350505050565b6060600080856001600160a01b0316856040516120d1919061280d565b600060405180830381855af49150503d806000811461210c576040519150601f19603f3d011682016040523d82523d6000602084013e612111565b606091505b509150915061212286838387612207565b9695505050505050565b60608247101561218d5760405162461bcd60e51b815260206004820152602660248201527f416464726573733a20696e73756666696369656e742062616c616e636520666f6044820152651c8818d85b1b60d21b606482015260840161043b565b600080866001600160a01b031685876040516121a9919061280d565b60006040518083038185875af1925050503d80600081146121e6576040519150601f19603f3d011682016040523d82523d6000602084013e6121eb565b606091505b50915091506121fc87838387612207565b979650505050505050565b6060831561227657825160000361226f576001600160a01b0385163b61226f5760405162461bcd60e51b815260206004820152601d60248201527f416464726573733a2063616c6c20746f206e6f6e2d636f6e7472616374000000604482015260640161043b565b50816120ac565b6120ac838381511561228b5781518083602001fd5b8060405162461bcd60e51b815260040161043b919061279a565b6000602082840312156122b757600080fd5b81356001600160e01b03198116811461203157600080fd5b6001600160a01b038116811461090257600080fd5b6000602082840312156122f657600080fd5b8135612031816122cf565b60006020828403121561231357600080fd5b5035919050565b6000806040838503121561232d57600080fd5b8235612338816122cf565b946020939093013593505050565b6000806040838503121561235957600080fd5b82359150602083013561236b816122cf565b809150509250929050565b634e487b7160e01b600052604160045260246000fd5b6000806040838503121561239f57600080fd5b82356123aa816122cf565b9150602083013567ffffffffffffffff808211156123c757600080fd5b818501915085601f8301126123db57600080fd5b8135818111156123ed576123ed612376565b604051601f8201601f19908116603f0116810190838211818310171561241557612415612376565b8160405282815288602084870101111561242e57600080fd5b8260208601602083013760006020848301015280955050505050509250929050565b60008060006060848603121561246557600080fd5b8335612470816122cf565b9250602084013591506040840135612487816122cf565b809150509250925092565b60208082526026908201527f43616c6c657220646f65736e277420686176652055504752414445525f524f4c6040820152654520726f6c6560d01b606082015260800190565b60208082526022908201527f5a65726f206164647265737320666f72206173736574206e6f7420616c6c6f77604082015261195960f21b606082015260800190565b60208082526017908201527f5a65726f20616d6f756e74206e6f7420616c6c6f776564000000000000000000604082015260600190565b60006020828403121561256357600080fd5b5051919050565b634e487b7160e01b600052601160045260246000fd5b80820281158282048414176104005761040061256a565b6000826125b457634e487b7160e01b600052601260045260246000fd5b500490565b818103818111156104005761040061256a565b6020808252602c908201527f46756e6374696f6e206d7573742062652063616c6c6564207468726f7567682060408201526b19195b1959d85d1958d85b1b60a21b606082015260800190565b6020808252602c908201527f46756e6374696f6e206d7573742062652063616c6c6564207468726f7567682060408201526b6163746976652070726f787960a01b606082015260800190565b60208082526025908201527f5a65726f206164647265737320666f72207265636569766572206e6f7420616c6040820152641b1bddd95960da1b606082015260800190565b6001600160a01b03929092168252602082015260400190565b6000602082840312156126d457600080fd5b8151801515811461203157600080fd5b6000602082840312156126f657600080fd5b8151612031816122cf565b60005b8381101561271c578181015183820152602001612704565b50506000910152565b7f416363657373436f6e74726f6c3a206163636f756e742000000000000000000081526000835161275d816017850160208801612701565b7001034b99036b4b9b9b4b733903937b6329607d1b601791840191820152835161278e816028840160208801612701565b01602801949350505050565b60208152600082518060208401526127b9816040850160208701612701565b601f01601f19169190910160400192915050565b808201808211156104005761040061256a565b634e487b7160e01b600052603260045260246000fd5b6000816128055761280561256a565b506000190190565b6000825161281f818460208701612701565b919091019291505056fe189ab7a9244df0848122154315af71fe140f3db0fe014031783b0946b8c9d2e3360894a13ba1a3210667c828492db98dca3e2076cc3735a920a3ca505d382bbc416464726573733a206c6f772d6c6576656c2064656c65676174652063616c6c206661696c6564a2646970667358221220b9b8debeecb03a292bca7a2bc5f23d284ba96f8ec2823dbba4cc295df9c2832564736f6c63430008140033",
  "linkReferences": {},
  "deployedLinkReferences": {},
  "implementation": "0x8f2626E1200d9F3Df7Cb04F7BDff77315DD2aa27"
}