{
  "address": "0x29A0dc4f509873673B7682B60598d393A1e591b7",
  "_format": "hh-sol-artifact-1",
  "contractName": "WrappedXusdToken",
  "sourceName": "contracts/WrappedXusdToken.sol",
  "abi": [
    {
      "inputs": [],
      "stateMutability": "nonpayable",
      "type": "constructor"
    },
    {
      "anonymous": false,
      "inputs": [
        {
          "indexed": false,
          "internalType": "address",
          "name": "previousAdmin",
          "type": "address"
        },
        {
          "indexed": false,
          "internalType": "address",
          "name": "newAdmin",
          "type": "address"
        }
      ],
      "name": "AdminChanged",
      "type": "event"
    },
    {
      "anonymous": false,
      "inputs": [
        {
          "indexed": true,
          "internalType": "address",
          "name": "owner",
          "type": "address"
        },
        {
          "indexed": true,
          "internalType": "address",
          "name": "spender",
          "type": "address"
        },
        {
          "indexed": false,
          "internalType": "uint256",
          "name": "value",
          "type": "uint256"
        }
      ],
      "name": "Approval",
      "type": "event"
    },
    {
      "anonymous": false,
      "inputs": [
        {
          "indexed": true,
          "internalType": "address",
          "name": "beacon",
          "type": "address"
        }
      ],
      "name": "BeaconUpgraded",
      "type": "event"
    },
    {
      "anonymous": false,
      "inputs": [
        {
          "indexed": true,
          "internalType": "address",
          "name": "caller",
          "type": "address"
        },
        {
          "indexed": true,
          "internalType": "address",
          "name": "owner",
          "type": "address"
        },
        {
          "indexed": false,
          "internalType": "uint256",
          "name": "assets",
          "type": "uint256"
        },
        {
          "indexed": false,
          "internalType": "uint256",
          "name": "shares",
          "type": "uint256"
        }
      ],
      "name": "Deposit",
      "type": "event"
    },
    {
      "anonymous": false,
      "inputs": [
        {
          "indexed": false,
          "internalType": "uint8",
          "name": "version",
          "type": "uint8"
        }
      ],
      "name": "Initialized",
      "type": "event"
    },
    {
      "anonymous": false,
      "inputs": [],
      "name": "Paused",
      "type": "event"
    },
    {
      "anonymous": false,
      "inputs": [
        {
          "indexed": false,
          "internalType": "address",
          "name": "remoteHub",
          "type": "address"
        }
      ],
      "name": "RemoteHubUpdated",
      "type": "event"
    },
    {
      "anonymous": false,
      "inputs": [
        {
          "indexed": true,
          "internalType": "bytes32",
          "name": "role",
          "type": "bytes32"
        },
        {
          "indexed": true,
          "internalType": "bytes32",
          "name": "previousAdminRole",
          "type": "bytes32"
        },
        {
          "indexed": true,
          "internalType": "bytes32",
          "name": "newAdminRole",
          "type": "bytes32"
        }
      ],
      "name": "RoleAdminChanged",
      "type": "event"
    },
    {
      "anonymous": false,
      "inputs": [
        {
          "indexed": true,
          "internalType": "bytes32",
          "name": "role",
          "type": "bytes32"
        },
        {
          "indexed": true,
          "internalType": "address",
          "name": "account",
          "type": "address"
        },
        {
          "indexed": true,
          "internalType": "address",
          "name": "sender",
          "type": "address"
        }
      ],
      "name": "RoleGranted",
      "type": "event"
    },
    {
      "anonymous": false,
      "inputs": [
        {
          "indexed": true,
          "internalType": "bytes32",
          "name": "role",
          "type": "bytes32"
        },
        {
          "indexed": true,
          "internalType": "address",
          "name": "account",
          "type": "address"
        },
        {
          "indexed": true,
          "internalType": "address",
          "name": "sender",
          "type": "address"
        }
      ],
      "name": "RoleRevoked",
      "type": "event"
    },
    {
      "anonymous": false,
      "inputs": [
        {
          "indexed": true,
          "internalType": "address",
          "name": "from",
          "type": "address"
        },
        {
          "indexed": true,
          "internalType": "address",
          "name": "to",
          "type": "address"
        },
        {
          "indexed": false,
          "internalType": "uint256",
          "name": "value",
          "type": "uint256"
        }
      ],
      "name": "Transfer",
      "type": "event"
    },
    {
      "anonymous": false,
      "inputs": [],
      "name": "Unpaused",
      "type": "event"
    },
    {
      "anonymous": false,
      "inputs": [
        {
          "indexed": true,
          "internalType": "address",
          "name": "implementation",
          "type": "address"
        }
      ],
      "name": "Upgraded",
      "type": "event"
    },
    {
      "anonymous": false,
      "inputs": [
        {
          "indexed": true,
          "internalType": "address",
          "name": "caller",
          "type": "address"
        },
        {
          "indexed": true,
          "internalType": "address",
          "name": "receiver",
          "type": "address"
        },
        {
          "indexed": true,
          "internalType": "address",
          "name": "owner",
          "type": "address"
        },
        {
          "indexed": false,
          "internalType": "uint256",
          "name": "assets",
          "type": "uint256"
        },
        {
          "indexed": false,
          "internalType": "uint256",
          "name": "shares",
          "type": "uint256"
        }
      ],
      "name": "Withdraw",
      "type": "event"
    },
    {
      "inputs": [],
      "name": "DEFAULT_ADMIN_ROLE",
      "outputs": [
        {
          "internalType": "bytes32",
          "name": "",
          "type": "bytes32"
        }
      ],
      "stateMutability": "view",
      "type": "function"
    },
    {
      "inputs": [],
      "name": "UPGRADER_ROLE",
      "outputs": [
        {
          "internalType": "bytes32",
          "name": "",
          "type": "bytes32"
        }
      ],
      "stateMutability": "pure",
      "type": "function"
    },
    {
      "inputs": [
        {
          "internalType": "address",
          "name": "owner",
          "type": "address"
        },
        {
          "internalType": "address",
          "name": "spender",
          "type": "address"
        }
      ],
      "name": "allowance",
      "outputs": [
        {
          "internalType": "uint256",
          "name": "",
          "type": "uint256"
        }
      ],
      "stateMutability": "view",
      "type": "function"
    },
    {
      "inputs": [
        {
          "internalType": "address",
          "name": "spender",
          "type": "address"
        },
        {
          "internalType": "uint256",
          "name": "amount",
          "type": "uint256"
        }
      ],
      "name": "approve",
      "outputs": [
        {
          "internalType": "bool",
          "name": "",
          "type": "bool"
        }
      ],
      "stateMutability": "nonpayable",
      "type": "function"
    },
    {
      "inputs": [
        {
          "internalType": "address",
          "name": "account",
          "type": "address"
        }
      ],
      "name": "balanceOf",
      "outputs": [
        {
          "internalType": "uint256",
          "name": "",
          "type": "uint256"
        }
      ],
      "stateMutability": "view",
      "type": "function"
    },
    {
      "inputs": [
        {
          "internalType": "uint256",
          "name": "amount",
          "type": "uint256"
        }
      ],
      "name": "burn",
      "outputs": [],
      "stateMutability": "nonpayable",
      "type": "function"
    },
    {
      "inputs": [
        {
          "internalType": "uint256",
          "name": "shares",
          "type": "uint256"
        }
      ],
      "name": "convertToAssets",
      "outputs": [
        {
          "internalType": "uint256",
          "name": "",
          "type": "uint256"
        }
      ],
      "stateMutability": "view",
      "type": "function"
    },
    {
      "inputs": [
        {
          "internalType": "uint256",
          "name": "assets",
          "type": "uint256"
        }
      ],
      "name": "convertToShares",
      "outputs": [
        {
          "internalType": "uint256",
          "name": "",
          "type": "uint256"
        }
      ],
      "stateMutability": "view",
      "type": "function"
    },
    {
      "inputs": [],
      "name": "decimals",
      "outputs": [
        {
          "internalType": "uint8",
          "name": "",
          "type": "uint8"
        }
      ],
      "stateMutability": "view",
      "type": "function"
    },
    {
      "inputs": [
        {
          "internalType": "address",
          "name": "spender",
          "type": "address"
        },
        {
          "internalType": "uint256",
          "name": "subtractedValue",
          "type": "uint256"
        }
      ],
      "name": "decreaseAllowance",
      "outputs": [
        {
          "internalType": "bool",
          "name": "",
          "type": "bool"
        }
      ],
      "stateMutability": "nonpayable",
      "type": "function"
    },
    {
      "inputs": [
        {
          "internalType": "uint256",
          "name": "assets",
          "type": "uint256"
        },
        {
          "internalType": "address",
          "name": "receiver",
          "type": "address"
        }
      ],
      "name": "deposit",
      "outputs": [
        {
          "internalType": "uint256",
          "name": "",
          "type": "uint256"
        }
      ],
      "stateMutability": "nonpayable",
      "type": "function"
    },
    {
      "inputs": [],
      "name": "fixName",
      "outputs": [],
      "stateMutability": "nonpayable",
      "type": "function"
    },
    {
      "inputs": [
        {
          "internalType": "bytes32",
          "name": "role",
          "type": "bytes32"
        }
      ],
      "name": "getRoleAdmin",
      "outputs": [
        {
          "internalType": "bytes32",
          "name": "",
          "type": "bytes32"
        }
      ],
      "stateMutability": "view",
      "type": "function"
    },
    {
      "inputs": [
        {
          "internalType": "bytes32",
          "name": "role",
          "type": "bytes32"
        },
        {
          "internalType": "address",
          "name": "account",
          "type": "address"
        }
      ],
      "name": "grantRole",
      "outputs": [],
      "stateMutability": "nonpayable",
      "type": "function"
    },
    {
      "inputs": [
        {
          "internalType": "bytes32",
          "name": "role",
          "type": "bytes32"
        },
        {
          "internalType": "address",
          "name": "account",
          "type": "address"
        }
      ],
      "name": "hasRole",
      "outputs": [
        {
          "internalType": "bool",
          "name": "",
          "type": "bool"
        }
      ],
      "stateMutability": "view",
      "type": "function"
    },
    {
      "inputs": [
        {
          "internalType": "address",
          "name": "spender",
          "type": "address"
        },
        {
          "internalType": "uint256",
          "name": "addedValue",
          "type": "uint256"
        }
      ],
      "name": "increaseAllowance",
      "outputs": [
        {
          "internalType": "bool",
          "name": "",
          "type": "bool"
        }
      ],
      "stateMutability": "nonpayable",
      "type": "function"
    },
    {
      "inputs": [
        {
          "internalType": "string",
          "name": "name",
          "type": "string"
        },
        {
          "internalType": "string",
          "name": "symbol",
          "type": "string"
        },
        {
          "internalType": "uint8",
          "name": "newDecimals",
          "type": "uint8"
        },
        {
          "internalType": "address",
          "name": "_remoteHub",
          "type": "address"
        }
      ],
      "name": "initialize",
      "outputs": [],
      "stateMutability": "nonpayable",
      "type": "function"
    },
    {
      "inputs": [
        {
          "internalType": "address",
          "name": "_remoteHub",
          "type": "address"
        }
      ],
      "name": "initialize_v2",
      "outputs": [],
      "stateMutability": "nonpayable",
      "type": "function"
    },
    {
      "inputs": [
        {
          "internalType": "address",
          "name": "receiver",
          "type": "address"
        }
      ],
      "name": "maxDeposit",
      "outputs": [
        {
          "internalType": "uint256",
          "name": "",
          "type": "uint256"
        }
      ],
      "stateMutability": "view",
      "type": "function"
    },
    {
      "inputs": [
        {
          "internalType": "address",
          "name": "receiver",
          "type": "address"
        }
      ],
      "name": "maxMint",
      "outputs": [
        {
          "internalType": "uint256",
          "name": "",
          "type": "uint256"
        }
      ],
      "stateMutability": "view",
      "type": "function"
    },
    {
      "inputs": [
        {
          "internalType": "address",
          "name": "owner",
          "type": "address"
        }
      ],
      "name": "maxRedeem",
      "outputs": [
        {
          "internalType": "uint256",
          "name": "",
          "type": "uint256"
        }
      ],
      "stateMutability": "view",
      "type": "function"
    },
    {
      "inputs": [
        {
          "internalType": "address",
          "name": "owner",
          "type": "address"
        }
      ],
      "name": "maxWithdraw",
      "outputs": [
        {
          "internalType": "uint256",
          "name": "",
          "type": "uint256"
        }
      ],
      "stateMutability": "view",
      "type": "function"
    },
    {
      "inputs": [
        {
          "internalType": "address",
          "name": "account",
          "type": "address"
        },
        {
          "internalType": "uint256",
          "name": "amount",
          "type": "uint256"
        }
      ],
      "name": "mint",
      "outputs": [],
      "stateMutability": "nonpayable",
      "type": "function"
    },
    {
      "inputs": [
        {
          "internalType": "uint256",
          "name": "shares",
          "type": "uint256"
        },
        {
          "internalType": "address",
          "name": "receiver",
          "type": "address"
        }
      ],
      "name": "mint",
      "outputs": [
        {
          "internalType": "uint256",
          "name": "",
          "type": "uint256"
        }
      ],
      "stateMutability": "nonpayable",
      "type": "function"
    },
    {
      "inputs": [],
      "name": "name",
      "outputs": [
        {
          "internalType": "string",
          "name": "",
          "type": "string"
        }
      ],
      "stateMutability": "view",
      "type": "function"
    },
    {
      "inputs": [],
      "name": "pause",
      "outputs": [],
      "stateMutability": "nonpayable",
      "type": "function"
    },
    {
      "inputs": [],
      "name": "paused",
      "outputs": [
        {
          "internalType": "bool",
          "name": "",
          "type": "bool"
        }
      ],
      "stateMutability": "view",
      "type": "function"
    },
    {
      "inputs": [
        {
          "internalType": "uint256",
          "name": "assets",
          "type": "uint256"
        }
      ],
      "name": "previewDeposit",
      "outputs": [
        {
          "internalType": "uint256",
          "name": "",
          "type": "uint256"
        }
      ],
      "stateMutability": "view",
      "type": "function"
    },
    {
      "inputs": [
        {
          "internalType": "uint256",
          "name": "shares",
          "type": "uint256"
        }
      ],
      "name": "previewMint",
      "outputs": [
        {
          "internalType": "uint256",
          "name": "",
          "type": "uint256"
        }
      ],
      "stateMutability": "view",
      "type": "function"
    },
    {
      "inputs": [
        {
          "internalType": "uint256",
          "name": "shares",
          "type": "uint256"
        }
      ],
      "name": "previewRedeem",
      "outputs": [
        {
          "internalType": "uint256",
          "name": "",
          "type": "uint256"
        }
      ],
      "stateMutability": "view",
      "type": "function"
    },
    {
      "inputs": [
        {
          "internalType": "uint256",
          "name": "assets",
          "type": "uint256"
        }
      ],
      "name": "previewWithdraw",
      "outputs": [
        {
          "internalType": "uint256",
          "name": "",
          "type": "uint256"
        }
      ],
      "stateMutability": "view",
      "type": "function"
    },
    {
      "inputs": [],
      "name": "proxiableUUID",
      "outputs": [
        {
          "internalType": "bytes32",
          "name": "",
          "type": "bytes32"
        }
      ],
      "stateMutability": "view",
      "type": "function"
    },
    {
      "inputs": [],
      "name": "rate",
      "outputs": [
        {
          "internalType": "uint256",
          "name": "",
          "type": "uint256"
        }
      ],
      "stateMutability": "view",
      "type": "function"
    },
    {
      "inputs": [
        {
          "internalType": "uint256",
          "name": "shares",
          "type": "uint256"
        },
        {
          "internalType": "address",
          "name": "receiver",
          "type": "address"
        },
        {
          "internalType": "address",
          "name": "owner",
          "type": "address"
        }
      ],
      "name": "redeem",
      "outputs": [
        {
          "internalType": "uint256",
          "name": "",
          "type": "uint256"
        }
      ],
      "stateMutability": "nonpayable",
      "type": "function"
    },
    {
      "inputs": [
        {
          "internalType": "bytes32",
          "name": "role",
          "type": "bytes32"
        },
        {
          "internalType": "address",
          "name": "account",
          "type": "address"
        }
      ],
      "name": "renounceRole",
      "outputs": [],
      "stateMutability": "nonpayable",
      "type": "function"
    },
    {
      "inputs": [
        {
          "internalType": "bytes32",
          "name": "role",
          "type": "bytes32"
        },
        {
          "internalType": "address",
          "name": "account",
          "type": "address"
        }
      ],
      "name": "revokeRole",
      "outputs": [],
      "stateMutability": "nonpayable",
      "type": "function"
    },
    {
      "inputs": [
        {
          "internalType": "address",
          "name": "_remoteHub",
          "type": "address"
        }
      ],
      "name": "setRemoteHub",
      "outputs": [],
      "stateMutability": "nonpayable",
      "type": "function"
    },
    {
      "inputs": [
        {
          "internalType": "bytes4",
          "name": "interfaceId",
          "type": "bytes4"
        }
      ],
      "name": "supportsInterface",
      "outputs": [
        {
          "internalType": "bool",
          "name": "",
          "type": "bool"
        }
      ],
      "stateMutability": "view",
      "type": "function"
    },
    {
      "inputs": [],
      "name": "symbol",
      "outputs": [
        {
          "internalType": "string",
          "name": "",
          "type": "string"
        }
      ],
      "stateMutability": "view",
      "type": "function"
    },
    {
      "inputs": [],
      "name": "totalAssets",
      "outputs": [
        {
          "internalType": "uint256",
          "name": "",
          "type": "uint256"
        }
      ],
      "stateMutability": "view",
      "type": "function"
    },
    {
      "inputs": [],
      "name": "totalSupply",
      "outputs": [
        {
          "internalType": "uint256",
          "name": "",
          "type": "uint256"
        }
      ],
      "stateMutability": "view",
      "type": "function"
    },
    {
      "inputs": [
        {
          "internalType": "address",
          "name": "to",
          "type": "address"
        },
        {
          "internalType": "uint256",
          "name": "amount",
          "type": "uint256"
        }
      ],
      "name": "transfer",
      "outputs": [
        {
          "internalType": "bool",
          "name": "",
          "type": "bool"
        }
      ],
      "stateMutability": "nonpayable",
      "type": "function"
    },
    {
      "inputs": [
        {
          "internalType": "address",
          "name": "from",
          "type": "address"
        },
        {
          "internalType": "address",
          "name": "to",
          "type": "address"
        },
        {
          "internalType": "uint256",
          "name": "amount",
          "type": "uint256"
        }
      ],
      "name": "transferFrom",
      "outputs": [
        {
          "internalType": "bool",
          "name": "",
          "type": "bool"
        }
      ],
      "stateMutability": "nonpayable",
      "type": "function"
    },
    {
      "inputs": [],
      "name": "unpause",
      "outputs": [],
      "stateMutability": "nonpayable",
      "type": "function"
    },
    {
      "inputs": [
        {
          "internalType": "address",
          "name": "newImplementation",
          "type": "address"
        }
      ],
      "name": "upgradeTo",
      "outputs": [],
      "stateMutability": "nonpayable",
      "type": "function"
    },
    {
      "inputs": [
        {
          "internalType": "address",
          "name": "newImplementation",
          "type": "address"
        },
        {
          "internalType": "bytes",
          "name": "data",
          "type": "bytes"
        }
      ],
      "name": "upgradeToAndCall",
      "outputs": [],
      "stateMutability": "payable",
      "type": "function"
    },
    {
      "inputs": [
        {
          "internalType": "uint256",
          "name": "assets",
          "type": "uint256"
        },
        {
          "internalType": "address",
          "name": "receiver",
          "type": "address"
        },
        {
          "internalType": "address",
          "name": "owner",
          "type": "address"
        }
      ],
      "name": "withdraw",
      "outputs": [
        {
          "internalType": "uint256",
          "name": "",
          "type": "uint256"
        }
      ],
      "stateMutability": "nonpayable",
      "type": "function"
    },
    {
      "stateMutability": "payable",
      "type": "receive"
    }
  ],
  "bytecode": "0x60a0604052306080523480156200001557600080fd5b506200002062000026565b620000e7565b600054610100900460ff1615620000935760405162461bcd60e51b815260206004820152602760248201527f496e697469616c697a61626c653a20636f6e747261637420697320696e697469604482015266616c697a696e6760c81b606482015260840160405180910390fd5b60005460ff90811614620000e5576000805460ff191660ff9081179091556040519081527f7f26b83ff96e1f2b6a682f133852f6798a09c465da95921460cefb38474024989060200160405180910390a15b565b608051613a5f6200011f60003960008181610a7d01528181610abd01528181611084015281816110c401526111530152613a5f6000f3fe60806040526004361061028c5760003560e01c80635bc19c3f1161015a578063b3d7f6b9116100c1578063d547741f1161007a578063d547741f14610766578063d905777e14610786578063dd62ed3e146107a6578063de7ea79d146107c6578063ef8b30f714610726578063f72c0d8b146107e657600080fd5b8063b3d7f6b9146106c6578063b460af94146106e6578063ba08765214610706578063c63d75b6146104b0578063c6e6f59214610726578063ce96cb771461074657600080fd5b806394bf804d1161011357806394bf804d1461062757806395d89b41146106475780639b7d24881461065c578063a217fddf14610671578063a457c2d714610686578063a9059cbb146106a657600080fd5b80635bc19c3f1461055a5780635c975abb1461057a5780636e553f651461059c57806370a08231146105bc5780638456cb59146105f257806391d148541461060757600080fd5b8063313ce567116101fe578063405a11dc116101b7578063405a11dc146104d257806340c10f19146104f257806342966c68146105125780634cdad506146103125780634f1ef2861461053257806352d1902d1461054557600080fd5b8063313ce5671461040e57806336568abe1461043b5780633659cfe61461045b578063395093511461047b5780633f4ba83a1461049b578063402d267d146104b057600080fd5b80630a28a477116102505780630a28a4771461035257806318160ddd1461037257806323b872dd14610387578063248a9ca3146103a75780632c4e722e146103d75780632f2ff15d146103ec57600080fd5b806301e1d1141461029857806301ffc9a7146102c057806306fdde03146102f057806307a2d13a14610312578063095ea7b31461033257600080fd5b3661029357005b600080fd5b3480156102a457600080fd5b506102ad610807565b6040519081526020015b60405180910390f35b3480156102cc57600080fd5b506102e06102db3660046130ab565b61081f565b60405190151581526020016102b7565b3480156102fc57600080fd5b50610305610856565b6040516102b791906130f9565b34801561031e57600080fd5b506102ad61032d36600461312c565b6108e8565b34801561033e57600080fd5b506102e061034d36600461315a565b6108f3565b34801561035e57600080fd5b506102ad61036d36600461312c565b61090b565b34801561037e57600080fd5b506035546102ad565b34801561039357600080fd5b506102e06103a2366004613186565b610916565b3480156103b357600080fd5b506102ad6103c236600461312c565b60009081526097602052604090206001015490565b3480156103e357600080fd5b506102ad61093a565b3480156103f857600080fd5b5061040c6104073660046131c7565b6109c6565b005b34801561041a57600080fd5b5061012d54600160a01b900460ff1660405160ff90911681526020016102b7565b34801561044757600080fd5b5061040c6104563660046131c7565b6109f0565b34801561046757600080fd5b5061040c6104763660046131f7565b610a73565b34801561048757600080fd5b506102e061049636600461315a565b610b52565b3480156104a757600080fd5b5061040c610b74565b3480156104bc57600080fd5b506102ad6104cb3660046131f7565b5060001990565b3480156104de57600080fd5b5061040c6104ed3660046131f7565b610cad565b3480156104fe57600080fd5b5061040c61050d36600461315a565b610d8d565b34801561051e57600080fd5b5061040c61052d36600461312c565b610f04565b61040c61054036600461322a565b61107a565b34801561055157600080fd5b506102ad611146565b34801561056657600080fd5b5061040c6105753660046131f7565b6111f9565b34801561058657600080fd5b5061012d546102e090600160a81b900460ff1681565b3480156105a857600080fd5b506102ad6105b73660046131c7565b6113ab565b3480156105c857600080fd5b506102ad6105d73660046131f7565b6001600160a01b031660009081526033602052604090205490565b3480156105fe57600080fd5b5061040c6114d3565b34801561061357600080fd5b506102e06106223660046131c7565b611612565b34801561063357600080fd5b506102ad6106423660046131c7565b61163d565b34801561065357600080fd5b50610305611749565b34801561066857600080fd5b5061040c611758565b34801561067d57600080fd5b506102ad600081565b34801561069257600080fd5b506102e06106a136600461315a565b6117b2565b3480156106b257600080fd5b506102e06106c136600461315a565b61182d565b3480156106d257600080fd5b506102ad6106e136600461312c565b61183b565b3480156106f257600080fd5b506102ad6107013660046132ee565b611846565b34801561071257600080fd5b506102ad6107213660046132ee565b611a21565b34801561073257600080fd5b506102ad61074136600461312c565b611bd6565b34801561075257600080fd5b506102ad6107613660046131f7565b611be1565b34801561077257600080fd5b5061040c6107813660046131c7565b611c03565b34801561079257600080fd5b506102ad6107a13660046131f7565b611c28565b3480156107b257600080fd5b506102ad6107c1366004613330565b611c46565b3480156107d257600080fd5b5061040c6107e13660046133a7565b611c71565b3480156107f257600080fd5b506000805160206139c38339815191526102ad565b600061081a61081560355490565b611e0f565b905090565b60006001600160e01b03198216637965db0b60e01b148061085057506301ffc9a760e01b6001600160e01b03198316145b92915050565b60606036805461086590613442565b80601f016020809104026020016040519081016040528092919081815260200182805461089190613442565b80156108de5780601f106108b3576101008083540402835291602001916108de565b820191906000526020600020905b8154815290600101906020018083116108c157829003601f168201915b5050505050905090565b600061085082611e0f565b600033610901818585611e23565b5060019392505050565b600061085082611f47565b600033610924858285611f5b565b61092f858585611fcf565b506001949350505050565b600061094461217a565b6001600160a01b0316637a46a9c56040518163ffffffff1660e01b8152600401602060405180830381865afa158015610981573d6000803e3d6000fd5b505050506040513d601f19601f820116820180604052508101906109a5919061347c565b61081a90760a70c3c40a64e6c51999090b65f67d92400000000000006134ab565b6000828152609760205260409020600101546109e1816121e9565b6109eb83836121f3565b505050565b6001600160a01b0381163314610a655760405162461bcd60e51b815260206004820152602f60248201527f416363657373436f6e74726f6c3a2063616e206f6e6c792072656e6f756e636560448201526e103937b632b9903337b91039b2b63360891b60648201526084015b60405180910390fd5b610a6f8282612279565b5050565b6001600160a01b037f0000000000000000000000000000000000000000000000000000000000000000163003610abb5760405162461bcd60e51b8152600401610a5c906134cd565b7f00000000000000000000000000000000000000000000000000000000000000006001600160a01b0316610b046000805160206139e3833981519152546001600160a01b031690565b6001600160a01b031614610b2a5760405162461bcd60e51b8152600401610a5c90613519565b610b33816122e0565b60408051600080825260208201909252610b4f91839190612313565b50565b600033610901818585610b658383611c46565b610b6f9190613565565b611e23565b6000610b7e61247e565b9050806001600160a01b03166391d14854826001600160a01b0316635dbd733a6040518163ffffffff1660e01b8152600401602060405180830381865afa158015610bcd573d6000803e3d6000fd5b505050506040513d601f19601f82011682018060405250810190610bf1919061347c565b6040516001600160e01b031960e084901b1681526004810191909152336024820152604401602060405180830381865afa158015610c33573d6000803e3d6000fd5b505050506040513d601f19601f82011682018060405250810190610c579190613578565b610c735760405162461bcd60e51b8152600401610a5c9061359a565b61012d805460ff60a81b191690556040517fa45f47fdea8a1efdd9029a5691c7f759c32b7c698632b563573e155625d1693390600090a150565b610cc66000805160206139c38339815191525b33611612565b610ce25760405162461bcd60e51b8152600401610a5c906135e7565b6001600160a01b038116610d385760405162461bcd60e51b815260206004820152601860248201527f5a65726f2061646472657373206e6f7420616c6c6f77656400000000000000006044820152606401610a5c565b61012d80546001600160a01b0319166001600160a01b0383169081179091556040519081527f0acbcc2f890f48416af3a85d8a92e6b01a61ca13a98ccf21d101bf3fe06593fc9060200160405180910390a150565b61012d54600160a81b900460ff1615610db85760405162461bcd60e51b8152600401610a5c9061362d565b61012d54604080516336b130ab60e01b8152905133926001600160a01b0316916336b130ab9160048083019260209291908290030181865afa158015610e02573d6000803e3d6000fd5b505050506040513d601f19601f82011682018060405250810190610e26919061364c565b6001600160a01b031614610e7c5760405162461bcd60e51b815260206004820152601b60248201527f43616c6c6572206973206e6f7420746865204343495020706f6f6c00000000006044820152606401610a5c565b806000610e88826124c7565b9050610e9261217a565b6040516340c10f1960e01b8152306004820152602481018390526001600160a01b0391909116906340c10f1990604401600060405180830381600087803b158015610edc57600080fd5b505af1158015610ef0573d6000803e3d6000fd5b50505050610efe84836124db565b50505050565b61012d54600160a81b900460ff1615610f2f5760405162461bcd60e51b8152600401610a5c9061362d565b61012d54604080516336b130ab60e01b8152905133926001600160a01b0316916336b130ab9160048083019260209291908290030181865afa158015610f79573d6000803e3d6000fd5b505050506040513d601f19601f82011682018060405250810190610f9d919061364c565b6001600160a01b031614610ff35760405162461bcd60e51b815260206004820152601b60248201527f43616c6c6572206973206e6f7420746865204343495020706f6f6c00000000006044820152606401610a5c565b80610ffe338261259c565b600061100982611e0f565b905061101361217a565b604051632770a7eb60e21b8152306004820152602481018390526001600160a01b039190911690639dc29fac90604401600060405180830381600087803b15801561105d57600080fd5b505af1158015611071573d6000803e3d6000fd5b50505050505050565b6001600160a01b037f00000000000000000000000000000000000000000000000000000000000000001630036110c25760405162461bcd60e51b8152600401610a5c906134cd565b7f00000000000000000000000000000000000000000000000000000000000000006001600160a01b031661110b6000805160206139e3833981519152546001600160a01b031690565b6001600160a01b0316146111315760405162461bcd60e51b8152600401610a5c90613519565b61113a826122e0565b610a6f82826001612313565b6000306001600160a01b037f000000000000000000000000000000000000000000000000000000000000000016146111e65760405162461bcd60e51b815260206004820152603860248201527f555550535570677261646561626c653a206d757374206e6f742062652063616c60448201527f6c6564207468726f7567682064656c656761746563616c6c00000000000000006064820152608401610a5c565b506000805160206139e383398151915290565b600054600290610100900460ff1615801561121b575060005460ff8083169116105b6112375760405162461bcd60e51b8152600401610a5c90613669565b6000805461ffff191660ff83161761010017815561125361247e565b9050806001600160a01b03166391d14854826001600160a01b0316635dbd733a6040518163ffffffff1660e01b8152600401602060405180830381865afa1580156112a2573d6000803e3d6000fd5b505050506040513d601f19601f820116820180604052508101906112c6919061347c565b6040516001600160e01b031960e084901b1681526004810191909152336024820152604401602060405180830381865afa158015611308573d6000803e3d6000fd5b505050506040513d601f19601f8201168201806040525081019061132c9190613578565b6113485760405162461bcd60e51b8152600401610a5c9061359a565b5061012d8054600161ff0160a01b0319166001600160a01b0384161790556000805461ff001916905560405160ff821681527f7f26b83ff96e1f2b6a682f133852f6798a09c465da95921460cefb38474024989060200160405180910390a15050565b61012d54600090600160a81b900460ff16156113d95760405162461bcd60e51b8152600401610a5c9061362d565b826000036114235760405162461bcd60e51b815260206004820152601760248201527616995c9bc8185cdcd95d1cc81b9bdd08185b1b1bddd959604a1b6044820152606401610a5c565b6001600160a01b0382166114495760405162461bcd60e51b8152600401610a5c906136b7565b61146833308561145761217a565b6001600160a01b03169291906126d0565b60006114738461273b565b905080156114855761148583826124db565b60408051858152602081018390526001600160a01b0385169133917fdcbc1c05240f31ff3ad067ef1ee35ce4997762752e3a095284754544f4c709d791015b60405180910390a39392505050565b60006114dd61247e565b9050806001600160a01b03166391d14854826001600160a01b0316635dbd733a6040518163ffffffff1660e01b8152600401602060405180830381865afa15801561152c573d6000803e3d6000fd5b505050506040513d601f19601f82011682018060405250810190611550919061347c565b6040516001600160e01b031960e084901b1681526004810191909152336024820152604401602060405180830381865afa158015611592573d6000803e3d6000fd5b505050506040513d601f19601f820116820180604052508101906115b69190613578565b6115d25760405162461bcd60e51b8152600401610a5c9061359a565b61012d805460ff60a81b1916600160a81b1790556040517f9e87fac88ff661f02d44f95383c817fece4bce600a3dab7a54406878b965e75290600090a150565b60009182526097602090815260408084206001600160a01b0393909316845291905290205460ff1690565b61012d54600090600160a81b900460ff161561166b5760405162461bcd60e51b8152600401610a5c9061362d565b826000036116b55760405162461bcd60e51b815260206004820152601760248201527616995c9bc81cda185c995cc81b9bdd08185b1b1bddd959604a1b6044820152606401610a5c565b6001600160a01b0382166116db5760405162461bcd60e51b8152600401610a5c906136b7565b60006116e6846124c7565b905080156116fc576116fc33308361145761217a565b61170683856124db565b60408051828152602081018690526001600160a01b0385169133917fdcbc1c05240f31ff3ad067ef1ee35ce4997762752e3a095284754544f4c709d791016114c4565b60606037805461086590613442565b60408051808201909152600c81526b15dc985c1c1959081e1554d160a21b6020820152603690611788908261374a565b506040805180820190915260058152641dde1554d160da1b6020820152603790610b4f908261374a565b600033816117c08286611c46565b9050838110156118205760405162461bcd60e51b815260206004820152602560248201527f45524332303a2064656372656173656420616c6c6f77616e63652062656c6f77604482015264207a65726f60d81b6064820152608401610a5c565b61092f8286868403611e23565b600033610901818585611fcf565b6000610850826124c7565b61012d54600090600160a81b900460ff16156118745760405162461bcd60e51b8152600401610a5c9061362d565b836000036118be5760405162461bcd60e51b815260206004820152601760248201527616995c9bc8185cdcd95d1cc81b9bdd08185b1b1bddd959604a1b6044820152606401610a5c565b6001600160a01b0383166118e45760405162461bcd60e51b8152600401610a5c906136b7565b6001600160a01b03821661190a5760405162461bcd60e51b8152600401610a5c9061380a565b600061191585611f47565b90506001600160a01b03831633146119a05760006119338433611c46565b90508181101561198f5760405162461bcd60e51b815260206004820152602160248201527f576974686472617720616d6f756e74206578636565647320616c6c6f77616e636044820152606560f81b6064820152608401610a5c565b61199e8433610b6f858561384c565b505b80156119b0576119b0838261259c565b6119cd84866119bd61217a565b6001600160a01b0316919061274f565b60408051868152602081018390526001600160a01b03808616929087169133917ffbde797d201c681b91056529119e0b02407c7bb96a4a2c75c01fc9667232c8db91015b60405180910390a4949350505050565b61012d54600090600160a81b900460ff1615611a4f5760405162461bcd60e51b8152600401610a5c9061362d565b83600003611a995760405162461bcd60e51b815260206004820152601760248201527616995c9bc81cda185c995cc81b9bdd08185b1b1bddd959604a1b6044820152606401610a5c565b6001600160a01b038316611abf5760405162461bcd60e51b8152600401610a5c906136b7565b6001600160a01b038216611ae55760405162461bcd60e51b8152600401610a5c9061380a565b6001600160a01b0382163314611b64576000611b018333611c46565b905084811015611b535760405162461bcd60e51b815260206004820152601f60248201527f52656465656d20616d6f756e74206578636565647320616c6c6f77616e6365006044820152606401610a5c565b611b628333610b6f888561384c565b505b611b6e828561259c565b6000611b7985611e0f565b90508015611b8e57611b8e84826119bd61217a565b60408051828152602081018790526001600160a01b03808616929087169133917ffbde797d201c681b91056529119e0b02407c7bb96a4a2c75c01fc9667232c8db9101611a11565b60006108508261273b565b6001600160a01b03811660009081526033602052604081205461085090611e0f565b600082815260976020526040902060010154611c1e816121e9565b6109eb8383612279565b6001600160a01b038116600090815260336020526040812054610850565b6001600160a01b03918216600090815260346020908152604080832093909416825291909152205490565b600054610100900460ff1615808015611c915750600054600160ff909116105b80611cab5750303b158015611cab575060005460ff166001145b611cc75760405162461bcd60e51b8152600401610a5c90613669565b6000805460ff191660011790558015611cea576000805461ff0019166101001790555b611d5d87878080601f01602080910402602001604051908101604052809392919081815260200183838082843760009201919091525050604080516020601f8b01819004810282018101909252898152925089915088908190840183828082843760009201919091525061277f92505050565b611d656127b0565b611d6d6127b0565b611d786000336121f3565b611d906000805160206139c3833981519152336121f3565b61012d80546001600160a81b031916600160a01b60ff8616026001600160a01b031916176001600160a01b0384161790558015611071576000805461ff0019169055604051600181527f7f26b83ff96e1f2b6a682f133852f6798a09c465da95921460cefb38474024989060200160405180910390a150505050505050565b6000610850611e1c61093a565b83906127d9565b6001600160a01b038316611e855760405162461bcd60e51b8152602060048201526024808201527f45524332303a20617070726f76652066726f6d20746865207a65726f206164646044820152637265737360e01b6064820152608401610a5c565b6001600160a01b038216611ee65760405162461bcd60e51b815260206004820152602260248201527f45524332303a20617070726f766520746f20746865207a65726f206164647265604482015261737360f01b6064820152608401610a5c565b6001600160a01b0383811660008181526034602090815260408083209487168084529482529182902085905590518481527f8c5be1e5ebec7d5bd14f71427d1e84f3dd0314c0f7b2291e5b200ac8c7c3b925910160405180910390a3505050565b6000610850611f5461093a565b8390612845565b6000611f678484611c46565b90506000198114610efe5781811015611fc25760405162461bcd60e51b815260206004820152601d60248201527f45524332303a20696e73756666696369656e7420616c6c6f77616e63650000006044820152606401610a5c565b610efe8484848403611e23565b6001600160a01b0383166120335760405162461bcd60e51b815260206004820152602560248201527f45524332303a207472616e736665722066726f6d20746865207a65726f206164604482015264647265737360d81b6064820152608401610a5c565b6001600160a01b0382166120955760405162461bcd60e51b815260206004820152602360248201527f45524332303a207472616e7366657220746f20746865207a65726f206164647260448201526265737360e81b6064820152608401610a5c565b6001600160a01b0383166000908152603360205260409020548181101561210d5760405162461bcd60e51b815260206004820152602660248201527f45524332303a207472616e7366657220616d6f756e7420657863656564732062604482015265616c616e636560d01b6064820152608401610a5c565b6001600160a01b0380851660008181526033602052604080822086860390559286168082529083902080548601905591517fddf252ad1be2c89b69c2b068fc378daa952ba7f163c4a11628f55a4df523b3ef9061216d9086815260200190565b60405180910390a3610efe565b61012d5460408051632869062960e21b815290516000926001600160a01b03169163a1a418a49160048083019260209291908290030181865afa1580156121c5573d6000803e3d6000fd5b505050506040513d601f19601f8201168201806040525081019061081a919061364c565b610b4f813361292a565b6121fd8282611612565b610a6f5760008281526097602090815260408083206001600160a01b03851684529091529020805460ff191660011790556122353390565b6001600160a01b0316816001600160a01b0316837f2f8788117e7eff1d82e926ec794901d17c78024a50270940304540a733656f0d60405160405180910390a45050565b6122838282611612565b15610a6f5760008281526097602090815260408083206001600160a01b0385168085529252808320805460ff1916905551339285917ff6391f5c32d9c69d2a47ea670b442974b53935d1edc7fd64eb21e047a839171b9190a45050565b6122f76000805160206139c3833981519152610cc0565b610b4f5760405162461bcd60e51b8152600401610a5c906135e7565b7f4910fdfa16fed3260ed0e7147f7cc6da11a60208b5b9406d12a635614ffd91435460ff1615612346576109eb83612983565b826001600160a01b03166352d1902d6040518163ffffffff1660e01b8152600401602060405180830381865afa9250505080156123a0575060408051601f3d908101601f1916820190925261239d9181019061347c565b60015b6124035760405162461bcd60e51b815260206004820152602e60248201527f45524331393637557067726164653a206e657720696d706c656d656e7461746960448201526d6f6e206973206e6f74205555505360901b6064820152608401610a5c565b6000805160206139e383398151915281146124725760405162461bcd60e51b815260206004820152602960248201527f45524331393637557067726164653a20756e737570706f727465642070726f786044820152681a58589b195555525160ba1b6064820152608401610a5c565b506109eb838383612a1f565b61012d546040805162435da560e01b815290516000926001600160a01b03169162435da59160048083019260209291908290030181865afa1580156121c5573d6000803e3d6000fd5b60006108506124d461093a565b8390612a44565b6001600160a01b0382166125315760405162461bcd60e51b815260206004820152601f60248201527f45524332303a206d696e7420746f20746865207a65726f2061646472657373006044820152606401610a5c565b80603560008282546125439190613565565b90915550506001600160a01b0382166000818152603360209081526040808320805486019055518481527fddf252ad1be2c89b69c2b068fc378daa952ba7f163c4a11628f55a4df523b3ef910160405180910390a35050565b6001600160a01b0382166125fc5760405162461bcd60e51b815260206004820152602160248201527f45524332303a206275726e2066726f6d20746865207a65726f206164647265736044820152607360f81b6064820152608401610a5c565b6001600160a01b038216600090815260336020526040902054818110156126705760405162461bcd60e51b815260206004820152602260248201527f45524332303a206275726e20616d6f756e7420657863656564732062616c616e604482015261636560f01b6064820152608401610a5c565b6001600160a01b03831660008181526033602090815260408083208686039055603580548790039055518581529192917fddf252ad1be2c89b69c2b068fc378daa952ba7f163c4a11628f55a4df523b3ef910160405180910390a3505050565b6040516001600160a01b0380851660248301528316604482015260648101829052610efe9085906323b872dd60e01b906084015b60408051601f198184030181529190526020810180516001600160e01b03166001600160e01b031990931692909217909152612ad5565b600061085061274861093a565b8390612baa565b6040516001600160a01b0383166024820152604481018290526109eb90849063a9059cbb60e01b90606401612704565b600054610100900460ff166127a65760405162461bcd60e51b8152600401610a5c9061385f565b610a6f8282612c58565b600054610100900460ff166127d75760405162461bcd60e51b8152600401610a5c9061385f565b565b60008215806127e6575081155b156127f357506000610850565b6127ff826000196134ab565b83111561281e5760405162461bcd60e51b8152600401610a5c906138aa565b676765c793fa10079d601b1b61283483856138ed565b61283e91906134ab565b9392505050565b6000816000036128975760405162461bcd60e51b815260206004820152601c60248201527f4572726f72732e4d4154485f4449564953494f4e5f42595f5a45524f000000006044820152606401610a5c565b826000036128a757506000610850565b60006128b46002846134ab565b9050676765c793fa10079d601b1b6128ce8260001961384c565b6128d891906134ab565b8411156128f75760405162461bcd60e51b8152600401610a5c906138aa565b828161290e676765c793fa10079d601b1b876138ed565b6129189190613565565b61292291906134ab565b949350505050565b6129348282611612565b610a6f5761294181612c98565b61294c836020612caa565b60405160200161295d929190613904565b60408051601f198184030181529082905262461bcd60e51b8252610a5c916004016130f9565b6001600160a01b0381163b6129f05760405162461bcd60e51b815260206004820152602d60248201527f455243313936373a206e657720696d706c656d656e746174696f6e206973206e60448201526c1bdd08184818dbdb9d1c9858dd609a1b6064820152608401610a5c565b6000805160206139e383398151915280546001600160a01b0319166001600160a01b0392909216919091179055565b612a2883612e46565b600082511180612a355750805b156109eb57610efe8383612e86565b6000821580612a51575081155b15612a5e57506000610850565b81612a756002676765c793fa10079d601b1b6134ab565b612a819060001961384c565b612a8b91906134ab565b831115612aaa5760405162461bcd60e51b8152600401610a5c906138aa565b676765c793fa10079d601b1b612ac16002826134ab565b612acb84866138ed565b6128349190613565565b6000612b2a826040518060400160405280602081526020017f5361666545524332303a206c6f772d6c6576656c2063616c6c206661696c6564815250856001600160a01b0316612eab9092919063ffffffff16565b9050805160001480612b4b575080806020019051810190612b4b9190613578565b6109eb5760405162461bcd60e51b815260206004820152602a60248201527f5361666545524332303a204552433230206f7065726174696f6e20646964206e6044820152691bdd081cdd58d8d9595960b21b6064820152608401610a5c565b600081600003612bfc5760405162461bcd60e51b815260206004820152601c60248201527f4572726f72732e4d4154485f4449564953494f4e5f42595f5a45524f000000006044820152606401610a5c565b82600003612c0c57506000610850565b612c23676765c793fa10079d601b1b6000196134ab565b831115612c425760405162461bcd60e51b8152600401610a5c906138aa565b81612834676765c793fa10079d601b1b856138ed565b600054610100900460ff16612c7f5760405162461bcd60e51b8152600401610a5c9061385f565b6036612c8b838261374a565b5060376109eb828261374a565b60606108506001600160a01b03831660145b60606000612cb98360026138ed565b612cc4906002613565565b67ffffffffffffffff811115612cdc57612cdc613214565b6040519080825280601f01601f191660200182016040528015612d06576020820181803683370190505b509050600360fc1b81600081518110612d2157612d21613979565b60200101906001600160f81b031916908160001a905350600f60fb1b81600181518110612d5057612d50613979565b60200101906001600160f81b031916908160001a9053506000612d748460026138ed565b612d7f906001613565565b90505b6001811115612df7576f181899199a1a9b1b9c1cb0b131b232b360811b85600f1660108110612db357612db3613979565b1a60f81b828281518110612dc957612dc9613979565b60200101906001600160f81b031916908160001a90535060049490941c93612df08161398f565b9050612d82565b50831561283e5760405162461bcd60e51b815260206004820181905260248201527f537472696e67733a20686578206c656e67746820696e73756666696369656e746044820152606401610a5c565b612e4f81612983565b6040516001600160a01b038216907fbc7cd75a20ee27fd9adebab32041f755214dbc6bffa90cc0225b39da2e5c2d3b90600090a250565b606061283e8383604051806060016040528060278152602001613a0360279139612eba565b60606129228484600085612f32565b6060600080856001600160a01b031685604051612ed791906139a6565b600060405180830381855af49150503d8060008114612f12576040519150601f19603f3d011682016040523d82523d6000602084013e612f17565b606091505b5091509150612f288683838761300d565b9695505050505050565b606082471015612f935760405162461bcd60e51b815260206004820152602660248201527f416464726573733a20696e73756666696369656e742062616c616e636520666f6044820152651c8818d85b1b60d21b6064820152608401610a5c565b600080866001600160a01b03168587604051612faf91906139a6565b60006040518083038185875af1925050503d8060008114612fec576040519150601f19603f3d011682016040523d82523d6000602084013e612ff1565b606091505b50915091506130028783838761300d565b979650505050505050565b6060831561307c578251600003613075576001600160a01b0385163b6130755760405162461bcd60e51b815260206004820152601d60248201527f416464726573733a2063616c6c20746f206e6f6e2d636f6e74726163740000006044820152606401610a5c565b5081612922565b61292283838151156130915781518083602001fd5b8060405162461bcd60e51b8152600401610a5c91906130f9565b6000602082840312156130bd57600080fd5b81356001600160e01b03198116811461283e57600080fd5b60005b838110156130f05781810151838201526020016130d8565b50506000910152565b60208152600082518060208401526131188160408501602087016130d5565b601f01601f19169190910160400192915050565b60006020828403121561313e57600080fd5b5035919050565b6001600160a01b0381168114610b4f57600080fd5b6000806040838503121561316d57600080fd5b823561317881613145565b946020939093013593505050565b60008060006060848603121561319b57600080fd5b83356131a681613145565b925060208401356131b681613145565b929592945050506040919091013590565b600080604083850312156131da57600080fd5b8235915060208301356131ec81613145565b809150509250929050565b60006020828403121561320957600080fd5b813561283e81613145565b634e487b7160e01b600052604160045260246000fd5b6000806040838503121561323d57600080fd5b823561324881613145565b9150602083013567ffffffffffffffff8082111561326557600080fd5b818501915085601f83011261327957600080fd5b81358181111561328b5761328b613214565b604051601f8201601f19908116603f011681019083821181831017156132b3576132b3613214565b816040528281528860208487010111156132cc57600080fd5b8260208601602083013760006020848301015280955050505050509250929050565b60008060006060848603121561330357600080fd5b83359250602084013561331581613145565b9150604084013561332581613145565b809150509250925092565b6000806040838503121561334357600080fd5b823561334e81613145565b915060208301356131ec81613145565b60008083601f84011261337057600080fd5b50813567ffffffffffffffff81111561338857600080fd5b6020830191508360208285010111156133a057600080fd5b9250929050565b600080600080600080608087890312156133c057600080fd5b863567ffffffffffffffff808211156133d857600080fd5b6133e48a838b0161335e565b909850965060208901359150808211156133fd57600080fd5b5061340a89828a0161335e565b909550935050604087013560ff8116811461342457600080fd5b9150606087013561343481613145565b809150509295509295509295565b600181811c9082168061345657607f821691505b60208210810361347657634e487b7160e01b600052602260045260246000fd5b50919050565b60006020828403121561348e57600080fd5b5051919050565b634e487b7160e01b600052601160045260246000fd5b6000826134c857634e487b7160e01b600052601260045260246000fd5b500490565b6020808252602c908201527f46756e6374696f6e206d7573742062652063616c6c6564207468726f7567682060408201526b19195b1959d85d1958d85b1b60a21b606082015260800190565b6020808252602c908201527f46756e6374696f6e206d7573742062652063616c6c6564207468726f7567682060408201526b6163746976652070726f787960a01b606082015260800190565b8082018082111561085057610850613495565b60006020828403121561358a57600080fd5b8151801515811461283e57600080fd5b6020808252602d908201527f43616c6c657220646f65736e2774206861766520504f5254464f4c494f5f414760408201526c454e545f524f4c4520726f6c6560981b606082015260800190565b60208082526026908201527f43616c6c657220646f65736e277420686176652055504752414445525f524f4c6040820152654520726f6c6560d01b606082015260800190565b602080825260059082015264706175736560d81b604082015260600190565b60006020828403121561365e57600080fd5b815161283e81613145565b6020808252602e908201527f496e697469616c697a61626c653a20636f6e747261637420697320616c72656160408201526d191e481a5b9a5d1a585b1a5e995960921b606082015260800190565b60208082526025908201527f5a65726f206164647265737320666f72207265636569766572206e6f7420616c6040820152641b1bddd95960da1b606082015260800190565b601f8211156109eb57600081815260208120601f850160051c810160208610156137235750805b601f850160051c820191505b818110156137425782815560010161372f565b505050505050565b815167ffffffffffffffff81111561376457613764613214565b613778816137728454613442565b846136fc565b602080601f8311600181146137ad57600084156137955750858301515b600019600386901b1c1916600185901b178555613742565b600085815260208120601f198616915b828110156137dc578886015182559484019460019091019084016137bd565b50858210156137fa5787850151600019600388901b60f8161c191681555b5050505050600190811b01905550565b60208082526022908201527f5a65726f206164647265737320666f72206f776e6572206e6f7420616c6c6f77604082015261195960f21b606082015260800190565b8181038181111561085057610850613495565b6020808252602b908201527f496e697469616c697a61626c653a20636f6e7472616374206973206e6f74206960408201526a6e697469616c697a696e6760a81b606082015260800190565b60208082526023908201527f4572726f72732e4d4154485f4d554c5449504c49434154494f4e5f4f564552466040820152624c4f5760e81b606082015260800190565b808202811582820484141761085057610850613495565b7f416363657373436f6e74726f6c3a206163636f756e742000000000000000000081526000835161393c8160178501602088016130d5565b7001034b99036b4b9b9b4b733903937b6329607d1b601791840191820152835161396d8160288401602088016130d5565b01602801949350505050565b634e487b7160e01b600052603260045260246000fd5b60008161399e5761399e613495565b506000190190565b600082516139b88184602087016130d5565b919091019291505056fe189ab7a9244df0848122154315af71fe140f3db0fe014031783b0946b8c9d2e3360894a13ba1a3210667c828492db98dca3e2076cc3735a920a3ca505d382bbc416464726573733a206c6f772d6c6576656c2064656c65676174652063616c6c206661696c6564a264697066735822122087df4d14ddc2a1bfa38cc8a4deba91800bfb078d450cb7d907f15128dfa6352364736f6c63430008140033",
  "linkReferences": {},
  "deployedLinkReferences": {},
  "implementation": "0xdB783CD906BB4eF9DF2Aa43CcCc23c4770D100e0"
}