{
  "address": "0x8691117eD0244F340951f3f474FCeec2973EfAc7",
  "_format": "hh-sol-artifact-1",
  "contractName": "RoleManager",
  "sourceName": "contracts/RoleManager.sol",
  "abi": [
    {
      "inputs": [],
      "stateMutability": "nonpayable",
      "type": "constructor"
    },
    {
      "anonymous": false,
      "inputs": [
        {
          "indexed": false,
          "internalType": "address",
          "name": "previousAdmin",
          "type": "address"
        },
        {
          "indexed": false,
          "internalType": "address",
          "name": "newAdmin",
          "type": "address"
        }
      ],
      "name": "AdminChanged",
      "type": "event"
    },
    {
      "anonymous": false,
      "inputs": [
        {
          "indexed": true,
          "internalType": "address",
          "name": "beacon",
          "type": "address"
        }
      ],
      "name": "BeaconUpgraded",
      "type": "event"
    },
    {
      "anonymous": false,
      "inputs": [
        {
          "indexed": false,
          "internalType": "uint8",
          "name": "version",
          "type": "uint8"
        }
      ],
      "name": "Initialized",
      "type": "event"
    },
    {
      "anonymous": false,
      "inputs": [
        {
          "indexed": true,
          "internalType": "bytes32",
          "name": "role",
          "type": "bytes32"
        },
        {
          "indexed": true,
          "internalType": "bytes32",
          "name": "previousAdminRole",
          "type": "bytes32"
        },
        {
          "indexed": true,
          "internalType": "bytes32",
          "name": "newAdminRole",
          "type": "bytes32"
        }
      ],
      "name": "RoleAdminChanged",
      "type": "event"
    },
    {
      "anonymous": false,
      "inputs": [
        {
          "indexed": true,
          "internalType": "bytes32",
          "name": "role",
          "type": "bytes32"
        },
        {
          "indexed": true,
          "internalType": "address",
          "name": "account",
          "type": "address"
        },
        {
          "indexed": true,
          "internalType": "address",
          "name": "sender",
          "type": "address"
        }
      ],
      "name": "RoleGranted",
      "type": "event"
    },
    {
      "anonymous": false,
      "inputs": [
        {
          "indexed": true,
          "internalType": "bytes32",
          "name": "role",
          "type": "bytes32"
        },
        {
          "indexed": true,
          "internalType": "address",
          "name": "account",
          "type": "address"
        },
        {
          "indexed": true,
          "internalType": "address",
          "name": "sender",
          "type": "address"
        }
      ],
      "name": "RoleRevoked",
      "type": "event"
    },
    {
      "anonymous": false,
      "inputs": [
        {
          "indexed": true,
          "internalType": "address",
          "name": "implementation",
          "type": "address"
        }
      ],
      "name": "Upgraded",
      "type": "event"
    },
    {
      "inputs": [],
      "name": "DEFAULT_ADMIN_ROLE",
      "outputs": [
        {
          "internalType": "bytes32",
          "name": "",
          "type": "bytes32"
        }
      ],
      "stateMutability": "view",
      "type": "function"
    },
    {
      "inputs": [],
      "name": "EXCHANGER",
      "outputs": [
        {
          "internalType": "bytes32",
          "name": "",
          "type": "bytes32"
        }
      ],
      "stateMutability": "pure",
      "type": "function"
    },
    {
      "inputs": [],
      "name": "FREE_RIDER_ROLE",
      "outputs": [
        {
          "internalType": "bytes32",
          "name": "",
          "type": "bytes32"
        }
      ],
      "stateMutability": "pure",
      "type": "function"
    },
    {
      "inputs": [],
      "name": "PORTFOLIO_AGENT_ROLE",
      "outputs": [
        {
          "internalType": "bytes32",
          "name": "",
          "type": "bytes32"
        }
      ],
      "stateMutability": "pure",
      "type": "function"
    },
    {
      "inputs": [],
      "name": "UNIT_ROLE",
      "outputs": [
        {
          "internalType": "bytes32",
          "name": "",
          "type": "bytes32"
        }
      ],
      "stateMutability": "pure",
      "type": "function"
    },
    {
      "inputs": [],
      "name": "UPGRADER_ROLE",
      "outputs": [
        {
          "internalType": "bytes32",
          "name": "",
          "type": "bytes32"
        }
      ],
      "stateMutability": "pure",
      "type": "function"
    },
    {
      "inputs": [
        {
          "internalType": "bytes32",
          "name": "role",
          "type": "bytes32"
        }
      ],
      "name": "getRoleAdmin",
      "outputs": [
        {
          "internalType": "bytes32",
          "name": "",
          "type": "bytes32"
        }
      ],
      "stateMutability": "view",
      "type": "function"
    },
    {
      "inputs": [
        {
          "internalType": "bytes32",
          "name": "role",
          "type": "bytes32"
        },
        {
          "internalType": "uint256",
          "name": "index",
          "type": "uint256"
        }
      ],
      "name": "getRoleMember",
      "outputs": [
        {
          "internalType": "address",
          "name": "",
          "type": "address"
        }
      ],
      "stateMutability": "view",
      "type": "function"
    },
    {
      "inputs": [
        {
          "internalType": "bytes32",
          "name": "role",
          "type": "bytes32"
        }
      ],
      "name": "getRoleMemberCount",
      "outputs": [
        {
          "internalType": "uint256",
          "name": "",
          "type": "uint256"
        }
      ],
      "stateMutability": "view",
      "type": "function"
    },
    {
      "inputs": [
        {
          "internalType": "bytes32",
          "name": "role",
          "type": "bytes32"
        },
        {
          "internalType": "address",
          "name": "account",
          "type": "address"
        }
      ],
      "name": "grantRole",
      "outputs": [],
      "stateMutability": "nonpayable",
      "type": "function"
    },
    {
      "inputs": [
        {
          "internalType": "bytes32",
          "name": "role",
          "type": "bytes32"
        },
        {
          "internalType": "address",
          "name": "account",
          "type": "address"
        }
      ],
      "name": "hasRole",
      "outputs": [
        {
          "internalType": "bool",
          "name": "",
          "type": "bool"
        }
      ],
      "stateMutability": "view",
      "type": "function"
    },
    {
      "inputs": [],
      "name": "initialize",
      "outputs": [],
      "stateMutability": "nonpayable",
      "type": "function"
    },
    {
      "inputs": [],
      "name": "proxiableUUID",
      "outputs": [
        {
          "internalType": "bytes32",
          "name": "",
          "type": "bytes32"
        }
      ],
      "stateMutability": "view",
      "type": "function"
    },
    {
      "inputs": [
        {
          "internalType": "bytes32",
          "name": "role",
          "type": "bytes32"
        },
        {
          "internalType": "address",
          "name": "account",
          "type": "address"
        }
      ],
      "name": "renounceRole",
      "outputs": [],
      "stateMutability": "nonpayable",
      "type": "function"
    },
    {
      "inputs": [
        {
          "internalType": "bytes32",
          "name": "role",
          "type": "bytes32"
        },
        {
          "internalType": "address",
          "name": "account",
          "type": "address"
        }
      ],
      "name": "revokeRole",
      "outputs": [],
      "stateMutability": "nonpayable",
      "type": "function"
    },
    {
      "inputs": [
        {
          "internalType": "bytes4",
          "name": "interfaceId",
          "type": "bytes4"
        }
      ],
      "name": "supportsInterface",
      "outputs": [
        {
          "internalType": "bool",
          "name": "",
          "type": "bool"
        }
      ],
      "stateMutability": "view",
      "type": "function"
    },
    {
      "inputs": [
        {
          "internalType": "address",
          "name": "newImplementation",
          "type": "address"
        }
      ],
      "name": "upgradeTo",
      "outputs": [],
      "stateMutability": "nonpayable",
      "type": "function"
    },
    {
      "inputs": [
        {
          "internalType": "address",
          "name": "newImplementation",
          "type": "address"
        },
        {
          "internalType": "bytes",
          "name": "data",
          "type": "bytes"
        }
      ],
      "name": "upgradeToAndCall",
      "outputs": [],
      "stateMutability": "payable",
      "type": "function"
    }
  ],
  "bytecode": "0x60a06040523060805234801561001457600080fd5b5061001d610022565b6100e1565b600054610100900460ff161561008e5760405162461bcd60e51b815260206004820152602760248201527f496e697469616c697a61626c653a20636f6e747261637420697320696e697469604482015266616c697a696e6760c81b606482015260840160405180910390fd5b60005460ff908116146100df576000805460ff191660ff9081179091556040519081527f7f26b83ff96e1f2b6a682f133852f6798a09c465da95921460cefb38474024989060200160405180910390a15b565b608051611780610118600039600081816104ae015281816104ee0152818161058d015281816105cd015261065c01526117806000f3fe6080604052600436106101095760003560e01c80637559c32911610095578063a217fddf11610064578063a217fddf14610311578063bd0f105314610326578063ca15c87314610359578063d547741f14610379578063f72c0d8b1461039957600080fd5b80637559c329146102715780638129fc1c146102a45780639010d07c146102b957806391d14854146102f157600080fd5b80633659cfe6116100dc5780633659cfe6146101c3578063497d9192146101e35780634f1ef2861461021657806352d1902d146102295780635dbd733a1461023e57600080fd5b806301ffc9a71461010e578063248a9ca3146101435780632f2ff15d1461018157806336568abe146101a3575b600080fd5b34801561011a57600080fd5b5061012e610129366004611334565b6103cc565b60405190151581526020015b60405180910390f35b34801561014f57600080fd5b5061017361015e36600461135e565b60009081526065602052604090206001015490565b60405190815260200161013a565b34801561018d57600080fd5b506101a161019c366004611393565b6103f7565b005b3480156101af57600080fd5b506101a16101be366004611393565b610421565b3480156101cf57600080fd5b506101a16101de3660046113bf565b6104a4565b3480156101ef57600080fd5b507fede8101501d89b9894e78e4f219420b6ddb840e8e75dde35741a0745408476d7610173565b6101a16102243660046113f0565b610583565b34801561023557600080fd5b5061017361064f565b34801561024a57600080fd5b507fd67ad422505496469a1adf6cdf9e5ee92ac5d33992843c9ecc4b2f6d6cde9137610173565b34801561027d57600080fd5b507f262f8dca0440d5010bae937fe18daeae459dacb80622baddc3b4f10759ac952a610173565b3480156102b057600080fd5b506101a1610702565b3480156102c557600080fd5b506102d96102d43660046114b2565b610899565b6040516001600160a01b03909116815260200161013a565b3480156102fd57600080fd5b5061012e61030c366004611393565b6108b8565b34801561031d57600080fd5b50610173600081565b34801561033257600080fd5b507f3eb675f159e6ca6cf5de6bfbbc8c4521cfd428f5e9166e51094d5898504caf2d610173565b34801561036557600080fd5b5061017361037436600461135e565b6108e3565b34801561038557600080fd5b506101a1610394366004611393565b6108fa565b3480156103a557600080fd5b507f189ab7a9244df0848122154315af71fe140f3db0fe014031783b0946b8c9d2e3610173565b60006001600160e01b03198216635a05180f60e01b14806103f157506103f18261091f565b92915050565b60008281526065602052604090206001015461041281610954565b61041c838361095e565b505050565b6001600160a01b03811633146104965760405162461bcd60e51b815260206004820152602f60248201527f416363657373436f6e74726f6c3a2063616e206f6e6c792072656e6f756e636560448201526e103937b632b9903337b91039b2b63360891b60648201526084015b60405180910390fd5b6104a08282610980565b5050565b6001600160a01b037f00000000000000000000000000000000000000000000000000000000000000001630036104ec5760405162461bcd60e51b815260040161048d906114d4565b7f00000000000000000000000000000000000000000000000000000000000000006001600160a01b0316610535600080516020611704833981519152546001600160a01b031690565b6001600160a01b03161461055b5760405162461bcd60e51b815260040161048d90611520565b610564816109a2565b6040805160008082526020820190925261058091839190610a27565b50565b6001600160a01b037f00000000000000000000000000000000000000000000000000000000000000001630036105cb5760405162461bcd60e51b815260040161048d906114d4565b7f00000000000000000000000000000000000000000000000000000000000000006001600160a01b0316610614600080516020611704833981519152546001600160a01b031690565b6001600160a01b03161461063a5760405162461bcd60e51b815260040161048d90611520565b610643826109a2565b6104a082826001610a27565b6000306001600160a01b037f000000000000000000000000000000000000000000000000000000000000000016146106ef5760405162461bcd60e51b815260206004820152603860248201527f555550535570677261646561626c653a206d757374206e6f742062652063616c60448201527f6c6564207468726f7567682064656c656761746563616c6c0000000000000000606482015260840161048d565b5060008051602061170483398151915290565b600054610100900460ff16158080156107225750600054600160ff909116105b8061073c5750303b15801561073c575060005460ff166001145b61079f5760405162461bcd60e51b815260206004820152602e60248201527f496e697469616c697a61626c653a20636f6e747261637420697320616c72656160448201526d191e481a5b9a5d1a585b1a5e995960921b606482015260840161048d565b6000805460ff1916600117905580156107c2576000805461ff0019166101001790555b6107ca610b92565b6107d2610b92565b6107dd60003361095e565b6108077f189ab7a9244df0848122154315af71fe140f3db0fe014031783b0946b8c9d2e33361095e565b6108517fede8101501d89b9894e78e4f219420b6ddb840e8e75dde35741a0745408476d77fd67ad422505496469a1adf6cdf9e5ee92ac5d33992843c9ecc4b2f6d6cde9137610bff565b8015610580576000805461ff0019169055604051600181527f7f26b83ff96e1f2b6a682f133852f6798a09c465da95921460cefb38474024989060200160405180910390a150565b60008281526097602052604081206108b19083610c4a565b9392505050565b60008281526065602090815260408083206001600160a01b038516845290915281205460ff166108b1565b60008181526097602052604081206103f190610c56565b60008281526065602052604090206001015461091581610954565b61041c8383610980565b60006001600160e01b03198216637965db0b60e01b14806103f157506301ffc9a760e01b6001600160e01b03198316146103f1565b6105808133610c60565b6109688282610cb9565b600082815260976020526040902061041c9082610d3f565b61098a8282610d54565b600082815260976020526040902061041c9082610dbb565b6109cc7f189ab7a9244df0848122154315af71fe140f3db0fe014031783b0946b8c9d2e3336108b8565b6105805760405162461bcd60e51b815260206004820152602660248201527f43616c6c657220646f65736e277420686176652055504752414445525f524f4c6044820152654520726f6c6560d01b606482015260840161048d565b7f4910fdfa16fed3260ed0e7147f7cc6da11a60208b5b9406d12a635614ffd91435460ff1615610a5a5761041c83610dd0565b826001600160a01b03166352d1902d6040518163ffffffff1660e01b8152600401602060405180830381865afa925050508015610ab4575060408051601f3d908101601f19168201909252610ab19181019061156c565b60015b610b175760405162461bcd60e51b815260206004820152602e60248201527f45524331393637557067726164653a206e657720696d706c656d656e7461746960448201526d6f6e206973206e6f74205555505360901b606482015260840161048d565b6000805160206117048339815191528114610b865760405162461bcd60e51b815260206004820152602960248201527f45524331393637557067726164653a20756e737570706f727465642070726f786044820152681a58589b195555525160ba1b606482015260840161048d565b5061041c838383610e6c565b600054610100900460ff16610bfd5760405162461bcd60e51b815260206004820152602b60248201527f496e697469616c697a61626c653a20636f6e7472616374206973206e6f74206960448201526a6e697469616c697a696e6760a81b606482015260840161048d565b565b600082815260656020526040808220600101805490849055905190918391839186917fbd79b86ffe0ab8e8776151514217cd7cacd52c909f66475c3af44e129f0b00ff9190a4505050565b60006108b18383610e97565b60006103f1825490565b610c6a82826108b8565b6104a057610c7781610ec1565b610c82836020610ed3565b604051602001610c939291906115a9565b60408051601f198184030181529082905262461bcd60e51b825261048d9160040161161e565b610cc382826108b8565b6104a05760008281526065602090815260408083206001600160a01b03851684529091529020805460ff19166001179055610cfb3390565b6001600160a01b0316816001600160a01b0316837f2f8788117e7eff1d82e926ec794901d17c78024a50270940304540a733656f0d60405160405180910390a45050565b60006108b1836001600160a01b03841661106f565b610d5e82826108b8565b156104a05760008281526065602090815260408083206001600160a01b0385168085529252808320805460ff1916905551339285917ff6391f5c32d9c69d2a47ea670b442974b53935d1edc7fd64eb21e047a839171b9190a45050565b60006108b1836001600160a01b0384166110be565b6001600160a01b0381163b610e3d5760405162461bcd60e51b815260206004820152602d60248201527f455243313936373a206e657720696d706c656d656e746174696f6e206973206e60448201526c1bdd08184818dbdb9d1c9858dd609a1b606482015260840161048d565b60008051602061170483398151915280546001600160a01b0319166001600160a01b0392909216919091179055565b610e75836111b1565b600082511180610e825750805b1561041c57610e9183836111f1565b50505050565b6000826000018281548110610eae57610eae611651565b9060005260206000200154905092915050565b60606103f16001600160a01b03831660145b60606000610ee283600261167d565b610eed906002611694565b67ffffffffffffffff811115610f0557610f056113da565b6040519080825280601f01601f191660200182016040528015610f2f576020820181803683370190505b509050600360fc1b81600081518110610f4a57610f4a611651565b60200101906001600160f81b031916908160001a905350600f60fb1b81600181518110610f7957610f79611651565b60200101906001600160f81b031916908160001a9053506000610f9d84600261167d565b610fa8906001611694565b90505b6001811115611020576f181899199a1a9b1b9c1cb0b131b232b360811b85600f1660108110610fdc57610fdc611651565b1a60f81b828281518110610ff257610ff2611651565b60200101906001600160f81b031916908160001a90535060049490941c93611019816116a7565b9050610fab565b5083156108b15760405162461bcd60e51b815260206004820181905260248201527f537472696e67733a20686578206c656e67746820696e73756666696369656e74604482015260640161048d565b60008181526001830160205260408120546110b6575081546001818101845560008481526020808220909301849055845484825282860190935260409020919091556103f1565b5060006103f1565b600081815260018301602052604081205480156111a75760006110e26001836116be565b85549091506000906110f6906001906116be565b905081811461115b57600086600001828154811061111657611116611651565b906000526020600020015490508087600001848154811061113957611139611651565b6000918252602080832090910192909255918252600188019052604090208390555b855486908061116c5761116c6116d1565b6001900381819060005260206000200160009055905585600101600086815260200190815260200160002060009055600193505050506103f1565b60009150506103f1565b6111ba81610dd0565b6040516001600160a01b038216907fbc7cd75a20ee27fd9adebab32041f755214dbc6bffa90cc0225b39da2e5c2d3b90600090a250565b60606108b18383604051806060016040528060278152602001611724602791396060600080856001600160a01b03168560405161122e91906116e7565b600060405180830381855af49150503d8060008114611269576040519150601f19603f3d011682016040523d82523d6000602084013e61126e565b606091505b509150915061127f86838387611289565b9695505050505050565b606083156112f85782516000036112f1576001600160a01b0385163b6112f15760405162461bcd60e51b815260206004820152601d60248201527f416464726573733a2063616c6c20746f206e6f6e2d636f6e7472616374000000604482015260640161048d565b5081611302565b611302838361130a565b949350505050565b81511561131a5781518083602001fd5b8060405162461bcd60e51b815260040161048d919061161e565b60006020828403121561134657600080fd5b81356001600160e01b0319811681146108b157600080fd5b60006020828403121561137057600080fd5b5035919050565b80356001600160a01b038116811461138e57600080fd5b919050565b600080604083850312156113a657600080fd5b823591506113b660208401611377565b90509250929050565b6000602082840312156113d157600080fd5b6108b182611377565b634e487b7160e01b600052604160045260246000fd5b6000806040838503121561140357600080fd5b61140c83611377565b9150602083013567ffffffffffffffff8082111561142957600080fd5b818501915085601f83011261143d57600080fd5b81358181111561144f5761144f6113da565b604051601f8201601f19908116603f01168101908382118183101715611477576114776113da565b8160405282815288602084870101111561149057600080fd5b8260208601602083013760006020848301015280955050505050509250929050565b600080604083850312156114c557600080fd5b50508035926020909101359150565b6020808252602c908201527f46756e6374696f6e206d7573742062652063616c6c6564207468726f7567682060408201526b19195b1959d85d1958d85b1b60a21b606082015260800190565b6020808252602c908201527f46756e6374696f6e206d7573742062652063616c6c6564207468726f7567682060408201526b6163746976652070726f787960a01b606082015260800190565b60006020828403121561157e57600080fd5b5051919050565b60005b838110156115a0578181015183820152602001611588565b50506000910152565b7f416363657373436f6e74726f6c3a206163636f756e74200000000000000000008152600083516115e1816017850160208801611585565b7001034b99036b4b9b9b4b733903937b6329607d1b6017918401918201528351611612816028840160208801611585565b01602801949350505050565b602081526000825180602084015261163d816040850160208701611585565b601f01601f19169190910160400192915050565b634e487b7160e01b600052603260045260246000fd5b634e487b7160e01b600052601160045260246000fd5b80820281158282048414176103f1576103f1611667565b808201808211156103f1576103f1611667565b6000816116b6576116b6611667565b506000190190565b818103818111156103f1576103f1611667565b634e487b7160e01b600052603160045260246000fd5b600082516116f9818460208701611585565b919091019291505056fe360894a13ba1a3210667c828492db98dca3e2076cc3735a920a3ca505d382bbc416464726573733a206c6f772d6c6576656c2064656c65676174652063616c6c206661696c6564a2646970667358221220e30c820fc3e3b96343f34f772aed2b9beb3a96f5049cbb4f68d77d7938ae565464736f6c63430008140033",
  "linkReferences": {},
  "deployedLinkReferences": {},
  "implementation": "0x09d39311b962aA803D32BD79DAA3Fe3ae9E5E579"
}